:020000040800F2
:100000006842002045010008B904000849040008BE
:10001000B5040008F90100089B1300080000000067
:1000200000000000000000000000000015070008AC
:10003000FD010008000000006D050008FD07000834
:100040005F0100085F0100085F0100085F01000810
:100050005F0100085F0100085F0100085F01000800
:100060005F0100085F0100085F0100085F010008F0
:100070005F0100085F0100085F0100085F010008E0
:100080005F0100085F0100085F0100085F010008D0
:100090005F0100085F0100085F0100085F010008C0
:1000A0005F0100085F0100085F0100085F010008B0
:1000B000610800085F0100085F0100085F01000897
:1000C0005F0100085F0100085F0100085F01000890
:1000D0005F010008BD0B00085F0100086D0E0008FD
:1000E0005F0100085F0100085F0100085F01000870
:1000F0005F0100085F0100085F0100085F01000860
:100100005F0100085F0100085F0100085F0100084F
:100110005F0100085F0100085F0100085F0100083F
:100120005F0100085F0100085F0100085F0100082F
:10013000DFF80CD000F020F800480047D513000885
:10014000684200200648804706480047FEE7FEE771
:10015000FEE7FEE7FEE7FEE7FEE7FEE7FEE7FEE777
:100160000108000831010008421C10F8011B002999
:10017000FBD1801A70470000064C074D06E0E0688E
:1001800040F0010394E8070098471034AC42F6D3DE
:10019000FFF7D2FFEC1500080C16000870B501EB54
:1001A000020410F8015B15F0070301D110F8013BC0
:1001B0002A1106D110F8012B03E010F8016B01F8A9
:1001C000016B5B1EF9D12B0705D40023521E0FD4FF
:1001D00001F8013BFAE710F8013B02F10202A1EB42
:1001E000030303E013F8015B01F8015B521EF9D52C
:1001F000A142D6D3002070BD00BFFEE7704700E0EB
:10020000401E0028FCD1704708B50121202000F0D5
:10021000CFF94FF6FF70ADF8000003208DF8020013
:1002200048208DF803006946014800F003F808BD36
:10023000001401402DE9F04102460025002600206F
:1002400000230024002791F803C00CF00F0591F85B
:1002500003C01CF0100F03D091F802C04CEA050552
:1002600091F800C0BCF1000F31D0146800202BE0E1
:100270004FF0010C0CFA00F3B1F800C00CEA0306D1
:100280009E4220D183004FF00F0C0CFA03F7BC43C1
:1002900005FA03FC4CEA040491F803C0BCF1280FF2
:1002A00006D14FF0010C0CFA00FCC2F814C00AE0B1
:1002B00091F803C0BCF1480F05D14FF0010C0CFAC6
:1002C00000FCC2F810C0401C0828D1D31460B1F85B
:1002D00000C0BCF1FF0F34DD546800202EE000F1B7
:1002E000080C4FF0010808FA0CF3B1F800C00CEA52
:1002F00003069E4221D183004FF00F0C0CFA03F746
:10030000BC4305FA03FC4CEA040491F803C0BCF1B9
:10031000280F05D100F1080C08FA0CF8C2F8148077
:1003200091F803C0BCF1480F07D100F1080C4FF061
:10033000010808FA0CF8C2F81080401C0828CED337
:100340005460BDE8F0810146886880B27047416121
:100350007047016170470000F0B590B0014642F26D
:100360000F76B14201DD10B0F0BD4FF47A7691FB0B
:10037000F6F6F5B24FF47A7691FBF6F706FB171610
:10038000642796FBF7F6F2B2642691FBF6F706FBBC
:1003900017160A2796FBF7F6F3B20A2691FBF6F733
:1003A00006FB1716F4B2092D05DC092A03DC092B1C
:1003B00001DC092C00DDD6E7002019E0204E06EB19
:1003C0000516365C36061E4F07EB02173F5C46EA01
:1003D00007461B4F07EB03173F5C46EA0726184FFB
:1003E00007EB04173F5C3E434DF82060461CF0B21B
:1003F0001028E3DB00201EE05DF82060360EDFF8F9
:1004000044C00CF820605DF82060C6F30747860002
:10041000761C0CF806703DF82060C6F307278600AE
:10042000B61C0CF806701DF820708600F61C0CF83F
:100430000670461CF0B21028DEDB00BF93E7000018
:10044000660100202402002000BFFEE710B545F23F
:10045000555000F029F8062000F01AF840F20D304F
:1004600000F01CF800F00CF800F002F810BD0000DD
:100470004CF6CC4001490860704700000030004055
:100480004AF6AA2001490860704700000030004089
:100490000149486070470000003000400149886011
:1004A00070470000003000400149086070470000BC
:1004B0000030004000BFFEE7704708B54FF4C06051
:1004C00000F04AF81C208DF8000001208DF8010092
:1004D00008208DF8020001208DF80300684600F026
:1004E00001F808BD70B5002100230F22C4780CB3B9
:1004F000164C246804F4E064C4F5E064210AC1F1F8
:100500000403CA40447804FA03F184781440214378
:1005100009010F4C0678A155047804F01F05012449
:10052000AC4005786D114FF0E02606EB8505C5F867
:10053000004109E0047804F01F050124AC40054D9A
:100540000678761145F8264070BD00000CED00E0FD
:1005500000E400E080E100E002490143024A11604A
:10056000704700000000FA050CED00E07047000045
:1005700029B1064AD2690243044BDA6104E0034A16
:10058000D2698243014BDA617047000000100240DB
:1005900029B1064A12690243044B1A6104E0034A76
:1005A00012698243014B1A6170470000001002403B
:1005B00029B1064A92690243044B9A6104E0034A56
:1005C00092698243014B9A6170470000001002401B
:1005D00029B1064AD2680243044BDA6004E0034AB8
:1005E000D2688243014BDA6070470000001002407D
:1005F0000348406A40F0807001494862704700003B
:100600000010024030B500210022002400232D4DAF
:100610006D6805F00C0121B1042905D0082923D10A
:1006200005E0294D056022E0274D05601FE0254DBE
:100630006D6805F47012234D6D6805F48034022551
:1006400005EB92421CB9214D554305600BE01D4D51
:100650006D6815F4003F03D01C4D5543056002E062
:10066000194D5543056002E0174D056000BF00BFFE
:10067000144D6D6805F0F0010909154D6B5C0568B6
:10068000DD4045600F4D6D6805F4E061090A104DCD
:100690006B5C4568DD4085600A4D6D6805F460510E
:1006A000C90A0B4D6B5C4568DD40C560054D6D6842
:1006B00005F44041890B074D6B5CC568B5FBF3F54C
:1006C000056130BD0010024000127A0000093D00B3
:1006D0000E0000201E00002010B50146002200235D
:1006E00000204A11012A02D1094C236806E0022A9F
:1006F00002D1074C236A01E0054C636A01F01F0236
:10070000012494401C4201D0012000E0002010BDD3
:1007100000100240704710B500F002F810BD000054
:100720000CB50020019000903248006840F4803001
:100730003049086000BF2F48006800F40030009086
:100740000198401C0190009818B90198B0F5A06F6D
:10075000F1D12848006810F4003F02D00120009039
:1007600001E0002000900098012842D12248006852
:1007700040F01000204908600846006820F003009F
:1007800008600846006840F00200086019484068A8
:10079000184948600846406848600846406840F488
:1007A000806048600846406820F47C104860084635
:1007B000406840F4E81048600846006840F08070E7
:1007C000086000BF0B48006810F0007FFAD00948AD
:1007D000406820F00300074948600846406840F040
:1007E0000200486000BF0348406800F00C00082881
:1007F000F9D10CBD001002400020024070470000FB
:1008000010B51348006840F001001149086008461F
:100810004068104908400E494860084600680E4983
:1008200008400B4908600846006820F480200860F2
:100830000846406820F4FE0048604FF41F008860BE
:10084000FFF769FF4FF000600449086010BD000029
:10085000001002400000FFF8FFFFF6FE08ED00E088
:1008600010B50121880700F03DF940B1012188074A
:1008700000F00DF802480168024800F0EFFD10BDDD
:100880000802002024020020CA4302827047CA43A3
:100890000282704721B1028842F00102028004E026
:1008A00002884FF6FE731A40028070470EB5012190
:1008B0000846FFF75DFE4FF0804000F01FF81E2055
:1008C000ADF8040048F69F40ADF800000020ADF8F8
:1008D0000600ADF8020069464FF0804000F01CF9B8
:1008E00001218807FFF7D0FF01221146900700F091
:1008F0000AF901218807FFF7CDFF0EBD10B50446A8
:100900006848844208D10121C014FFF761FE00212C
:10091000E014FFF75DFEC4E0B4F1804F08D101217F
:100920000846FFF735FE00210120FFF731FEB8E051
:100930005D48844208D101210220FFF729FE0021F1
:100940000220FFF725FEACE05848844208D101217F
:100950000420FFF71DFE00210420FFF719FEA0E090
:100960005348844208D101210820FFF711FE0021DD
:100970000820FFF70DFE94E04E48844208D1012183
:100980001020FFF705FE00211020FFF701FE88E090
:100990004948844208D101212020FFF7F9FD0021B8
:1009A0002020FFF7F5FD7CE04448844208D1012176
:1009B0004014FFF70DFE00216014FFF709FE70E000
:1009C0003F48844209D10121C804FFF701FE0021FC
:1009D0004FF40020FFF7FCFD63E03A48844209D160
:1009E00001210805FFF7F4FD00214FF48010FFF707
:1009F000EFFD56E03448844209D101214805FFF754
:100A0000E7FD00214FF40010FFF7E2FD49E02F4819
:100A1000844208D101214020FFF7BAFD0021402087
:100A2000FFF7B6FD3DE02A48844208D1012180202D
:100A3000FFF7AEFD00218020FFF7AAFD31E0254839
:100A4000844208D101218015FFF7A2FD0021A015E5
:100A5000FFF79EFD25E02048844209D101210804CA
:100A6000FFF7B6FD00214FF48030FFF7B1FD18E02D
:100A70001A48844209D101214804FFF7A9FD002149
:100A80004FF40030FFF7A4FD0BE01548844208D175
:100A900001218804FFF79CFD00214FF48020FFF71F
:100AA00097FD10BD002C01400004004000080040EC
:100AB000000C0040001000400014004000340140D1
:100AC000004C01400050014000540140001800401B
:100AD000001C004000200040004001400044014054
:100AE0000048014030B50246002000230024158A4A
:100AF00005EA0103958905EA010413B10CB101204F
:100B000000E0002030BD1AB183890B43838102E0ED
:100B100083898B4383817047002202881D4B984252
:100B20000ED01D4B98420BD0B0F1804F08D01B4B1C
:100B3000984205D01A4B984202D01A4B984204D1E1
:100B40004FF68F731A404B881A43174B984207D0C1
:100B5000164B984204D04FF6FF431A40CB881A43F5
:100B600002808B8883850B8803850A4B98420BD0C3
:100B7000094B984208D00E4B984205D00D4B984235
:100B800002D00D4B984201D10B7A03860123838258
:100B900070470000002C0140003401400004004078
:100BA00000080040000C004000100040001400400D
:100BB00000400140004401400048014010B540F2AF
:100BC0002551744800F024FB002879D040F22551CB
:100BD000704800F0B3FA6F4800F0D6FB6E49087019
:100BE000084601786B4800F0D4FB6B4800782F284A
:100BF0001DD16A480078032815D100206749087084
:100C0000674908706749087009E000206649654A2D
:100C10001278885463480078401C62490870614823
:100C200000780C28F1DB01205C4908707FE05B480C
:100C30000078012807D158480078502803D10220B5
:100C40005649087073E055480078022803DA0020FE
:100C5000524908706BE051480078022803D1032004
:100C60004E49087063E04D48007803285FD14A4838
:100C700000783E285BD100204B49494A12788854BD
:100C800046490870464908704748FFF76DFA07283B
:100C900017D0002041490870414908704149087047
:100CA00009E0002040493F4A127888543D480078C6
:100CB000401C3C4908703B4800780C28F1DB10BD13
:100CC0004FE000F07BFB38484078303836490978EF
:100CD000303901EB810100EB410034490988884239
:100CE00012D1314909793039642251432E4A52795F
:100CF000303A02EB820201EB42022B49897930390A
:100D0000114488B2FFF728FB00202649087009E04B
:100D100000212548234A1278815422480078401C3B
:100D2000204908701F4800780C28F1DBC7E71B48F2
:100D3000007803282CD118480078302812DB164898
:100D400000783A280EDA1648007808280ADA12489D
:100D50000178134802780078401C114B1870124833
:100D6000815415E000200D4908700D4908700D49A7
:100D7000087009E000210C480A4A12788154094899
:100D80000078401C07490870064800780C28F1DB01
:100D900000BF94E700380140080000200600002052
:100DA00009000020070000200C02002004000020A1
:100DB00000B587B0012144F20400FFF7F9FB4FF4BE
:100DC0000070ADF8180018208DF81B0003208DF876
:100DD0001A0006A92348FFF72DFA4FF48060ADF8FA
:100DE000180004208DF81B0003208DF81A0006A9B6
:100DF0001C48FFF71FFA4FF4E13002900020ADF8D5
:100E00000C00ADF80E00ADF81000ADF814000C2089
:100E1000ADF8120002A9144800F04AFA012240F28B
:100E20002551114800F01EFA002240F227710E48A9
:100E300000F018FA01210C4800F08FF94FF4C0605F
:100E4000FFF78AFB25208DF8040000208DF80500AF
:100E50008DF8060001208DF8070001A8FFF742FB7E
:100E600007B000BD000801400038014010B540F255
:100E70002551794800F0CCF9002879D040F225516D
:100E8000754800F05BF9744800F07EFA7349087009
:100E900008460178724800F07CFA704800782F28E4
:100EA0001DD170480078032815D100206D490870C5
:100EB0006D4908706D49087009E000206C496B4A63
:100EC0001278885469480078401C6849087067485F
:100ED00000780C28F1DB01206249087089E0614844
:100EE0000078012807D15D480078502803D10220FE
:100EF0005C4908707DE05B480078022803DA002036
:100F00005849087075E057480078022803D103203B
:100F1000544908706DE053480078032869D14F4860
:100F200000783E2865D1002051494F4A12788854F4
:100F30004C4908704C4908704D48FFF715F90828CE
:100F400017D0002047490870474908704749087082
:100F500009E000214648454A127881544348007808
:100F6000401C42490870414800780C28F1DB10BD54
:100F700059E000F023FA3E48407830383C4909787F
:100F8000303901EB810100EB41003A490988884280
:100F90001CD13749097930394FF47A725143344AB8
:100FA0005279303A02EBC20303EB021201EB8202E8
:100FB0002F498979303901EB810102EB41022C493B
:100FC000C9793039114488B2FFF7C6F900202749A2
:100FD000087009E000212648244A127881542348E9
:100FE0000078401C21490870204800780C28F1DB6B
:100FF000BDE71C48007803282CD118480078302819
:1010000012DB164800783A280EDA174800780828CC
:101010000ADA12480178144802780078401C124B12
:1010200018701348815415E000200E4908700E49CD
:1010300008700E49087009E000200D490B4A12782B
:1010400088540A480078401C08490870074800780E
:101050000C28F1DB00BF8AE7004800400C000020AC
:10106000003801400A0000200D0000200B00002085
:10107000180200200400002000B587B02D4800F0C1
:1010800079F801210920FFF793FA01218804FFF77D
:101090006FFA0420ADF8180010208DF81B00032013
:1010A0008DF81A0006A92448FFF7C4F84FF4006031
:1010B000ADF8180003208DF81A0004208DF81B00ED
:1010C00006A91D48FFF7B6F84FF41650029000200D
:1010D000ADF80C00ADF80E00ADF81000ADF814003E
:1010E0000420ADF8120002A9124800F0E1F8012234
:1010F00040F225510F4800F0B5F801210D4800F0ED
:101100002CF84FF4C060FFF727FA27208DF8040071
:1011100000208DF805008DF8060001208DF80700ED
:1011200001A8FFF7DFF904210348FFF710F907B022
:1011300000BD000000480040000C014010B5002236
:101140000023A1F510646A3C00D100BF0A120124FB
:101150009440A3B2DC43048010BD21B1828942F4E3
:101160000052828104E082894DF6FF731A40828129
:101170007047000010B504462048844209D101217F
:101180008803FFF725FA00214FF48040FFF720FA8B
:1011900032E01B48844209D101214804FFF7F8F9E5
:1011A00000214FF40030FFF7F3F925E015488442A1
:1011B00009D101218804FFF7EBF900214FF48020C9
:1011C000FFF7E6F918E01048844209D10121C8046C
:1011D000FFF7DEF900214FF40020FFF7D9F90BE00B
:1011E0000A48844208D101210805FFF7D1F90021FE
:1011F0004FF48010FFF7CCF910BD0000003801401B
:101200000044004000480040004C004000500040B6
:1012100070B502460024002300250020A1F51066C9
:101220006A3E00D100BFC1F3421501F01F03012641
:1012300006FA03F3012D02D19689334006E0022D10
:1012400002D1168A334001E0968A33400C120126FF
:1012500006FA04F41688344013B10CB1012000E002
:10126000002070BDF0B503460024002600250020B4
:10127000A1F510676A3F00D100BF1846C1F34214C0
:1012800001F01F06012707FA06F5012C01D10C30E9
:1012900004E0022C01D1103000E014301AB10768CC
:1012A0002F43076002E00768AF430760F0BD00000E
:1012B0002DE9F04786B005460E460024A24600BF41
:1012C000A1460027B08900B100BF2F462C8A4CF6FA
:1012D000FF700440F08804432C82AC894EF6F31072
:1012E0000440B08831890843718908430443AC81C4
:1012F000AC8A4FF6FF400440B0890443AC8201A899
:10130000FFF780F91F48874202D1DDF810A001E005
:10131000DDF80CA0A88910F4004F08D00AEBCA0031
:1013200000EB0A1031684900B0FBF1F807E00AEB66
:10133000CA0000EB0A1031688900B0FBF1F86420A4
:10134000B8FBF0F004012009642101FB1089A88991
:1013500010F4004F08D0322000EBC900B0FBF1F0D0
:1013600000F00700044308E0322000EB091064217C
:10137000B0FBF1F000F00F0004432C8106B0BDE893
:10138000F08700000038014001468888C0F308005B
:101390007047C1F308028280704700BFFEE702E099
:1013A00008C8121F08C1002AFAD1704770470020F0
:1013B00001E001C1121F002AFBD1704710B503489C
:1013C000FEF7C1FFC0B20249088010BD0014014001
:1013D00004000020FEF718FFFFF7F0FF00F072F89E
:1013E000FFF76BF8FFF762FA0F480088FEF7B4FFCB
:1013F0000E48FEF704FFFFF729F87D20FFF76CF990
:1014000008B1FFF7F5F8FFF737FE04210848FEF7AB
:101410009EFFFFF7CDFC06E0FFF732F8FFF7CEFFA7
:101420000448FEF7ECFEF7E704000020C0C62D00DC
:10143000000C0140A086010001B502E00098401EAA
:10144000009000980028F9D108BD000010B50421D3
:101450000148FEF77EFF10BD001801402DE9F04164
:1014600007468846002421E0FFF7F0FFE0B200F0D5
:1014700077F800260EE0002509E03021A1EB0511E8
:10148000314401EB8401785C00F08CF86D1C042D74
:10149000F3D3761C042EEED300F056F800F00AF8D1
:1014A0004046FFF7C9FFFFF7D1FF641C042CDBD3D4
:1014B000BDE8F08110B504210148FEF748FF10BDDA
:1014C0000018014008B501211020FFF771F8012133
:1014D0004020FFF76DF801210820FFF769F8202070
:1014E000ADF8000003208DF8020010208DF80300F5
:1014F00069461248FEF79EFE4FF40050ADF800001A
:1015000003208DF8020010208DF8030069460C4876
:10151000FEF790FE7C20ADF8000003208DF802005D
:1015200010208DF8030069460648FEF783FE4FF44D
:1015300000510348FEF70DFF08BD0000000C0140FC
:10154000001001400018014010B540210348FEF78B
:1015500000FF40210148FEF7FAFE10BD00180140CF
:1015600010B50446032C00DD10BD14F0010F04D0AB
:1015700008210B48FEF7EBFE03E008210848FEF7C0
:10158000E8FEC4F3400020B110210548FEF7DFFE5D
:1015900003E010210248FEF7DCFE00BFE4E7000094
:1015A0000018014070B50446072500BF44FA05F055
:1015B00010F0010F04D020210A48FEF7CAFE03E014
:1015C00020210848FEF7C3FE20210748FEF7C1FE90
:1015D00020210548FEF7BBFE2800A5F10101CDB290
:1015E000E4D170BD000C0140001801400C16000849
:1015F000000000200C0200009C01000844170008B5
:101600000C0200205C400000AE13000801122D0106
:101610000203040418090607080902040608123127
:10162000121C1222126312418BC180021A41121A3B
:10163000221A41120C1A3C04091202523F123C12A7
:101640007E12C712831A030212021A04021208122F
:10165000105620807F80FF121E12273A431C120C66
:10166000121F12072C038001021962527C293812C2
:1016700007120B1A13021A232A12832BFFC01429F4
:1016800002411C0F801F501238123E5A0F3C111994
:101690000212016A624013800C121812301260129A
:1016A0005E12E35AC3C21A6160521E147F807F1A11
:1016B00081EA3A020229A029A2290252101A3E2ADE
:1016C00029321CE18073CC121E5A67441A631A49EE
:1016D000E01A639649565EE18061803FCC12185251
:1016E000E04C182442015324185C08380801521CAD
:1016F000480C384442020204081020427E501A422C
:101700000E1B1C02145278500C040C141424448434
:10171000FE0404041E1E202078041F69208F0E1072
:1017200020205864601C7E82022B195F4A10C03A48
:101730003C1B29854A3C70290B57261A0404186063
:0417400023983A00B0
:0400000508000131BD
:00000001FF
