:020000040800F2
:1000000038D001201D5A00081526000817260008C0
:10001000192600081B2600081D2600080000000005
:10002000000000000000000000000000A502000821
:100030001F26000800000000E90200080959000816
:10004000375A0008375A0008375A00086F780008F6
:10005000375A0008375A00082B6D0008436D000816
:100060005B6D0008736D00088B6D0008375A00083F
:10007000375A0008375A0008375A0008375A00081C
:10008000375A0008375A0008375A0008375A00080C
:10009000375A0008375A0008375A0008A36D00087D
:1000A000375A0008375A0008375A0008375A0008EC
:1000B000375A0008375A0008375A0008375A0008DC
:1000C000375A0008375A0008375A0008375A0008CC
:1000D000375A0008D7650008E9650008016600087E
:1000E000F56D000891780008375A0008375A000863
:1000F000375A0008375A0008375A0008375A00089C
:10010000375A00084B310108375A0008375A00089F
:100110001966000831660008375A0008375A000887
:10012000375A0008375A0008375A00086B3101085F
:10013000375A0008375A0008375A0008375A00085B
:10014000375A0008375A0008375A0008375A00084B
:10015000375A0008375A0008375A00084566000821
:10016000375A0008375A0008375A0008375A00082B
:10017000375A0008375A0008375A0008375A00081B
:10018000375A0008375A000800F002F800F07AF8F1
:100190000AA090E8000C82448344AAF10107DA45E2
:1001A00001D100F06FF8AFF2090EBAE80F0013F0BA
:1001B000010F18BFFB1A43F001031847946B0100AD
:1001C000B46B01000A444FF0000C10F8013B13F02F
:1001D000070408BF10F8014B1D1108BF10F8015BA0
:1001E000641E05D010F8016B641E01F8016BF9D193
:1001F00013F0080F1EBF10F8014BAD1C0C1B09D1EA
:100200006D1E58BF01F801CBFAD505E014F8016B5B
:1002100001F8016B6D1EF9D59142D6D370470000ED
:100220000023002400250026103A28BF78C1FBD8FF
:10023000520728BF30C148BF0B607047642913F0D4
:10024000E784752913F0E484782913F01D85632968
:1002500014F07F81732914F08481002070471FB54A
:1002600014F060FE9DE8030014F0BCF814F0A0FC4C
:1002700004000020002114F001FD401C60601FBD3F
:1002800010B510BD14F06FFC1146FFF7E8FF01F048
:100290008AFC14F091FC03B4FFF7F2FF03BC14F0E6
:1002A000BFFC0000234B19680868B0E8F04F80F3EA
:1002B00009884FF0000080F31188704700000000AB
:1002C00003480068006880F3088862B600DF00BF5A
:1002D00008ED00E0DFF80C00016841F470010160F6
:1002E000704700BF88ED00E0EFF30980114B1A68FA
:1002F0001EF0100F08BF20ED108A20E9F04F1060AB
:1003000008B54FF0500080F3118804F05EFA4FF00A
:10031000000080F31188BDE8084019680868B0E85B
:10032000F04F1EF0100F08BFB0EC108A80F3098860
:10033000704700BFCC020020EFF311804FF0500156
:1003400081F31188704780F311887047EFF30580BF
:10035000704700008CB0FE4E96F82C0000287DD12E
:1003600096F82F0006F1380101F10C05C8B9F948DB
:10037000C2790A70027A4A70427A8A70827ACA70A6
:10038000C27A2A70027B6A70427BAA70827BEA7012
:10039000837C0A1D1370C37C5370037D9370407D72
:1003A000D070CA78307D0244CA70EB4900EB40003F
:1003B000A1F1C80301EB40001A1FD03906F05CF927
:1003C00010B9E6A002F08FF84FF4FA6004F0E5F9F6
:1003D00005F06EFB0021E7A2084605F0CFFBEEA278
:1003E0000221002005F0CAFBF0A1F448F26D13F0E1
:1003F000ABFBF24A0321002005F0C0FB4FF47A77F3
:10040000384604F0CAF905F053FBED4C0DF1140C1D
:10041000A079637A227AE1798CE80F00A0780DF157
:10042000040C63792279E1788CE80F006078009001
:10043000C94A2378083AE3A1E04813F085FB00217C
:10044000DE4A084605F09AFB384604F0A6F905F0A6
:100450002FFBF38EEA78A978687800E021E00DF1AF
:100460001C0C8CE80F00E07A0DF10C0C2B78627BF1
:10047000217B8CE80F00207CA27A617C8DE807004C
:10048000E37BA27BDEA1CD4813F05EFB0021CB4ACB
:10049000084605F073FB384604F07FF9012086F822
:1004A0002E00E54D4AF6AA242C6006F08AF9FBE7F7
:1004B000E14F4AF6AA2600243E60DFF89482A44D5C
:1004C00008F18008D8F84C0090F87C0001284FF023
:1004D000030019D003F013FF322004F05EF995F801
:1004E0002200A8B1641C062C13DD687D03280FD9F7
:1004F000BFF34F8FD1490868D14A00F4E060104340
:100500000860BFF34F8FFEE703F0F9FE6420E4E7D5
:1005100000243E60D6E770B5064600248C4D09E005
:100520000A2004F03AF9A87F012805D0E87F0128C5
:1005300002D0641CB442F3D970BD8549086E08B17D
:1005400000207047BF4A04201080012010800866F8
:1005500081F82900704770B598480322BAA1E030AD
:1005600013F0BDFD00257A4C012610B984F82360F4
:10057000656692480322B5A1E03013F0B0FD10B9D2
:1005800084F82460A5668D480322B1A1E03013F001
:10059000A6FD10B984F82560E56688480322ADA160
:1005A000E03013F09CFD10B984F82660256783487D
:1005B0000322A9A1E03013F092FD18B9A7A1A84821
:1005C00005F0C9FF94F8230008B1FFF7B6FF94F8CF
:1005D000240008B101F0A5FF94F8250008B101F04E
:1005E00093FF94F8260008B101F081FF94F82300EE
:1005F00020B1606E00EBD0704010606794F824006A
:1006000020B1A06E00EBD0704010A06794F82500D8
:1006100008B1E06EE06794F82600002803D04C494A
:10062000206F8031086070BD10B5494CA07D00B3CB
:100630000021A175A06C0122012805D002280AD052
:1006400003280FD090B114E084F82320616684F869
:100650002520E16610E084F82320616684F82620D6
:10066000216709E084F82520E16602E084F826206D
:10067000216794F8230008B1FFF75FFF94F8240086
:1006800008B101F04EFF94F8260008B101F02FFFE9
:1006900094F8230020B1606E00EBD07040106067CA
:1006A00094F8240020B1A06E00EBD0704010A06739
:1006B00094F8250008B1E06EE06794F82600002861
:1006C00003D02349206F8031086010BD70B5064605
:1006D0001F4C0020803404F17005E061E06955F89A
:1006E0002010304613F07AFC08B1012070BDE1699A
:1006F000491CE1610229F1DB002070BDF0B4594CC6
:10070000DDE9045660712171227066722572E37111
:100710002046F0BC002106F061BC86B00024012216
:10072000514F03255602234631463846CDE9004550
:1007300005F052FB7E830421102005F0CBF9064919
:100740000020233905F079FA002300941A468DE041
:10075000000000200040024008010020544D5F4589
:10076000544845524E45545F496E6974204F4B20A2
:100770000A0000002D2D2D2D544953382D50524F75
:100780002D2D2D2D43726561727465627952264458
:100790002D5449530000000057656C636F6D2D2D7B
:1007A0003E3E5449532D4F530000000054696D657F
:1007B000206F7574204F533A25640000C406002052
:1007C000D836012041434D3A2573202D3E49500A29
:1007D0000D25642E25642E25642E25640A0D2530F2
:1007E00032582D253032582D253032580A0D2530FB
:1007F00032582D253032582D253032580000000057
:1008000047573A25642E25642E25642E25640A0D4B
:100810004E657425642E25642E25642E25640A0DEC
:1008200053563A25642E25642E25642E25640D0A20
:10083000504F52543A256400003000400CED00E067
:100840000400FA05180802405231300052323000DC
:100850005231310052323100523030004F4B0000E3
:1008600000480040E407002000100240B101FE4EA5
:100870000194304605F0B0FA002300941A46202176
:100880003046019405F0A8FA002300941A4640214E
:100890003046019405F0A0FA002300941A46802106
:1008A0003046019405F098FADFF8C0830022012158
:1008B000404606F03BF9EE4EDFF8ACB3012796F860
:1008C0002C000BF1180B002842D1EAA001F00BFE1E
:1008D00000222021404606F029F90022402140460E
:1008E00006F024F900221021404606F01FF90022EC
:1008F0000821404606F01AF901221102404606F08E
:1009000015F9CDE900750122D5020023294640469C
:1009100005F062FAA8F81850327DDAA106F5807069
:1009200013F012F9F476B4760F200123CDE90070AC
:100930001A4619461846FFF7E1FE6910ABF8001099
:10094000ABF80050B476F47686F8294086F8224059
:10095000CE494AF6AA200860DFF81493CC4D09F17D
:10096000DE09A9F15E0A96F82C000028FBD196F862
:10097000220000284CD086F8224096F82E0000284D
:1009800046D096F82900002823D0401CC0B286F833
:100990002900142802D986F829401AE0C8B1DAF8EB
:1009A0004C00BC4A90F87C30306D012B00900ED08A
:1009B000B9A1B748A03813F0C7F8B54A0021A03A4A
:1009C000084605F0DBF8F07D02280FD020E0BEA13C
:1009D000EFE7DAF84C00AF4A90F87C30306D012B2D
:1009E000009001D0C449E4E7C449E2E7F47505F09A
:1009F0005FF8306D0090A648C1A1A038736DF26C0D
:100A000013F0A2F8A24A0021A03A084605F0B6F871
:100A1000B07E01287ED196F829000028FAD13776D9
:100A200077762A7989F800206B7989F8013095F872
:100A300006C089F802C0E97989F8031095F80880A2
:100A400089F8048095F8098089F8058095F80A806E
:100A500089F806806878082805D1CDE900C1B0A1E1
:100A6000B44813F071F868780B2816D199F804206F
:100A700099F806C099F8053099F80310CDE90112EC
:100A8000CDE9033C99F80210009199F8013099F8EA
:100A90000020A9A1A74813F057F8A648FFF716FEB3
:100AA00058B1F77786F82370746686F82670346735
:100AB0003476747686F82B7044E0307E58B19D4AC7
:100AC000A5A102F11E0013F03FF89A4A03211E323D
:100AD000002005F053F8707EA0B3707D401C707547
:100AE0006B48803090F809C0037AC2790178CDE96B
:100AF0000212CDE9043C017940798E4BCDE9000129
:100B0000644A96A1A3F1800013F01EF8584BF28EB0
:100B1000343300E033E003F11000C1788DE80E00BB
:100B200083784278017895A005F067FE814A8AA112
:100B300002F11E0013F008F87E4A03211E32002045
:100B400005F01CF84FF49670FFF7E5FCB476B07F23
:100B500028B1FFF700FD0A20FFF7DDFC00E0347646
:100B6000F07F30B1F477FFF75FFD0A20FFF7D3FC89
:100B700000E07476B47686F8274086F82840F07E48
:100B8000012802D196F8290020B196F82800012802
:100B900069D020E137767776707F70B199F80020C0
:100BA00099F80110CDE9001299F8023099F8032064
:100BB0005BA1604812F0C8FF7477307F30B15D4AA6
:100BC00065A13C325B4812F0BFFF34775948FFF70C
:100BD0007DFD58B1F77786F82370746686F8267025
:100BE00034673476747686F82B70D2E0307E58B154
:100BF000504A59A102F11E0012F0A6FF4D4A0321EE
:100C00001E32002004F0BAFF707E58B3707D401C85
:100C100070751F48803090F809C0037AC279017856
:100C2000CDE90212CDE9043C01794079414BCDE98F
:100C30000001184A49A1A3F1800012F085FF0C4B76
:100C4000F28E343303F11000C1788DE80E00837802
:100C50004278017849A005F0D0FD364A3EA102F164
:100C60001E008FE095E0B2E0000C02400000024060
:100C700000000020496E6974206D61696E202E2E7F
:100C80002E0A000041434D253033640000300040FF
:100C900064070020000100204465766963653A25F9
:100CA000732E2E25640D4E6F74436F6E6E656374E4
:100CB0002E2E2E2E2E2E0D473A4F70656E2E4C7511
:100CC0006F743A25303464004465766963653A256B
:100CD000732E2E25640D436F6E6E65637465642EEE
:100CE0002E2E2E2E2E2E0D473A4F70656E2E4C75E1
:100CF0006F743A2530346400EC670108A867010876
:100D000047696144763A25640A0D536F6475746BC4
:100D10003A25640A0D4C756F7464693A25640000C5
:100D20002530325825303258253032582530325847
:100D30000000000074080020253032582530325859
:100D40002530325825303258253032582530325827
:100D500025303258000000002573000028312C2572
:100D6000732C25732C312C2C25642D25642D2564A2
:100D70002F25642D25642D25642900007365727666
:100D80006572000012F0E0FEFE4A0321002004F02C
:100D9000F5FE4FF49670FFF7BEFBF476B07F28B1F6
:100DA000FFF7D9FB0A20FFF7B6FB00E03476F07FAF
:100DB00030B1F477FFF738FC0A20FFF7ACFB00E016
:100DC0007476F47686F8274086F828400BE086F89B
:100DD0002840FFF729FC96F82700012803D186F860
:100DE0002740FFF7B8FB706E00EBD07040107067C3
:100DF000F16D88420FD3E4480421018007803466F6
:100E000086F8234074667467B476F4763476747624
:100E10003220FFF780FBB06E00EBD0704010B0675F
:100E2000F16D88420DD3D8480780346686F8244097
:100E3000B466B467B476F476347674763220FFF70D
:100E40006AFBF06EF06704280EDB4FF48060ABF8AD
:100E5000000086F82540F466F467306E20B93476D9
:100E600074763220FFF757FB306FCAF80000042871
:100E70000FDB4FF40060ABF8000086F82640CAF89C
:100E800000403467306E20B9347674763220FFF734
:100E900042FBBE494AF6AA20086064E5BC4894B00B
:100EA0000DF1280C1EC88CE81E001EC80DF1180C90
:100EB000B84F8CE81E000FC80DF1380C01248CE8E7
:100EC0000F0042F2A220CDE912047C704FF47A7038
:100ED00003F063FCDFF8B4B24AF6AA2ACBF800A00C
:100EE000AD4D07F1380907F14408002697F82C00AA
:100EF0000128FBD197F82D0001287DD138780028F2
:100F0000FBD104F082FE87F82D607878002841D06C
:100F100097F8210001282DD187F8216004F0C8FD41
:100F200097F82000312806D032280CD0332813D06F
:100F3000342819D01EE0B879E0B9F87AD0B9F87B36
:100F4000C0B9BC7006E0B878A0B9F87A90B9F87B5F
:100F500080B9BC717E700DE0B87858B9B87948B9DD
:100F6000F87B38B9FC72F5E7B87818B9B87908B9E0
:100F7000F87AB0B189A18D4812F0E6FD8CA18B48BA
:100F800013F0F8F88FA1894813F0F4F891A187487D
:100F900013F0F0F8B87838B397F82100012802D0A0
:100FA00012E0FC73D6E787F8216004F081FD97F822
:100FB0002000312804D0322804D0332853D003E055
:100FC000FC7000E03C71BE7087A1784812F0BCFD57
:100FD00089A1764813F0CEF88BA1744813F0CAF8B3
:100FE0008DA1724813F0C6F8F87888B18CA16F48CB
:100FF00012F0AAFD8EA100E05AE26C4813F0BAF894
:1010000090A16A4813F0B6F893A1684813F0B2F8BB
:10101000387978B193A1654812F096FD84A16348B0
:1010200013F0A8F887A1614813F0A4F88AA15F48DB
:1010300013F0A0F8787978B18EA15C4812F084FDA5
:101040008FA15A4813F096F891A1584813F092F8DE
:1010500081A1564813F08EF8B87948B397F821006B
:10106000012802D014E07C71ADE787F8216004F01C
:101070001FFD97F82000312806D0322806D03328EB
:1010800049D0342849D003E0FC7100E03C72BE71C5
:1010900083A1464812F058FD85A1444813F06AF830
:1010A00087A1424813F066F888A1404813F062F81F
:1010B000F87940B189A13D4812F046FD67A13B484F
:1010C00013F058F83C70387A40B188A1374812F0D4
:1010D0003BFD62A1354813F04DF83C70787A40B181
:1010E00086A1324812F030FD5CA1304813F042F87E
:1010F0003C70B87A40B184A12C4812F025FD57A16C
:101100002A4813F037F83C70F87A48B397F8210072
:10111000012804D014E07C72B9E7BC72B7E787F805
:10112000216004F0C5FC97F82000312804D0322853
:1011300004D0332825D003E03C7300E07C73FE72BA
:1011400074A11A4812F000FD75A1184813F012F8A6
:1011500076A1164813F00EF877A1144813F00AF898
:10116000387B68B177A1114812F0EEFC78A10F48E6
:1011700013F000F879A10D4812F0FCFF37A1F3E05D
:10118000F5E01AE1920800201A0802400030004001
:10119000384F010800000020004002404D61696E98
:1011A0002053657475700A0D00000000C40600200D
:1011B000312E436172642E2E2E342E53686F770ABF
:1011C0000D000000322E54435049502E2E352E4F24
:1011D0004B0A0D00332E52656C6179204F75742EC9
:1011E0002020202020000000536574526561644374
:1011F0006172640A0D000000312E57656967616EE7
:101200006420310A0D000000322E57656967616E57
:101210006420320A0D000000332E52533233320064
:1012200053657457656967616E64310A0D0000008B
:10123000312E57656967616E642032366269740ABF
:101240000D000000322E57656967616E64203334EB
:101250006269740A0D000000316F72322D3E234F17
:101260006B00000053657457656967616E64320AEC
:101270000D00000053657452533233320A0D0000E2
:10128000312E4261756420393630300A0D0000007D
:10129000322E42617564203131353230300A0D0012
:1012A00053657454435049503A312E49500A0D0049
:1012B000322E49507365727665720A0D0000000087
:1012C000332E506F72740A0D00000000342E4465F6
:1012D0006661756C47657477617900005365744980
:1012E000506465766963650A0D00000053657449B2
:1012F000505365727665720A0D0000005365745094
:101300006F72740A0D00000053657447657477614D
:10131000790A0D0053657452656C61790A0D0000FD
:10132000312E4D6F64650A0D00000000322E5469A5
:101330006D656F75740A0D00332E53656E736F7291
:10134000000000005365744D6F64650A0D000000D5
:10135000312E4D6F6465310A0D000000322E4D6F45
:101360006465320A0D000000FE4812F003FF787B2E
:1013700048B1FDA1FB4812F0E7FBAFF22011F9489C
:1013800012F0F8FE3C70B87B80B1FBA1F54812F07A
:10139000DBFBFCA1F34812F0EDFEFCA1F14812F0DA
:1013A000E9FEAFF24811EF4812F0E4FEF87B38B3E3
:1013B00097F82100012802D012E0BC73BFE687F83D
:1013C000216004F075FB97F82000312804D0322802
:1013D00004D0332872D003E03C7400E07C74FE73C8
:1013E000ECA1E04812F0B0FBEEA1DE4812F0C2FE24
:1013F000F0A1DC4812F0BEFEF1A1DA4812F0BAFE0C
:10140000387C68B3E97989F80010297A484689F868
:101410000110697A89F80210A97A89F80310EA7A2A
:1014200088F800202A7B88F801206A7B88F802204F
:10143000AA7B88F8032098F8023098F801C098F841
:101440000010CDE9021CCDE90432C2788178CDE9E3
:101450000012437899F80020DEA1C24812F074FB14
:10146000787C18B1E6A1BF4812F06EFBB87CB0B131
:10147000AA7DFA65A97CE5480170E97C4170297D67
:101480008170697DC170837890F801C0CDF800C08B
:10149000CDE901310378DEA1B24812F055FB0021FD
:1014A000B04A084604F06AFBB2A1AE4812F04CFB09
:1014B00097F82100012803D01EE1FFE7BC748EE7F6
:1014C000387801282CD187F8216004F0F1FAF879F6
:1014D000012804D10021D9A2084604F04FFB387A34
:1014E000012804D10021D8A2084604F047FB787BEC
:1014F000012804D10021D7A2084604F03FFB9949F6
:10150000203101F1200012F035FE964899A12030DB
:1015100012F01AFB934A01214032002004F02EFB06
:1015200097F8200023287DD1F87901282ED18D4805
:10153000403000F0D8FF0DA80CA9CDE90010894873
:101540000BAB0AAAC7A1403012F066FC0A98E871FA
:101550000B9828720C9868720D98A87299F803205D
:1015600099F80210CDE900127E4899F8013099F8F7
:101570000020C0A1603012F0E7FA7A48603000F035
:10158000B2FF78487BA1403012F0DEFA387A0128A9
:101590002ED17448403000F0A6FF11A910A8CDE963
:1015A000000170480FAB0EAAAEA1403012F034FC1F
:1015B0000E98E8720F982873109868731198A873A2
:1015C00098F8032098F80210CDE90012654898F8C1
:1015D000013098F80020A7A1603012F0B5FA6148F8
:1015E000603000F080FF5F4862A1403012F0ACFA3A
:1015F000B87A01282CD15B48403000F074FF09A96B
:1016000008A8CDE90001574807AB06AA95A14030CC
:1016100012F002FC0698A8740798E87408982875D8
:10162000099800E063E06875DDE90801CDE9000193
:101630004C48DDE906238FA1603012F085FA494855
:10164000603000F050FF47484AA1403012F07CFA69
:10165000787A01281AD14348403000F044FF4148CD
:1016600012AA87A1403012F0D7FB129A2A74AFF663
:1016700054113C48603012F067FA3A48603000F08C
:1016800032FF38483BA1403012F05EFA787B0128E7
:101690001AD13448403000F026FF324813AA78A10E
:1016A000403012F0B9FB139AAA75AFF690112D488D
:1016B000603012F049FA2B48603000F014FF2948DE
:1016C0002CA1403012F040FA7C70BE70FE703E716A
:1016D0007E71BE71FE713E727E72BE72FE723E738C
:1016E0007E73BE73FE733E747E74BE743E7097F854
:1016F0002000352800D12C70CBF800A0FFF7F6BBF6
:101700002DE9F84F5F4F0121384601F0FAF8012426
:10171000002508B32E460221384601F0F2F8E0B168
:10172000A8461021384601F0ECF8B8B12F46DFF892
:1017300058912021484601F0E4F880B100954021FD
:10174000484601F0DEF858B1AA468021CB4648460B
:1017500001F0D7F828B199E0BBE0BCE0BDE0BEE005
:10176000BFE0C0E0C406002053657454696D656F26
:1017700075740A0D0000000053657473656E736F15
:10178000720A0D00312E5965730A0D00322E4E6F0C
:101790000A0D000053686F772073656C6563740AE7
:1017A0000D000000312E49502C5365727665720A87
:1017B0000D000000322E436172640A0D000000002B
:1017C000332E52656C61792D44656661756C47579F
:1017D000000000004950204465766963650A0D25C4
:1017E000642E25642E25642E25640A0D53657276B9
:1017F00065720A0D25642E25642E25642E2564004D
:1018000052656164436172640A0D00003C0000206F
:1018100054696D656F757452656C61790A0D256444
:101820000A0D44656661756C742047770A0D25645E
:101830002E25642E25642E25640000004950646521
:1018400076696365000000004950536572766572E1
:101850000000000054696D656F757452656C6179A4
:101860000000000025642E25642E25642E256423A7
:101870000000000025782E25782E25782E2578006A
:1018800025642300000C024000040240A9464FF4E6
:101890008071584601F035F838B3AB464FF48051AB
:1018A000FE4801F02EF810B3284600EB4B014FEA3A
:1018B000890202EBCA0001440098B8F1000F01EB65
:1018C000001000EB4711F648017512D00A21C165DE
:1018D00010E026461FE7A04623E7274627E70094A7
:1018E0002DE7A24631E7A146D1E7A346D6E7204639
:1018F000DBE7C465002E01D080F82C50BDE8F88FDE
:1019000030B500231C468A0E20D11A281ED1084665
:1019100001224008C50700D0641C521C0C2AF8D9CB
:1019200044F300040122641C4008C50700D05B1C7E
:10193000521C0C2AF8D903F00100B0EB516F05D10D
:1019400001F00100A04201D1012030BD002030BDD6
:101950002DE9F04100284BD003F081FED14AD04E52
:1019600052F82010491C42F8201096F8310006F178
:10197000800410B1A069401CA061A16FE06F96F8CF
:101980003100FFF7BDFF0025012780B3A16FE06F95
:1019900040084FEA3101A167E067A06FE16F20F0D6
:1019A0007F40A067E567A06FE16F20F07F40A067F0
:1019B000E567A06FE16F83B2A06FE16F4FEA10425D
:1019C000B9A1BC4812F0C0F8BA4800F08CFD002163
:1019D000A561A167E16786F8315086F8307096F806
:1019E0002900002801D1F7763777BDE8F08102E0C1
:1019F000FEF7A2FCFEE7A0690528F6D30021A56149
:101A0000A167E16786F8315086F83070EDE7F0B5F0
:101A100000252E46222827D11046194601244908C0
:101A20004FEA3000C70700D0761C641C102CF6D992
:101A300046F3000701247F1C49084FEA3000C6071F
:101A400000D06D1C641C102CF6D905F0010000219B
:101A500080EA530081EA0103184305D102F0010036
:101A6000474049400F4301D00020F0BD0120F0BDA8
:101A700070B5E0B303F0F3FD8A49894D51F8202099
:101A8000521C41F8202095F8310005F1800410B176
:101A90006069401C6061A26FE36F95F83100FFF749
:101AA000B6FF0021012268B3A36FE06F40084FEA40
:101AB0003303A367E067A06FE36FA067E167A06FE0
:101AC000E36F774B4FEA102603F1DE0318705E7068
:101AD0004FEA10469E704FEA1060D8700B46A3671D
:101AE0006161E36785F8311085F8302000E006E099
:101AF00095F82900002801D1EA766A7770BDFEF7D3
:101B00001BFCFEE760690528F8D30023A367616129
:101B1000E36785F8311085F8302070BD10B570B1DD
:101B200003F09DFD5F4951F82020521C41F8202010
:101B30005B49BDE8104058315F4804F00CBDFEF72A
:101B4000FBFBFEE710B558B303F089FD5549544C33
:101B500051F82020521C41F82020012004F8220FC7
:101B60000021E0725348CC3805F0A5FB6078223C98
:101B700010B1606E401C606694F8240010B1A06E35
:101B8000401CA06694F8250010B1E06E401CE06691
:101B900094F82600002802D0206F401C206710BD5A
:101BA000FEF7CAFBFEE72DE9FF41AFF26700012314
:101BB00000901A464FF4FA71404803F01BFD3D4C6B
:101BC0000C346060AFF2AB0000900223012296213A
:101BD0003A4803F00FFDA060AFF26B1000900323B2
:101BE00001223221354803F005FDE060AFF29F206D
:101BF0000090042301223221304803F0FBFC2061D5
:101C00006068002640B102F00AFF024600960023F9
:101C10001946606803F074FCA06840B102F0FFFE52
:101C20000246009600231946A06803F069FCE068AC
:101C300040B102F0F4FE0246009600231946E06827
:101C400003F05EFC206940B102F0E9FE0246009616
:101C500000231946206903F053FC4FF4407001F053
:101C6000F1F800F030FD05F039FE154D6E70AE70E4
:101C7000EE702E716E71AE7142F2A2202882C020E9
:101C8000A874A820E87401242C756C75EC750327E2
:101C9000002322460421DFF82C8015E000000240DA
:101CA000000000209C060020253033752530357556
:101CB00000000000B008002000140140304F01086F
:101CC00000400240000802404046CDE9006704F0B1
:101CD00083F80122002311464046CDE9006704F055
:101CE0007BF8DFF858840122002391024046CDE9B9
:101CF000006704F071F801220023D1024046CDE9CB
:101D0000006704F069F8032002F0C8FA0023009489
:101D10001A4601214046019404F05EF80023009425
:101D20001A4602214046019404F056F8002300941C
:101D30001A4610214046019404F04EF80023009406
:101D40001A462021FE4F0194384604F045F800233E
:101D500000941A4640213846019404F03DF80023CF
:101D600000941A4680213846019404F035F8002387
:101D700000941A4621023846019404F02DF80023FD
:101D800000941A462103EF48019404F025F84FF41B
:101D9000E1320021EC4804F0A5FA4FF416573A4618
:101DA0000221EA4804F09EFA3A460021E84804F08D
:101DB00099FAFFF7A5FC2978E648012935D080F883
:101DC0002F40002005F0A5FA022005F0D2FB0023E9
:101DD0000096019602968022DFA1AFF63F7003962F
:101DE00002F04EFB00960196029600238022E0A1AD
:101DF000E348039602F044FB009601960296002306
:101E00008022E0A1E448039602F03AFB0096019696
:101E1000029600238022E1A1E548039602F030FB00
:101E200002F0D1FD002004B0DFE580F82F60A97D2D
:101E3000C165C6E710B50023C64A522801D182F811
:101E40003230DC4C92F832100229605405D030292F
:101E50000BD2491C82F8321010BD012082F82700F5
:101E6000137E012BF5D19077F3E782F8323010BD65
:101E700010B5B84ABD2802D1002182F83310CD4BED
:101E800092F83310403B5854D87810B901230129F7
:101E900005D0302902D2491C82F8331010BD107EC3
:101EA000547E204392F829402043F4D19376F2E700
:101EB00010B50C46BF4AC0A15032204611F044FE76
:101EC000204612F0EDF880B210BD2DE9F041A14C92
:101ED000074680340846E160A16812F06FF89D4D16
:101EE000206101264FF000086E754046C4F804805A
:101EF000062838D2DFE800F0031313131A29AD487F
:101F0000AEA18038226911F01FFEAA48803812F075
:101F100047F8E875A748803800F0E5FA23E0A548BF
:101F2000A6A18038226911F00FFEF3E7A148A3A112
:101F30008038226911F008FE9E48803800F0D3FAFC
:101F40009C48803800F019FB0DE09A489AA180382F
:101F5000226911F0F9FD9748803800F0C4FA9548DD
:101F6000803800F0EAFA0020A16812F027F820611A
:101F70006068401C60600628BADBE87D012802D05A
:101F8000022805D006E085F82860EE77AE7501E0FE
:101F900085F82A8087F86C60E76426E510B504466A
:101FA0000246844886A1803811F0CEFD81488038F1
:101FB00000F099FA67488030C46410BD10B504463B
:101FC00059B1206F224683A103787A48803811F0F6
:101FD000BBFD7848803800F086FA5E488030C464E3
:101FE0008038818E491C818610BD10B5044602469A
:101FF000704882A1803811F0A7FD6E48803800F04B
:1020000072FA54488030C46410BD10B504460246CC
:10201000684883A1803811F097FD6648803800F049
:1020200062FA4C488030C46410BD1FB5069CCDE9EF
:1020300000230B4602460CB180A100E08AA15D4856
:10204000803811F081FD5B48803800F04CFA8F4CED
:10205000A079637A227AE1798DE80F005548637997
:1020600022798BA1803811F06FFDA079637A227AF2
:10207000E1798DE80F004F486379227984A1803897
:1020800011F062FD4B4894F84C208AA1803811F081
:102090005BFD4848803800F026FA464894F84D2009
:1020A00088A1803811F050FD04B04248BDE81040CE
:1020B000803800F018BA70477047264810B5864936
:1020C000007DA1F1C80300EB400001EB40001A1FA6
:1020D000D03904F0D1FA002804D1BDE810407FA027
:1020E00000F001BA10BD012004F077BB314810B5F3
:1020F00080A1803811F028FD2E48BDE810408038BE
:1021000000F0F1B9F0B50125124C87B001280FD0CD
:10211000214604F1800391F83020096E082808D088
:102120000026102806D0202805D0402804D0F7E04B
:1021300002E161E16BE175E17FE10000000C02402A
:10214000000402400000024000140140004800402A
:102150000010014000000020436F6E6669677572D1
:1021600065207573696E672044544D460000000079
:102170004D61696E2072756E202E2E2E00000000BB
:102180001B0700084C656420426C696E6B2054612B
:10219000736B205265640000B104000845746865E3
:1021A000726E65742052756E6E696E67202E2E00F9
:1021B00055030008A40700202573000025732C0098
:1021C000436F6E6E656374656420746F2025730AB7
:1021D00000000000436F6E6E656374696F6E2025AA
:1021E00073207375636365737366756C6C792E41C8
:1021F000637469766525640A00000000416E2065FD
:1022000072726F72206F636375726564206F6E20E7
:10221000636F6E6E656374696F6E2025730A0000CC
:10222000436F6E6E656374696F6E202573206861FD
:102230007320737461727465640A000049503A2017
:1022400025642E25642E25642E2564206173736910
:10225000676E65642062792044484350207365723C
:102260007665720A0000000049503A2025642E2548
:10227000642E25642E25643B205354415449432049
:10228000495020757365640A00000000D8360120AB
:102290004D41433A20253032582D253032582D25D6
:1022A0003032582D253032582D253032582D2530DA
:1022B00032580A004C696E6B203130304D3A20257F
:1022C000640A000046756C6C206475706C65783A21
:1022D0002025640A000000000801002052455F45E7
:1022E000544845524E45545F496E6974204F4B2007
:1022F0000A000000444843502068617320737461F1
:102300007274656420776974682061737369676E9D
:10231000696E6720495020616464726573730A00B6
:10232000B0F5807F71D194F82900002803D094F88B
:102330002B0000286AD0C0E09C48016809040168AD
:102340004FEA816126D4002901684FEA416110DB20
:10235000006800294FEA006005DB002801DB44200B
:102360003EE038203CE0002801DB342038E0232028
:1023700036E0006800294FEA006005DB002801DB39
:1023800032202DE030202BE0002801DB362027E032
:10239000422025E0002901684FEA416110DB006816
:1023A00000294FEA006005DB002801DB312017E03F
:1023B000392015E0002801DB352011E041200FE035
:1023C000006800294FEA006005DB002801DB3320AC
:1023D00006E02E2004E0002801DB372000E0432047
:1023E00084F8200084F8215007B0C2B2BDE8F04064
:1023F0006FA1704811F0A8BB002A32D0002930D15B
:10240000996FD86F4918404125E02AE02BE0002A57
:1024100027D0002925D1986FD96F001849419867B6
:10242000D96714E0002A1CD000291AD1986FD96FFF
:10243000001849419867D9670FE0002A11D0002998
:102440000FD1996FD86F491840419967D867996F34
:10245000D86F41F001019967D86714F8310F401C1B
:10246000207007B0F0BD54480DF1080C0178477A90
:10247000037AC2798CE88E00017940794E4BCDE920
:102480000001AE334D4A4EA1A3F19E0011F05CFB5A
:10249000052002F082F9494BE28ECC3B03F110009B
:1024A000C1788DE80E008378427801784C4804F0BA
:1024B000A4F984F82A5000F027F8E06D4000606627
:1024C000A06684F82B6084F82960A676E676C8E7D3
:1024D00044490120C8748102344808300180C11485
:1024E00001807047704701463F4804F034B82F49D7
:1024F00010B50A314FF40060088030493A48293954
:1025000004F029F8002010BD284910B50A314FF415
:102510008060088029493448303904F01CF80020D4
:1025200010BD3048016E09B1002070472F4A0121CB
:10253000118002210166012070471FB51F4C383CF5
:10254000231F1A1F111F8DE81E000B1F0C3A28A114
:1025500011F062FCA4F1480090F8481090F8442073
:10256000CDE9002190F8403090F83C2090F83810E8
:1025700090F83400FEF7C2F81FBD0EB50F4B503B6C
:102580001A1F111F8DE80E000B1F0C3A1DA111F030
:1025900043FC0A4813498038026B8A64C26A0A65A0
:1025A000426A4A65806AC8640EBD0000100C024091
:1025B00025630000E4060020E4070020000100205D
:1025C00028322C25732C25732C312C2C25642D2599
:1025D000642D25642F25642D25642D256429000094
:1025E0007C0D000800000020004800401808024050
:1025F00025642D25642D25642F25642D25642D2526
:102600006400000025642D25642D25642D25642D8E
:10261000256400007047FEE7FEE7FEE7FEE770472F
:10262000704700000CB500225449009201920868DE
:1026300040F4803008604FF4A043086800F4003094
:1026400001900098401C0090019810B900989842A1
:10265000F3D10868800334D5012001904748403009
:10266000026842F0805202604548026842F44042EB
:1026700002604248083002680260026842F4004288
:102680000260026842F4A0520260031F3D4A1A60D1
:102690000A6842F080720A600A689201FCD53A49E1
:1026A00040F205720A60016821F0030101600168CF
:1026B00041F0020101600168C1F381010229FAD1F0
:1026C0000CBD01920CBD314810B5016841F4700198
:1026D00001602A48016841F001010160274A002198
:1026E0000832116002682A4B1A400260031D294A11
:1026F0001A60026822F48022026020480C300160D7
:10270000FFF790FF21494FF000608039086010BD4D
:1027100070B51A4D083528681F4B204910F00C0081
:1027200004D05E10042803D0082803D00B601BE0FF
:102730000E6019E0114A121D1068C0F38054106831
:1027400000F03F0014B1B6FBF0F001E0B3FBF0F095
:1027500013681268C3F388135843C2F30142521C32
:102760005200B0FBF2F0086028680C4AC0F3031076
:10277000121D105C0A68C2400A6070BD0038024039
:102780000070004008544007003C024088ED00E023
:10279000FFFFF6FE103000240024F4008802002021
:1027A000714910B5884206D10121084600F0B6FAF9
:1027B000002101204FE06D49884206D1012102200D
:1027C00000F0ACFA0021022045E06949884206D1B8
:1027D0000121042000F0A2FA002104203BE0654919
:1027E000884206D10121082000F098FA0021082033
:1027F00031E06149884206D10121102000F08EFAB3
:102800000021102027E05D49884206D101212020C7
:1028100000F084FA002120201DE05949884206D1A9
:102820000121402000F07AFA0021402013E05549B0
:10283000884206D10121802000F070FA002180201A
:1028400009E0514988420AD184150121204600F04F
:1028500065FA00212046BDE8104000F05FBA10BDC7
:10286000F0B5002201274FF0030C0B6807FA02F5C0
:102870002B40AB422CD1066853000CFA03F4A6435C
:1028800006600E79D0F800E09E4046EA0E0606602B
:102890000E79012E01D0022E12D18668A6438660E1
:1028A0004E79D0F808E09E4046EA0E0686604668FB
:1028B000AE43466045688E799640B6B23543456072
:1028C000C568A543C560CC799C40C3681C43C460FF
:1028D000521C102AC9D3F0BD4FF6FF7101600021D0
:1028E000017141718171C171704708B541F4803245
:1028F0000092C261C1610099C161C169C069009063
:1029000008BD0246002012690A4200D0012070472B
:10291000006980B270470246002052690A4200D026
:1029200001207047406980B270470183704741833E
:1029300070470AB101837047418370474161704716
:1029400042694A40426170474B07DB0E9A40C90812
:1029500010B500EB8100016A0F249C40A143016285
:10296000016A1143016210BD0000024000040240F0
:1029700000080240000C0240001002400014024017
:1029800000180240001C024000200240374900208D
:102990000860091D0860091D0860091D08603349A9
:1029A000334814310860704730B5304A8379016884
:1029B00053B313688B431360111D0B680468A34362
:1029C0000B60017911440B68046823430B60274BAB
:1029D000083319680468A14319601C1D2168056843
:1029E000A94321604179102905D011440A68006883
:1029F00002430A6030BD19680268114319602168FA
:102A000000680143216030BD0079104402688A43A8
:102A1000026030BD0021016001710C2242718171A0
:102A20007047124910310A6802430A607047014634
:102A30000E4A0020143212680A4200D0012070476A
:102A40000A49143108607047084A0146002012689C
:102A5000064B0A4014331B680B4202D0002A00D0F8
:102A6000012070470149143108607047003C014063
:102A7000FFFF7F00EA48016841F001010160E84A78
:102A80000021083211600268E64B1A400260031D03
:102A9000E54A1A60026822F480220260E0480C30A5
:102AA00001607047DE490022891C0A700870704777
:102AB00002460020510901290CD002290CD0D84926
:102AC0007431096802F01F02012393400B4200D0C9
:102AD00001207047D249F4E7D1497031F1E718B5C8
:102AE00000204FF4A04400903120FFF7E1FF00994F
:102AF000491C0091A14201D00028F5D03120FFF7F8
:102B0000D7FF002800D0012018BDC54A116821F068
:102B1000F80141EAC00010607047C449086070477E
:102B2000BF49002270310A700A70012802D00428BF
:102B300001D1052008707047BD490860704741EA1F
:102B400082115A0810B5BB4B029C03EB02421143A1
:102B5000014341EA0460B249091D086010BDB34950
:102B600008667047800140EA0170AD498431086011
:102B70007047AE4988667047AC49C8647047A84B37
:102B800008331A68084322F0EC621043186070475B
:102B9000A34B08331A68084322F0784210431860A8
:102BA00070479F4A0832116821F003010143116008
:102BB00070479B480830006800F00C007047984A46
:102BC0000832116821F0F001014311607047944A06
:102BD0000832116821F4E051014311607047904AB6
:102BE0000832116821F4604141EAC000106070476A
:102BF00070B58B4B083319688F4C11F00C0104D061
:102C00006610042903D0082903D004601BE0066085
:102C100019E0834A121D1168C1F38055116801F053
:102C20003F0115B1B6FBF1F101E0B4FBF1F114681D
:102C30001268C4F388146143C2F30142521C52006B
:102C4000B1FBF2F1016019680F2202EA11117B4A0F
:102C5000545C0168E14041601C68072505EA942442
:102C6000145D21FA04F484601B6805EA5333D25CD6
:102C7000D140C16070BDC0F30121032908D1684B68
:102C8000083319686E4A21F4F81102400A431A60A9
:102C9000634970310A68C0F30B0002430A60704751
:102CA000634944390860704761494039086070479A
:102CB0005E49C1F85C017047594A303200291168F9
:102CC00001D0014300E0814311607047544A34321F
:102CD0000029116801D0014300E081431160704771
:102CE0004F4A38320029116801D0014300E0814386
:102CF000116070474A4A40320029116801D00143EF
:102D000000E0814311607047454A44320029116850
:102D100001D0014300E0814311607047404A103206
:102D20000029116801D0014300E081431160704720
:102D30003B4A14320029116801D0014300E081436D
:102D400011607047364A18320029116801D00143DA
:102D500000E0814311607047314A20320029116838
:102D600001D0014300E08143116070472C4A2432B6
:102D70000029116801D0014300E0814311607047D0
:102D8000274A50320029116801D0014300E08143F5
:102D900011607047224A54320029116801D0014362
:102DA00000E08143116070471D4A583200291168C4
:102DB00001D0014300E0814311607047184A60323E
:102DC0000029116801D0014300E081431160704780
:102DD000134A64320029116801D0014300E08143A5
:102DE000116070470E4A0D320029117801D001435D
:102DF00000E081431170704709487430016841F068
:102E00008071016070470146054A00200C3212684B
:102E10000A4200D00120704701490E310870704706
:102E200000380240FFFFF6FE103000240000474249
:102E3000800E47420000FFFF0024F4009C020020A7
:102E4000FFFCFF0F2849084328490860704730B548
:102E50000F23C27801780125FAB1244A126801F1E2
:102E6000E02102F4E062C2F5E062C2F30722C2F19F
:102E70000404D3404278A24084781C4014432201C9
:102E800081F80024007800F01F018D404009800087
:102E900000F1E020C0F8005130BD01F01F00854076
:102EA0004809800000F1E020C0F8805130BD104A90
:102EB000114001430D48001F016070470B4A121D6D
:102EC0000029116801D0014300E08143116070477F
:102ED0004FF0E0210428086903D020F004000861C5
:102EE000704740F00400FAE70000FA050CED00E03E
:102EF00080FFFF1F10B501218C032046FFF736FF2E
:102F00002046BDE810400021FFF730BF134908609C
:102F1000704710B58A0721F003041149120F2144AC
:102F20000F23D1F8084893409C43C1F80848D1F8D2
:102F3000083890400343C1F8083810BD0949C1F86A
:102F4000DC007047084908607047044900202031C0
:102F50000968C90500D5012070470000003801400C
:102F6000003001400000274200042742C74910B545
:102F7000884206D101211020FFF7F8FE0021102021
:102F800028E0C349884202D101214C0410E0C14924
:102F9000884202D101218C040AE0BF49884202D153
:102FA0000121CC0404E0BD4988420AD101210C056D
:102FB0002046FFF7D1FE2046BDE810400021FFF774
:102FC000CBBEB749884209D101212020FFF7CEFEB0
:102FD00000212020BDE81040FFF7C8BE10BD7FB51E
:102FE0000446008A0D46C98820F4405001432182DE
:102FF000A08941F20C618843A9882A8911436A8912
:1030000002431143A181A08A20F44071A88908439A
:10301000A0826846FFF7ECFD9C48844202D0A0489D
:10302000844201D1039800E00298A189090400EBD1
:10303000C00101EB0010296801D5490000E08900BA
:10304000B0FBF1F06422B0FBF2F109010B096FF063
:1030500018056B4300EB8300A3891D044FF0320376
:1030600006D503EBC000B0FBF2F000F0070005E06E
:1030700003EB0010B0FBF2F000F00F0008432081DA
:103080007FBD4FF41651016000218180C180018114
:103090000C2242818181704710B5028A4C8822F44B
:1030A00070630A8822438C88C9880C4322431A43E0
:1030B000028210BD0021018041808180C180704763
:1030C0000029818902D041F4005101E021F400512E
:1030D00081817047028B02F47F420283028B0A4394
:1030E000028370470029818902D041F4004101E048
:1030F000C1F30E01818170470029818A02D041F419
:10310000006101E021F4006181827047C1F3080190
:10311000818070478088C0F308007047028A22F0DF
:103120000F020282028A0A430282704700298189C3
:1031300002D041F0020101E021F0020181817047DB
:10314000828922F40062828182890A4382817047E7
:10315000028A22F020020282028A0A430282704717
:103160000029018A02D041F4804101E021F480412C
:1031700001827047818941F00101818170470029F6
:10318000818A02D041F0080101E021F0080181822A
:103190007047028BD2B20283028B42EA0121018383
:1031A00070470029818A02D041F0200101E021F01E
:1031B0002001818270470029818A02D041F01001EC
:1031C00001E021F0100181827047828A22F004021E
:1031D0008282828A0A43828270470029818A02D0D1
:1031E00041F0020101E021F0020181827047002AD2
:1031F000828A01D00A4300E08A438282704710B578
:10320000C1F3421301F01F040121A140012B07D09B
:10321000022B07D01430002A026805D00A4304E0CC
:103220000C30F8E71030F6E78A43026010BD024622
:10323000002012880A4200D001207047C943018053
:10324000704770B501F01F0501260024C1F3421339
:1032500006FA05F2012B0FD0022B0FD0838A4FEA1A
:1032600011210088134206FA01F600EA060001D097
:1032700000B10124204670BD8389F0E7038AEEE7A0
:103280000A0A01219140C9430180704700100140A2
:103290000044004000480040004C00400050004006
:1032A000001401402DE9F043016821F001010160A3
:1032B0000021016041608160C160016121214161A3
:1032C000B849B84A3D251039904202D18D60BDE819
:1032D000F083B44A4FF474661832904201D18E6084
:1032E000F5E7B04A4FF474173032904201D18F6045
:1032F000EDE7AC4A4FF0746C4832904202D1C1F80D
:1033000008C0E4E7A74BA84A6033984201D1CA60DD
:10331000DDE7A44CA54B7834A04201D1CB60D6E7C1
:10332000DFF88082A24C08F19008404501D1CC60C2
:10333000CDE7DFF870824FF03D5908F1A80840450D
:1033400002D1C1F80C90C2E79A49DFF868820839C7
:10335000404501D10D60BAE7964D1835A84201D11C
:103360000E60B4E7934D3035A84201D10F60AEE74F
:10337000904D4835A84202D1C1F800C0A7E78D4D55
:103380008C496035091FA84201D10A609FE7894A2C
:103390007832904201D10B6099E7864A9032904290
:1033A00001D10C6093E7834AA83290428FD1C1F8D3
:1033B00000908CE730B503687F4ACC6813400A68F8
:1033C0002243D1E905452C432243CC6922430C6AB0
:1033D00022434C6A22438C6A22434C6B22438C6BFF
:1033E00022431A430260426922F00703D1E90B2409
:1033F00022431A4342610A6942604A6882608968CE
:10340000C16030BD0021016041608160C160016127
:1034100041618161C161016241628162C162016396
:103420004163816370470029016802D041F00101C6
:1034300001E021F00101016070470029016802D01C
:1034400041F4004101E021F400410160704700298E
:10345000016802D041F0200101E021F0200101606B
:10346000704741607047406880B27047002A026828
:1034700002D042F4002201E022F400220260016145
:1034800070470029016802D041F4802101E021F455
:103490008021016070470AB101617047C1607047C7
:1034A000014600200968090300D501207047014644
:1034B00000200968C90700D001207047406900F06A
:1034C0003800704702463B4B00209A4202D2354AF0
:1034D000103A01E0374A103A8B0001D5526800E0FB
:1034E0001268364B1A400A4200D001207047314A18
:1034F000904202D22B48103801E02E4810382F4A53
:103500008B0001EA020101D5C160704781607047FC
:103510000B0607D5436912B143F0800301E023F0A5
:1035200080034361802908D0002A026801F01E014F
:1035300001D00A4300E08A430260704730B51D4A5B
:103540000024904202D2174A103A01E0194A103A78
:103550001B4B194205D01E2303EAD12503682B40DB
:1035600002E0406900F08003880001D5506800E067
:103570001068124A1040084201D003B101242046CD
:1035800030BD0C4A904202D20648103801E009488A
:1035900010380A4A8B0001EA020101D5C160704768
:1035A00081607047106002403D000020400F002005
:1035B00000003D20106402403F801CF07D0F7D0F15
:1035C0003C0F3C0F10B50121CC022046FFF7CEFB8B
:1035D0002046BDE810400021FFF7C8BB30B5644B62
:1035E0001A6847F6FF618A43017D8468C5682143F4
:1035F00044682C432143046800692143014311437B
:10360000196030BD00210175016041608160C160B9
:10361000016170475749C1F8A00070475449091F1C
:10362000086070475248001F006800F003007047B0
:103630004F4A10B5121D01681160131D1968D0E9B9
:1036400001242243D0E9034004436FF30A012243DB
:103650000A431A6010BD0021016041608160C160B1
:103660000161704742480C300068C0B27047404961
:1036700008B5103108440090006808BD3C4A10B5F8
:10368000203201681160121D41681160131D196814
:10369000D0E902242243D0E90440044321F0F70199
:1036A00022430A431A6010BD4FF0FF310160002130
:1036B00041608160C1600161416170472C482C30DC
:1036C000006870472A487C300068704728497C3180
:1036D00008607047264844300068704726490860F3
:1036E00070472549091D0860704723490831086063
:1036F000704721490C31086070471E49C1F8AC0180
:1037000070471C49C1F8B001704701218143194835
:10371000C0F8B41170471749C1F8B801704716498D
:10372000143908607047124A38320029116801D0F4
:10373000014300E081431160704701460C4A0020BC
:10374000303212680A4200D00120704708493431F3
:10375000086070470146064A0020303212680A426B
:1037600000D00120704702493431086070470000E2
:10377000042C014000802542A085254218B5002078
:10378000FA4B0090CA20186053201860F749183986
:10379000086820F0A00008604FF400340868009A20
:1037A00000F02000521C0092A24201D00028F5D067
:1037B0000868800601D5012000E00020FF21196083
:1037C00018BD08B5E949002018390090086840067E
:1037D00012D44FF0FF3008608B130868009A00F095
:1037E0004000521C00929A4201D00028F5D008688F
:1037F000400601D4002008BD012008BD78B5002492
:10380000DA4ECA2000942546306053203060FFF71E
:10381000D8FFE0B3D54824380460D44942F20110FF
:10382000203908600B1D186800F0070018608D1320
:103830001A1D1068009900F00400491C0091A9426B
:1038400001D00028F5D01068400729D518681C6001
:10385000C6494FF6FF7010390860091FC448086058
:10386000C2480C380460001D0460001D0460BF489D
:1038700008300460BD4818300460BC482030046043
:10388000001D04601460B9481C30046000E003E0CF
:10389000FFF774FF20B10125FF203060284678BD76
:1038A0000025F9E7B1481838016821F0800101606E
:1038B000704770B5AD4E04460025CA2030605320D5
:1038C0003060FFF77EFFA8B1A8481C38016821F0DE
:1038D000400101600168226811430160A348A168AA
:1038E000143801600168A28841EA02410160FFF7D3
:1038F000D9FF0125FF203060284670BD00210160FE
:103900007F214160FF2181607047984908B1FF2005
:1039100002E0CA20086053200860704770B5934EDB
:1039200005460024CA20306053203060FFF749FF6D
:1039300060B18E481C38016815B141F0100101E0FA
:1039400021F010010160FFF7ADFF0124FF2030607E
:10395000204670BD854ACA211160532111608349F8
:103960001C390028086802D040F0200001E000F077
:10397000DF000860FF20106070472DE9F0410C4621
:1039800000267C4F01002078396832464FEA4161B9
:1039900004D000292FDA00F008FC2DE0002900DB1C
:1039A000E27000F0F6FB0504607800F0F2FB45EAF7
:1039B0000025A07800F0EDFB0543E07845EA0045DE
:1039C0006A4CCA20206053202060FFF7FAFE68B1DD
:1039D00069480540674808380560FFF763FF3868A5
:1039E000800602D4FFF7CAFE00B10126FF20206046
:1039F0003046BDE8F081E270A078217840EA0145C8
:103A00006078E178000240EA01400543D8E70021F0
:103A1000C1700170417081707047020010B5574845
:103A20000C460168544801EA0001C1F305402070CA
:103A3000C1F30623637001F07F03A3704FF04003CE
:103A400003EA1141E1700AD100F0AFFB2070607809
:103A500000F0ABFB6070A07800F0A7FBA07010BD79
:103A60004248001D00684349091F0968704770B546
:103A70000C460026010060780FD000F096FBA0787D
:103A800000F093FBA078E17840EA01456078217866
:103A9000000240EA4130054315E0C10603D520F09D
:103AA00010000A306070E07800F073FB0504607865
:103AB00000F06FFB45EA0025A07800F06AFB0543A3
:103AC000207845EA4035294CCA20206053202060E8
:103AD000FFF777FE70B12A4805402648001F0560B1
:103AE000FFF7E0FE23480068800602D4FFF746FE99
:103AF00000B10126FF202060304670BD0121017019
:103B0000817041700021C1707047020010B51D48DE
:103B10000C4601681A4801EA00014FEA1140E070C2
:103B2000C1F30423637001F03F03A370C1F342317A
:103B300021700AD100F039FBE070607800F035FBAD
:103B40006070A07800F031FBA07010BD70B5144615
:103B50000D46084A0021002810684FEA406013D043
:103B600000282ADA207800F020FB27E024280040F3
:103B7000FF007F00082800407F7F7F000028004072
:103B80003FFFFF0004280040002800DBE1702078A0
:103B900000F0FFFA0604607800F0FBFA46EA00261F
:103BA000A07800F0F6FA0643E07846EA0046207B6B
:103BB00000F0EFFA46EA006010E0E170207B00F0D0
:103BC000F4FAA0782178E27840EA014061780902AD
:103BD00041EA02410843217B40EA0160A1680843B1
:103BE00061680843F849CA220A6053220A60B5F5A1
:103BF000807F04D00A1F1060FF20086070BDF24A69
:103C0000083AF8E70021C17001704170817001220B
:103C1000816002734160704710B514460246B1F5E9
:103C2000807F2AD0E848001F0168C1F3054020705A
:103C3000C1F30623637001F07F03A370402303EAFE
:103C40001143E370C1F30563237301F0804301F076
:103C50008031C4E90113002A0ED100F0A6FA2070C9
:103C6000607800F0A2FA6070A07800F09EFAA07070
:103C7000207B00F09AFA207310BDD3480838D3E7B0
:103C800038B50022D04C0092CA2222605322226012
:103C9000CD4A1C3A0029116802D00143116012E09C
:103CA00081431160C84A183A95131168009B01EAD4
:103CB00010215B1C0093AB4201D00029F5D01168A4
:103CC00011EA102000D00120FF21216038BD10B57D
:103CD000BD4BCA241C6053241C601143B0F5807F87
:103CE00005D0B94824300160FF20186010BDB648E7
:103CF0002030F8E7B0F5807F05D0B3482430006865
:103D0000C0F30E007047B0482030F8E7AE4ACA2131
:103D1000116053211160AC491C390B6823F0070373
:103D20000B600B6803430B60FF2010607047A649CF
:103D3000CA220A6053220A60A34A103A1060FF2088
:103D400008607047A0481038006880B2704718B506
:103D500000219D4B0091CA211960532119609A4995
:103D60001C390028086803D040F48060086014E023
:103D700020F480600860944918398C130868009A10
:103D800000F00400521C0092A24201D00028F5D09D
:103D90000868400701D4002000E00120FF211960DD
:103DA00018BD894B10B5CA221A6053221A60864A80
:103DB0001C3A146824F480241460146808430443F3
:103DC0001460FF20186010BD7F481C38006800F4A4
:103DD000802070477C4B10B5CA221A6053221A60AB
:103DE000794A1C3A146824F4E00414601468084307
:103DF00004431460FF20186010BDF0B5724D0646F4
:103E00000024CA200F46286053202860FFF7D9FC01
:103E100030B16D483E430C380660FFF743FD012486
:103E2000FF2028602046F0BD70B5674E054600248F
:103E3000CA20306053203060FFF7C3FC60B1624895
:103E40001C38016815B141F0800101E021F08001CA
:103E50000160FFF727FD0124FF203060204670BD80
:103E6000594ACA2111605321116057491C39002851
:103E7000086802D040F4000001E020F4000008606F
:103E8000FF2010607047504ACA2111605321116011
:103E90004D491C390B6823F400230B600B68034366
:103EA0000B60FF2010607047F0B5474D0023CA2417
:103EB0002C6053242C60444C183C2668F60308D52B
:103EC0004FF400362768FF0303D5B34201D05B1CD3
:103ED000F8E72368DB0306D408433B491043183155
:103EE0000860012000E00020FF212960F0BD364B72
:103EF00010B51C3B1A6840F60804A24342EA0002CF
:103F000009B142F400623048CA21016053210160C6
:103F10001A60FF21016010BD70B50D462A49144694
:103F20000C310968294A1140274A103212684FF6AD
:103F30003F731A40C1F305432B70C1F306236B7026
:103F400001F07F03AB70402303EA1141E9700021C7
:103F5000E170C2F30421617002F03F01A170C2F36D
:103F600042312170002817D1287800F01EF92870FE
:103F7000687800F01AF96870A87800F016F9A8704F
:103F8000607800F012F96070A07800F00EF9A0706F
:103F9000207800F00AF9207070BD0B4814300068DA
:103FA0007047094A1C320029116803D041EA4000D9
:103FB0001060704721EA4000FAE7034A1C320029EA
:103FC000116805D0014304E0242800407F7F7F0072
:103FD00081431160704779490A6822F4C0520A602F
:103FE0000A6802430A60704774490A6822F4E06272
:103FF0000A600A6802430A60704770490A6822F43E
:10400000C0420A600A6802430A6070476B49002890
:10401000086802D040F0800001E020F080000860D5
:10402000704766490028086802D020F4004001E08B
:1040300040F4004008607047604A08B5103202EB57
:1040400080000090016008BD5C4908B5103101EBAB
:1040500080000090006808BD58490A6822F4803248
:104060000A600A6802430A60704754490A6822F4E9
:1040700000320A600A6802430A6070474F490A68C2
:1040800022F480220A600A6802430A60704770B511
:104090004A4C0022CA231C3C236053232360474B15
:1040A000343B1D682D0707D59E141D682D0703D5C9
:1040B000B24201D0521CF8E71A6812070DD43F4AE9
:1040C000383A1268D20608D401433C4814380160DB
:1040D000FFF754FB10B1012000E00020FF21216018
:1040E00070BD30B5354DCA221C3D2A6053222A606E
:1040F000324C20F00402383C0029304B216800F09B
:10410000040004D0114321601968014303E0914386
:104110002160196881431960FF20286030BD024684
:104120002649002034390968254B1940114200D036
:104130000120704780B240F08000C1431F483438EE
:10414000026802F080021143016070471B4A00219F
:10415000126802F00403194A383A126803EAD033AD
:1041600002401A43174B1B6803EA101003D00004E7
:10417000000C00D0012108467047C0F30F1040F03A
:104180008000C1430F48026802F0800211430160C1
:104190007047002103E0491C0A38C9B2C0B20A289E
:1041A000F9D2090740EA11607047010901EB81016A
:1041B00000F00F0000EB4100C0B270474028004003
:1041C0007F3F01000C28004010B501210C0720465C
:1041D000FEF7C2FD2046BDE810400021FEF7BCBD41
:1041E0002B49086270472B4A116821F0E001014316
:1041F000116070472649086170472549C1F8A00041
:1042000070472349C1F8A40070472249B0F5004F18
:10421000086803D040F440400860704720F44040F4
:10422000FAE71B49486270471A4B1A6822F00302EA
:1042300002431A601848026842F004020260012931
:1042400005D020BF016821F004010160704730BF34
:10425000F8E71048016841F004010160016841F08D
:10426000020101600C48016841F00401016030BFA7
:104270007047084A0146002052680A4200D00120D7
:10428000704704490A6842EA8000086070470000ED
:1042900000000E420070004010ED00E01CB5044626
:1042A0007548012150F82400FEF706FD72480021F0
:1042B000083830F81400009001208DF804008DF8C3
:1042C00006108DF8070002208DF805006B4869463E
:1042D00050F82400FEF7C4FA1CBD6749674A083944
:1042E00031F8101052F82000018370476249634A88
:1042F000083931F8101052F82000418370475F49A7
:1043000051F820104A695C4B083B33F810004240DA
:104310004A61704770B5044657480E46183886B053
:1043200050F824000121FEF7C7FC01218803FEF7A5
:10433000EBFC514800258DF8105028388DF81350AB
:1043400030F8140003904D4803A9103850F82400A9
:10435000FEF786FA012E25D147482B38015D401E15
:10436000005DFEF7D6FD4448263830F81400009072
:104370008DF8045008208DF8050001258DF80650B1
:104380006846FEF711FB3C482A38005D8DF80800AE
:104390000F208DF809008DF80A008DF80B5002A847
:1043A000FEF755FD06B070BD3349344A2839103A3E
:1043B00031F8101052F82000FEF7A3BA2DE9FC41A5
:1043C000884604462C482C4910380C3950F82400F3
:1043D00051F8241008430121FEF76EFC2CB9264841
:1043E000012114380068FEF785FC2348234E1C3851
:1043F000083E10F81420001F30F8141056F824005E
:10440000FEF7A2FA1C48371D1A3810F81420001FB6
:1044100030F8141057F82400FEF796FA00208DF8B3
:10442000060001208DF807001348022524388DF876
:10443000045030F8140000908DF8055056F8240010
:104440006946FEF70DFA0C488DF80450223869468B
:1044500030F81400009057F82400FEF701FA351FD9
:10446000414655F82400FEF7BAFD55F82400012115
:10447000FEF726FEBDE8FC81944F0108BC02002037
:104480002DE9FF5F1546DDE90E68109F8A465FEA59
:10449000000B04D0052E05D3FBF74EFFFEE7FBF71C
:1044A0004BFFFEE7482000F051FF040009D0A800B0
:1044B0008146AFB138462063A8B1A52249460FF026
:1044C000DCFE002C70D06FF00301206B01EB850146
:1044D000084420F0070778070AD0FBF72DFFFEE716
:1044E00000F034FFE7E7204600F085FF0024E8E70E
:1044F00051463546002022180B5C82F834300A5CA5
:1045000012B1401C1028F6D3002184F84310052D69
:1045100000D30425E562201D656400F09EFF04F1D0
:10452000180000F09AFF2461C5F105016462A161E1
:1045300059463846039A01F05DF92060B8F1000F42
:1045400001D0C8F8004001F0CBF9F84F7868401C62
:1045500078603868DFF8D88310B1386928B329E06B
:104560003C607868012825D1002505EB850108EB22
:10457000810000F067FF6D1C052DF6D3EC48643018
:1045800000F060FFEA48783000F05CFFE8488C30CB
:1045900000F058FFE648A03000F054FFE4486430D3
:1045A000F8621430386305E022E03868C06AB0422F
:1045B00000D83C60786A401C7862E06AF9688842FA
:1045C00000D9F86000EB800108EB8100211D00F0AC
:1045D00047FF012401F090F9386928B13868C06AB2
:1045E000B04201D201F072F904B02046BDE8F09F5C
:1045F0004FF0FF34F8E72DE9F047CC4E0027706903
:1046000028B1B069401CB0613846BDE8F087B06899
:10461000401CB060B5684FF0FF39A5B9F06A00687A
:1046200010B1FBF789FEFEE7F06A316BF16230638F
:10463000306A401C3062F06A0068E8B1F06AC06815
:10464000C0684068B062B06ADFF8E482854209D38E
:10465000F06A006890B1F06AC068C468606885421A
:104660000ED2B0623068C06A00EB800158F82100B9
:104670000128C9D90127C7E74846E3E74846F0E7DC
:10468000201D00F011FFA06A18B104F1180000F01D
:104690000BFFE06AF168884200D9F06000EB80010E
:1046A00008EB8100211D00F0DBFEE06A3168C96A79
:1046B0008842CDD30127CBE72DE9F0479B4E002759
:1046C0003D46706938B101F00BF97069401E7061A8
:1046D000706918B140E0FBF72FFEFEE7706894495F
:1046E0008C31C8B3DFF848928846D8F80010E1B1A1
:1046F000D8F80C00C46804F1180000F0D5FE201DA5
:1047000000F0D2FEE06AF168884200D9F06000EB68
:10471000800109EB8100211D00F0A2FEE06A3168F2
:10472000C96A8842E1D30125DFE7B06938B909E0F9
:10473000FFF761FF00B10125B069401EB061B069AB
:104740000028F5D1012D02D0F069012804D1002004
:104750000127F06101F0BAF801F0CEF8384654E7CD
:1047600070B5724D044628684460A8682968844280
:1047700005D2286BBDE87040091D00F07DBEE86AD7
:10478000091D00F079FEA86A844200D2AC6270BDB7
:1047900066484169491C4161704710B502000FD05D
:1047A000FFF7F6FF6148816800688C18001D00F073
:1047B0007BFE2046FFF7D4FFFFF77EFF002803D1E2
:1047C000BDE8104001F082B810BD584910B54869E5
:1047D000574A30B10120C86110BDD0B1C868401E31
:1047E000C860C86800EB800052F820000028C86844
:1047F000F3D000EB800002EB800000F10803426878
:10480000526842609A4201D152684260D0680860A2
:1048100010BDFBF791FDFEE770B5044601F060F8AE
:10482000424D04B92C68201D00F03EFEA06A18B16C
:1048300004F1180000F038FE3D48211DA03000F0C2
:104840000FFE01F059F8286884420DD1286918B18B
:10485000BDE8704001F03AB835486968A03000689A
:10486000884202D10020286070BDBDE87040ACE7EE
:1048700010B5002158B12E4B4269A0339A420AD19B
:10488000806AA3F11402904205D018B103E0FBF74F
:1048900053FDFEE70121084610BD70B504000BD0A2
:1048A000224D2868844225D001F01AF82046FFF7EF
:1048B000DFFF012803D019E0FBF73EFDFEE7201DD6
:1048C00000F0F2FDE06AE968884200D9E860184922
:1048D00000EB800001EB8000211D00F0C1FDE06ACB
:1048E0002968C96A884201D300F0F0FFBDE8704032
:1048F00001F002B870BD2DE9F041002504000AD096
:1049000001F065F8FBF718FD07462046FFF7B0FFFA
:10491000012803D026E0FBF70FFDFEE7034E706988
:1049200040B1034804F118018C3019E0CC0200209A
:10493000E4080020E06A3168C96A884201D3012591
:1049400000E00025201D00F0AFFDE06AF16888421C
:1049500000D9F060C34900EB800001EB8000211D0D
:1049600000F07EFD3846FBF7EEFC2846BDE8F081FE
:10497000BD480168C96A09B100207047B949096892
:104980000129F9D8816A8068081A7047B54DB64C7C
:104990002868012801D900F099FFFFF7E9FF0228F4
:1049A000F6D3FFF7F5FEA06AA168884202D2FBF7B2
:1049B000C3FCFEE7FFF7DCFF022801D300F0B4FFE1
:1049C000FFF77AFEE4E71FB50024009401940294F7
:1049D00023468022A5A1A7480394FFF751FD012893
:1049E00003D100F0ECFD012804D000280CD1FBF726
:1049F000A3FCFEE7FBF7A0FC9B480121016184605A
:104A0000BDE81F4000F024BF1FBD10B5FBF794FCAC
:104A1000954900200861BDE8104000F056BF10B570
:104A200000F05EFF9048846800F066FF204610BDED
:104A300010B500F0CCFFFBF77FFC8B498C68FBF7CF
:104A400082FC204610BD884840687047864910B5F2
:104A50008A688B6A02449A4202D9FBF76DFCFEE732
:104A60008A681044886010BD70B50D4678B17E4CE0
:104A70002168183100F000FD2068001D00F014FDD1
:104A8000681C07D0A0682844BDE8704068E6FBF7C2
:104A900053FCFEE721687348BDE87040A030091D53
:104AA00000F0DEBC70B50D4668B16F4C216818315E
:104AB00000F0D6FC2068001D00F0F6FCA068284439
:104AC000BDE870404CE6FBF737FCFEE770B5C06808
:104AD000C4685CB104F11800064600F0E5FC624DC4
:104AE000686930B15F4831468C3010E0FBF724FC38
:104AF000FEE7201D00F0D8FCE06AE968884200D992
:104B0000E860584900EB800001EB8000211D00F0B7
:104B1000A7FCE06A2968C96A884201D3012070BDF8
:104B2000002070BD10B528B14F490A6A026089683B
:104B3000416010BDFBF700FCFEE770B50D460400B8
:104B400019D0DDB100F0CCFE474A906829684B1CB3
:104B50000FD02368126A934202D06268824210D951
:104B60006268801A88420CD2081A28602046FFF733
:104B7000D9FF002406E0FBF7DFFBFEE7FBF7DCFBD9
:104B8000FEE7012400F0B8FE204670BD3649012042
:104B9000C8617047334901208C31096809B1002090
:104BA00070473149C9690029F9D170472E4800681A
:104BB00070472D48016919B1406918B1022070474A
:104BC000002070470120704770B5040029D0264DA1
:104BD000E06A2968C96A884223D22868214EC06ADF
:104BE000C0F10500A061E06A616900EB800006EB9E
:104BF0008000814212D1201D00F056FC2868C06A56
:104C0000E062E968884200D9E86000EB800006EBCA
:104C10008000211DBDE8704000F022BC2868C06AF9
:104C2000E06270BD10B504001BD0616CE06A884280
:104C300017D0201D00F038FC606CE062C0F1050068
:104C40000949A061E06ACA68904200D9C860054974
:104C500000EB800001EB8000211DBDE8104000F05A
:104C6000FFBB10BDE4080020CC02002049444C45A5
:104C7000000000008D49000870B50D46040023D0E7
:104C800000F02EFED4E90F20216802FB00116160C4
:104C90000021A1632168A1600A46D4E90F01401EEA
:104CA00000FB01214FF0FF30E1606064A06404F17B
:104CB000100065B100F0C6FB04F1240000F0C2FB57
:104CC00000F01AFE012070BDFBF736FBFEE72169FC
:104CD0000029F5D0FFF7FAFE0128F1D100F0F6FD2A
:104CE000EEE770B50E46050016D04C2000F02EFB06
:104CF000040011D005FB06F0401C00F027FB2060EB
:104D000038B1C4E90F5601212046FFF7B5FF204610
:104D100070BD204600F06FFBFBF70EFBFEE770B5A1
:104D2000044600F0DDFD04F124050AE0606A58B194
:104D30002846FFF7CBFE08B1FFF728FFA06C401E06
:104D4000A064A06C0028F1DC4FF0FF35A56400F0F2
:104D5000D3FD00F0C5FD04F110060AE0206958B14A
:104D60003046FFF7B3FE08B1FFF710FF606C401E3E
:104D70006064606C0028F1DC6564BDE8704000F0A0
:104D8000BBBD70B51546026C044682B1BDB1E0688A
:104D90000FF0FCF9E168206C091AE1602268914289
:104DA00002D26168081AE060022D15D019E020686F
:104DB000B8B96068FFF736FF0020606011E0A068B6
:104DC0000FF0E4F9216CA0680844A0606168884293
:104DD00007D32068A06004E0A06B10B1A06B401E58
:104DE000A063A06B401CA06370BD2DE9FF4383B09E
:104DF0001F46894604004FF0000603D0B9F1000FAA
:104E000003D007E0FBF798FAFEE7206C10B1FBF740
:104E100093FAFEE74FF00008022F05D1E06B01285E
:104E200002D0FBF789FAFEE700F05AFDA06BE16BB8
:104E3000884205D3022F03D00598B0B1C6B11BE05C
:104E40003A4649462046FFF79CFF606A38B104F1B4
:104E50002400FFF73BFE012801D100F037FD00F0F0
:104E60004BFD012007B0BDE8F08300F045FD1FE0D9
:104E70006846FFF757FE012600F03EFDFFF788FC6D
:104E800000F02EFD606C401C01D1C4F84480A06C81
:104E9000401C01D1C4F8488000F02EFD05A96846E9
:104EA000FFF74BFE30B12046FFF739FFFFF704FC58
:104EB0000020D7E700F014FDA06BE16B884201D120
:104EC000012500E0002500F017FD75B104F1100088
:104ED0000599FFF7C9FD2046FFF721FFFFF7ECFB1F
:104EE0000028A1D100F0F2FC9EE72046FFF717FF53
:104EF000FFF7E2FB98E710B54C2000F027FA04001A
:104F00001BD0002060602060A060E060A0630121F1
:104F1000C4E90F10401E6064A06404F1100000F0AA
:104F200091FA04F1240000F08DFA00231A46194684
:104F30002046FFF75AFF204610BDFBF7FDF9FEE7BC
:104F400010B5040009D0FFF731FE616888420FD127
:104F5000E068401EE06003D008E0FBF7EDF9FEE7F3
:104F600000231A4619462046FFF73FFF012010BDD7
:104F7000002010BD30B404680D46002C0CD0026C2B
:104F8000C1688B18C36041688B4200D3C460C1689C
:104F9000284630BC0FF0FAB830BC70472DE9FF430B
:104FA00083B09946884604004FF0000604D00027DD
:104FB000B8F1000F03D007E0FBF7BEF9FEE7206C65
:104FC00010B1FBF7B9F9FEE700F08AFCA06B38B32B
:104FD00041462046E568FFF7CDFFB9F1000F0DD03F
:104FE000E560606A30B104F12400FFF76FFD08B19D
:104FF00000F06CFC00F080FC012033E7A06B401E49
:10500000A063206810B9FFF7D1FD60602069002817
:10501000F0D004F11000FFF759FD0128E8D0E9E7CE
:10502000059808B11EB106E000F066FC1DE0684678
:10503000FFF778FD012600F05FFCFFF7A9FB00F009
:105040004FFC606C401C00D16764A06C401C00D118
:10505000A76400F051FC05A96846FFF76EFD30B16A
:105060002046FFF75CFEFFF727FB0020FAE600F082
:1050700037FCA06B30B1002500F03EFCD5B12068B4
:1050800010B108E00125F7E700F02AFC6068FFF79F
:105090009BFD00F031FC04F124000599FFF7E4FCCE
:1050A0002046FFF73CFEFFF707FB00288CD100F0FD
:1050B0000DFC89E72046FFF732FEFFF7FDFA83E794
:1050C00070B50D46040009D0FFF770FD6168884295
:1050D00007D1E068401CE060012070BDFBF72CF9AF
:1050E000FEE700232A4619462046FFF757FF01280E
:1050F000F3D1E168491CE16070BD10B50C46022295
:105100000021FFF7EEFD08B1846310BDFBF714F931
:10511000FEE72DE9F0411D4616460F46040001D07A
:105120001FB107E0FBF708F9FEE7206C10B1FBF7B1
:1051300003F9FEE7022D05D1E06B012802D0FBF751
:10514000FBF8FEE700F043FCFBF7F6F88046A06BA7
:10515000E16B884208D3022D06D000244046FBF7BD
:10516000F2F82046BDE8F0812A4639462046FFF78E
:1051700008FEA06C401C04D0A06C401CA06401245C
:10518000ECE7606A0028FAD004F12400FFF79EFCE7
:105190000028F4D0002EF2D001203060EFE72DE996
:1051A000F04115460F46040001D01FB107E0FBF7A0
:1051B000C3F8FEE7206C10B1FBF7BEF8FEE700F085
:1051C00006FCFBF7B9F80646A06BE0B1394620466D
:1051D000FFF7D0FEA06B401EA063606C401C04D0A3
:1051E000606C401C606401240EE020690028FAD045
:1051F00004F11000FFF76AFC0028F4D0002DF2D073
:1052000001202860EFE700243046FBF79CF8204699
:10521000A8E72DE9F0410F46040001D01FB107E0D7
:10522000FBF78AF8FEE7206C10B1FBF785F8FEE784
:1052300000F0CDFBFBF780F80646A06B38B139468D
:105240002046E568FFF796FEE560012400E00024B3
:105250003046FBF778F8204684E710B5040006D006
:1052600000F03EFBA46B00F047FB204610BDFBF7AF
:1052700063F8FEE710B508B1806B10BDFBF75CF872
:10528000FEE7314A002102EBC1035B68834203D190
:10529000002042F831007047491C0829F3D37047B9
:1052A00010B5040009D0FFF7ECFF206800F0A3F868
:1052B0002046BDE8104000F09EB8FBF73DF8FEE741
:1052C00010B518B1806B20B1002010BDFBF734F889
:1052D000FEE7012010BD10B528B1816BC06B814283
:1052E00004D1012010BDFBF727F8FEE7002010BD18
:1052F00010B5154B002253F832401CB1521C082A3D
:10530000F9D310BD43F8321003EBC201486010BD61
:1053100070B50D46044600F0E3FA616C0020491CAC
:1053200000D16064A16C491C00D1A06400F0E4FAD3
:10533000A06B20B9294604F12400FFF7B3FB2046F7
:10534000BDE87040EBE40000980900202DE9F04131
:1053500004460025FFF71CFA374E06F10801706875
:1053600001F1080360B93548002720F00700C1E9C2
:105370000007334AC3E90072C0E9003201207060BF
:105380003CB10834600704D004F00700C0F1080005
:1053900004442B4A601E521E904227D2264A0968B6
:1053A000083201E00A4601464868A04202D2086875
:1053B0000028F7D1994219D015680868106048682C
:1053C0000835001B10280DD90B1958601A484C607D
:1053D00008305C6800E0104602685768A742FAD3BC
:1053E0001A60036048683168081A3060FFF764F992
:1053F0002846BDE8F08110B5002817D0A0F10804B8
:10540000FFF7C6F90C496068083100E011460A68E8
:1054100053688342FAD3226007480C6061680268CF
:1054200011440160BDE81040FFF746B910BD0248C5
:10543000006870477047000000030020E00900206A
:10544000F82B010000F108014FF0FF32C0E9011212
:10545000C160016100210160704700210161704756
:1054600042684A6093688B609368596091600861F4
:105470000168491C0160704730B50C68621C02D09D
:1054800000F1080202E0026904E01A4653681D6850
:10549000A542FAD953684B6099608A6051600861EF
:1054A0000168491C016030BDD0E901128A60D0E971
:1054B0000112516001694A68824201D182684A60E2
:1054C000002202610868401E0860704770B5002421
:1054D0004160C34D0061914206D8D11A8269914260
:1054E00006D2011D286907E09A4203D2994201D3EE
:1054F000012403E0011DE868FFF7BEFF204670BDF0
:10550000FEB5B74D1F4603462C680020089E002CB0
:1055100008D08DE80E0037B100233A466946204690
:10552000FFF7F7FDFEBDFFF744FB01284FF0000336
:1055300005D0002269462868FFF757FCFEBD3246B9
:10554000F8E770B50546FFF76AFAA54E0446B0685D
:10555000844203D200F085F8012000E0002028609A
:105560002046B46070BD9E4CE068016839B10021EE
:1055700039B1002000F0F0F800F0A1F8F4E70121C3
:10558000F6E7C0680068F5E710B500F0A9F9944C9B
:10559000206880B99348FFF755FF92481430FFF711
:1055A00051FF9048E0601430206100220C210A2055
:1055B000FFF797FB2060BDE8104000F09DB91FB5D4
:1055C000FFF7E2FF8648006878B185490222002093
:1055D0000092091DCDE9011003460390D20182A17A
:1055E0008348FEF74DFF002802D1FAF7A5FEFEE73B
:1055F00004B010BD2DE9F0471E46DDF82090174697
:105600000D00804612D02820FFF7A0FE04000AD02B
:10561000FFF7BAFFC4F80080C4E90657C4E9086977
:10562000201DFFF71AFF2046BDE8F087FAF784FE39
:10563000FEE76B4810B54068002802D1FAF77CFEFF
:10564000FEE710BD10B5044600F04AF9606908B1E4
:10565000012400E0002400F04FF9204610BD006A4C
:105660007047F8B55E4E1FE0C068C4680568201D2D
:10567000FFF71AFF616A20468847E069012813D1C5
:10568000A0692844A84206D924616060211DF06801
:10569000FFF7F2FE08E000200346014600902A468C
:1056A0002046FFF72DFF38B1F06801680029DBD1F3
:1056B0003169C6E90310F8BDFAF73EFEFEE730B5E2
:1056C00085B0474D3EE0039C606910B1201DFFF797
:1056D000EBFE04A8FFF735FF0246019830B1012820
:1056E00030D002281FD003282CD128E00298A169CD
:1056F000034601442046FFF7E9FE012822D1616AF2
:1057000020468847E06901281CD1002000900298BB
:10571000A1690023421819462046FFF7F1FE88B917
:10572000FAF70AFEFEE70298A06128B18118134635
:105730002046FFF7CBFE05E0FAF7FEFDFEE7204628
:10574000FFF759FE00231A4601A92868FFF726FC37
:105750000028B8D105B030BD2DE9FC410F46054603
:10576000FFF716F801A8FFF7ECFE0446019818B100
:10577000FEF7A2FFBDE8FC81194E37BBA54224D835
:10578000FEF79AFFF0682746C068C468201DFFF73F
:105790008BFEE069012811D1A0692B4641193A46D8
:1057A0002046FFF793FE012808D10020034601465A
:1057B00000902A462046FFF7A3FE18B1616A2046F2
:1057C0008847D7E7FAF7B8FDFEE7291B3068FFF7EF
:1057D0009FFDFEF771FF0028CCD100F077F8C9E7F4
:1057E00018030020D8350120546D722053766300D1
:1057F0006755000810B5031F4FF080741C601B1F15
:105800001960191F00230B6014390A60091FDA1E82
:1058100044380A6010BD10B57B484FF47A737B4A58
:1058200000686FF07F44B0FBF3F19160B4FBF1F1DD
:10583000D160B0FBF0F12D24B4FBF1F11161B0FBAC
:10584000F3F14FF0E020491E41610721016110BDD5
:105850001CB56F4908780190FF20087008788DF812
:1058600000009DF80000694C00F0500020700720F7
:10587000606107E06069401E60619DF800004000C3
:105880008DF800009DF800000006F3D4207D000292
:1058900000F4E0606061019808705E48016841F4BE
:1058A00070010160016841F070410160FFF7B3FFD2
:1058B00000206060FAF70EFD5748016841F0404152
:1058C0000160FAF7FDFC00201CBD704751494FF004
:1058D00080501C390860BFF34F8FBFF36F8F704744
:1058E00010B5FAF729FD49484168491CBFF34F8FAD
:1058F000BFF36F8F416010BD44494868401E486047
:1059000001D1FAF720BD704710B5FAF715FDFEF783
:1059100072FE20B13F494FF080501C390860BDE84D
:1059200010400020FAF70FBD2DE9F047374E04462E
:10593000F068844200D904464FF0E0274FF0060992
:10594000C7F81090B969B268601E02FB0015306993
:10595000854200D92D1A72B6FFF71CF94FF00708DF
:10596000C0B17D610022BA61C7F8108024B1BFF3D5
:105970004F8F30BFBFF36F8FC7F8109062B6386992
:10598000C0030CD5B869B168281A081A401E78619E
:10599000641E0EE0C7F8108062B6BDE8F087B068FC
:1059A000B9694443611AB1FBF0F4631C4343581ACC
:1059B0007861BA61FFF794FFC7F810802046FFF7BF
:1059C00045F8B068401E7861BDE8F04794E710B52F
:1059D000FAF7BCFC0D49102809D300F1E02090F83B
:1059E000F0030A78904202D2FAF7A6FCFEE70948D3
:1059F00014380068496900F4E060884202D9FAF777
:105A00009BFCFEE710BD0000880200202C03002054
:105A100000E400E020ED00E034EF00E009488047BA
:105A200009480047FEE7FEE7FEE7FEE7FEE7FEE780
:105A3000FEE7FEE7FEE7FEE704480549054A064B98
:105A400070470000C72600088901000838C80120F7
:105A500038D0012038CC012038CC012070B5B34CAF
:105A600002074FF0800101D5218300E061834207E6
:105A70004FF0400101D5218300E0618382074FF0A0
:105A8000200101D5218300E06183C1074FF01000A0
:105A900001D0208300E060834FF4806525830120DE
:105AA000FEF77BFE6583BDE870400120FEF775BE02
:105AB00010B5012000F0DCF8BDE810401E20FEF714
:105AC0006CBE9B49087840F00400087040F0080064
:105AD00000F0CEB870B50D46064600F0D7F8282085
