:020000040800F2
:1000000050D00120615C0008592800085B280008D6
:100010005D2800085F280008612800080000000033
:10002000000000000000000000000000A502000821
:100030006328000800000000E90200084D5B00088A
:100040007B5C00087B5C00087B5C0008B37A0008DE
:100050007B5C00087B5C00086F6F0008876F0008FE
:100060009F6F0008B76F0008CF6F00087B5C000827
:100070007B5C00087B5C00087B5C00087B5C000804
:100080007B5C00087B5C00087B5C00087B5C0008F4
:100090007B5C00087B5C00087B5C0008E76F000865
:1000A0007B5C00087B5C00087B5C00087B5C0008D4
:1000B0007B5C00087B5C00087B5C00087B5C0008C4
:1000C0007B5C00087B5C00087B5C00087B5C0008B4
:1000D0007B5C00081B6800082D6800084568000864
:1000E00039700008D57A00087B5C00087B5C00084A
:1000F0007B5C00087B5C00087B5C00087B5C000884
:100100007B5C00088F3301087B5C00087B5C000887
:100110005D680008756800087B5C00087B5C00086F
:100120007B5C00087B5C00087B5C0008AF33010847
:100130007B5C00087B5C00087B5C00087B5C000843
:100140007B5C00087B5C00087B5C00087B5C000833
:100150007B5C00087B5C00087B5C00088968000809
:100160007B5C00087B5C00087B5C00087B5C000813
:100170007B5C00087B5C00087B5C00087B5C000803
:100180007B5C00087B5C000800F002F800F07AF865
:100190000AA090E8000C82448344AAF10107DA45E2
:1001A00001D100F06FF8AFF2090EBAE80F0013F0BA
:1001B000010F18BFFB1A43F001031847E46D01005B
:1001C000046E01000A444FF0000C10F8013B13F0DC
:1001D000070408BF10F8014B1D1108BF10F8015BA0
:1001E000641E05D010F8016B641E01F8016BF9D193
:1001F00013F0080F1EBF10F8014BAD1C0C1B09D1EA
:100200006D1E58BF01F801CBFAD505E014F8016B5B
:1002100001F8016B6D1EF9D59142D6D370470000ED
:100220000023002400250026103A28BF78C1FBD8FF
:10023000520728BF30C148BF0B607047642913F0D4
:100240000986752913F00686782913F03F866329FD
:1002500014F0A182732914F0A682002070471FB504
:1002600014F082FF9DE8030014F0DEF914F0C2FDE3
:1002700004000020002114F023FE401C60601FBD1C
:1002800010B510BD14F091FD1146FFF7E8FF01F025
:10029000CAFD14F0B3FD03B4FFF7F2FF03BC14F082
:1002A000E1FD0000234B19680868B0E8F04F80F3C7
:1002B00009884FF0000080F31188704700000000AB
:1002C00003480068006880F3088862B600DF00BF5A
:1002D00008ED00E0DFF80C00016841F470010160F6
:1002E000704700BF88ED00E0EFF30980114B1A68FA
:1002F0001EF0100F08BF20ED108A20E9F04F1060AB
:1003000008B54FF0500080F3118804F080FB4FF0E7
:10031000000080F31188BDE8084019680868B0E85B
:10032000F04F1EF0100F08BFB0EC108A80F3098860
:10033000704700BFE4020020EFF311804FF050013E
:1003400081F31188704780F311887047EFF30580BF
:10035000704700008CB0FE4E96F82C0000287DD12E
:1003600096F82F0006F13A0101F10C05C8B9F948D9
:10037000C2790A70027A4A70427A8A70827ACA70A6
:10038000C27A2A70027B6A70427BAA70827BEA7012
:10039000837C0A1D1370C37C5370037D9370407D72
:1003A000D070CA78307D0244CA70EB4900EB40003F
:1003B000A1F1DE0301EB40001A1FE63906F07EFAD8
:1003C00010B9E6A002F001F905F094FC0021E9A2C1
:1003D000084605F0F5FCF0A20221002005F0F0FC33
:1003E000F2A1F648326E13F0D1FCF44A032100204A
:1003F00005F0E6FC4FF47A77384604F0F0FA05F0A1
:1004000079FCEF4C0DF1140CA079637A227AE17932
:100410008CE80F00A0780DF1040C63792279E17863
:100420008CE80F0060780090CB4A2378083AE5A169
:10043000E24813F0ABFC0021E04A084605F0C0FC9E
:10044000384604F0CCFA05F055FC68780DF11C0C28
:10045000338FEA78A9788CE80F0000E01DE0E07A9D
:100460000DF10C0C2B78627B217B8CE80F00207C3B
:10047000A27A617C8DE80700E37BA27BE0A1CF48F4
:1004800013F084FC0021CD4A084605F099FC38465B
:1004900004F0A5FA012086F82E00E84D4AF6AA24B9
:1004A0002C6006F0B0FAFBE7E44F4AF6AA260024D7
:1004B0003E60DFF89C82A64D08F18008D8F858000D
:1004C00090F87C0001284FF0030019D004F039F8AF
:1004D000322004F084FA95F82200A8B1641C062C9E
:1004E00013DD687D03280FD9BFF34F8FD449086807
:1004F000D44A00F4E06010430860BFF34F8FFEE77A
:1005000004F01FF86420E4E700243E60D6E770B5ED
:10051000064600248E4D09E00A2004F060FAA87F08
:10052000012805D0E87F012802D0641CB442F3D929
:1005300070BD8749486E08B100207047C24A042048
:10054000108001201080486681F82900704770B53E
:100550009A480322BDA1E03013F0E3FE00257C4C55
:10056000012610B984F82360A56694480322B8A137
:10057000E03013F0D6FE10B984F82460E5668F48A9
:100580000322B4A1E03013F0CCFE10B984F825604A
:1005900025678A480322B0A1E03013F0C2FE10B9EB
:1005A00084F82660656785480322ACA1E03013F02B
:1005B000B8FE18B9AAA1AB4806F0EFF894F82300EA
:1005C00008B1FFF7B6FF94F8240008B102F01BF859
:1005D00094F8250008B102F009F894F8260008B153
:1005E00001F0F7FF94F8230020B1A06E00EBD0706B
:1005F0004010A06794F8240020B1E06E00EBD070AA
:100600004010E067524894F82510803009B1216FFE
:10061000016094F82610002901D0616F416070BD1F
:1006200010B54B4CA07D00B30021A175E06C0122F8
:10063000012805D002280AD003280FD090B114E079
:1006400084F82320A16684F82520216710E084F82F
:100650002320A16684F82620616709E084F825201C
:10066000216702E084F82620616794F8230008B12E
:10067000FFF75FFF94F8240008B101F0C4FF94F87D
:10068000260008B101F0A5FF94F8230020B1A06E68
:1006900000EBD0704010A06794F8240020B1E06E09
:1006A00000EBD0704010E067294894F825108030A6
:1006B00009B1216F016094F82610002901D0616F03
:1006C000416010BD70B50646214C0020803404F115
:1006D0007C05A062A06A55F82010304613F0A0FDFA
:1006E00008B1012070BDA16A491CA1620229F1DB99
:1006F000002070BDF0B45C4CDDE9045660712171DE
:10070000227066722572E3712046F0BC002106F06B
:1007100087BD2DE9F84F554F0121384602F013FAF5
:100720000124002580B12E460221384602F00BFA42
:1007300058B1A8461021384602F005FA30B12F46CC
:100740002021DFF82C9195E0C9E0CAE0CBE0000061
:10075000000000200040024020010020544D5F4571
:10076000544845524E45545F496E6974204F4B20A2
:100770000A0000002D2D2D2D544953382D50524F75
:100780002D2D2D2D43726561727465627952264458
:100790002D5449530000000057656C636F6D2D2D7B
:1007A0003E3E5449532D4F530000000054696D657F
:1007B000206F7574204F533A25640000DC0600203A
:1007C000F036012041434D3A2573202D3E49500A11
:1007D0000D25642E25642E25642E25640A0D2530F2
:1007E00032582D253032582D253032580A0D2530FB
:1007F00032582D253032582D253032580000000057
:1008000047573A25642E25642E25642E25640A0D4B
:100810004E657425642E25642E25642E25640A0DEC
:1008200053563A25642E25642E25642E25640D0A20
:100830004E0D0A504F52543A2564000000300040DB
:100840000CED00E00400FA051808024052313000B7
:1008500052323000523131005232310052303000C9
:100860004F4B000000480040FC070020000C0240F5
:1008700000040240484602F066F970B3009540213A
:10088000484602F060F948B3AB468021CA46484664
:1008900002F059F968B3A9464FF48071504602F04E
:1008A00052F940B3AA464FF48051FE4802F04BF98A
:1008B00018B32846009909EB4B02890001EBC701E8
:1008C0000A4402EB081101EB4612F749BAF1000F96
:1008D0000A7514D00A220A6612E006E007E02646EE
:1008E00022E7A04626E727462AE70094C7E7A34663
:1008F000CBE7A146D0E7A246D5E72046DAE70C666B
:10090000002801D081F82C50BDE8F88F86B0002473
:100910000122E64F03255602234631463846CDE9EB
:10092000004505F07BFB7E830421102005F0F4F9DF
:10093000DD490020F13105F0A2FAB101DC4E0023BF
:1009400000941A463046019405F068FB0023009499
:100950001A4620213046019405F060FB00230094E4
:100960001A4640213046019405F058FB00230094BC
:100970001A4680213046019405F050FBC94E0022F2
:100980000121304606F0F4F900222021304606F01D
:10099000EFF900224021304606F0EAF9002210214A
:1009A000304606F0E5F900220821304606F0E0F96D
:1009B00001221102304606F0DBF90127CDE900756E
:1009C000F51400233A462946304605F027FB3583C7
:1009D000B54EDFF8DCB296F82C000BF1180B38B3EB
:1009E000B4A001F0F2FDB7494AF6AA200860DFF88A
:1009F000B89209F1EA09A9F16A0A96F82C000028D0
:100A0000FBD196F8220000286DD086F8224096F897
:100A10002E00002867D096F82900002846D0401CF8
:100A2000C0B286F82900142827D986F829403DE06D
:100A3000A5A001F0CAFDFFF76CFE16F8142FA6A1C1
:100A4000A74813F0A3F9F471B4713475F4740F204E
:100A50000123CDE900701A4619461846FFF74AFEF1
:100A60004FF48060ABF800004000ABF80000B471B8
:100A7000F4717475B473143EB5E7B8B1DAF8580080
:100A8000974A90F87C30706D012B00900CD095A1A6
:100A9000A04813F07BF900219E4A084605F090F922
:100AA000F07D02280FD01EE09BA1F1E7DAF8580094
:100AB0008B4A90F87C30706D012B009001D0A249D8
:100AC000E6E7A249E4E7F47505F014F9706D0090CB
:100AD0009FA19048B36D326D13F058F900218D4AF3
:100AE000084605F06DF9B07E012878D196F8290006
:100AF0000028FAD1874D3776A03577762A7989F89C
:100B000000206B7989F8013095F806C089F802C099
:100B1000E97989F8031095F8088089F8048095F838
:100B2000098089F8058095F80A8089F80680687838
:100B3000082806D1CDE900C18DA105F5887013F014
:100B400025F968780B2816D199F803100DF1040CDB
:100B500099F8065099F8053099F804208CE82E0091
:100B600099F80210009199F8013099F8002085A1B8
:100B70008C4813F00BF98B48FFF7A4FD58B1F777B9
:100B800086F82370B46686F82670746734767476B7
:100B900086F82B7043E0307E58B1824A82A102F180
:100BA0001E0013F0F3F87F4A03211E32002005F0E7
:100BB00007F9707E98B3707D0DF1080C401C7075BC
:100BC000784890380178457A037AC2798CE82E000B
:100BD00001794079734B424ACDE9000100E03BE0E6
:100BE00072A1A3F1800013F0D1F82F4B328F36336E
:100BF00003F11000C1788DE80E0083784278017807
:100C000072A005F01CFF674A67A102F11E0013F0F5
:100C1000BDF8644A03211E32002005F0D1F84FF4DC
:100C20009670FFF774FCB476B07F28B1FFF78FFCA5
:100C30000A20FFF76CFC00E03476F07F30B1F477E7
:100C4000FFF7EEFC0A20FFF762FC00E07476B47652
:100C500086F8274086F82840F07E012802D196F8D1
:100C6000290020B196F8280001281AD02EE1377605
:100C70007776707F70B199F8002099F80110CDE96E
:100C8000001299F8023099F8032039A1454813F071
:100C90007DF87477307F18B1424A43A13C3299E025
:100CA0009CE00FE100000240000000200010024024
:100CB000000C0240496E6974205365747570202ED3
:100CC0002E2E0A0000300040496E6974206D616963
:100CD0006E202E2E2E0A000041434D253033640035
:100CE000180100204465766963653A25732E2E2528
:100CF000640D4E6F74436F6E6E6563742E2E2E2ED0
:100D00002E2E0D473A4F70656E2E4C756F743A2536
:100D100030346400DC0600204465766963653A255A
:100D2000732E2E25640D436F6E6E65637465642E9D
:100D30002E2E2E2E2E2E0D473A4F70656E2E4C7590
:100D40006F743A2530346400306A0108EC69010898
:100D500047696144763A25640A0D536F6475746B74
:100D60003A25640A0D4C756F7464693A2564000075
:100D700025303258253032582530325825303258F7
:100D800000000000253032582530325825303258C6
:100D900025303258253032582530325825303258D7
:100DA000000000008C0800202573000028312C254D
:100DB000732C25732C312C2C25642D25642D256452
:100DC0002F25642D25642D25642900007365727616
:100DD00065720000FC4812F0D9FF3477FA48FFF73B
:100DE00071FC58B1F77786F82370B46686F82670E0
:100DF00074673476747686F82B7045E0307E60B187
:100E0000F14AAFF25C0102F11E0012F0BFFFEE4AA0
:100E100003211E32002004F0D3FF707EA0B3707D4A
:100E20000DF1080C401C7075E74890380178457A40
:100E3000037AC2798CE82E0001794079E24BE34ACB
:100E4000CDE90001AFF29C01A3F1800012F09EFFFA
:100E5000DE4B328FE23B03F11000C1788DE80E00CB
:100E6000837842780178AFF29C0005F0E8FDD64A1D
:100E7000AFF2CC0102F11E0012F088FFD24A03212A
:100E80001E32002004F09CFF4FF49670FFF73FFBEA
:100E9000F476B07F28B1FFF75AFB0A20FFF737FB43
:100EA00000E03476F07F30B1F477FFF7B9FB0A2029
:100EB000FFF72DFB00E07476F47686F8274086F87D
:100EC00028400BE086F82840FFF7AAFB96F8270099
:100ED000012803D186F82740FFF739FBB06E00EBFD
:100EE000D0704010B067316E88420FD3B8480421EB
:100EF00001800780746686F82340B466B467B476D0
:100F0000F476347674763220FFF701FBF06E00EB56
:100F1000D0704010F067316E88420DD3AC48078026
:100F2000746686F82440F466F467B476F476347612
:100F300074763220FFF7EBFA306F5546CAF800009E
:100F400004280EDB4FF48061ABF8001086F82540D2
:100F500034672C60706E20B9347674763220FFF7D7
:100F6000D6FA706F686004280EDB4FF40060ABF8AF
:100F7000000086F826406C607467706E20B9347685
:100F800074763220FFF7C3FA92484AF6AA2101602C
:100F900033E5914894B00DF1280C1EC88CE81E0072
:100FA0001EC80DF1180C8D4F8CE81E000FC80DF1F6
:100FB000380C01248CE80F0042F2A220CDE9120483
:100FC000DFF810B27C704AF6AA2ACBF800A0844E53
:100FD00007F13A0807F14609002597F82C00012887
:100FE000FBD197F82D0001287CD138780028FBD15F
:100FF00004F02DFF87F82D507878002841D097F81D
:10100000210001282DD187F8215004F073FE97F8B4
:101010002000312806D032280CD0332813D03428B1
:1010200019D01EE0B879E0B9F87AD0B9F87BC0B928
:10103000BC7006E0B878A0B9F87A90B9F87B80B9AE
:10104000BC717D700DE0B87858B9B87948B9F87BB3
:1010500038B9FC72F5E7B87818B9B87908B9F87AF0
:10106000B0B160A1634812F091FE63A1614813F032
:10107000A3F966A15F4813F09FF968A15D4813F0DA
:101080009BF9B87838B397F82100012802D012E014
:10109000FC73D6E787F8215004F02CFE97F8200067
:1010A000312804D0322804D0332856D003E0FC7015
:1010B00000E03C71BD705EA14E4812F067FE60A179
:1010C0004C4813F079F962A14A4813F075F964A10C
:1010D000484813F071F9F87890B163A1454812F0CF
:1010E00055FE00E029E264A1424813F065F967A1CA
:1010F000404813F061F96AA13E4813F05DF93C7075
:10110000387980B169A13B4812F040FE5AA13948B4
:1011100013F052F95DA1374813F04EF960A135483C
:1011200013F04AF93C70787980B164A1314812F02B
:101130002DFE65A12F4813F03FF967A12D4813F04C
:101140003BF957A12B4813F037F93C70B87948B3F5
:1011500097F82100012802D014E07C71AAE787F8F3
:10116000215004F0C7FD97F82000312806D032281E
:1011700006D0332825D0342824D003E0FC7100E0C9
:101180003C72BD7158A11B4812F000FE58A11948CD
:1011900013F012F95AA1174813F00EF95BA1154884
:1011A00013F00AF9F87940B15CA1124812F0EEFD93
:1011B0003CA1104813F000F93C70387A00B1B5E05A
:1011C000BEE0DCE0DDE000008C080020180100201B
:1011D0001A080240003000407C5101080000002045
:1011E000004002404D61696E2053657475700A0DB0
:1011F00000000000DC060020312E436172642E2EB8
:101200002E342E53686F770A0D000000322E54439F
:101210005049502E2E352E4F4B0A0D00332E52655D
:101220006C6179204F75742E202020202000000052
:1012300053657452656164436172640A0D00000075
:10124000312E57656967616E6420310A0D00000018
:10125000322E57656967616E6420320A0D00000006
:10126000332E5253323332005365745765696761C8
:101270006E64310A0D000000312E57656967616E9A
:10128000642032366269740A0D000000322E576500
:101290006967616E642033346269740A0D0000006E
:1012A000316F72322D3E234F6B000000536574572F
:1012B000656967616E64320A0D00000053657452FF
:1012C000533233320A0D0000312E426175642039E9
:1012D0003630300A0D000000322E42617564203134
:1012E00031353230300A0D00312E49500A0D0000E0
:1012F000322E49507365727665720A0D0000000047
:10130000332E506F72740A0D00000000342E4465B5
:101310006661756C4765747761790000536574493F
:10132000506465766963650A0D000000F9A1FD4807
:1013300012F02CFDAFF29401FA4813F03DF83C7026
:10134000787A48B1F8A1F74812F020FDAFF2AC016D
:10135000F44813F031F83C70B87A48B1F5A1F1487F
:1013600012F014FDAFF2C401EE4813F025F83C7002
:10137000F87A48B397F82100012804D014E07C7271
:10138000FFE6BC72FDE687F8215004F0B3FC97F845
:101390002000312804D0322804D033284FD003E075
:1013A0003C7300E07C73FD72E5A1DE4812F0EEFCB8
:1013B000E6A1DC4813F000F8E7A1DA4812F0FCFFE0
:1013C000E8A1D84812F0F8FF387B88B1E8A1D548E9
:1013D00012F0DCFCE9A1D34812F0EEFFEAA1D148FB
:1013E00012F0EAFFAFF24411CE4812F0E5FF3C7074
:1013F000787B48B1E7A1CB4812F0C8FCAFF25C1192
:10140000C84812F0D9FF3C70B87B88B1E5A1C54847
:1014100012F0BCFCE6A1C34812F0CEFFE6A1C14821
:1014200012F0CAFFAFF28411BE4812F0C5FF3C7043
:10143000F87B38B397F82100012802D012E0BC7382
:10144000B1E787F8215004F055FC97F820003128C7
:1014500004D0322804D0332875D003E03C7400E077
:101460007C74FD73D6A1AF4812F090FCD8A1AD48B2
:1014700012F0A2FFDAA1AB4812F09EFFDCA1A9484E
:1014800012F09AFF387C68B3F17988F80010317A4D
:10149000404688F80110717A88F80210B17A88F80D
:1014A0000310F27A89F80020327B89F80120727BE0
:1014B00089F80220B27B89F8032099F8023099F864
:1014C00001C099F80010CDE9021CCDE90432C278C0
:1014D0008178CDE90012437898F80020C9A191489D
:1014E00012F054FC787C30B1308A388782B2D0A1B7
:1014F0008C4812F04BFCB87CB0B1B27D3A66B17C3E
:10150000D1480170F17C4170317D8170717DC17075
:10151000837890F801C0CDF800C0CDE9013103789F
:10152000CAA1804812F032FC00217E4A084604F02D
:1015300047FC88A17B4812F029FC97F8210001287C
:1015400003D053E2FFE7BC748BE7387801283CD125
:1015500087F8215004F0CEFBF879012804D100214E
:10156000C5A2084604F02CFC387A012804D10021D9
:10157000C4A2084604F024FC787A012804D1002192
:10158000C3A2084604F01CFCB87A012804D100214B
:10159000C1A2084604F014FC787B012804D1002184
:1015A000C0A2084604F00CFC5E49203101F1200085
:1015B00012F002FF5B4867A1203012F0E7FB594AA6
:1015C00001214032002004F0FBFB97F82000232883
:1015D0007ED1B878012808D0B879012805D0F87AEA
:1015E000012802D0F87B012804D17C70BD70BD7148
:1015F000FD72FD73F878012802D1BC70FD707D701A
:101600003879012802D1BC703D717D70787901284C
:1016100002D1BC707D717D70F879012831D14148CB
:10162000403000F0D2FF0DA90CA8CDE900013D48E3
:101630000BAB0AAA9FA1403012F010FD0A98F0717E
:101640000B9830720C9870720D98B07298F8032055
:1016500098F80210CDE90012324898F8013098F855
:10166000002098A1603012F091FB2E48603000F00D
:10167000ACFF2C4837A1403012F088FBBC71FD71E3
:101680007D70387A012833D12648403000F09DFF24
:1016900011A910A8CDE9000122480FAB0EAA85A11F
:1016A000403012F0DBFC0E98F0720F9830731098F7
:1016B00070731198B07399F8032099F80210CDE96E
:1016C000001299F8013099F800207EA1154800E039
:1016D00084E1603012F05AFB1248603000F075FF70
:1016E00010481CA1403012F051FBBC713D727D705E
:1016F000B87A01280DD10B48403000F066FF09A9E7
:1017000008A8CDE90001074807AB06AA69A1403047
:10171000DEE0FEE053657449505365727665720AE7
:101720000D000000DC060020536574506F72740ACF
:101730000D0000005365744765747761790A0D00E8
:1017400053657452656C61790A0D0000312E4D6F3E
:1017500064650A0D00000000322E54696D656F75D6
:10176000740A0D00332E53656E736F720000000013
:101770005365744D6F64650A0D000000312E4D6F86
:101780006465310A0D000000322E4D6F6465320A27
:101790000D00000053657454696D656F75740A0D12
:1017A0000000000053657473656E736F720A0D005C
:1017B000312E5965730A0D00322E4E6F0A0D00004E
:1017C00053686F772073656C6563740A0D000000C1
:1017D000312E49502C5365727665720A0D00000057
:1017E000322E436172642D506F72740A0D00000036
:1017F000332E52656C61792D44656661756C47576F
:10180000000000004950204465766963650A0D2593
:10181000642E25642E25642E25640A0D5365727688
:1018200065720A0D25642E25642E25642E2564001C
:1018300052656164436172640A0D5C6E0D506F7293
:10184000740A0D25640000003E00002054696D6597
:101850006F757452656C61790A0D25640A0D4465D3
:101860006661756C742047770A0D25642E25642EF9
:1018700025642E256400000049506465766963651F
:101880000000000049505365727665720000000048
:10189000506F72740000000044656661756C7420BE
:1018A0004757000054696D656F757452656C6179B6
:1018B0000000000025642E25642E25642E25642357
:1018C0000000000025782E25782E25782E2578001A
:1018D00012F0C4FB0698B0740798F074089830753D
:1018E00009987075DDE90801CDE90001AFF22C011E
:1018F000DDE90623FD4812F049FAFC4800F065FED8
:10190000AFF2B011F948203812F040FABC71BD7244
:101910007D70787A01281CD1F448203800F055FEFB
:10192000F24812AAF2A1203812F098FB129A3274EF
:10193000AFF6C831ED4812F029FAEC4800F045FE48
:10194000AFF2F011E948203812F020FABC717D7234
:101950007D70787B01281CD1E448203800F035FEEA
:10196000E24813AAE2A1203812F078FB139AB2756C
:10197000AFF60841DD4812F009FADC4800F025FE18
:10198000AFF23021D948203812F000FAFC727D7392
:101990007D70387B012802D1FC723D737D70787BAD
:1019A000012802D1FC727D737D70B87B012802D1C1
:1019B000FC72BD737D70387C012802D1FC733D74CC
:1019C0007D70787C012802D1FC737D747D70B87CB9
:1019D000012802D1FC73BD747D703D7097F8200022
:1019E000352803D17878012800D13470CBF800A0D5
:1019F000FFF7F3BA30B500231C468A0E20D11A280F
:101A00001ED1084601224008C50700D0641C521CA4
:101A10000C2AF8D944F300040122641C4008C507CD
:101A200000D05B1C521C0C2AF8D903F00100B0EB6B
:101A3000516F05D101F00100A04201D1012030BD5C
:101A4000002030BD2DE9F041002850D003F029FFDF
:101A5000A64AA84E883A52F82010491C42F8201095
:101A600096F8320006F1800510B1286A401C286201
:101A700096F8330010B1686A401C68629E4CA168F9
:101A8000E06896F83200FFF7B5FF00274FF0010835
:101A900060B3A068E16849084FEA3000A060E160E7
:101AA000A068E16820F07F40A060E760A068E1687E
:101AB00020F07F40A060E760A068E16883B2A06882
:101AC000E1684FEA10428DA18F4812F05FF98E480D
:101AD00000F07BFD00202F62A060E06086F832708D
:101AE00086F8308096F82910404619B104E0FEF7D8
:101AF00023FCFEE7F07630772169606996F83300C1
:101B0000FFF778FF78B32169606940084FEA310137
:101B1000216160612069616920F07F402061676117
:101B20002069616920F07F402061676120696169F7
:101B300083B2206961694FEA104270A1724812F0C5
:101B400025F9714800F041FD00212F62216161619A
:101B500086F8337086F8318096F82910404671B9BE
:101B6000F07630770BE0FFE7286A052807D30021DD
:101B70002F62A160E16086F8327086F83080686A72
:101B8000052807D300216F622161616186F83370F7
:101B900086F83180BDE8F081F0B500252E46222878
:101BA00027D110461946012449084FEA3000C707DB
:101BB00000D0761C641C102CF6D946F300070124D3
:101BC0007F1C49084FEA3000C60700D06D1C641C1A
:101BD000102CF6D905F00100002180EA530081EABB
:101BE0000103184305D102F00100474049400F436B
:101BF00001D00020F0BD0120F0BD2DE9F041E0B39F
:101C000003F04FFE39493B4F883951F82020521CD0
:101C100041F8202097F8320007F1800410B1A06944
:101C2000401CA06197F8330010B1E069401CE061EE
:101C3000DFF8C4C0DCF80820DCF80C3097F832007C
:101C4000FFF7AAFFDFF8B0800025A8F116080126EB
:101C500098B3DCF80800DCF80C1049084FEA3000B3
:101C6000CCF80800CCF80C10DCF80800DCF80C10FC
:101C7000CCF80800CCF80C5000E01FE0DCF80800BD
:101C8000DCF80C1088F800004FEA102288F80120D8
:101C90004FEA104288F802204FEA106088F80300EB
:101CA0002946A561CCF80810CCF80C1087F8325002
:101CB00087F8306097F8290018B104E0FEF73CFB84
:101CC000FEE7FE767E77DCF81020DCF8143097F81B
:101CD0003300FFF761FFE8B3DCF81020DCF81400F4
:101CE00041084FEA3200CCF810000FE03C0700201A
:101CF00025642300000000200001002025303375FA
:101D00002530357500000000C8080020CCF81410FC
:101D1000DCF81000DCF81410CCF81000CCF81450EB
:101D2000DCF81000DCF8141088F800004FEA1022EC
:101D300088F801204FEA104288F802204FEA10602C
:101D400088F803004FF00000E561CCF81000CCF8F3
:101D5000140000E008E087F8335087F8316097F806
:101D6000290008B9FE767E77A069052809D30021ED
:101D7000A561CCF80810CCF80C1087F8325087F821
:101D80003060E069052809D30021E561CCF8101026
:101D9000CCF8141087F8335087F83160FAE610B5A4
:101DA00068B103F07EFDFB4951F82020521C41F838
:101DB0002020BDE81040F849F84804F0EEBCFEF7DA
:101DC000BBFAFEE710B558B303F06BFDF149F24CD6
:101DD00051F820205C3C521C41F82020012004F8DE
:101DE000220F0021E072EE4805F087FB6078223C6C
:101DF00010B1A06E401CA06694F8240010B1E06EF3
:101E0000401CE06694F8250010B1206F401C20674C
:101E100094F82600002802D0606F401C606710BD57
:101E2000FEF78AFAFEE72DE9FF41AFF267000123D2
:101E300000901A464FF4FA71DA4803F0FDFCD84CD2
:101E4000D8346060AFF2A9000090022301229621ED
:101E5000D44803F0F1FCA060AFF2612000900323AE
:101E600001223221CF4803F0E7FCE060AFF22B40C3
:101E70000090042301223221CA4803F0DDFC2061D6
:101E80006068002540B102F0ECFE02460095002398
:101E90001946606803F056FCA06840B102F0E1FE0C
:101EA0000246009500231946A06803F04BFCE06849
:101EB00040B102F0D6FE0246009500231946E068C4
:101EC00003F040FC206940B102F0CBFE02460095D1
:101ED00000231946206903F035FC4FF4407001F0EF
:101EE000D3F800F012FD05F01BFEAF4E7570B57013
:101EF000F57035717571B5710124F4750327DFF83C
:101F0000AC82CDE90057002322460421404604F06C
:101F100085F8CDE90057012200231146404604F020
:101F20007DF8DFF88C82CDE9005701220023910271
:101F3000404604F073F8CDE9005701220023D10296
:101F4000404604F06BF8032002F0CAFA0023009424
:101F50001A4601214046019404F060F800230094E1
:101F60001A4602214046019404F058F800230094D8
:101F70001A4610214046019404F050F88D4F00237A
:101F800000941A4620213846019404F047F80023B3
:101F900000941A4640213846019404F03FF800238B
:101FA00000941A4680213846019404F037F8002343
:101FB00000941A4621023846019404F02FF80023B9
:101FC00000941A4621037C48019404F027F84FF44A
:101FD000E1320021714804F0A7FA4FF416573A464F
:101FE0000221764804F0A0FA3A460021744804F031
:101FF0009BFA002005F0AFFA022005F0DCFBFEF7AB
:1020000088FB317864485C3801292ED080F82F4055
:10201000009501950295002380226AA16F480395DF
:1020200002F050FB009501950295002380226CA1DF
:102030006F48039502F046FB009501950295002339
:1020400080226CA17048039502F03CFB009501953D
:102050000295002380226DA17148039502F032FBA6
:1020600002F0D3FD002004B094E580F82F50B17D3C
:102070000166CDE7484A10B500235C3A522801D1E9
:1020800082F83430464C92F83410403C02296054B7
:1020900005D030290BD2491C82F8341010BD012024
:1020A00082F82700137E012BF5D19077F3E782F8B1
:1020B000343010BD384A10B55C3ABD2802D1002139
:1020C00082F83510364B92F83510803B5854D8784A
:1020D00010B90123012905D0302902D2491C82F808
:1020E000351010BD107E547E204392F829402043C5
:1020F000F4D19376F2E710B50C46294A49A1103283
:10210000204611F043FE204612F0ECF880B210BDDC
:102110002DE9F041204C0746243408462161E1684E
:1021200012F06EF8A4F18005606101264FF00008FE
:102130006E754046C4F80880062813D2DFE800F028
:10214000031313131A76134837A18830626911F00C
:102150001DFE1048883012F045F8E8750D488830AB
:1021600000F033FA6EE00B482FA18830626911F05D
:102170000DFEF3E707482CA18830626911F006FED6
:102180000448883000F021FA0248883000F034FB1F
:1021900058E00000B40600205C000020001401405C
:1021A000FC07002074510108004002400008024072
:1021B000000C0240000402400000024000480040C1
:1021C00000100140436F6E66696775726520757314
:1021D000696E672044544D4600000000930F0008CC
:1021E0004D61696E2072756E202E2E2E000000004B
:1021F0000D0900084C656420426C696E6B205461C7
:10220000736B205265640000A9040008457468657A
:10221000726E65742052756E6E696E67202E2E0088
:10222000550300082573000025732C00AFF20C0144
:10223000F848626911F0AAFDF64800F0C6F9F548C1
:1022400000F0BBFA0020E16811F0DAFF6061A068DD
:10225000401CA0600628FFF66FAFE87D012802D081
:10226000022805D006E085F82860EE77AE7501E01B
:1022700085F82A8087F86C60A7658BE410B5044662
:102280000246E5A1E34811F081FDE24800F09DF926
:10229000E648846510BD10B5044649B1206F22465A
:1022A000E3A10378DB4811F071FDDA4800F08DF905
:1022B000DE4884658038C18E491CC18610BD10B5CA
:1022C00004460246E4A1D34811F060FDD14800F075
:1022D0007CF9D648846510BD10B504460246E7A1D6
:1022E000CC4811F053FDCB4800F06FF9CF4884651E
:1022F00010BD1FB5069CCDE900230B4602460CB16C
:10230000E5A100E0EFA1C34811F040FDC14800F095
:102310005CF9F54CA079637A227AE1798DE80F00B7
:1023200063792279F1A1BB4811F030FDA079637A7D
:10233000227AE1798DE80F0063792279EBA1B54823
:1023400011F024FD94F84C20F1A1B24811F01EFDCB
:10235000B04800F03AF994F84D20F1A1AD4811F0E1
:1023600015FD04B0AB48BDE8104000F02EB9704731
:102370007047AE4810B58038AC49007DA03100EB05
:102380004000A1F1DE0301EB40001A1FE63904F022
:1023900095FA002804D1BDE81040E6A000F015B978
:1023A00010BD012004F03BBB10B5E8A1994811F025
:1023B000EDFCBDE81040974800F007B9F0B59B4C24
:1023C0000125803C87B001281DD0214604F580738B
:1023D00091F83020496E082876D0002610287CD04D
:1023E0002246202892F8312078D0402877D0B0F5C6
:1023F000807F75D194F82900002803D094F82B0031
:1024000000286ED0CBE0DC480168090401684FEA7F
:10241000816126D4002901684FEA416110DB006820
:1024200000294FEA006005DB002801DB44203EE084
:1024300038203CE0002801DB342038E0232036E05F
:10244000006800294FEA006005DB002801DB32202C
:102450002DE030202BE0002801DB362027E0422051
:1024600025E0002901684FEA416110DB006800297E
:102470004FEA006005DB002801DB312017E039203E
:1024800015E0002801DB352011E041200FE0006855
:1024900000294FEA006005DB002801DB332006E05D
:1024A0002E2004E0002801DB372000E0432084F8E0
:1024B000200084F8215007B0C2B2BDE8F040554872
:1024C000AEA1403811F062BC002A3BD0002939D1BE
:1024D0009968D8684918404112E003E015E01DE012
:1024E00030E031E0002A2DD000292BD19968D8683E
:1024F000491840419960D8609968D86841F0010155
:102500009960D86014F8320F1AE0002A1AD0002916
:1025100018D119695869491840410DE0002A11D0B5
:1025200000290FD11869596900184941186159618A
:102530001969586941F001011961586114F8330FA4
:10254000401C207007B0F0BD32480DF1080CC030BF
:102550000178477A037AC2798CE88E000179407954
:10256000874B324ACDE90001983286A1A3F19E0043
:1025700011F00CFC052002F032FA2C4B228F4A3B62
:1025800003F11000C1788DE80E008378427801785D
:10259000844804F054FA84F82A5000F027F8206E9A
:1025A0004000A066E06684F82B6084F82960A67677
:1025B000E676C7E71D4901208039C87481026E485C
:1025C00008300180C114018070470146764804F04C
:1025D000E4B8694910B50A314FF400600880134926
:1025E0007148633104F0D9F8002010BD624910B57C
:1025F0000A314FF4806008800C496B485C3104F06C
:10260000CCF8002010BD09488038416E09B1002087
:102610007047CBE03C070020436F6E6E65637465C6
:102620006420746F2025730A0000000080000020E1
:10263000436F6E6E656374696F6E202573207375CA
:10264000636365737366756C6C792E416374697628
:102650006525640A00000000416E206572726F7289
:10266000206F636375726564206F6E20636F6E6E9A
:10267000656374696F6E2025730A0000436F6E6E88
:10268000656374696F6E20257320686173207374AD
:1026900061727465640A000049503A2025642E2551
:1026A000642E25642E25642061737369676E6564EA
:1026B0002062792044484350207365727665720A1F
:1026C0000000000049503A2025642E25642E256420
:1026D0002E25643B205354415449432049502075D2
:1026E0007365640A00000000F03601204D41433A52
:1026F00020253032582D253032582D253032582D96
:10270000253032582D253032582D253032580A00C8
:102710004C696E6B203130304D3A2025640A000040
:1027200046756C6C206475706C65783A2025640A77
:102730000000000052455F45544845524E45545FE5
:10274000496E6974204F4B200A00000044484350F2
:102750002068617320737461727465642077697492
:10276000682061737369676E696E672049502061E4
:102770006464726573730A00100C024025630000E4
:10278000AA08002028322C25732C25732C312C2CE0
:1027900025642D25642D25642F25642D25642D2584
:1027A00064290000CC0D0008004800401F4A0121A8
:1027B00011800221416601202AE71FB51C4C231F0E
:1027C0001A1F111F8DE81E000B1F0C3A19A111F0E2
:1027D00045FCA4F1540090F8541090F85020CDE935
:1027E000002190F84C3090F8482090F8441090F870
:1027F0004000FDF77FFF1FBD0EB50D4B183B1A1FA4
:10280000111F8DE80E000B1F0C3A0FA111F026FCD2
:1028100007485438A0F18001C26BCA64826B4A65D4
:10282000026B8A65406B08650EBD00001808024007
:10283000D400002025642D25642D25642F25642DCA
:1028400025642D256400000025642D25642D256454
:102850002D25642D256400007047FEE7FEE7FEE7A6
:10286000FEE77047704700000CB500225449009203
:102870000192086840F4803008604FF4A043086873
:1028800000F4003001900098401C0090019810B9AD
:1028900000989842F3D10868800334D50120019054
:1028A00047484030026842F0805202604548026862
:1028B00042F4404202604248083002680260026806
:1028C00042F400420260026842F4A0520260031F18
:1028D0003D4A1A600A6842F080720A600A689201F2
:1028E000FCD53A4940F205720A60016821F0030103
:1028F0000160016841F0020101600168C1F38101DA
:102900000229FAD10CBD01920CBD314810B5016805
:1029100041F4700101602A48016841F00101016041
:10292000274A00210832116002682A4B1A400260CF
:10293000031D294A1A60026822F48022026020489E
:102940000C300160FFF790FF21494FF000608039A3
:10295000086010BD70B51A4D083528681F4B204916
:1029600010F00C0004D05E10042803D0082803D017
:102970000B601BE00E6019E0114A121D1068C0F3D5
:102980008054106800F03F0014B1B6FBF0F001E095
:10299000B3FBF0F013681268C3F388135843C2F313
:1029A0000142521C5200B0FBF2F0086028680C4A49
:1029B000C0F30310121D105C0A68C2400A6070BDAB
:1029C000003802400070004008544007003C0240BC
:1029D00088ED00E0FFFFF6FE103000240024F40034
:1029E000A0020020714910B5884206D10121084695
:1029F00000F0B6FA002101204FE06D49884206D16F
:102A00000121022000F0ACFA0021022045E06949D2
:102A1000884206D10121042000F0A2FA00210420FE
:102A20003BE06549884206D10121082000F098FA70
:102A30000021082031E06149884206D1012110209F
:102A400000F08EFA0021102027E05D49884206D16F
:102A50000121202000F084FA002120201DE05949A6
:102A6000884206D10121402000F07AFA002140205E
:102A700013E05549884206D10121802000F070FA08
:102A80000021802009E0514988420AD184150121A2
:102A9000204600F065FA00212046BDE8104000F015
:102AA0005FBA10BDF0B5002201274FF0030C0B6890
:102AB00007FA02F52B40AB422CD1066853000CFA02
:102AC00003F4A64306600E79D0F800E09E4046EA83
:102AD0000E0606600E79012E01D0022E12D18668F4
:102AE000A64386604E79D0F808E09E4046EA0E067E
:102AF00086604668AE43466045688E799640B6B2B9
:102B000035434560C568A543C560CC799C40C36822
:102B10001C43C460521C102AC9D3F0BD4FF6FF718C
:102B200001600021017141718171C171704708B567
:102B300041F480320092C261C1610099C161C169F2
:102B4000C069009008BD0246002012690A4200D008
:102B500001207047006980B2704702460020526928
:102B60000A4200D001207047406980B2704701835B
:102B70007047418370470AB10183704741837047B2
:102B80004161704742694A40426170474B07DB0E22
:102B90009A40C90810B500EB8100016A0F249C40DF
:102BA000A1430162016A1143016210BD00000240AD
:102BB0000004024000080240000C024000100240E5
:102BC0000014024000180240001C02400020024095
:102BD000374900200860091D0860091D0860091DAB
:102BE00008603349334814310860704730B5304AC3
:102BF0008379016853B313688B431360111D0B680D
:102C00000468A3430B60017911440B6804682343F3
:102C10000B60274B083319680468A14319601C1D19
:102C200021680568A94321604179102905D0114424
:102C30000A68006802430A6030BD196802681143DF
:102C40001960216800680143216030BD007910449B
:102C500002688A43026030BD0021016001710C22CC
:102C6000427181717047124910310A6802430A604B
:102C7000704701460E4A0020143212680A4200D002
:102C8000012070470A49143108607047084A01461C
:102C900000201268064B0A4014331B680B4202D016
:102CA000002A00D0012070470149143108607047A4
:102CB000003C0140FFFF7F00EA48016841F001014C
:102CC0000160E84A0021083211600268E64B1A40B0
:102CD0000260031DE54A1A60026822F48022026045
:102CE000E0480C3001607047DE490022891C0A7000
:102CF0000870704702460020510901290CD00229B2
:102D00000CD0D8497431096802F01F0201239340A6
:102D10000B4200D001207047D249F4E7D14970310D
:102D2000F1E718B500204FF4A04400903120FFF7E0
:102D3000E1FF0099491C0091A14201D00028F5D083
:102D40003120FFF7D7FF002800D0012018BDC54A69
:102D5000116821F0F80141EAC00010607047C449D1
:102D600008607047BF49002270310A700A7001285C
:102D700002D0042801D1052008707047BD490860C1
:102D8000704741EA82115A0810B5BB4B029C03EB15
:102D900002421143014341EA0460B249091D08603F
:102DA00010BDB34908667047800140EA0170AD4923
:102DB000843108607047AE4988667047AC49C86482
:102DC0007047A84B08331A68084322F0EC6210439E
:102DD00018607047A34B08331A68084322F0784202
:102DE0001043186070479F4A0832116821F00301B0
:102DF0000143116070479B480830006800F00C00E8
:102E00007047984A0832116821F0F00101431160BF
:102E10007047944A0832116821F4E051014311606F
:102E20007047904A0832116821F4604141EAC000BD
:102E30001060704770B58B4B083319688F4C11F0D8
:102E40000C0104D06610042903D0082903D00460C3
:102E50001BE0066019E0834A121D1168C1F380551A
:102E6000116801F03F0115B1B6FBF1F101E0B4FBCF
:102E7000F1F114681268C4F388146143C2F301428B
:102E8000521C5200B1FBF2F1016019680F2202EAF4
:102E900011117B4A545C0168E14041601C680725C0
:102EA00005EA9424145D21FA04F484601B6805EAA1
:102EB0005333D25CD140C16070BDC0F301210329FE
:102EC00008D1684B083319686E4A21F4F8110240A2
:102ED0000A431A60634970310A68C0F30B00024369
:102EE0000A60704763494439086070476149403956
:102EF000086070475E49C1F85C017047594A30323A
:102F00000029116801D0014300E08143116070473E
:102F1000544A34320029116801D0014300E0814352
:102F2000116070474F4A38320029116801D00143BF
:102F300000E08143116070474A4A4032002911681D
:102F400001D0014300E0814311607047454A44329B
:102F50000029116801D0014300E0814311607047EE
:102F6000404A10320029116801D0014300E081433A
:102F7000116070473B4A14320029116801D00143A7
:102F800000E0814311607047364A18320029116809
:102F900001D0014300E0814311607047314A203283
:102FA0000029116801D0014300E08143116070479E
:102FB0002C4A24320029116801D0014300E08143EA
:102FC00011607047274A50320029116801D001432F
:102FD00000E0814311607047224A54320029116891
:102FE00001D0014300E08143116070471D4A58320F
:102FF0000029116801D0014300E08143116070474E
:10300000184A60320029116801D0014300E0814371
:1030100011607047134A64320029116801D00143DE
:1030200000E08143116070470E4A0D32002911788B
:1030300001D0014300E081431170704709487430AA
:10304000016841F08071016070470146054A002027
:103050000C3212680A4200D00120704701490E313B
:103060000870704700380240FFFFF6FE1030002461
:1030700000004742800E47420000FFFF0024F4009A
:10308000B4020020FFFCFF0F2849084328490860CC
:10309000704730B50F23C27801780125FAB1244A70
:1030A000126801F1E02102F4E062C2F5E062C2F3CD
:1030B0000722C2F10404D3404278A24084781C4025
:1030C0001443220181F80024007800F01F018D4094
:1030D0004009800000F1E020C0F8005130BD01F04F
:1030E0001F0085404809800000F1E020C0F88051B1
:1030F00030BD104A114001430D48001F0160704768
:103100000B4A121D0029116801D0014300E08143E0
:10311000116070474FF0E0210428086903D020F0C7
:1031200004000861704740F00400FAE70000FA0567
:103130000CED00E080FFFF1F10B501218C0320463D
:10314000FFF736FF2046BDE810400021FFF730BFF3
:1031500013490860704710B58A0721F0030411492C
:10316000120F21440F23D1F8084893409C43C1F823
:103170000848D1F8083890400343C1F8083810BD1A
:103180000949C1F8DC0070470849086070470449E4
:10319000002020310968C90500D5012070470000D2
:1031A000003801400030014000002742000427425F
:1031B000C74910B5884206D101211020FFF7F8FE5B
:1031C0000021102028E0C349884202D101214C048B
:1031D00010E0C149884202D101218C040AE0BF49B4
:1031E000884202D10121CC0404E0BD4988420AD1C1
:1031F00001210C052046FFF7D1FE2046BDE8104016
:103200000021FFF7CBBEB749884209D10121202018
:10321000FFF7CEFE00212020BDE81040FFF7C8BE1A
:1032200010BD7FB50446008A0D46C98820F4405081
:1032300001432182A08941F20C618843A9882A892F
:1032400011436A8902431143A181A08A20F440718D
:10325000A8890843A0826846FFF7ECFD9C48844299
:1032600002D0A048844201D1039800E00298A189CD
:10327000090400EBC00101EB0010296801D54900E9
:1032800000E08900B0FBF1F06422B0FBF2F109012B
:103290000B096FF018056B4300EB8300A3891D0435
:1032A0004FF0320306D503EBC000B0FBF2F000F0A4
:1032B000070005E003EB0010B0FBF2F000F00F0098
:1032C000084320817FBD4FF41651016000218180A9
:1032D000C18001810C2242818181704710B5028A30
:1032E0004C8822F470630A8822438C88C9880C4376
:1032F00022431A43028210BD002101804180818057
:10330000C18070470029818902D041F4005101E059
:1033100021F4005181817047028B02F47F420283C5
:10332000028B0A43028370470029818902D041F44D
:10333000004101E0C1F30E01818170470029818ABB
:1033400002D041F4006101E021F400618182704704
:10335000C1F30801818070478088C0F3080070477E
:10336000028A22F00F020282028A0A430282704716
:103370000029818902D041F0020101E021F002011F
:1033800081817047828922F40062828182890A43A6
:1033900082817047028A22F020020282028A0A4356
:1033A000028270470029018A02D041F4804101E085
:1033B00021F4804101827047818941F001018181BE
:1033C00070470029818A02D041F0080101E021F014
:1033D000080181827047028BD2B20283028B42EADB
:1033E0000121018370470029818A02D041F0200128
:1033F00001E021F02001818270470029818A02D0FA
:1034000041F0100101E021F0100181827047828AB1
:1034100022F004028282828A0A4382827047002953
:10342000818A02D041F0020101E021F00201818293
:103430007047002A828A01D00A4300E08A438282D0
:10344000704710B5C1F3421301F01F040121A140E0
:10345000012B07D0022B07D01430002A026805D0B8
:103460000A4304E00C30F8E71030F6E78A430260C4
:1034700010BD0246002012880A4200D00120704789
:10348000C9430180704770B501F01F050126002473
:10349000C1F3421306FA05F2012B0FD0022B0FD015
:1034A000838A4FEA11210088134206FA01F600EAE6
:1034B000060001D000B10124204670BD8389F0E7E9
:1034C000038AEEE70A0A01219140C943018070474F
:1034D000001001400044004000480040004C004003
:1034E00000500040001401402DE9F043016821F034
:1034F000010101600021016041608160C1600161E2
:1035000021214161B849B84A3D251039904202D184
:103510008D60BDE8F083B44A4FF47466183290426F
:1035200001D18E60F5E7B04A4FF474173032904203
:1035300001D18F60EDE7AC4A4FF0746C4832904295
:1035400002D1C1F808C0E4E7A74BA84A603398420B
:1035500001D1CA60DDE7A44CA54B7834A04201D16B
:10356000CB60D6E7DFF88082A24C08F19008404596
:1035700001D1CC60CDE7DFF870824FF03D5908F102
:10358000A808404502D1C1F80C90C2E79A49DFF87B
:1035900068820839404501D10D60BAE7964D18356B
:1035A000A84201D10E60B4E7934D3035A84201D155
:1035B0000F60AEE7904D4835A84202D1C1F800C077
:1035C000A7E78D4D8C496035091FA84201D10A60DB
:1035D0009FE7894A7832904201D10B6099E7864A89
:1035E0009032904201D10C6093E7834AA832904216
:1035F0008FD1C1F800908CE730B503687F4ACC6862
:1036000013400A682243D1E905452C432243CC6983
:1036100022430C6A22434C6A22438C6A22434C6B3D
:1036200022438C6B22431A430260426922F0070353
:10363000D1E90B2422431A4342610A6942604A6875
:1036400082608968C16030BD002101604160816095
:10365000C160016141618161C16101624162816258
:10366000C16201634163816370470029016802D030
:1036700041F0010101E021F00101016070470029E2
:10368000016802D041F4004101E021F400410160F1
:1036900070470029016802D041F0200101E021F0CB
:1036A00020010160704741607047406880B27047F8
:1036B000002A026802D042F4002201E022F4002233
:1036C0000260016170470029016802D041F4802145
:1036D00001E021F48021016070470AB10161704767
:1036E000C1607047014600200968090300D5012028
:1036F0007047014600200968C90700D001207047C3
:10370000406900F03800704702463B4B00209A4267
:1037100002D2354A103A01E0374A103A8B0001D5FF
:10372000526800E01268364B1A400A4200D001206D
:103730007047314A904202D22B48103801E02E489F
:1037400010382F4A8B0001EA020101D5C160704791
:10375000816070470B0607D5436912B143F08003BF
:1037600001E023F080034361802908D0002A026829
:1037700001F01E0101D00A4300E08A430260704755
:1037800030B51D4A0024904202D2174A103A01E097
:10379000194A103A1B4B194205D01E2303EAD125C2
:1037A00003682B4002E0406900F08003880001D5E7
:1037B000506800E01068124A1040084201D003B17E
:1037C0000124204630BD0C4A904202D206481038EF
:1037D00001E0094810380A4A8B0001EA020101D5CC
:1037E000C160704781607047106002403D0000205A
:1037F000400F002000003D20106402403F801CF07C
:103800007D0F7D0F3C0F3C0F10B50121CC022046EF
:10381000FFF7CEFB2046BDE810400021FFF7C8BBF4
:1038200030B5644B1A6847F6FF618A43017D8468AE
:10383000C568214344682C4321430468006921433F
:1038400001431143196030BD0021017501604160E1
:103850008160C160016170475749C1F8A00070479D
:103860005449091F086070475248001F006800F063
:10387000030070474F4A10B5121D01681160131DF7
:103880001968D0E901242243D0E9034004436FF3CF
:103890000A0122430A431A6010BD00210160416001
:1038A0008160C1600161704742480C300068C0B25D
:1038B0007047404908B5103108440090006808BDC1
:1038C0003C4A10B5203201681160121D4168116038
:1038D000131D1968D0E902242243D0E904400443AF
:1038E00021F0F70122430A431A6010BD4FF0FF3167
:1038F0000160002141608160C160016141617047E8
:103900002C482C30006870472A487C30006870478B
:1039100028497C3108607047264844300068704769
:103920002649086070472549091D086070472349EA
:1039300008310860704721490C31086070471E4902
:10394000C1F8AC0170471C49C1F8B00170470121B2
:1039500081431948C0F8B41170471749C1F8B8013C
:1039600070471649143908607047124A38320029E6
:10397000116801D0014300E08143116070470146A6
:103980000C4A0020303212680A4200D001207047F1
:1039900008493431086070470146064A0020303239
:1039A00012680A4200D00120704702493431086091
:1039B00070470000042C014000802542A08525426C
:1039C00018B50020FA4B0090CA20186053201860E8
:1039D000F7491839086820F0A00008604FF4003457
:1039E0000868009A00F02000521C0092A24201D008
:1039F0000028F5D00868800601D5012000E00020ED
:103A0000FF21196018BD08B5E94900201839009058
:103A10000868400612D44FF0FF3008608B13086826
:103A2000009A00F04000521C00929A4201D00028F7
:103A3000F5D00868400601D4002008BD012008BD6B
:103A400078B50024DA4ECA20009425463060532011
:103A50003060FFF7D8FFE0B3D54824380460D4497C
:103A600042F20110203908600B1D186800F00700B1
:103A700018608D131A1D1068009900F00400491C8D
:103A80000091A94201D00028F5D01068400729D53F
:103A900018681C60C6494FF6FF7010390860091F8E
:103AA000C4480860C2480C380460001D0460001D52
:103AB0000460BF4808300460BD4818300460BC484A
:103AC00020300460001D04601460B9481C3004609C
:103AD00000E003E0FFF774FF20B10125FF20306014
:103AE000284678BD0025F9E7B1481838016821F06B
:103AF00080010160704770B5AD4E04460025CA20B4
:103B0000306053203060FFF77EFFA8B1A8481C3812
:103B1000016821F0400101600168226811430160E1
:103B2000A348A168143801600168A28841EA0241F3
:103B30000160FFF7D9FF0125FF203060284670BDE6
:103B4000002101607F214160FF2181607047984919
:103B500008B1FF2002E0CA200860532008607047C7
:103B600070B5934E05460024CA2030605320306063
:103B7000FFF749FF60B18E481C38016815B141F06C
:103B8000100101E021F010010160FFF7ADFF0124F9
:103B9000FF203060204670BD854ACA211160532144
:103BA000116083491C390028086802D040F02000C9
:103BB00001E000F0DF000860FF20106070472DE991
:103BC000F0410C4600267C4F0100207839683246CF
:103BD0004FEA416104D000292FDA00F008FC2DE003
:103BE000002900DBE27000F0F6FB0504607800F0CD
:103BF000F2FB45EA0025A07800F0EDFB0543E078F4
:103C000045EA00456A4CCA20206053202060FFF737
:103C1000FAFE68B169480540674808380560FFF753
:103C200063FF3868800602D4FFF7CAFE00B10126A0
:103C3000FF2020603046BDE8F081E270A078217856
:103C400040EA01456078E178000240EA014005431E
:103C5000D8E70021C1700170417081707047020087
:103C600010B557480C460168544801EA0001C1F3F9
:103C700005402070C1F30623637001F07F03A37039
:103C80004FF0400303EA1141E1700AD100F0AFFBAD
:103C90002070607800F0ABFB6070A07800F0A7FBAC
:103CA000A07010BD4248001D00684349091F096803
:103CB000704770B50C460026010060780FD000F008
:103CC00096FBA07800F093FBA078E17840EA0145EC
:103CD00060782178000240EA4130054315E0C106D2
:103CE00003D520F010000A306070E07800F073FB1C
:103CF0000504607800F06FFB45EA0025A07800F02D
:103D00006AFB0543207845EA4035294CCA202060EB
:103D100053202060FFF777FE70B12A4805402648FF
:103D2000001F0560FFF7E0FE23480068800602D40C
:103D3000FFF746FE00B10126FF202060304670BD2F
:103D400001210170817041700021C1707047020033
:103D500010B51D480C4601681A4801EA00014FEAF7
:103D60001140E070C1F30423637001F03F03A370BE
:103D7000C1F3423121700AD100F039FBE070607864
:103D800000F035FB6070A07800F031FBA07010BD32
:103D900070B514460D46084A0021002810684FEA05
:103DA000406013D000282ADA207800F020FB27E0BA
:103DB00024280040FF007F00082800407F7F7F000C
:103DC000002800403FFFFF0004280040002800DBDF
:103DD000E170207800F0FFFA0604607800F0FBFA4A
:103DE00046EA0026A07800F0F6FA0643E07846EAB4
:103DF0000046207B00F0EFFA46EA006010E0E17038
:103E0000207B00F0F4FAA0782178E27840EA0140C3
:103E10006178090241EA02410843217B40EA0160DE
:103E2000A168084361680843F849CA220A6053221E
:103E30000A60B5F5807F04D00A1F1060FF2008607B
:103E400070BDF24A083AF8E70021C1700170417074
:103E500081700122816002734160704710B5144681
:103E60000246B1F5807F2AD0E848001F0168C1F3FF
:103E700005402070C1F30623637001F07F03A37037
:103E8000402303EA1143E370C1F30563237301F098
:103E9000804301F08031C4E90113002A0ED100F003
:103EA000A6FA2070607800F0A2FA6070A07800F0A6
:103EB0009EFAA070207B00F09AFA207310BDD348C0
:103EC0000838D3E738B50022D04C0092CA222260CD
:103ED00053222260CD4A1C3A0029116802D00143C6
:103EE000116012E081431160C84A183A95131168B5
:103EF000009B01EA10215B1C0093AB4201D000291A
:103F0000F5D0116811EA102000D00120FF212160B6
:103F100038BD10B5BD4BCA241C6053241C6011432E
:103F2000B0F5807F05D0B94824300160FF201860CB
:103F300010BDB6482030F8E7B0F5807F05D0B34813
:103F400024300068C0F30E007047B0482030F8E716
:103F5000AE4ACA21116053211160AC491C390B686B
:103F600023F007030B600B6803430B60FF20106016
:103F70007047A649CA220A6053220A60A34A103A2F
:103F80001060FF2008607047A0481038006880B2B9
:103F9000704718B500219D4B0091CA21196053212B
:103FA00019609A491C390028086803D040F48060E1
:103FB000086014E020F480600860944918398C137C
:103FC0000868009A00F00400521C0092A24201D03E
:103FD0000028F5D00868400701D4002000E0012047
:103FE000FF21196018BD894B10B5CA221A605322EF
:103FF0001A60864A1C3A146824F4802414601468F9
:10400000084304431460FF20186010BD7F481C382B
:10401000006800F4802070477C4B10B5CA221A60FB
:1040200053221A60794A1C3A146824F4E00414609C
:104030001468084304431460FF20186010BDF0B5F5
:10404000724D06460024CA200F462860532028607F
:10405000FFF7D9FC30B16D483E430C380660FFF7DE
:1040600043FD0124FF2028602046F0BD70B5674E57
:1040700005460024CA20306053203060FFF7C3FC9F
:1040800060B162481C38016815B141F0800101E05F
:1040900021F080010160FFF727FD0124FF2030603F
:1040A000204670BD594ACA211160532111605749F9
:1040B0001C390028086802D040F4000001E020F418
:1040C00000000860FF2010607047504ACA2111604C
:1040D000532111604D491C390B6823F400230B60F8
:1040E0000B6803430B60FF2010607047F0B5474D2D
:1040F0000023CA242C6053242C60444C183C2668AE
:10410000F60308D54FF400362768FF0303D5B34202
:1041100001D05B1CF8E72368DB0306D408433B4966
:10412000104318310860012000E00020FF212960C1
:10413000F0BD364B10B51C3B1A6840F60804A2438C
:1041400042EA000209B142F400623048CA2101602B
:10415000532101601A60FF21016010BD70B50D464A
:104160002A4914460C310968294A1140274A10325D
:1041700012684FF63F731A40C1F305432B70C1F329
:1041800006236B7001F07F03AB70402303EA1141FB
:10419000E9700021E170C2F30421617002F03F0177
:1041A000A170C2F342312170002817D1287800F0A5
:1041B0001EF92870687800F01AF96870A87800F085
:1041C00016F9A870607800F012F96070A07800F01D
:1041D0000EF9A070207800F00AF9207070BD0B482D
:1041E000143000687047094A1C320029116803D056
:1041F00041EA40001060704721EA4000FAE7034AB4
:104200001C320029116805D0014304E02428004035
:104210007F7F7F0081431160704779490A6822F4EB
:10422000C0520A600A6802430A60704774490A680B
:1042300022F4E0620A600A6802430A60704770492B
:104240000A6822F4C0420A600A6802430A607047A2
:104250006B490028086802D040F0800001E020F09F
:1042600080000860704766490028086802D020F482
:10427000004001E040F4004008607047604A08B523
:10428000103202EB80000090016008BD5C4908B567
:10429000103101EB80000090006808BD58490A68A1
:1042A00022F480320A600A6802430A607047544967
:1042B0000A6822F400320A600A6802430A60704702
:1042C0004F490A6822F480220A600A6802430A60A1
:1042D000704770B54A4C0022CA231C3C236053230C
:1042E0002360474B343B1D682D0707D59E141D687E
:1042F0002D0703D5B24201D0521CF8E71A68120705
:104300000DD43F4A383A1268D20608D401433C48DB
:1043100014380160FFF754FB10B1012000E00020C9
:10432000FF21216070BD30B5354DCA221C3D2A6089
:1043300053222A60324C20F00402383C0029304BD2
:10434000216800F0040004D0114321601968014382
:1043500003E091432160196881431960FF202860C0
:1043600030BD02462649002034390968254B1940E2
:10437000114200D00120704780B240F08000C1435C
:104380001F483438026802F0800211430160704710
:104390001B4A0021126802F00403194A383A1268D5
:1043A00003EAD03302401A43174B1B6803EA10108C
:1043B00003D00004000C00D0012108467047C0F370
:1043C0000F1040F08000C1430F48026802F08002E5
:1043D000114301607047002103E0491C0A38C9B24B
:1043E000C0B20A28F9D2090740EA116070470109F2
:1043F00001EB810100F00F0000EB4100C0B27047FB
:10440000402800407F3F01000C28004010B50121EA
:104410000C072046FEF7C2FD2046BDE810400021F3
:10442000FEF7BCBD2B49086270472B4A116821F08A
:10443000E001014311607047264908617047254932
:10444000C1F8A00070472349C1F8A4007047224971
:10445000B0F5004F086803D040F440400860704752
:1044600020F44040FAE71B49486270471A4B1A682B
:1044700022F0030202431A601848026842F0040264
:104480000260012905D020BF016821F0040101600C
:10449000704730BFF8E71048016841F0040101603F
:1044A000016841F0020101600C48016841F004011B
:1044B000016030BF7047084A0146002052680A4236
:1044C00000D00120704704490A6842EA8000086071
:1044D0007047000000000E420070004010ED00E048
:1044E0001CB504467548012150F82400FEF706FD6E
:1044F00072480021083830F81400009001208DF82F
:1045000004008DF806108DF8070002208DF80500D4
:104510006B48694650F82400FEF7C4FA1CBD674991
:10452000674A083931F8101052F8200001837047AB
:104530006249634A083931F8101052F8200041836B
:1045400070475F4951F820104A695C4B083B33F8CB
:10455000100042404A61704770B5044657480E4605
:10456000183886B050F824000121FEF7C7FC01215D
:104570008803FEF7EBFC514800258DF810502838D1
:104580008DF8135030F8140003904D4803A91038EB
:1045900050F82400FEF786FA012E25D147482B3823
:1045A000015D401E005DFEF7D6FD4448263830F818
:1045B000140000908DF8045008208DF805000125A6
:1045C0008DF806506846FEF711FB3C482A38005D1E
:1045D0008DF808000F208DF809008DF80A008DF87D
:1045E0000B5002A8FEF755FD06B070BD3349344AA2
:1045F0002839103A31F8101052F82000FEF7A3BA0B
:104600002DE9FC41884604462C482C4910380C39C9
:1046100050F8240051F8241008430121FEF76EFCE5
:104620002CB92648012114380068FEF785FC234880
:10463000234E1C38083E10F81420001F30F81410C8
:1046400056F82400FEF7A2FA1C48371D1A3810F855
:104650001420001F30F8141057F82400FEF796FAC3
:1046600000208DF8060001208DF807001348022570
:1046700024388DF8045030F8140000908DF805505F
:1046800056F824006946FEF70DFA0C488DF80450E0
:104690002238694630F81400009057F82400FEF7DD
:1046A00001FA351F414655F82400FEF7BAFD55F8CA
:1046B00024000121FEF726FEBDE8FC81D851010847
:1046C000D40200202DE9FF5F1546DDE90E68109F3A
:1046D0008A465FEA000B04D0052E05D3FBF72CFEBB
:1046E000FEE7FBF729FEFEE7482000F051FF04003B
:1046F00009D0A8008146AFB138462063A8B1A522F1
:1047000049460FF0DCFE002C70D06FF00301206BE7
:1047100001EB8501084420F0070778070AD0FBF772
:104720000BFEFEE700F034FFE7E7204600F085FFD0
:104730000024E8E751463546002022180B5C82F839
:1047400034300A5C12B1401C1028F6D3002184F8E2
:104750004310052D00D30425E562201D656400F09B
:104760009EFF04F1180000F09AFF2461C5F10501D5
:104770006462A16159463846039A01F05DF92060F0
:10478000B8F1000F01D0C8F8004001F0CBF9F84FA4
:104790007868401C78603868DFF8D88310B13869D1
:1047A00028B329E03C607868012825D1002505EB75
:1047B000850108EB810000F067FF6D1C052DF6D325
:1047C000EC48643000F060FFEA48783000F05CFFAD
:1047D000E8488C3000F058FFE648A03000F054FF65
:1047E000E4486430F8621430386305E022E0386849
:1047F000C06AB04200D83C60786A401C7862E06AC7
:10480000F968884200D9F86000EB800108EB81006C
:10481000211D00F047FF012401F090F9386928B10B
:104820003868C06AB04201D201F072F904B0204683
:10483000BDE8F09F4FF0FF34F8E72DE9F047CC4E8C
:104840000027706928B1B069401CB0613846BDE8E6
:10485000F087B068401CB060B5684FF0FF39A5B96B
:10486000F06A006810B1FBF767FDFEE7F06A316B94
:10487000F1623063306A401C3062F06A0068E8B16F
:10488000F06AC068C0684068B062B06ADFF8E4826D
:10489000854209D3F06A006890B1F06AC068C468C4
:1048A000606885420ED2B0623068C06A00EB800159
:1048B00058F821000128C9D90127C7E74846E3E78E
:1048C0004846F0E7201D00F011FFA06A18B104F17E
:1048D000180000F00BFFE06AF168884200D9F06030
:1048E00000EB800108EB8100211D00F0DBFEE06A97
:1048F0003168C96A8842CDD30127CBE72DE9F0475B
:104900009B4E00273D46706938B101F00BF9706984
:10491000401E7061706918B140E0FBF70DFDFEE7C5
:10492000706894498C31C8B3DFF848928846D8F84B
:104930000010E1B1D8F80C00C46804F1180000F0D0
:10494000D5FE201D00F0D2FEE06AF168884200D951
:10495000F06000EB800109EB8100211D00F0A2FE58
:10496000E06A3168C96A8842E1D30125DFE7B069AE
:1049700038B909E0FFF761FF00B10125B069401EB9
:10498000B061B0690028F5D1012D02D0F06901288D
:1049900004D100200127F06101F0BAF801F0CEF84F
:1049A000384654E770B5724D044628684460A868DC
:1049B0002968844205D2286BBDE87040091D00F0CB
:1049C0007DBEE86A091D00F079FEA86A844200D223
:1049D000AC6270BD66484169491C4161704710B5C1
:1049E00002000FD0FFF7F6FF6148816800688C185D
:1049F000001D00F07BFE2046FFF7D4FFFFF77EFF8F
:104A0000002803D1BDE8104001F082B810BD58491C
:104A100010B54869574A30B10120C86110BDD0B106
:104A2000C868401EC860C86800EB800052F82000CB
:104A30000028C868F3D000EB800002EB800000F192
:104A400008034268526842609A4201D1526842604B
:104A5000D068086010BDFBF76FFCFEE770B5044638
:104A600001F060F8424D04B92C68201D00F03EFEB4
:104A7000A06A18B104F1180000F038FE3D48211D6D
:104A8000A03000F00FFE01F059F8286884420DD1E3
:104A9000286918B1BDE8704001F03AB83548696836
:104AA000A0300068884202D10020286070BDBDE8B7
:104AB0007040ACE710B5002158B12E4B4269A033CD
:104AC0009A420AD1806AA3F11402904205D018B12B
:104AD00003E0FBF731FCFEE70121084610BD70B58D
:104AE00004000BD0224D2868844225D001F01AF82A
:104AF0002046FFF7DFFF012803D019E0FBF71CFC7D
:104B0000FEE7201D00F0F2FDE06AE968884200D966
:104B1000E860184900EB800001EB8000211D00F0E7
:104B2000C1FDE06A2968C96A884201D300F0F0FF3C
:104B3000BDE8704001F002B870BD2DE9F0410025DC
:104B400004000AD001F065F8FBF7F6FB07462046A3
:104B5000FFF7B0FF012803D026E0FBF7EDFBFEE7EF
:104B6000034E706940B1034804F118018C3019E01C
:104B7000E4020020FC080020E06A3168C96A88422B
:104B800001D3012500E00025201D00F0AFFDE06A03
:104B9000F168884200D9F060C34900EB800001EB66
:104BA0008000211D00F07EFD3846FBF7CCFB284637
:104BB000BDE8F081BD480168C96A09B100207047AD
:104BC000B94909680129F9D8816A8068081A7047CB
:104BD000B54DB64C2868012801D900F099FFFFF7C0
:104BE000E9FF0228F6D3FFF7F5FEA06AA168884224
:104BF00002D2FBF7A1FBFEE7FFF7DCFF022801D39F
:104C000000F0B4FFFFF77AFEE4E71FB5002400943C
:104C10000194029423468022A5A1A7480394FFF79C
:104C200051FD012803D100F0ECFD012804D000283B
:104C30000CD1FBF781FBFEE7FBF77EFB9B480121D4
:104C400001618460BDE81F4000F024BF1FBD10B5A6
:104C5000FBF772FB954900200861BDE8104000F0A9
:104C600056BF10B500F05EFF9048846800F066FF04
:104C7000204610BD10B500F0CCFFFBF75DFB8B4963
:104C80008C68FBF760FB204610BD88484068704781
:104C9000864910B58A688B6A02449A4202D9FBF7AA
:104CA0004BFBFEE78A681044886010BD70B50D4666
:104CB00078B17E4C2168183100F000FD2068001D9D
:104CC00000F014FD681C07D0A0682844BDE87040BF
:104CD00068E6FBF731FBFEE721687348BDE87040EA
:104CE000A030091D00F0DEBC70B50D4668B16F4CF8
:104CF0002168183100F0D6FC2068001D00F0F6FC99
:104D0000A0682844BDE870404CE6FBF715FBFEE7C1
:104D100070B5C068C4685CB104F11800064600F0C4
:104D2000E5FC624D686930B15F4831468C3010E077
:104D3000FBF702FBFEE7201D00F0D8FCE06AE96803
:104D4000884200D9E860584900EB800001EB800000
:104D5000211D00F0A7FCE06A2968C96A884201D3D6
:104D6000012070BD002070BD10B528B14F490A6AFE
:104D700002608968416010BDFBF7DEFAFEE770B59E
:104D80000D46040019D0DDB100F0CCFE474A906812
:104D900029684B1C0FD02368126A934202D06268C4
:104DA000824210D96268801A88420CD2081A2860A0
:104DB0002046FFF7D9FF002406E0FBF7BDFAFEE727
:104DC000FBF7BAFAFEE7012400F0B8FE204670BDFA
:104DD00036490120C8617047334901208C31096888
:104DE00009B1002070473149C9690029F9D17047DC
:104DF0002E48006870472D48016919B1406918B103
:104E000002207047002070470120704770B50400F1
:104E100029D0264DE06A2968C96A884223D22868C9
:104E2000214EC06AC0F10500A061E06A616900EB33
:104E3000800006EB8000814212D1201D00F056FC5C
:104E40002868C06AE062E968884200D9E86000EB3F
:104E5000800006EB8000211DBDE8704000F022BC00
:104E60002868C06AE06270BD10B504001BD0616C98
:104E7000E06A884217D0201D00F038FC606CE062C8
:104E8000C0F105000949A061E06ACA68904200D9F2
:104E9000C860054900EB800001EB8000211DBDE8E2
:104EA000104000F0FFBB10BDFC080020E402002011
:104EB00049444C4500000000D14B000870B50D4638
:104EC000040023D000F02EFED4E90F20216802FB5D
:104ED000001161600021A1632168A1600A46D4E944
:104EE0000F01401E00FB01214FF0FF30E1606064C4
:104EF000A06404F1100065B100F0C6FB04F12400C9
:104F000000F0C2FB00F01AFE012070BDFBF714FA9E
:104F1000FEE721690029F5D0FFF7FAFE0128F1D15B
:104F200000F0F6FDEEE770B50E46050016D04C20F9
:104F300000F02EFB040011D005FB06F0401C00F031
:104F400027FB206038B1C4E90F5601212046FFF746
:104F5000B5FF204670BD204600F06FFBFBF7ECF973
:104F6000FEE770B5044600F0DDFD04F124050AE01B
:104F7000606A58B12846FFF7CBFE08B1FFF728FF5B
:104F8000A06C401EA064A06C0028F1DC4FF0FF353F
:104F9000A56400F0D3FD00F0C5FD04F110060AE0A1
:104FA000206958B13046FFF7B3FE08B1FFF710FF94
:104FB000606C401E6064606C0028F1DC6564BDE8D4
:104FC000704000F0BBBD70B51546026C044682B15E
:104FD000BDB1E0680FF0FCF9E168206C091AE160EE
:104FE0002268914202D26168081AE060022D15D051
:104FF00019E02068B8B96068FFF736FF00206060EC
:1050000011E0A0680FF0E4F9216CA0680844A060EA
:105010006168884207D32068A06004E0A06B10B1EB
:10502000A06B401EA063A06B401CA06370BD2DE967
:10503000FF4383B01F46894604004FF0000603D0AB
:10504000B9F1000F03D007E0FBF776F9FEE7206C1B
:1050500010B1FBF771F9FEE74FF00008022F05D100
:10506000E06B012802D0FBF767F9FEE700F05AFD7C
:10507000A06BE16B884205D3022F03D00598B0B135
:10508000C6B11BE03A4649462046FFF79CFF606ADE
:1050900038B104F12400FFF73BFE012801D100F0F4
:1050A00037FD00F04BFD012007B0BDE8F08300F0B4
:1050B00045FD1FE06846FFF757FE012600F03EFD64
:1050C000FFF788FC00F02EFD606C401C01D1C4F895
:1050D0004480A06C401C01D1C4F8488000F02EFD33
:1050E00005A96846FFF74BFE30B12046FFF739FFB0
:1050F000FFF704FC0020D7E700F014FDA06BE16B84
:10510000884201D1012500E0002500F017FD75B1AE
:1051100004F110000599FFF7C9FD2046FFF721FFB4
:10512000FFF7ECFB0028A1D100F0F2FC9EE720463F
:10513000FFF717FFFFF7E2FB98E710B54C2000F0F0
:1051400027FA04001BD0002060602060A060E060AF
:10515000A0630121C4E90F10401E6064A06404F143
:10516000100000F091FA04F1240000F08DFA002301
:105170001A4619462046FFF75AFF204610BDFBF796
:10518000DBF8FEE710B5040009D0FFF731FE6168D7
:1051900088420FD1E068401EE06003D008E0FBF7D2
:1051A000CBF8FEE700231A4619462046FFF73FFFDB
:1051B000012010BD002010BD30B404680D46002C45
:1051C0000CD0026CC1688B18C36041688B4200D35D
:1051D000C460C168284630BC0FF0FAB830BC7047D4
:1051E0002DE9FF4383B09946884604004FF000063E
:1051F00004D00027B8F1000F03D007E0FBF79CF8BC
:10520000FEE7206C10B1FBF797F8FEE700F08AFC90
:10521000A06B38B341462046E568FFF7CDFFB9F1F2
:10522000000F0DD0E560606A30B104F12400FFF793
:105230006FFD08B100F06CFC00F080FC012033E74A
:10524000A06B401EA063206810B9FFF7D1FD60601D
:1052500020690028F0D004F11000FFF759FD012863
:10526000E8D0E9E7059808B11EB106E000F066FC59
:105270001DE06846FFF778FD012600F05FFCFFF7B0
:10528000A9FB00F04FFC606C401C00D16764A06C6F
:10529000401C00D1A76400F051FC05A96846FFF747
:1052A0006EFD30B12046FFF75CFEFFF727FB0020C4
:1052B000FAE600F037FCA06B30B1002500F03EFCB0
:1052C000D5B1206810B108E00125F7E700F02AFC0D
:1052D0006068FFF79BFD00F031FC04F124000599A4
:1052E000FFF7E4FC2046FFF73CFEFFF707FB002832
:1052F0008CD100F00DFC89E72046FFF732FEFFF766
:10530000FDFA83E770B50D46040009D0FFF770FD84
:105310006168884207D1E068401CE060012070BDF0
:10532000FBF70AF8FEE700232A4619462046FFF756
:1053300057FF0128F3D1E168491CE16070BD10B549
:105340000C4602220021FFF7EEFD08B1846310BD78
:10535000FAF7F2FFFEE72DE9F0411D4616460F462B
:10536000040001D01FB107E0FAF7E6FFFEE7206C6A
:1053700010B1FAF7E1FFFEE7022D05D1E06B01283D
:1053800002D0FAF7D9FFFEE700F043FCFAF7D4FFAA
:105390008046A06BE16B884208D3022D06D0002422
:1053A0004046FAF7D0FF2046BDE8F0812A4639464C
:1053B0002046FFF708FEA06C401C04D0A06C401CE7
:1053C000A0640124ECE7606A0028FAD004F124000C
:1053D000FFF79EFC0028F4D0002EF2D001203060B0
:1053E000EFE72DE9F04115460F46040001D01FB14B
:1053F00007E0FAF7A1FFFEE7206C10B1FAF79CFF77
:10540000FEE700F006FCFAF797FF0646A06BE0B156
:1054100039462046FFF7D0FEA06B401EA063606CAB
:10542000401C04D0606C401C606401240EE02069C4
:105430000028FAD004F11000FFF76AFC0028F4D02D
:10544000002DF2D001202860EFE700243046FAF763
:105450007AFF2046A8E72DE9F0410F46040001D06D
:105460001FB107E0FAF768FFFEE7206C10B1FAF70A
:1054700063FFFEE700F0CDFBFAF75EFF0646A06B88
:1054800038B139462046E568FFF796FEE56001240D
:1054900000E000243046FAF756FF204684E710B5B6
:1054A000040006D000F03EFBA46B00F047FB204652
:1054B00010BDFAF741FFFEE710B508B1806B10BDD3
:1054C000FAF73AFFFEE7314A002102EBC1035B68BD
:1054D000834203D1002042F831007047491C08295B
:1054E000F3D3704710B5040009D0FFF7ECFF206834
:1054F00000F0A3F82046BDE8104000F09EB8FAF78F
:105500001BFFFEE710B518B1806B20B1002010BD65
:10551000FAF712FFFEE7012010BD10B528B1816B2C
:10552000C06B814204D1012010BDFAF705FFFEE7F0
:10553000002010BD10B5154B002253F832401CB1AD
:10554000521C082AF9D310BD43F8321003EBC201F4
:10555000486010BD70B50D46044600F0E3FA616C7A
:105560000020491C00D16064A16C491C00D1A064DA
:1055700000F0E4FAA06B20B9294604F12400FFF7FB
:10558000B3FB2046BDE87040EBE40000B00900200A
:105590002DE9F04104460025FFF71CFA374E06F1CD
:1055A0000801706801F1080360B93548002720F050
:1055B0000700C1E90007334AC3E90072C0E90032BD
:1055C000012070603CB10834600704D004F007008B
:1055D000C0F1080004442B4A601E521E904227D29C
:1055E000264A0968083201E00A4601464868A04296
:1055F00002D208680028F7D1994219D015680868C6
:10560000106048680835001B10280DD90B19586028
:105610001A484C6008305C6800E010460268576821
:10562000A742FAD31A60036048683168081A3060EC
:10563000FFF764F92846BDE8F08110B5002817D0BF
:10564000A0F10804FFF7C6F90C496068083100E0D2
:1056500011460A6853688342FAD3226007480C60F7
:105660006168026811440160BDE81040FFF746B967
:1056700010BD024800687047704700001803002002
:10568000F8090020F82B010000F108014FF0FF326B
:10569000C0E90112C1600161002101607047002171
:1056A0000161704742684A6093688B6093685960F3
:1056B000916008610168491C0160704730B50C6851
:1056C000621C02D000F1080202E0026904E01A46FE
:1056D00053681D68A542FAD953684B6099608A6087
:1056E000516008610168491C016030BDD0E90112B8
:1056F0008A60D0E90112516001694A68824201D191
:1057000082684A60002202610868401E0860704793
:1057100070B500244160C34D0061914206D8D11A92
:105720008269914206D2011D286907E09A4203D29C
:10573000994201D3012403E0011DE868FFF7BEFF91
:10574000204670BDFEB5B74D1F4603462C680020AD
:10575000089E002C08D08DE80E0037B100233A4691
:1057600069462046FFF7F7FDFEBDFFF744FB012821
:105770004FF0000305D0002269462868FFF757FC68
:10578000FEBD3246F8E770B50546FFF76AFAA54E4A
:105790000446B068844203D200F085F8012000E09E
:1057A000002028602046B46070BD9E4CE06801680F
:1057B00039B1002139B1002000F0F0F800F0A1F873
:1057C000F4E70121F6E7C0680068F5E710B500F0DE
:1057D000A9F9944C206880B99348FFF755FF924887
:1057E0001430FFF751FF9048E06014302061002230
:1057F0000C210A20FFF797FB2060BDE8104000F065
:105800009DB91FB5FFF7E2FF8648006878B185496A
:10581000022200200092091DCDE9011003460390E9
:10582000D20182A18348FEF74DFF002802D1FAF78A
:1058300083FDFEE704B010BD2DE9F0471E46DDF8FC
:10584000209017460D00804612D02820FFF7A0FEBA
:1058500004000AD0FFF7BAFFC4F80080C4E9065775
:10586000C4E90869201DFFF71AFF2046BDE8F0874C
:10587000FAF762FDFEE76B4810B54068002802D1D8
:10588000FAF75AFDFEE710BD10B5044600F04AF9DC
:10589000606908B1012400E0002400F04FF92046BF
:1058A00010BD006A7047F8B55E4E1FE0C068C4685E
:1058B0000568201DFFF71AFF616A20468847E069E6
:1058C000012813D1A0692844A84206D92461606048
:1058D000211DF068FFF7F2FE08E0002003460146B4
:1058E00000902A462046FFF72DFF38B1F068016886
:1058F0000029DBD13169C6E90310F8BDFAF71CFDB8
:10590000FEE730B585B0474D3EE0039C606910B1BD
:10591000201DFFF7EBFE04A8FFF735FF02460198B4
:1059200030B1012830D002281FD003282CD128E024
:105930000298A169034601442046FFF7E9FE0128C9
:1059400022D1616A20468847E06901281CD10020E5
:1059500000900298A1690023421819462046FFF7DB
:10596000F1FE88B9FAF7E8FCFEE70298A06128B1D9
:10597000811813462046FFF7CBFE05E0FAF7DCFC62
:10598000FEE72046FFF759FE00231A4601A92868C2
:10599000FFF726FC0028B8D105B030BD2DE9FC4149
:1059A0000F460546FFF716F801A8FFF7ECFE044680
:1059B000019818B1FEF7A2FFBDE8FC81194E37BB74
:1059C000A54224D8FEF79AFFF0682746C068C4684D
:1059D000201DFFF78BFEE069012811D1A0692B463D
:1059E00041193A462046FFF793FE012808D10020CE
:1059F0000346014600902A462046FFF7A3FE18B151
:105A0000616A20468847D7E7FAF796FCFEE7291B2C
:105A10003068FFF79FFDFEF771FF0028CCD100F042
:105A200077F8C9E730030020F0350120546D72206B
:105A300053766300AB57000810B5031F4FF0807416
:105A40001C601B1F1960191F00230B6014390A60AA
:105A5000091FDA1E44380A6010BD10B57B484FF4A8
:105A60007A737B4A00686FF07F44B0FBF3F191607A
:105A7000B4FBF1F1D160B0FBF0F12D24B4FBF1F1F6
:105A80001161B0FBF3F14FF0E020491E41610721A5
:105A9000016110BD1CB56F4908780190FF200870A6
:105AA00008788DF800009DF80000694C00F0500067
:105AB00020700720606107E06069401E60619DF80A
:105AC000000040008DF800009DF800000006F3D4AF
:105AD000207D000200F4E0606061019808705E487B
