:020000040800F2
:10000000A05001202D030008131700085F110008FD
:1000100011170008B9060008113C00080000000094
:1000200000000000000000000000000015020008B1
:10003000410E000800000000B50200081903000886
:100040004703000847030008470300084703000868
:100050004703000847030008470300084703000858
:1000600047030008850E0008C50E00083D0A000879
:10007000590A0008790A0008990A0008B90A000814
:10008000D50A0008F50A00084703000847030008DE
:10009000470300084703000847030008250F00082E
:1000A0004703000847030008470300084703000808
:1000B00047030008470300084703000847030008F8
:1000C00047030008470300084703000847030008E8
:1000D00047030008B137000847030008C13800088B
:1000E00047030008470300084703000847030008C8
:1000F000470300084703000847030008150B0008E2
:1001000047030008151F00084703000847030008BD
:100110004703000847030008470300084703000897
:10012000350B0008550B0008790B00089D0B0008E3
:10013000C10B0008450E00084703000847030008EC
:100140004703000847030008470300084703000867
:10015000E10B0008050C0008290C0008153A0008FE
:100160004703000847030008470300084703000847
:100170004703000847030008470300084703000837
:100180004703000847030008DFF81CD000F0F4F92B
:1001900005F0BEFE0021034805F07CFF05F0CAFE15
:1001A000FEE700003C010020A050012080F30988F8
:1001B0007047EFF309807047684680F30988044868
:1001C0000078C00714BF0220032080F31488704712
:1001D00098880008DFF818C0EFF305831B0618BFE6
:1001E0006047EFF31483DB0708BF604700DF704709
:1001F00017710008DFF818C0EFF305831B0618BF5E
:100200006047EFF31483DB0708BF604700DF7047E8
:100210000D730008EFF30980816911F8021C99BB86
:1002200090E80F1010B5E047BDE81040EFF3098CDF
:100230008CE807001C4B93E80600914208BF70470A
:1002400081B11EF0100F06BF2CED108A0120002096
:1002500081F825002CE9F00FC1F828C00CB407F094
:100260008FFB0CBC1A60D2F828C0BCE8F00F92F8E3
:10027000250000281ABFBCEC108A6FF0120E6FF038
:10028000020E8CF30988704710B5084A1268914233
:1002900009D8074C54F8214090E80F10A047EFF31D
:1002A000098C8CE80F0010BD64010020B406000822
:1002B000B406000810B507F029FABDE81040154B48
:1002C00093E80600914208BF7047EFF3098C1EF0D7
:1002D000100F06BF2CED108A0120002081F82500A8
:1002E0002CE9F00FC1F828C00CB407F049FB0CBC96
:1002F0001A60D2F828C0BCE8F00F92F82500002858
:100300001ABFBCEC108A6FF0120E6FF0020E8CF365
:10031000098870476401002010B507F0F7FBCCE7AF
:1003200010B505F03FFF07F0F1FBC6E70648804730
:1003300006480047FEE7FEE7FEE7FEE7FEE7FEE7CA
:10034000FEE7FEE7FEE7FEE7512D00088901000801
:10035000A0F16101192900D82038704740EA010353
:100360009B0703D009E008C9121F08C0042AFAD26B
:1003700003E011F8013B00F8013B521EF9D270472F
:10038000D2B201E000F8012B491EFBD270470022D7
:10039000F6E710B513460A4604461946FFF7F0FF84
:1003A000204610BD421E12F8013F002BFBD111F870
:1003B000013B02F8013B002BF9D1704730B50546EF
:1003C0002A460B4612F8010B13F8014B08B1A04264
:1003D000F8D01CB1002802D06D1CF1E7284630BDD2
:1003E000421C10F8011B0029FBD1801A7047000045
:1003F00070B50F4D00B92868002412E00A4602E0EB
:100400009E4203D0521C1378002BF9D1DAB222435A
:1004100005D02BB124B1002100F8011B04E00446F3
:10042000401C0678002EE9D12860204670BD0000EF
:100430008401002070B5064603F000FC0468054600
:100440000A220021304600F05FF82C6070BD70B5C4
:10045000064603F0F3FB046805460A2200213046F5
:1004600000F052F82C6070BD2DE9F05F05460020C9
:1004700092469B4688460646814640241BE0284615
:1004800041464746224600F02FF853465A46C01AC6
:10049000914110D311461846224600F016F82D1A45
:1004A00067EB01084F4622460120002100F00DF8BD
:1004B00017EB00094E41201EA4F10104DFDC484681
:1004C00031462A464346BDE8F09F202A04DB203A05
:1004D00000FA02F1002070479140C2F1200320FA97
:1004E00003F3194390407047202A04DB203A21FA95
:1004F00002F00021704721FA02F3D040C2F120023D
:1005000091400843194670472DE9F04791460F4640
:1005100080460446002614F8015B2DB100F03EF839
:100520000068405DC007F6D12B2D02D02D2D18D0CC
:10053000641E4A463946204600F034F827B139682F
:10054000A14201D1C7F8008071054FF002040BD51C
:100550004042002803DD03F071FB0460A007BDE802
:10056000F08746F48066E4E70028F8DA03F066FBDB
:1005700004606FF00040F2E7064C074D06E0E068CB
:1005800040F0010394E8070098471034AC42F6D3DA
:10059000FFF7FEFD5C8900087C8900080048704771
:1005A000588900082DE9F05F82460078002715463B
:1005B0008B460AF10104B946302801D09DB113E001
:1005C00014F8010B0127782803D0582801D045B131
:1005D0000AE00DB1102D07D10027102514F8010BEA
:1005E00002E0082500E00A250026B0460EE005FBE3
:1005F000080005FB06F1012701EB10461FFA80F801
:10060000B6F5803F00D3B94614F8010B294600F037
:1006100018F80028EBDABBF1000F05D00FB1641E0B
:1006200000E05446CBF80040B9F1000F06D003F0CB
:1006300005FB02210160C81EBDE8F09F48EA0640A4
:10064000FAE73A2800D2303820F02002412A01D3BC
:10065000A2F13700884201D34FF0FF30704770B5E8
:100660008C1810F8015B15F0070301D110F8013B5D
:100670002A1106D110F8012B03E010F8016B01F8E4
:10068000016B5B1EF9D12B0705D40023521E0DD43C
:1006900001F8013BFAE710F8013BCB1A921C03E08A
:1006A00013F8015B01F8015B521EF9D5A142D8D3C2
:1006B000002070BD00000000FEE7000010B5002122
:1006C000084605F02FFB22A005F03EFB002101208B
:1006D00005F028FB23A005F037FB0021022005F0E0
:1006E00021FB254991F85400012809D0022809D09E
:1006F00050B103281CD004281CD005281CD01EE0B3
:100700001EA01AE022A018E091F85300F12807D0AB
:10071000F22807D0F02807D0F32807D021A00CE05A
:1007200025A00AE029A008E02DA006E031A004E001
:1007300035A002E039A000E03DA005F005FB002156
:10074000032005F0EFFABDE8104001A005F0FCBA67
:100750007C2D2D2D2D2D2D2D2D2D2D2D2D2D2D7C2B
:10076000000000007C202020544953382D50726F27
:100770002020207C00000000740C00207C576F7249
:100780006B3A204F4E4C494E4520207C0000000023
:100790007C576F726B3A204F46464C494E45207C41
:1007A000000000007C576F726B3A204E4F5420556A
:1007B0005345207C000000007C576F726B3A204547
:1007C000585452412031207C000000007C576F7249
:1007D0006B3A2045585452412032207C00000000E2
:1007E0007C576F726B3A204D41494E202020207C6F
:1007F000000000007C573A205449532D5A49474283
:100800004545207C000000007C573A204F4E4C4963
:100810004E4520485542207C000000007C573A207D
:100820004F46464C494E45204855427C000000004A
:100830007C573A204F4E2B4F464620485542207C4D
:100840000000000010B50B4C0121204600F081FC97
:100850000421204600F07FFC4FF47A7005F04CFB39
:100860000121204600F075FC2046BDE8104004211F
:1008700000F06FBC0008024010B50B4C012120466F
:1008800000F069FC0421204600F063FC4FF47A700C
:1008900005F032FB0121204600F05BFC2046BDE85C
:1008A0001040042100F055BC0008024070B53749E3
:1008B00005460024086810F0450FFBD0410702D51B
:1008C0000324042003E0C00704D00124204601F0E3
:1008D000BBFA59E001F0F4FAA8422BD140F2FF50E4
:1008E00001F0B2FA002001F00DFB294908424BD07B
:1008F000002801DA1C2070BD410001D5092070BD1F
:10090000810001D50A2070BDC10001D50B2070BD4A
:10091000010101D50C2070BD410101D50D2070BD34
:10092000C10101D50E2070BD010201D50F2070BD9F
:10093000410201D5102070BD810201D5112070BD8A
:10094000C10201D5122070BD010301D5132070BD75
:10095000410301D5142070BD810301D5152070BD60
:10096000C10301D5162070BD010401D5172070BD4B
:10097000410401D5182070BD810401D5192070BD36
:10098000000701D51A2070BD204670BD342C0140EF
:1009900008E0FFFD10B50B480024016811F0450F79
:1009A000FBD0480702D50324042003E0C80705D084
:1009B0000124204601F048FA204610BD40F2FF50C5
:1009C000F8E70000342C014070B50C461949064682
:1009D0000025086810F0450FFBD0410702D503241D
:1009E000042003E0C00705D00124204601F02CFAC2
:1009F000204670BD01F064FAB04212D140F2FF50BF
:100A000001F022FA002001F07DFA10F4604F03D0CB
:100A1000810404D5132070BD000C208007E0410440
:100A200001D5102070BD000401D50F2070BD2846EF
:100A300070BD0000342C014070470000044910B51F
:100A4000086800F03D008860FFF7F6FF10BD000069
:100A50000060024070470000054910B508683D225B
:100A600002EA901082018A60FFF7F4FF10BD0000D7
:100A70000060024070470000054910B508683D223B
:100A800002EA104002048A60FFF7F4FF10BD000084
:100A90000060024070470000054910B508683D221B
:100AA00002EA905082058A60FFF7F4FF10BD000053
:100AB0000060024070470000044910B5486800F02B
:100AC0003D00C860FFF7F6FF10BD00000060024067
:100AD00070470000054910B548683D2202EA9010B1
:100AE0008201CA60FFF7F4FF10BD00000060024001
:100AF00070470000054910B548683D2202EA1040E1
:100B00000204CA60FFF7F4FF10BD0000006002405D
:100B100070470000054910B548683D2202EA905030
:100B20008205CA60FFF7F4FF10BD000000600240BC
:100B300070470000054810B50068044900F03D000A
:100B400008310860FFF7F4FF10BD000000640240A8
:100B500070470000064810B50068054A3D2101EACB
:100B60009010083281011160FFF7F2FF10BD000004
:100B70000064024070470000064810B50068054A4E
:100B80003D2101EA1040083201041160FFF7F2FF35
:100B900010BD00000064024001F018BE064810B508
:100BA0000068054A3D2101EA905008328105116034
:100BB000FFF7F2FF10BD0000006402407047000024
:100BC000054810B50068044900F03D000831086090
:100BD000FFF7F4FF10BD00000464024070470000FE
:100BE000064810B50068054A3D2101EA9010083218
:100BF00081011160FFF7F2FF10BD000004640240A4
:100C000070470000064810B50068054A3D2101EA1A
:100C10001040083201041160FFF7F2FF10BD000020
:100C20000464024070470000064810B50068054A99
:100C30003D2101EA9050083281051160FFF7F2FF73
:100C400010BD000004640240074A904201D20748E8
:100C500001E005481038064A8B0001EA020101D57F
:100C6000C1607047816070471064024000600240BC
:100C70007D0F7D0F0029016802D041F0010101E0E4
:100C800021F00101016070472DE9F043016821F076
:100C9000010101600021016041608160C16001616A
:100CA000212141613C493C4A3D251039904202D105
:100CB0008D60BDE8F083384A4FF474661832904274
:100CC00001D18E60F5E7344A4FF474173032904208
:100CD00001D18F60EDE7304A4FF0746C483290429A
:100CE00002D1C1F808C0E4E72B4B2C4A603398428C
:100CF00001D1CA60DDE7284C294B7834A04201D1EC
:100D0000CB60D6E7DFF89080264C08F1900840458C
:100D100001D1CC60CDE7DFF880804FF03D5908F17C
:100D2000A808404502D1C1F80C90C2E71E49DFF87F
:100D300078800839404501D10D60BAE71A4D183561
:100D4000A84201D10E60B4E7174D3035A84201D159
:100D50000F60AEE7144D4835A84202D1C1F800C07B
:100D6000A7E7114D10496035091FA84201D10A605B
:100D70009FE70D4A7832904201D10B6099E70A4A09
:100D80009032904201D10C6093E7074AA83290421A
:100D90008FD1C1F800908CE7106002403D00002028
:100DA000400F002000003D2010640240002901682F
:100DB00002D041F0200101E021F0200101607047E4
:100DC0000B0607D5436912B143F0800301E023F01D
:100DD00080034361802908D0002A026801F01E01C7
:100DE00001D00A4300E08A430260704730B50368CF
:100DF000124ACC6813400A682243D1E905452C43C6
:100E00002243CC6922430C6A22434C6A22438C6AF7
:100E100022434C6B22438C6B22431A43026042698B
:100E200022F00703D1E90B2422431A4342610A69E5
:100E300042604A6882608968C16030BD3F801CF0B2
:100E400070470000044910B54968002088470449EC
:100E50000248486110BD000054010020400001001C
:100E60000090024006488178002908D0026B416B4F
:100E700092184941026341630178491C017070472F
:100E8000E0000020034910B508200860FFF7EAFFE2
:100E900010BD0000143C01400948817800290ED0A3
:100EA000026B416B9218494102634163026B416BD3
:100EB00042F00102026341630178491C01707047EE
:100EC000E0000020034910B510200860FFF7E4FFA0
:100ED00010BD0000143C01400648C178002908D02C
:100EE000826BC16B921849418263C1634178491C8E
:100EF00041707047E00000200948C17800290ED0F9
:100F0000826BC16B921849418263C163826BC16B72
:100F100042F001028263C1634178491C417070470D
:100F2000E0000020074810B5016801F478740460FF
:100F3000A00601D5FFF7D0FF600601D5FFF7DCFF63
:100F400010BD0000143C01402DE9FC5F0025484C19
:100F500000954FF4806801954027C4F81080C4E9DB
:100F600002750E464FF0080B1021C4E900B1A946E6
:100F7000204600F0F9FF1020FFF798FC00284CD124
:100F80003C48BA464F460089000420603720C4E937
:100F9000010AC4E90398204600F0E6FF3720FFF776
:100FA00085FC002839D1411E04F11400C0E9001B62
:100FB000302181600221C0E903170121416100F065
:100FC0005BFF3320C4F808A0C4E90070C4E90378CB
:100FD000204600F0C9FF3320FFF768FC04001CD155
:100FE000254F4FF4001AE94640F22A68386810EAA3
:100FF000080F0AD1504600F069FF0028F6D000F033
:10100000ADFF49F825006D1CF0E7082000F05EFFF9
:1010100028B1082000F018FF0420BDE8FC9F022042
:1010200000F054FF20B1022000F00EFF0220F4E790
:10103000202000F04BFF20B1202000F005FF06200B
:10104000EBE74FF40075284600F040FF20B128463A
:1010500000F0FAFE0720E0E740F2FF5000F0F4FE57
:10106000009800BA7060019800BA30602046D4E75A
:101070003C0C0020BC000020342C0140F0B50023C3
:10108000012403270D6804FA03F21540954242D16A
:10109000D0F800C05E0007FA06F52CEA050CC0F88F
:1010A00000C091F804C0D0F800E00CFA06FC4CEA4D
:1010B0000E0CC0F800C091F804C0BCF1010F02D0C2
:1010C000BCF1020F1FD1D0F808C02CEA050CC0F803
:1010D00008C091F805C0D0F808E00CFA06FC4CEA0C
:1010E0000E0CC0F808C0D0F804C02CEA020CC0F8FE
:1010F00004C0426891F806C00CFA03FC1FFA8CFC8D
:1011000042EA0C024260C268AA43C260CA79C5685A
:10111000B2402A43C2605B1C102BB3D3F0BD4B0717
:10112000DB0E9A40C90810B500EB8100016A0F245C
:101130009C40A1430162016A1143016210BD024655
:10114000002012690A4200D001207047406980B235
:101150007047418370470183704741617047FEE7E4
:1011600010B545F2555000F031F8062000F022F895
:10117000962000F025F800F015F800F00BF87D201F
:1011800000F0ACFB002803D0BDE8104000F056BBD7
:1011900010BD000002494CF6CC40086070470000CA
:1011A0000030004002494AF6AA200860704700005B
:1011B00000300040014948607047000000300040A6
:1011C0000149886070470000003000400149086014
:1011D000704700000030004010B50021054804F0C1
:1011E00059FF0549086008B1002010BD4FF0FF30DD
:1011F00010BD000048880008A800002010B500219C
:10120000054804F047FF0549086008B1002010BDFB
:101210004FF0FF3010BD000038880008A400002007
:1012200010B50021054804F035FF0549086008B1F4
:10123000002010BD4FF0FF3010BD0000588800089E
:10124000AC00002010B50021054804F023FF05493B
:10125000486008B1002010BD4FF0FF3010BD000005
:1012600078880008B400002010B50021054804F07B
:1012700011FF0549086008B1002010BD4FF0FF3094
:1012800010BD000068880008B00000207CB5012176
:10129000082000F0A3FA012500248DF804403E4EFA
:1012A0008DF8075000958DF8054069463046FFF7E8
:1012B000E5FE0121082000F091FA02208DF804409B
:1012C00000908DF807508DF8054069463046FFF7CD
:1012D000D5FE0121082000F081FA10208DF804408D
:1012E00000908DF807508DF8054069463046FFF7AD
:1012F000C5FE0121022000F071FA20208DF8044083
:10130000264E00908DF807508DF80540694630460E
:10131000FFF7B4FE0121022000F060FA40208DF8B2
:10132000044000908DF807508DF80540694630461E
:10133000FFF7A4FE0121022000F050FA80208DF872
:10134000044000908DF807508DF8054069463046FE
:10135000FFF794FE0121022000F040FA28028DF8E8
:10136000044000908DF807508DF8054069463046DE
:10137000FFF784FE0121084600F030FA28038DF8BB
:10138000044000908DF807508DF8054069460448E8
:10139000FFF774FE7CBD0000000C02400004024018
:1013A000000002401CB50121022000F017FA4FF4A2
:1013B0000070009001208DF8040000208DF80600D8
:1013C0008DF8050069460248FFF758FE1CBD000075
:1013D000000402402DE9FC470121042000F0FEF941
:1013E0000121022000F0FAF90121082000F0F6F9AD
:1013F0000121102000F0F2F901258DF8045000249D
:101400004FF470508DF80640DFF8BCA000908DF8C6
:1014100007508DF8054069465046FFF72FFEAE0392
:10142000694650460096FFF729FE4FF44040DFF82A
:101430009C80009069464046FFF720FEDFF89090C0
:10144000EF03694648460097FFF718FE8DF8044001
:1014500007208DF8064000908DF807508DF8054064
:1014600069464046FFF70AFE4FF4F0400090694697
:101470004846FFF703FE6C03694616480094FFF7E1
:10148000FDFDE1105046FFF766FEA1105046FFF744
:1014900062FE61105046FFF75EFE21465046FFF7A0
:1014A0005AFE39464846FFF756FE31464046FFF79A
:1014B00052FE39464046FFF74EFE31465046FFF792
:1014C0004AFEBDE8FC870000000C02400004024018
:1014D000001002400008024010B504F08FFBBDE888
:1014E000104004F08BBB00001CB50121042000F06B
:1014F00075F90820009001208DF8040000208DF877
:101500000600064C8DF8050069462046FFF7B6FD3B
:1015100008212046FFF71FFE1CBD00000008024006
:101520000EB5002000F0B8FAA0F54851F23917D0F6
:1015300000F03EFA15490A68154842604968816022
:101540000021016000F080FA012005220F218DE8C2
:101550000700002203461146104600F03BFB0EBD7B
:101560007B2000F0BBF910B97A2000F0B7F9012117
:10157000080700F03FF9012000F024F900F072FBA9
:10158000BDE80E404FF4807000F004BA2001002046
:10159000680C00201CB50121042000F01FF9012077
:1015A00000908DF8040000208DF806008DF80500ED
:1015B00069460248FFF762FD1CBD000000080240BA
:1015C0001CB50121042000F009F90420009001203D
:1015D0008DF8040000208DF806008DF8050069469E
:1015E0000148FFF74BFD1CBD000802401CB501215E
:1015F000084600F0F3F84FF48070009000208DF85A
:10160000040001218DF807108DF805006946024895
:10161000FFF734FD1CBD0000000002407CB5012135
:10162000084600F0DBF801208DF8040000208DF85A
:1016300006000E4D4FF400648DF8050000946946D5
:101640002846FFF71BFD21462846FFF782FD4FF491
:10165000165002F03BF821462846FFF77AFD214656
:101660002846BDE87C40FFF774BD00000000024042
:101670004FF4165002F0B2B84FF4E13002F058B90E
:1016800010B50021204804F09BFC204C0021206074
:101690001D480C3004F094FC60601B480021183099
:1016A00004F08EFCA06018480021243004F088FC6F
:1016B000E06015480021303004F082FC20611248BF
:1016C00000213C3004F07CFC60610F480021483070
:1016D00004F076FCA0610C480021543004F070FC4A
:1016E000E06109480021603004F06AFC206206488D
:1016F00000216C3004F064FC606203480021783003
:1017000004F05EFCA06210BDB487000878000020E1
:10171000FEE7704738B54FF4C06000F049F831205B
:101720008DF8000000208DF801008DF802000124E2
:101730008DF80340684600F009F83B208DF8000062
:101740008DF80140684600F001F838BD30B50F2231
:10175000C47801780123FCB1144C246801F1E02124
:1017600004F4E064C4F5E064C4F30724C4F10405A0
:10177000E2404478AC408578154025432A0181F841
:101780000024007800F01F018B404009800000F128
:10179000E020C0F8003130BD01F01F00834048094F
:1017A000800000F1E020C0F8803130BD0CED00E099
:1017B0000249084302490860704700000000FA052A
:1017C0000CED00E0014908627047000000000E4285
:1017D0000149C1F8A400704700000E42044A0029E4
:1017E000116801D0014300E081431160704700009F
:1017F00030380240044A0029116801D0014300E05A
:10180000814311607047000040380240044A0029BB
:10181000116801D0014300E081431160704700006E
:1018200044380240044A0029116801D0014300E015
:10183000814311607047000024380240024801686B
:1018400041F08071016070477438024070B5204AE1
:101850001168204C11F00C0104D06610042903D04B
:10186000082903D004601BE0066019E01849091F2D
:101870000B68C3F380550B6803F03F0315B1B6FB4B
:10188000F3F301E0B4FBF3F30C680968C4F38814C4
:101890006343C1F30141491C4900B3FBF1F101600D
:1018A00011680F2303EA11110B4B5C5C0168E140E6
:1018B00041601468072505EA94241C5D21FA04F4AC
:1018C0008460126805EA52329A5CD140C16070BDF2
:1018D000083802400024F4001000002002460020D6
:1018E000510901290BD002290CD00849096802F0DE
:1018F0001F02012393400B4200D00120704703498F
:101900007439F3E70149091FF0E700007438024019
:10191000054900220A700A70012802D0042801D16A
:1019200005200870704700007038024001490860C7
:10193000704700003C0E4742C0F30121032907D144
:10194000074A116821F4F813064901401943116050
:10195000034968310A68C0F30B0002430A6070470C
:1019600008380240FFFCFF0F010901EB810100F084
:101970000F0000EB4100C0B27047002103E0491C9A
:101980000A38C9B2C0B20A28F9D2090740EA116080
:101990007047000080B240F08000C14303480268F5
:1019A00002F0800211430160704700000C280040E3
:1019B00010B501210807FFF71DFF0120FFF702FF07
:1019C0000120FFF7A5FF4120FFF788FF0028FAD08C
:1019D0004FF48070FFF7B0FF0748FF2141607F217F
:1019E00001600120FFF7A2FF00F03CF90121BDE8F2
:1019F0001040082000F01EB92001002008B500208A
:101A000000900C480168490612D44FF0FF31016084
:101A100083130168009A01F04001521C00929A421F
:101A200001D00029F5D00068400601D4002008BD8F
:101A3000012008BD0C2800400248016821F0800107
:101A4000016070470C28004070B5124D0446002616
:101A5000CA20286053202860FFF7D0FFA8B10D48A6
:101A60001C38016821F040010160016822681143BF
:101A700001600848A168143801600168A28841EA41
:101A800002410160FFF7D8FF0126FF2028603046A1
:101A900070BD00002428004008B5034901EB800018
:101AA0000090006808BD00005028004070B50C464A
:101AB000010060784FF0000625D0FFF755FFA078B1
:101AC000FFF752FFA078E17840EA0145607821787D
:101AD000000240EA41300543164CCA2020605320E2
:101AE0002060FFF78BFF50B11348054011482038A4
:101AF0000560FFF7A1FF00F0B5F800B10126FF2057
:101B00002060304670BDC10603D520F010000A30B9
:101B10006070E078FFF731FF05046078FFF72DFF74
:101B200045EA0025A078FFF728FF0543207845EA1D
:101B30004035D1E7242800403FFFFF0070B5234A1D
:101B40000C4603004FF000062078126831464FEA39
:101B5000426204D0002A15DAFFF706FF13E0002ADC
:101B600000DBE170FFF709FF05046078FFF705FF70
:101B700045EA0025A078FFF700FF0543E07845EA35
:101B800000450AE0E170A078217840EA01456078DC
:101B9000E178000240EA014005430C4CCA201C34A5
:101BA000206053202060FFF729FF50B1084805400E
:101BB000064808380560FFF73FFF00F053F800B112
:101BC0000126FF202060304670BD0000082800403C
:101BD0007F7F7F002DE9F0411C46DDE90765144B4E
:101BE0004FF0000C069F83F803C0187059709A706C
:101BF00019466046FFF7A2FF43F2F22818B14146AA
:101C0000002000F055F80A48001D01460570847058
:101C10004770C6700020FFF749FF002805D04146F5
:101C2000BDE8F041002000F043B8BDE8F0810000BD
:101C3000280100200A4B10B51A6840F60804A24398
:101C400042EA000209B142F400620548CA211C3090
:101C50000160532101601A60FF21016010BD000086
:101C60000828004018B5002010490090CA200860DC
:101C7000532008600D481838026822F0A002026064
:101C80004FF400340268009B02F020025B1C0093BA
:101C9000A34201D0002AF5D00068800601D50120BA
:101CA00000E00020FF220A6018BD00002428004048
:101CB00008B5034A02EB80000090016008BD0000F7
:101CC0005028004000B5ADF2245DCC2189A8FEF774
:101CD0005EFB002003F0BCF800281BD1BCA903F078
:101CE00045FA0EA003F07DF911220FA1684603F01A
:101CF0004DFA60B9FFF7BCFC02E089A800F022F8B9
:101D00006A46C82189A803F04AF90028F5D1684637
:101D100003F03CF90DF2245D00BD0000303A2F5372
:101D20005953434F4E464900303A2F535953434F6E
:101D30004E46492F315F434F4E4649472E54585423
:101D40000000000010B5B8B00446DC216846FEF77C
:101D50001EFB224609A1684601F05CFF684606F0BA
:101D6000BDF8204602F0B4FB2246694604F01CFA96
:101D7000684606F0B3F838B0012010BD5245414422
:101D800045523A25730000002DE9FC4700258046A6
:101D900000952846019500F0B5F8800102D50E2087
:101DA000BDE8FC87264F6946388980B2FFF7CCF83A
:101DB0000028F5D13720234C402601994FF0060A20
:101DC0004FF48069B8F1010F1FD0C90335D53989A7
:101DD000C4F810900904C4E90010C4E90265204663
:101DE00000F0C2F83720FEF761FD0028D8D1C4E921
:101DF000005AC4F8109000BFC4E90265114800F011
:101E0000B3F80620FEF752FDCAE7490315D5398914
:101E1000C4F810900904C4E90010C4E90265094837
:101E200000F0A2F83720FEF741FD0028B8D10220CB
:101E3000C4F81090C4E9000ADEE72520B0E70000EE
:101E4000BC0000203C0C00200149086070470000E5
:101E5000382C01400149086070470000382C0140CF
:101E60000149C1F8A000704700802542014908607F
:101E7000704700008C85254210B50A4A0168116040
:101E8000121D41681160121D116821F0F703D0E99D
:101E900002142143D0E90440044321431943116053
:101EA00010BD0000242C014010B50121CC022046B9
:101EB000FFF7B8FC2046BDE810400021FFF7B2BC98
:101EC00001480068C0B27047102C0140034A014627
:101ED000002012680A4200D001207047342C0140D3
:101EE000034A0146002012680A4200D001207047D0
:101EF000342C01400248006800F0030070470000E5
:101F0000002C014008B5024908440090006808BD53
:101F1000142C014000F06EBC044A0029116801D065
:101F2000014300E081431160704700003C2C0140F8
:101F300030B5094B1A6847F6FF618A43017D846812
:101F4000C568214344682C43214304680069214348
:101F500001431143196030BD042C01400148006861
:101F600070470000802C014010B5084A01681160DC
:101F7000121D1168CB0AD0E901142143D0E90340B6
:101F80000443DB0221431943116010BD082C0140BA
:101F90000149086070470000002C014008B501208D
:101FA0008DF8000008210548FFF7C9F810B100209E
:101FB0008DF800009DF8000008BD0000000C0240F4
:101FC0002DE9F0410146194800264068032813D046
:101FD00018B1012801D0022825D1B1F5805F0BD0BE
:101FE0004FF400670025124CB9420ED10120FFF7D3
:101FF000CBFE060003D016E02720BDE8F081257552
:1020000025606560C4E9025709E00020FFF7BCFEC7
:10201000060008D1257525606560A560E560044867
:102020002561FFF785FF3046E7E70000BC00002090
:10203000240C00202DE9F0438D49DFF838824D68EB
:1020400080F84E500989A0F84C10D8F800100A0EFC
:1020500093090370C2F38303437002F0030282709A
:102060000A0CC2700A0A02714171D8F80440210EAC
:102070000901C180C288C4F3074142EA1112C2803B
:1020800001F00F010172C4F30721CA094272C1F3C2
:1020900080128272C1F34012C272C1F30012027345
:1020A0004FF0000C80F80DC042464FF001099668D1
:1020B000330EC6F30742C6F3072725B1012D02D020
:1020C000022D2BD03CE08907090D0161E1B20469C2
:1020D00044EA81010161016941EA93110161C3F39D
:1020E000C201017503F00701417551098175C2F301
:1020F0008201C1759107490F0176027E394642EA95
:10210000D11202760269037E521C9B1C047A9A400B
:1021100009FA04F35A43C0E9112311E0A106890A20
:102120000161016941EA0321016101691143016112
:1021300002693946521CD20442644FF40072826430
:10214000C1F3801242768906490E00F81A1FF1B2D7
:10215000027842EAD11200F8012B01F07F0100F869
:10216000011BD8F80C20110ECB0900F8013BC1F37C
:10217000411300F8013BC1F3820300F8013B8907DA
:10218000090F01700378C2F3074143EA911300F885
:10219000013BC1F34013037080F801C001F001015D
:1021A0008170C2F30721CB09C370C1F3801303719F
:1021B000C1F340134371C1F300138371C1F3810371
:1021C000C37101F003010172C2F3460141724A4634
:1021D00080F80A90274B103319680C0E04730C0C0E
:1021E0002402C481C589C1F307242543C58109069A
:1021F0000161596805690C0E45EA044404610569EA
:10220000C1F3074445EA042404610569C1F30724C6
:1022100025430561017599680C0E44750C0C240664
:1022200084618569C1F3072445EA044484618469B3
:10223000C9B244EA01218161D968846944EA116420
:102240008461047FC1F3074344EA131404771B0736
:102250001B0DC383C48BC1F307231C43C483C1F389
:10226000460180F8201080F821206046BDE8F08308
:10227000BC000020A40B002008B500200090FFF750
:102280008DFE012803D1684600F0C8FB08B1FF208D
:1022900008BD0098C0F3432008BD10B5FFF7ECFF60
:1022A000042803D0FF2803D0012010BD002010BD5A
:1022B000022010BD38B500248DF80040FFF72AFA3F
:1022C00000F040F9FFF7F0FD00F08EF98DF8000006
:1022D0009DF8000050BB00F02FF88DF800009DF82D
:1022E000000018BB13480475046044608460C46037
:1022F0000461FFF71DFE0F485038FFF79BFE8DF875
:1023000000009DF8000040B90A485038B0F84C0071
:10231000000400F06DFB8DF800009DF8000028B966
:102320004FF40060FFF74CFE8DF800009DF80000B0
:1023300038BD0000240C00202DE9F84F01200025B5
:10234000ADF80000FFF7D6FDA8B3DFF8E090D9F8AC
:102350000400042868D0364C4FF0C00A0026022042
:10236000C4F808A0C4E900604FF48068C4E90368B9
:102370002046FFF7F9FDFEF70DFB05001DD1FFF725
:10238000C1FDA4F1880738600420FFF7BBFD786029
:102390000820FFF7B7FDB8600C20FFF7B3FDF86029
:1023A000D9F804004F4650B1012808D0062806D0BD
:1023B000022804D013E0FFE72520BDE8F88F0320B2
:1023C000E4E80260402084E841011948083CFFF736
:1023D000CBFD69460320FEF7F7FA0500EDD17868DA
:1023E000042821D0BDF80000B86000042060092056
:1023F000C4E9010AC4E903680D48FFF7B5FDFEF71B
:10240000C9FA0500D9D1FFF77DFD094C983C206041
:102410000420FFF777FD60600820FFF773FDA060E0
:102420000C20FFF76FFDE0602846C6E7BC000020E7
:102430003C0C002030B51F4D04468FB04FF0FA51D0
:102440002846FEF701FC00212846FEF713FC28462B
:10245000FEF71AFC4FF0006000901748CDE9010428
:102460000020039029150490CDE90501890007910A
:102470008900CDE908104FF440300A9004200B90F9
:1024800003200C9048020D9080100E90694628465B
:10249000FEF7ACFC012210212846FEF791FC20211A
:1024A0002846FEF783FC01212846FEF7E3FB0FB028
:1024B00030BD000058640240802C014030B51F4DF3
:1024C00004468FB04FF0FA512846FEF7BDFB0021BD
:1024D0002846FEF7CFFB2846FEF7D6FB4FF00060FC
:1024E00000901748CDE901044020039000202915F1
:1024F0000490CDE90501890007918900CDE9081014
:102500004FF440300A9004200B9003200C904802B6
:102510000D9080100E9069462846FEF767FC012258
:1025200010212846FEF74CFC20212846FEF73EFCF1
:1025300001212846FEF79EFB0FB030BD58640240D3
:10254000802C01407CB501210C20FFF747F9244D78
:102550000C2208212846FEF7E2FD0C22092128461C
:10256000FEF7DDFD0C220A212846FEF7D8FD0C22DD
:102570000B212846FEF7D3FD0C2211462846FEF714
:10258000CEFD184E0C2202213046FEF7C8FD4FF456
:102590007060012100908DF8051002208DF8040074
:1025A00000248DF806408DF8071069462846FEF78E
:1025B00065FD0420009069463046FEF75FFDA814D3
:1025C00000908DF8074069462846FEF757FD012127
:1025D000C802FFF71BF901218805FFF7FFF87CBD52
:1025E00000080240000C02402DE9FC5F00258DF838
:1025F000005072487621A9460175056045608560E6
:10260000C560A8460561FFF793FC0320FFF7C0FCF7
:102610000120FFF725FC694C4FF4806B18342046ED
:1026200025606560A560C4E9035BFFF79DFC4FF47E
:10263000803A0027564601E0761E10D08020FFF732
:1026400045FC0028F8D056B140F2FF50FFF7FCFBE4
:102650008DF800709DF80000002854D101E0032798
:10266000F6E74FF4D570206008204027C4E9010741
:102670005248C4E9035B5E461830FFF775FC504BC7
:10268000002051461A684FF0370B02E04C4A12689E
:10269000491E12F0450F06D009B1510706D54FF07B
:1026A000030A042007E00029F0D1F8E7510605D518
:1026B0004FF0000A4020FFF7C7FB50468DF800009E
:1026C0009DF8000000B3A760C4E9005B3B48C4E983
:1026D00003561830FFF748FC3720FEF7E7F88DF86F
:1026E0000000A760C4E9005B3448C4E90356DA4639
:1026F0001830FFF739FC3720FEF7D8F88DF80000C6
:102700009DF8000088B355E02E4801214FF0804825
:102710004160E6E7A760C4E9005A2848C4E90356C7
:102720001830FFF721FC3720FEF7C0F88DF80000C5
:102730009DF8000078BB244948EA01002060292068
:10274000C4E901071D48C4E903561830FFF70CFC23
:1027500000201B490190086810F0450FFBD040078E
:1027600004D503200190042002E011E040F2FF5064
:10277000FFF76AFB01988DF800009DF8000050B942
:102780000020FFF7BFFBC10F09F1010904D005E0EC
:102790004FF6FF7BBEE70DE0D945BBD3D94503D348
:1027A0001B208DF8000005E010F0804F02D0054896
:1027B000022141609DF80000BDE8FC9F240C002030
:1027C000342C0140BC000020000010800748006845
:1027D00010F0C05F08D006490120486103484FF05F
:1027E000C2515830FEF730BA704700000064024012
:1027F000BC00002070B54FF480752846FFF770FBD1
:102800001F4C38B1002020702846FFF723FB012021
:1028100020612EE00220FFF763FB20B10220FFF7CA
:1028200019FB022024E00820FFF75AFB20B1082002
:10283000FFF710FB04201BE02020FFF751FB20B125
:102840002020FFF707FB062012E01020FFF748FBCF
:1028500020B11020FFF7FEFA052009E04FF40075C3
:102860002846FFF73DFB20B12846FFF7F3FA072083
:10287000207000214CF23A30FFF74EFB207870BDFB
:10288000BC0000202DE9F047824627480025164667
:102890000F4605700561C56024490D604068022837
:1028A00001D106027F0A224C4FF040091020C4F8E3
:1028B0000890C4E900604FF48068C4E903582046DA
:1028C000FFF752FB1020FDF7F1FF002829D1411E30
:1028D00004F11400C0E90016902181600221C0E9D2
:1028E000031501214161FFF7C7FA1120C4F80890D0
:1028F000C4E90070C4E903582046FFF735FB1120F6
:10290000FDF7D4FF04000CD1012140F22A30FFF77B
:1029100003FB0120FFF7AAFA31465046FFF78AFD74
:102920002046BDE8F0870000BC0000202C2C0140B0
:102930003C0C00202DE9FF5F2A4800251E469046EA
:102940000F46057005614FF0010AC0F80CA026493A
:102950000D604068022802D14FF400787F0A234CB2
:102960004FF4806B1020C4F810B0C4E900804FF021
:102970004009C4E902952046FFF7F6FA1020FDF75A
:1029800095FF00282BD1411E04F1140006FB08F628
:10299000E0E80216902102C0022180E8220404F13E
:1029A0001400FFF769FA1220C4F810B0C4E90070EF
:1029B000C4E902952046FFF7D7FA1220FDF776FF0B
:1029C00004000CD1012140F22A30FFF7A5FA0120C2
:1029D000FFF74CFA31460098FFF72CFD204604B073
:1029E000BDE8F09FBC0000202C2C01403C0C0020D6
:1029F000094910B508600720486040208860002021
:102A0000C8604FF4806008610846FFF7ADFABDE882
:102A100010400720FDF74ABF3C0C002070B50400B1
:102A20001AD00E480E490089000408600D20486045
:102A3000402088600020C8604FF48060086108462C
:102A4000FFF792FA0D20FDF731FF050003D1FFF7E4
:102A500059FA2060284670BD262070BDBC000020B9
:102A60003C0C0020084810B500210C22C0E90012DF
:102A70004022C0E9022111010161FFF775FABDE8AA
:102A800010400C20FDF712BF3C0C002070B5002652
:102A9000741E2046134D00E0401E696929B929695A
:102AA00019B9297809B90028F6D1002068610E48C3
:102AB00000E0641E0168890401D5002CF9D1E868A2
:102AC000012802D1FFF7CEFF0646344300D1042689
:102AD00040F2FF50FFF7B8F9287808B1287870BDA8
:102AE000304670BDBC000020342C01402DE9F04779
:102AF00082462648002516460F4605700561C560CA
:102B000023490D604068022801D106027F0A214C4A
:102B10004FF480691020C4F81090C4E900604FF0B1
:102B20004008C4E902852046FFF71EFA1020FDF791
:102B3000BDFE002828D11820C4F81090C4E9007008
:102B4000C4E902852046FFF70FFA1820FDF7AEFE14
:102B5000002819D1411E04F11400C0E9001690218B
:102B6000C0E902150121C0E90451FFF785F90121EF
:102B700040F22A30FFF7D0F931465046FFF79EFC6D
:102B80000120FFF773F92846BDE8F087BC0000205C
:102B90002C2C01403C0C00202DE9FF5FDFF8F0B049
:102BA00000201D4616460F468BF80000CBF810009B
:102BB0000122CBF80C20374A1060DBF80410022900
:102BC00001D10E027F0A344C4FF4806A1021C4F800
:102BD00010A0C4E9006180464FF04009C4E90298A2
:102BE0002046FFF7C1F91020FDF760FE00284BD109
:102BF000BBF80800000420603720C4E90109C4E9DB
:102C0000038A2046FFF7B0F93720FDF74FFE002872
:102C10003AD11720C4F810A0C4E90050C4E90298C2
:102C20002046FFF7A1F91720FDF740FE00282BD121
:102C30001920C4E90070C4F810A0C4E902984746FE
:102C40002046FFF791F91920FDF730FE00281BD12F
:102C500004F11401401E7543C1E900059020C1E94B
:102C600002070120C1E904700846FFF705F90121B8
:102C700040F22A30FFF750F90120FFF7F7F8294614
:102C80000098FFF71BFC384604B0BDE8F09F000039
:102C9000BC0000202C2C01403C0C00200CB5002076
:102CA0002749019000900A6842F480320A604FF48C
:102CB000A0430A6802F400320092019A521C019269
:102CC000009A12B9019A9A42F3D10A68920334D554
:102CD000012000901A484030026842F080520260A1
:102CE0001848026842F44042026015480830026801
:102CF0000260026842F400420260026842F4A0529C
:102D00000260031F104A1A600A6842F080720A606B
:102D10000A689201FCD50D4A40F205711160016804
:102D200021F003010160016841F0020101600168C6
:102D3000C1F381010229FAD10CBD00900CBD000045
:102D4000003802400070004008544007003C024038
:102D5000124810B5016841F4700101601048016823
:102D600041F0010101600E4A002108321160026841
:102D70000C4B1A400260031D0B4A1A60026822F4D1
:102D80008022026006480C300160FFF787FF03498C
:102D90004FF000608039086010BD000088ED00E051
:102DA00000380240FFFFF6FE10300024A8B00026D5
:102DB00041F271753746FDF781FC02F0EBFD81466B
:102DC000DFF88CA3DFF88CB302F0E4FD484531D086
:102DD000E14890F8540001282CD14402DFF87C83AC
:102DE00021464046FEF7B7F902F0D4FD8146DCA14A
:102DF0000DF1490000F00EFFDEA10DF15E0000F0C4
:102E000009FF4A46E0A10DF1730000F003FF4522DF
:102E100016A96846FDF7A2FA0DF1480C9CE80F00D0
:102E200002F086F84FF4967003F066F821464046AB
:102E3000FEF78FF900215446DAF8000003F0E6F8B7
:102E4000202827D18846B5F5FA6F1FD998F80000D9
:102E5000012806D10021032002F064FFCFA002F078
:102E600073FF98F80000022806D10021032002F029
:102E700059FFCFA002F068FF98F80000032805D1A1
:102E8000002102F04FFFCFA002F05EFF4146206814
:102E900003F0AEF80021D846DBF8000003F0B6F8E6
:102EA0000C4620287DD114216846FDF770FA04F500
:102EB000B470C9A10546FDF781FA50B9C7A12846EB
:102EC000FDF77CFA28B9C6A12846FDF777FA002855
:102ED00056D004F1E400C3A10546FDF76FFA0028BF
:102EE0004BD0642105A8FDF752FABEA1284604E0A4
:102EF00005A8FDF757FABBA10020FDF779FA0100FC
:102F0000F6D105AAB8A1684600F084FE0021084663
:102F100002F008FFB6A002F017FF0021084602F0F9
:102F200001FF684602F010FF04F5A572B5A16846DE
:102F300000F070FE0021012002F0F4FEACA002F0CF
:102F400003FF0021012002F0EDFE684602F0FCFEC6
:102F500004F5AF7304F5AA72ACA1684600F05AFEFE
:102F60000021022002F0DEFEA1A002F0EDFE002111
:102F7000022002F0D7FE68463AE02A46A6A1C2E740
:102F8000A8A12846FDF71AFA002804F1E40095A14B
:102F9000054638D0FDF712FA002831D0642105A883
:102FA00000E071E0FDF7F3F98EA1284604E005A8E2
:102FB000FDF7F8F98BA10020FDF71AFA0100F6D110
:102FC00005AA99A1684600F025FE0021084602F0F6
:102FD000A9FE684602F0B8FE0021012002F0A2FE20
:102FE00093A002F0B1FE0021022002F09BFE95A00A
:102FF00002F0AAFE0021032002F094FE67A034E054
:103000002A4695A1DEE7FDF7D9F998B3642105A812
:10301000FDF7BDF973A1284604E005A8FDF7C2F944
:1030200070A10020FDF7E4F90100F6D105AA7EA108
:10303000684600F0EFFD0021084602F073FE684686
:1030400002F082FE0021012002F06CFE85A002F059
:103050007BFE0021022002F065FE87A002F074FED4
:103060000021032002F05EFE88A002F06DFE002524
:1030700026B104E0FFE72A4689A1D9E701262146C7
:10308000D8F8000002F0B4FFDFF820820021D8F861
:10309000000002F0BBFF20281BD028466D1C41F227
:1030A0007071884205D916B1FDF708FB002641F280
:1030B00071750A2002F020FF38467D497F1C884246
:1030C00004D9FEF709FA0027FDF7F8FA03F006F82D
:1030D0007AE60C460846FDF783F930B10021084630
:1030E00002F020FE204602F02FFE04F115000546F6
:1030F000FDF776F930B10021012002F013FE2846D9
:1031000002F022FE04F12A000546FDF769F930B10C
:103110000021022002F006FE284602F015FE04F10E
:103120003F000546FDF75CF930B10021032002F0B5
:10313000F9FD284602F008FE06B90126642002F0D7
:10314000DBFE2146D8F8000002F052FF0125B0E76F
:103150008800002090000020740C00200004024031
:103160007C2D2D2D2D2D2D2D2D2D2D2D2D2D2D7CF1
:10317000000000007C202020544953382D50726FED
:103180002020207C000000007C20204144443A2084
:1031900041434D25303375207C000000636F6E6E17
:1031A00065637465642E2E2E2E2E2E2E00000000D8
:1031B000646973636F6E6E65637465642E2E2E2E64
:1031C00000000000526573657445746865726E6531
:1031D000742E2E2E0000000031000000320000008E
:1031E0003300000020000000253134732E4F000012
:1031F00020202020202020202020202020202020CF
:1032000000000000544B3A257300000049463A255F
:10321000732D257300000000436172643A253873F2
:103220002E4F4B0030000000253134732E45000036
:10323000312E706C732074727920616761696E2021
:1032400000000000322E636F6E746163742041646D
:103250006D696E2000000000436172643A25732E90
:1032600045520000312E20636865636B206E6574E3
:10327000776F726B00000000322E456E61626C65E4
:103280002073657276696365000000003E3E3E3E35
:103290003E3E3E3E3C3C3C3C3C3C3C3C0000000056
:1032A000436172643A2538732E4552008C00002029
:1032B00020BF02000E4D0021286802F0A7FE202842
:1032C00013D10C460BA12046FDF778F810B1FDF79D
:1032D000D3FA06E00AA12046FDF770F808B1FDF721
:1032E000B1FA2146286802F083FE02F0F7FEE2E719
:1032F00094000020284E554F545F54484529000043
:10330000284E48415F5448452900000086B0154DBD
:103310000021286802F07AFE0C4620281FD11421D3
:103320006846FDF734F822460FA1684600F072FCAB
:103330002146286802F05CFE0CA16846FDF73EF8C5
:1033400068B1012000F046F9012000F0A3F9012046
:1033500000F0FEF8012000F021F900F077F902F00A
:10336000BDFED5E78000002025730000284F5045A2
:103370004E5F444F4F523A31290000002DE9F0478B
:10338000624E634C96F8640028B9E178012902D1B5
:103390002178491C2170217822795E4F00254FF059
:1033A00001084FF00209914203D9E57086F8648064
:1033B00001E0012849D186F86490574A554B97F8A7
:1033C0005310106893F85430F22903D0F12901D03A
:1033D000F02900D183B1F32905D005E04B4A4FA174
:1033E00000F018FC22E03BB197F86FC0BCF1010F70
:1033F0000CD00A2909D01EE000219246A56002F0F7
:10340000CFFDA0600028E9D115E0A3B900219246C4
:10341000A56002F0C5FDA06068B196F8651080F85F
:10342000651096F86520394900F07CFEA168DAF84D
:10343000000002F0F6FD6421344800F06BFE2570B8
:1034400086F8655086F86450E570304E663696F81A
:10345000640028B9A178012902D16178491C617002
:1034600061786279914203D9A57086F8648001E0A1
:10347000012848D186F8649097F85300DFF8A080BF
:10348000F22803D0F12801D0F02802D197F8541087
:1034900031B197F86F10022913D00A280ED027E017
:1034A000E5600021D8F8000002F07AFDE060F8B194
:1034B000164A1AA1663200F0ADFB14E097F85400EA
:1034C000B0B9E5600021D8F8000002F069FDE060C5
:1034D00070B196F8651080F865100C4996F8652073
:1034E000663100F01FFEE168D8F8000002F099FD97
:1034F00006486421663000F00DFE657086F8655060
:1035000086F86450A570BDE8F08700008C010020AB
:1035100000000020740C00209C0000202573000097
:10352000A0000020084810B5072101710121417158
:103530000022064802F0E4FD002804D0BDE8104057
:10354000052102F0F7BD10BD00000020AC87000887
:103550002DE9F0470024DFF84090064625464FF459
:1035600080784EF66027012E01D0022E05D141460B
:103570004846FDF7E4FD00B9641C052C02D3012088
:10358000BDE8F08728466D1CB84203D8012002F040
:10359000B3FCE8E70020F3E7000002402DE9F0412A
:1035A0000B4D064600244FF480674FF400683946FF
:1035B0002846FDF7D0FD41462846FDF7CCFD012009
:1035C00002F09AFC641CE4B2022CF0D3BDE8F08156
:1035D000000C024070B5154D044695F857000128BF
:1035E00003D101031248FDF7B4FD95F857000228F6
:1035F0000ED1012C0DD0022C0AD100240DA004F014
:1036000043FC0A2002F078FC641CE4B2032CF5D3DE
:1036100070BD00240AA004F037FC0A2002F06CFC04
:10362000641CE4B2032CF5D370BD0000740C0020C0
:10363000000C02402F4C45443030323E0D0A000051
:103640002F4C45443030313E0D0A000010B50C4C73
:1036500094F85700012803D101030A48FDF77BFDC8
:1036600094F8570002280AD1002407A004F00CFCAB
:103670000A2002F041FC641CE4B2032CF5D310BD17
:10368000740C0020000C02402F4C45443030303E7A
:103690000D0A00002DE9F0410B4D064600244FF4C1
:1036A00080674FF4006839462846FDF752FD4146D1
:1036B0002846FDF74EFD012002F01EFC641CE4B21A
:1036C000022CF0D3BDE8F081000C02402DE9F0415E
:1036D0008046012188B00846FEF780F801211020BD
:1036E000FEF794F82F4F072209213846FDF717FD02
:1036F00007220A213846FDF712FD02268DF80460E4
:10370000002478158DF8064000908DF8056001259D
:103710008DF8075069463846FDF7B0FCA8028DF8D1
:10372000065000908DF805608DF8075069463846C0
:10373000FDF7A4FCADF810400C201B4EADF80C407A
:10374000ADF81200CDF80880ADF80E40ADF8144089
:1037500002A9304600F0FEF900220821304600F0B0
:10376000E1F9012240F22551304600F0DBF9012158
:10377000304600F0A7F94FF4E060FEF719F8252075
:103780008DF818008DF819408DF81A408DF81B50EF
:1037900006A8FDF7DBFF05A004F076FB08B0BDE846
:1037A000F0810000000002400010014020000000F5
:1037B00070B5094C40F225552946204600F093F992
:1037C000002808D02946204600F076F92046BDE8BA
:1037D000704000F015BA70BD001001402DE9F041B5
:1037E000804688B001210820FDF7F8FF01218804F8
:1037F000FEF700F82F4F072208213846FDF78FFC0F
:10380000072209213846FDF78AFC02268DF804605C
:103810000024B8158DF8064000908DF8056001254C
:103820008DF8075069463846FDF728FC68028DF888
:10383000065000908DF805608DF8075069463846AF
:10384000FDF71CFCADF810400C201B4EADF80C40F1
:10385000ADF81200CDF80880ADF80E40ADF8144078
:1038600002A9304600F076F900220821304600F027
:1038700059F9012240F22551304600F053F9012157
:10388000304600F01FF94FF4E060FDF791FF27206C
:103890008DF818008DF819408DF81A408DF81B50DE
:1038A00006A8FDF753FF05A004F018FB08B0BDE81B
:1038B000F0810000000C02400048004020000000A1
:1038C00070B5184C40F225552946204600F00BF9FA
:1038D000002819D02946204600F0EEF8204600F0D6
:1038E0008FF9114AC3B2114893710125D57090F830
:1038F00064600021022E06D290F86540632C00D24D
:103900001EB180F86450917170BD1170035590F82C
:1039100065305B1CDBB280F86530C15480F8641000
:10392000F1E7000000480040000000208C0100206A
:103930002DE9F041804688B001210420FDF74EFFBB
:1039400001212020FDF762FF2F4F08220621384673
:10395000FDF7E5FB082207213846FDF7E0FB0226CC
:103960008DF80460002440208DF8064000908DF80A
:10397000056001258DF8075069463846FDF77EFB46
:1039800080208DF8065000908DF805608DF8075066
:1039900069463846FDF772FBADF810400C201B4E0F
:1039A000ADF80C40ADF81200CDF80880ADF80E402F
:1039B000ADF8144002A9304600F0CCF800220821EE
:1039C000304600F0AFF8012240F22551304600F0B9
:1039D000A9F80121304600F075F84FF4E060FDF7DA
:1039E000E7FE47208DF818008DF819408DF81A4031
:1039F0008DF81B5006A8FDF7A9FE05A004F084FA77
:103A000008B0BDE8F0810000000802400014014049
:103A10002000000070B5184C40F22555294620467C
:103A200000F061F8002819D02946204600F044F83B
:103A3000204600F0E5F8114AC3B21148D3710125C0
:103A4000957090F864600021022E06D290F86540CF
:103A5000632C00D21EB180F86450D17170BD5170DA
:103A6000035590F865305B1CDBB280F86530C154BB
:103A700080F86410F1E7000000140140000000200D
:103A8000F20100202DE9F0410F4605460024094EC1
:103A90000AE02978304600F0B7F84021304600F0BF
:103AA0001BF80028F9D06D1C2046641CB842F0D3E6
:103AB000BDE8F081001401400A0A01219140C94388
:103AC000018070470029818902D041F4005101E052
:103AD00021F40051818170470246002012880A4279
:103AE00000D00120704730B501F01F0201240025ED
:103AF000C1F3421304FA02F2012B0FD0022B0FD0B4
:103B0000838A4FEA11210088134204FA01F400EA83
:103B1000040001D000B10125284630BD8389F0E7BB
:103B2000038AEEE710B5C1F3421301F01F0401212F
:103B3000A140012B07D0022B07D01430002A0268C5
:103B400005D00A4304E00C30F8E71030F6E78A436A
:103B5000026010BD7FB50446008A0D4620F4405136
:103B6000E88808432082A08941F20C618843A98833
:103B70002A8911436A8902431143A181A08A20F452
:103B80004071A8890843A0826846FDF75FFE1A4885
:103B9000844202D01948844201D1039800E002987F
:103BA000A189090400EBC00101EB0010296801D5CF
:103BB000490000E08900B0FBF1F26420B2FBF0F1B3
:103BC00009010B096FF018056B4302EB8302A3890F
:103BD0001D044FF0320306D503EBC202B2FBF0F036
:103BE00000F0070005E003EB0212B2FBF0F000F07A
:103BF0000F00084320817FBD0010014000140140E8
:103C00008088C0F308007047C1F3080181807047C5
:103C1000FEE700000FB4084B10B504A902AA0398F0
:103C200000F042F8044602A9002000F06EFA204697
:103C300010BC5DF814FB00000B4100080048704701
:103C40008801002002E008C8121F08C1002AFAD12A
:103C500070477047002001E001C1121F002AFBD10C
:103C6000704710B5002A06DA22F00042D21D22F079
:103C70000703102203E0D21C22F003030C2213B12D
:103C80009C188C4201D9012010BD0244014483607C
:103C9000C0E90021C91AD018884202D81060024633
:103CA000F9E70020106010BD2DE9FF4F8DB00F46E1
:103CB0000546002606E025280BD0DDE90F129047C7
:103CC0006D1C761C28780028F5D111B03046BDE86F
:103CD000F08F0024A246A1460122EC4900E00443F3
:103CE00015F8013F203B02FA03F00842F7D128788B
:103CF0002A2810D06FF02F022878A0F1300109296E
:103D000014D80AEB8A0102EB410144F0020400EBF3
:103D1000010A6D1CF0E701CF5FEA000A03D544F405
:103D20000054CAF1000A44F002046D1C28782E28C1
:103D300017D115F8010F44F004042A280ED06FF0B3
:103D40002F022878A0F1300109290AD809EB89014E
:103D500002EB410100EB01096D1CF2E757F8049BEF
:103D60006D1C28786C280FD006DC4C2817D06828EA
:103D70000DD06A2814D104E0742810D07A280FD10D
:103D80000DE044F400140AE044F4801401E044F42B
:103D900040146978814202D104F580146D1C6D1CB9
:103DA0002A786E2A1FD00CDC632A31D004DC002A6A
:103DB0008BD0582A11D1A3E0642A68D0692A0CD18B
:103DC00065E0732A2ED004DC6F2A73D0702A04D1E8
:103DD0009BE0752A6FD0782A6ED01046DDE90F126D
:103DE0009047761C50E1C4F30250022806D0032805
:103DF00009D0042801CF09D0066045E101CFF117B1
:103E0000C0E9006140E101CF06803DE106703BE181
:103E100017F8040B8DF8000000208DF80100EB4628
:103E2000012003E057F804BB4FF0FF3061074FF06B
:103E3000000102D40DE008F10101884649450FDA7E
:103E40008045F8DB1BF808100029F4D108E008F1E0
:103E5000010188468142FADB1BF808100029F6D1DF
:103E6000DDE90F23AAEB08008146214600F036F970
:103E7000304400EB080604E0DDE90F121BF8010BEB
:103E80009047B8F10108F7D221464846F7E00A21E9
:103E9000C4F302534FF0000B0891022B04D001CF62
:103EA000C117032B09D00AE0FF1D27F00707F7E829
:103EB000020108E032E01FE020E000B2C117042B4D
:103EC00001D140B2C117031E71F1000307DA4FF0B0
:103ED000000CD0EB0C006CEB01012D2302E023055C
:103EE00004D52B238DF82430012303E0E30701D010
:103EF0002023F7E7984658E00A2110E010210EE051
:103F000010204FF0000B08900CE010214FF0000B38
:103F100044F004044FF00809089103E008214FF031
:103F2000000B0891C4F30253022B04D001CF0021EF
:103F3000032B06D006E0FF1D27F00707F7E8020174
:103F400003E080B2042B00D1C0B24FF00008230779
:103F50002BD5702A07D0DDF820C08CF0100C5CEA5D
:103F60000B0C05D00EE040238DF82430012308E02F
:103F700050EA010306D030238DF824308DF8252037
:103F800002239846DDF820C08CF0080C5CEA0B0C8C
:103F90000BD150EA010301D1630706D530238DF818
:103FA00024304FF00108A9F10109582A04D038A2A1
:103FB0000B9208AA0A920BE03AA2F9E75B46089A2C
:103FC000FCF752FA0B9B9B5C0A9A521E0A921370E2
:103FD00050EA0102F2D10A98ADEB000000F1200B8B
:103FE000600702D524F4803401E04FF00109D9457F
:103FF00002DDA9EB0B0000E0002000EB0B014144C7
:104000000890AAEB010AE00306D4DDE90F2321465C
:10401000504600F063F806444FF0000908E009A993
:1040200011F80900DDE90F12904709F10109761C2A
:10403000C145F4DBE0030CD5DDE90F2321465046F2
:1040400000F04CF8064404E0DDE90F123020904700
:10405000761C0899481E08900029F5DC08E00A98AB
:104060000A990078491C0A91DDE90F129047761CE5
:10407000BBF10001ABF1010BF1DC21465046DDE95B
:104080000F2300F019F806446D1C1BE609280100F7
:1040900030313233343536373839616263646566BE
:1040A0000000000030313233343536373839414280
:1040B00043444546000000002DE9F0410446002538
:1040C0001E461746880404D405E039462020B04730
:1040D0006D1C641EF9D52846BDE8F0812DE9F0413C
:1040E000044600251E469046C80301D5302700E04F
:1040F0002027880404D505E041463846B0476D1CAA
:10410000641EF9D52846BDE8F0810A68531C0B608F
:10411000107070470022134601E08354521C8A42FB
:10412000FBD3704710B5002302E0CC5CC4545B1C89
:104130009342FAD310BD4178392901D9373900E0CB
:1041400030390078392801D9373800E0303801EBB0
:104150000010C0B2704770B50546002403E0FCF7BC
:10416000F7F82855641C285D0028F8D170BD0000C0
:104170001FB50F216846FFF7CDFF64220121994842
:1041800002F078FF974C65220121601C02F072FF5B
:1041900066220121A01C02F06DFF67220121E01CB4
:1041A00002F068FF68220121201D02F063FF6922EE
:1041B0000121601D02F05EFF6A220121A01D02F0B4
:1041C00059FF6B220121E01D02F054FF6C220121F6
:1041D00004F1080002F04EFF6D22012104F10900F4
:1041E00002F048FF2622012104F13E0002F042FFC6
:1041F0000F216846FFF78EFF27220221684602F052
:1042000039FF9DF801009DF80010292200EB0120E4
:10421000E08102216846263402F02CFF9DF801005F
:104220009DF80010372200EB012024F8160C012124
:1042300004F1190002F01EFF38220421A4F1080045
:1042400002F018FF3C220421201F02F013FF582225
:10425000012104F12A0002F00DFF0F216846FFF74B
:1042600059FF5A220221684602F004FF9DF801001E
:104270009DF800105C2200EB01206083022168465B
:1042800002F0F8FE9DF801009DF800108B2200EB73
:104290000120A083012104F1300002F0EBFE6E2228
:1042A000012104F12C0002F0E5FE6F22012104F14E
:1042B0002D0002F0DFFE7022012104F12E0002F039
:1042C000D9FE7922012104F1310002F0D3FE0F2141
:1042D0006846FFF71FFF74220221684602F0CAFEFB
:1042E0009DF801009DF8001000EB0120E0870F21F0
:1042F0006846FFF70FFF81220221684602F0BAFEEE
:104300009DF801009DF8001000EB012060860F2150
:104310006846FFF7FFFE83220221684602F0AAFEEC
:104320009DF801009DF8001000EB0120A0860F21F0
:104330006846FFF7EFFE85220221684602F09AFEEA
:104340009DF801009DF8001000EB0120E0860F2190
:104350006846FFF7DFFE87220221684602F08AFEE8
:104360009DF801009DF8001000EB012020870F212F
:104370006846FFF7CFFE89220221684602F07AFEE6
:104380009DF801009DF8001000EB012060870F21CF
:104390006846FFF7BFFE8D220221684602F06AFEE2
:1043A0009DF801009DF8001000EB0120A0870F216F
:1043B0006846FFF7AFFE8F220121684602F05AFEE1
:1043C0009DF8000084F848000F216846FFF7A2FE20
:1043D00090220121684602F04DFE9DF8000084F80D
:1043E00049001FBD740C0020002203E08B4200D165
:1043F000521C401C0378002BF8D11046704730B592
:10440000002213464C1E04E062B1855C6B40521CD6
:10441000D2B2A242F8DB084410F8010C984203D152
:10442000012030BD0378F2E7002030BD2DE9F041D6
:104430001E460446BA202070B01C6070134600254A
:10444000A1702F4632461946E01CFFF76BFEF61CA2
:10445000F0B204E06DB1615D4F406D1CEDB285427C
:10446000F8D3275400212218401C5170C0B2BDE877
:10447000F0812778F1E700002DE9F0410A46044673
:1044800012A11046FBF7B4FF074610A10020FBF76E
:10449000AFFF06460DA10020FBF7AAFF05460BA1C2
:1044A0000020FBF7A5FF80463846FBF7D0FF2070C1
:1044B0003046FBF7CCFF60702846FBF7C8FFA070C2
:1044C0004046FBF7C4FFE070BDE8F0812E0000001D
:1044D00070B5054665A1FBF771FF48B964A1284690
:1044E000FBF76CFF20B963A12846FBF767FF10B10B
:1044F0006FF0010070BD60A12846FBF75FFF20B19F
:104500002846FBF76DFF142812D061A12846FBF75F
:1045100055FF4FF0FF34A8B160A12846FBF74EFFCE
:1045200080B12C212846FFF75FFF022871D101E0FE
:10453000002070BD2E212846FFF756FF0528F5D133
:10454000012070BD56A12846FBF738FF90B153A15A
:104550002846FBF733FF68B12C212846FFF744FFBC
:1045600005287FD12E212846FFF73EFF0F2879D15D
:10457000022070BD4CA12846FBF720FF60B147A187
:104580002846FBF71BFF38B12C212846FFF72CFFEC
:10459000012867D1032070BD45A12846FBF70EFF17
:1045A00090B13EA12846FBF709FF68B12C212846AF
:1045B000FFF71AFF032855D12E212846FFF714FFD5
:1045C00003284FD1042070BD3BA12846FBF7F6FE1F
:1045D00060B132A12846FBF7F1FE38B12C21284604
:1045E000FFF702FF03283DD1052070BD35A1284605
:1045F000FBF7E4FE08B1062070BD35A12846FBF7A5
:10460000DDFE38B125A12846FBF7D8FE10B1072002
:1046100070BD27E032A12846FBF7D0FE30B11FA1C4
:104620002846FBF7CBFE08B10820F1E72EA128466B
:10463000FBF7C4FEB0B119A12846FBF7BFFE88B155
:1046400028212846FFF7D0FE01280BD12921284632
:10465000FFF7CAFE012805D12C212846FFF7C4FE2A
:10466000022801D02046D3E70920D1E72F2F0000F0
:104670002F2A00002A2F0000284844435F302C5284
:10468000455345545F4445564943452900000000C1
:10469000284844435F312C4D41430000290000006D
:1046A000284844435F322C00284844435F332C00A1
:1046B000284844435F342C00284844435F2D312C64
:1046C00000000000284844435F2D3229000000000C
:1046D000284844435F352C312C54494D452C00006B
:1046E000284844435F362C00284844435F372C4811
:1046F00055422D424C4F472C00000000F8B50025D4
:1047000012A10095FBF774FEFBF7A1FE4FF4805653
:104710000446B0420AD20EA1002011E0FBF797FE3A
:104720000090FF2802D86019B04201D90020F8BDDE
:1047300082B20121684604F00DF805A100206D1C2D
:10474000FBF756FE0028E9D10120F8BD282C2900EE
:104750002C000000C140C80700D00120704700B500
:1047600087B000208DF800008DF804008DF8080057
:104770008DF80C008DF810008DF814000246012110
:10478000684602F077FC40F6FA72012101A802F0B7
:1047900071FC40F6FB72012102A802F06BFC40F6AE
:1047A000FC72012103A802F065FC40F6FD720121B4
:1047B00004A802F05FFC40F6FE72012105A802F099
:1047C00059FC9DF800006E2813D19DF804006F2855
:1047D0000FD19DF808006F280BD19DF80C006F28B1
:1047E00007D19DF810006F2803D19DF814006F28A1
:1047F00001D000F0B9FE07B000BD000010B50446BE
:104800000A464078012304F1300100F043FB08B16F
:10481000032010BDB4F82E02A0F52A41553901D06D
:10482000022010BD94F86600B4F8671040EA012138
:104830000848B0EB012F08D094F88210B4F8832018
:1048400041EA0221B0EB012F01D1002010BD01206F
:1048500010BD0000004641542DE9F047036815469D
:104860001A78303A092A08D85C783A2C05D19B1C72
:10487000036012B10B20BDE8F087774804680C6034
:104880009CB1207820B1607800F026FBC1070ED0E3
:104890004FF0000984F80090484684F8019000F039
:1048A000D7FAC10708D00320E5E70C20E3E70DB1F4
:1048B000400704D40020DEE71DB1400701D50A20DF
:1048C000D9E700210D462046FFF798FF01280CD1BB
:1048D00004F5F7700179E9B3017AD0F8090041EAEB
:1048E000002529462046FFF789FF032801D088BB11
:1048F00001E00120BFE7B4F83B00B0F5007F58D1DC
:10490000B4F8460028B994F85400D4F8551040EA99
:104910000120E06194F840108446E170012901D043
:10492000022946D1484394F83D10A17091B14B1E25
:1049300019423ED1B4F841202281130739D1B4F88D
:1049400043602EB994F85030D4F8516043EA0626FB
:10495000E78F00E02DE067B33B1803EB12139E4294
:1049600027D3F61AB6FBF1F119B3012640F6F67813
:10497000414500D302264FF6F678414500D3032681
:104980002B44A362891CEB19A1612362032E12D070
:104990007AB118446062022E18D001F0010001EBD8
:1049A000410100EB510000BF00F2FF10BCEB502FA3
:1049B0000ED20D205FE7002AFBD194F85C00D4F8FA
:1049C0005D2040EA022060628800EDE74800EBE7E6
:1049D0004FF0FF30C4E903904F46032E31D1677189
:1049E000B4F86000012342196261607804F130017B
:1049F00000F050FA28BBB4F82E02A0F52A41553930
:104A00001FD194F83000D4F8311040EA0120134946
:104A1000884216D194F81402D4F8151240EA012005
:104A20000F4988420DD194F81C02D4F81D1240EAB7
:104A30000120E06094F81802D4F8191240EA01202D
:104A4000206105492670091F0888401C0880E08005
:104A5000E76227712EE70000D80000205252614122
:104A6000727241618269891E921E8A4201D80020B9
:104A70007047826A807801FB002070472DE9F04181
:104A80000F00064606D000F0C5FF022809D201201B
:104A9000BDE8F081F46814B1B069A04205D80124E2
:104AA00003E0B1698142F3D83C462546B0696D1CEC
:104AB000A84202D80225022C0AD32946304600F02B
:104AC000A9FF38B1411CE3D00128E1D0A542EDD1C6
:104AD0000020DDE76FF070422946304602F04CFAC4
:104AE00030B957B12A463946304602F045FA20B16E
:104AF00001280BD001252846CAE7F5603069411C22
:104B0000F9D0401E306101207071F4E74FF0FF359D
:104B1000F1E700002DE9F047846989460B22202146
:104B2000204601F0ACF900200346D9F80070194680
:104B300008253A5C401C202A49D92F2A47D05C2AF4
:104B400045D02E2A01D0A94208D3082D4CD12E2AB7
:104B50004AD108210B259A06130EEAE7802A01D3D1
:104B600043F00303A2F181067D2E13D83E5C401C66
:104B7000A6F1400CBCF13F0F04D3A6F1800CBCF1B0
:104B80007F0F31D2A5F1010C61452DD26254491C31
:104B900066541AE020A600E0761C96F800C0BCF12E
:104BA000000F02D09445F7D11EE0A2F14106192E64
:104BB00002D843F0020307E0A2F16106192E03D8E0
:104BC000203A43F00103D2B26254491CB1E73E18C7
:104BD000C9F80060202A01D8042000E0002019B1A3
:104BE0002178E52903D004E00620BDE8F0870521FF
:104BF0002170082D01D199060B0E03F00301012944
:104C000001D140F01000C3F38101012901D140F02E
:104C10000800E0720020E8E7222A2B2C3A3B3C3DBA
:104C20003E3F5B5D7C7F000008480068C0010BD5FB
:104C300007480068C00707D005488038006800288A
:104C400002DA04490120087070470000FCED00E022
:104C5000800E00E0780100204FF06042D36F002BFF
:104C6000FCD0036BD367D36F002BFCD0C07840EA35
:104C70000120A2F87C0070474FF06041CA6F002A03
:104C8000FCD081F87C0070472DE9F0410446C088D3
:104C90000F46401C0604360C2DD0206958B331074E
:104CA0005ED1401C2061E168206829B18278521EE3
:104CB00012EA161F04D053E00089B0421BD94FE01E
:104CC00000F0A8FE054601281AD9681C33D02068D8
:104CD0008169A9423ED877B1E168FFF7CFFE0500B0
:104CE0000CD0012D0CD0681C25D00021206801F0CB
:104CF000CDF800BB06E00420BDE8F0810720FBE70B
:104D00000220F9E720684FF400720021303001F0F2
:104D1000B6F829462068FFF7A5FE216800274FF066
:104D20000108C8620FE000BF80F8048000212068FD
:104D300001F0ACF808B10120DEE72068C16A491C27
:104D40007F1CFFB2C16220688178B942ECD8C16A89
:104D5000C91BC162E56029462068FFF783FE206118
:104D6000E68006F00F013022206802EB4111084472
:104D700060610020C0E770B50446002100F029F80A
:104D80000EE02169206801F081F805001FD16069FB
:104D90000078E52807D030B101212046FFF774FFE5
:104DA0000500EED013E02169206801F06FF80500DE
:104DB0000DD1666920220021304601F060F80B22F7
:104DC0003046A16901F052F820680121017128469E
:104DD00070BD70B50D46C1808168044601291ED0A2
:104DE000206882698A421AD921B90278032A04D13B
:104DF000416A11B18078060117E0E1600189A9429A
:104E00000DD9406A17E0206800F004FE0146401CFE
:104E100007D0022903D320688069884203D8022082
:104E200070BD012070BDA81B85B2B542EBD2E16018
:104E30002068FFF717FE00EB1510206105F00F0149
:104E40003022206802EB411108446061002070BDEF
:104E500010B510B1012804D110BDFDF72BFA0028C0
:104E6000FAD0012010BD000010B578B9084B042914
:104E7000986C0BD2DFE801F008020A07596CB1FB0D
:104E8000F0F0106000E01080002010BD042010BD84
:104E9000D40B002010B50C460BB1A0B901E00420E2
:104EA00010BD0C485102012B826C204692B20CD0EE
:104EB000FDF740FDFDF7EAFD4FEA0004FDF7EDF9CF
:104EC0000028FBD124B1012010BDFDF7DBFCF1E788
:104ED000002010BDD40B0020002804D0012803D0EE
:104EE000022801D0012070470020704710B50C4601
:104EF0000BB1A0B901E0042010BD0C485102012BF8
:104F0000826C204692B20CD0FDF746FEFDF7BEFD46
:104F10004FEA0004FDF7C1F90028FBD124B10120BC
:104F200010BDFDF7E3FDF1E7002010BDD40B00201C
:104F30000FB4002170B5144D286801F031F8040059
:104F40001FD010220DF11101FBF708FA10220DF10C
:104F5000260104F11500FBF701FA10220DF13B01C7
:104F600004F12A00FBF7FAF9102214A904F13F001A
:104F7000FBF7F4F92146286870BC5DF814EB01F0EA
:104F800050B870BC5DF814FB8C00002010B50446CE
:104F900000F041FA002801D10021216010BD2DE967
:104FA000FC4100259046074604464E1E0FE001AB2B
:104FB00001226946404600F084F90198012808D191
:104FC0009DF800006D1C04F8010B0A2801D0B542C1
:104FD000EDDB0020207015B13846BDE8FC810020D3
:104FE000FBE72DE9F14F90B000F070FD074601227C
:104FF000694610A8FFF730FC050009D10CA80690FF
:105000006846109900F059FA050002D0042D02D02C
:10501000A7E00825A5E000210098FFF72FFD060076
:105020000AD0012E0AD0701C0AD00021009800F08E
:105030002DFF050006D075E0072573E0022571E01D
:1050400001256FE031460098FFF70CFD009C80467B
:1050500030344FF400720021204600F010FF0B2284
:105060002021204600F00BFF2E2525701020E07235
:10507000F8B20B90A075C7F307200A90E075C7F34C
:10508000074009902076380E08906076F0B20790BD
:10509000A076C6F3072B84F81BB0C6F3074A84F842
:1050A00014A04FEA166984F815902022214604F1D5
:1050B000200000F0DBFE84F8215000990298097866
:1050C000032904D10099496A814200D1002084F863
:1050D0003A00010A84F83B10010C84F83410000EE9
:1050E00084F835000098877815E000990120C1F810
:1050F0002C80009908F1010808710021009800F047
:10510000C5FE05000ED14FF400720021204600F0CC
:10511000B6FE7F1EFFB2002FE7D16846FFF72BFED9
:10512000050004D03146009801F0C4FF19E005984D
:105130001021C1720B9981750A99C175099901767F
:10514000089941760799817680F81BB080F814A001
:1051500080F81590009901200871009803F070F80C
:10516000054611B02846BDE8F08F000008B10B20BD
:105170007047054A0023106800B1037001B10B703D
:105180000020116070470000D80000202DE9F7478B
:105190008BB04FF00009074602F01F06C0F80090E0
:1051A00026F0010269460CA8FFF756FB050007A888
:1051B000069004D168460C9900F07FF90546059CDD
:1051C0000DB904B9062516F01C0F4ED055B1042DAB
:1051D00003D16846FFF7CFFD0546059C46F008065B
:1051E00045B16AE0700701D5082566E0E07A10F065
:1051F000110F44D1300748D500F068FCA073010AB4
:10520000E173010C2174000E607484F80B9084F833
:105210001C9084F81D9084F81E9084F81F90A28A38
:10522000618B84F81A9084F81B9062F31F4184F814
:1052300014905FEA010884F8159000994FF001007E
:10524000087141461FD00098D0F82CA001F032FF21
:10525000050032D10099A8F10100C86051460098BC
:1052600000F014FE05000CD027E035BBE07AC10643
:1052700001D5042521E0B10703D5C00701D00725DA
:105280001BE0300701D546F020060098C06AC7E948
:105290000704BE71A18A608B61F31F403861207FD3
:1052A000D4F81D1040EA0120C7E90290C7F8189011
:1052B000009838600098C088B8800EB02846BDE8D5
:1052C000F0872DE9F05F0F460021196004468188C0
:1052D00098461546006803F02DFA002803D1A079FE
:1052E000010602D50220BDE8F09FC00708D0D4E92E
:1052F0000201081A04F12409854200D9054685E017
:105300000720F0E7A068C10568D122689178491E9E
:1053100001EA502111F0FF0609D120B3104661695E
:1053200000F078FB012820D9411C4FD060616169F1
:105330002068FFF797FBC0B100EB060B680A5FEA35
:10534000000A29D0206806EB0A0281788A4201D936
:10535000A1EB060A0AF0FF0340785A463946FFF7E8
:1053600099FD98BB06E02069DCE7A07940F0800059
:10537000A071B7E7A07940060BD5A169A1EB0B009E
:10538000504506D207EB40204FF40072494600F02A
:105390006DFD4FEA4A262FE0A07940060BD5206824
:1053A000012349464078A269FFF7A0FD70B9A079B2
:1053B00020F04000A071A16959450DD0206801235B
:1053C0005A4640784946FFF765FD28B1A07940F07C
:1053D0008000A071012086E7C4F818B02089C0F3CE
:1053E0000800C0F50076AE4200D92E4601193246BB
:1053F0003846243100F03AFDA06837443044A060BC
:10540000D8F800008119AD1BC8F80010002D7FF4FA
:1054100079AF002067E770B504468188006803F023
:1054200089F900280ED1A1798A060BD548060ED538
:105430002068012304F124014078A269FFF756FD9A
:1054400008B1012070BDA07920F04000A071E16991
:10545000206800F01BFD0028F4D1256AE87A40F0AE
:105460002000E872207B2877A089000A6877E0682E
:10547000000CA877E068000EE877207CA876208AE8
:10548000000AE8762069000C28752069000E68750E
:1054900000F01CFBA875010AE975010C2976000EC5
:1054A0006876A07920F02000A071216801200871A1
:1054B0002068BDE8704002F0C3BE73B50446019891
:1054C00001782F2901D05C2901D1401C01900025D1
:1054D000A56001980078202805D200212046FFF71A
:1054E00078FC65617CBD01A92046FFF713FB00280D
:1054F000F8D100212046FFF76CFCF8B9216920683B
:1055000000F0C4FCD0B961690A782AB1CA7A1207DE
:105510000ED40A23A26903E004200FE05B1E06D329
:1055200011F8015B12F8016BAD1BF7D000E02DB153
:1055300000212046FFF7A8FB0028DFD0A169C97A27
:1055400028B10428CED14907CCD405207CBD490719
:10555000FCD46069C17AC906F7D5818A408B61F3B2
:105560001F40A060BFE700002DE9F04186B0002693
:105570008DF8106034464FF4FA752246012104A8D4
:1055800003F0E8F8641CA4B2AC42F6D36F208DF8A7
:10559000000000220121684603F0DCF840F6FA72B0
:1055A0000121684603F0D6F840F6FB7201216846F7
:1055B00003F0D0F840F6FC720121684603F0CAF807
:1055C00040F6FD720121684603F0C4F840F6FE7211
:1055D0000121684603F0BEF8FD208DF8000001228D
:1055E0001146684603F0B6F8E4A16846FEF712FBE0
:1055F00002220A21684603F0ADF8A0218DF80010C0
:105600001D218DF8011048218DF80210052106207A
:105610008DF804104FF0A8088DF8050001468DF8AC
:1056200003800C22684603F095F8C0248DF80040F2
:105630008DF8018001258DF80250FA208DF80300C5
:1056400012220421684603F085F88DF800408DF899
:1056500001808DF802508DF803501622042168460F
:1056600003F078F8FF248DF800408DF801408DF8A4
:1056700002408DF803601A220421684603F06AF89C
:1056800008278DF800708DF801708DF802708DF884
:1056900003701E220421684603F05CF88DF8007048
:1056A00004208DF801708DF802008DF8030001468A
:1056B0002222684603F04EF88DF800402622012190
:1056C000684603F047F822278DF80070A2208DF875
:1056D000010027220221684603F03CF81B208DF8C8
:1056E000000039208DF8010029220221684603F0CC
:1056F00031F88DF8004037220121684603F02AF87E
:1057000071208DF80000BE208DF801002A208DF850
:1057100002009C208DF8030038220421684603F023
:1057200019F8BF208DF800008DF801808DF8026017
:105730009B208DF803003C220421684603F00AF800
:105740008DF8004058220121684603F003F820201C
:105750008DF80000C2208DF801005A22022168460F
:1057600002F0F8FF8DF80070B8208DF801005C227F
:105770000221684602F0EEFF8DF80040642201210C
:10578000684602F0E7FF8DF8004065220121684677
:1057900002F0E0FF8DF8004066220121684602F029
:1057A000D9FF8DF8004067220121684602F0D2FF40
:1057B0008DF8004068220121684602F0CBFF8DF889
:1057C000004069220121684602F0C4FF8DF80040C4
:1057D0006A220121684602F0BDFF8DF800406B226D
:1057E0000121684602F0B6FF8DF800406C220121CD
:1057F000684602F0AFFF8DF800406D220121684637
:1058000002F0A8FF8DF800506E220121684602F0D8
:10581000A1FF0A208DF800006F220121684602F0E6
:1058200099FF8DF8006070220121684602F092FF16
:105830008DF800508B220121684602F08BFF8DF815
:1058400000502C208DF8010081220221684602F0D0
:1058500081FF09208DF80000C4208DF8010083220B
:105860000221684602F076FF03208DF80000E82050
:105870008DF8010085220221684602F06BFF0720A7
:105880008DF80000D0208DF80100872202216846A3
:1058900002F060FF8DF80050F4208DF8010089229D
:1058A0000221684602F056FF27208DF800001020E4
:1058B0008DF801008D220221684602F04BFF8DF821
:1058C00000608DF8015071220221684602F042FF0B
:1058D0008DF8005073220121684602F03BFF8DF8DD
:1058E00000408DF8016074220221684602F032FF08
:1058F0008DF800408DF8014076220221684602F0C2
:1059000029FF8DF8004078220121684602F022FF2D
:1059100002248DF8004079220121684602F01AFF26
:105920008DF800608F220121684602F013FF8DF888
:10593000004090220121684602F00CFF0F216846CA
:10594000FEF7E8FB0FA16846FEF764F94FF4C87252
:105950000A21684602F0FEFE0F216846FEF7DAFBD8
:105960000BA16846FEF756F94FF4CD720A2168463E
:1059700002F0F0FE06B00120BDE8F08144616E67E0
:105980004C4800004D722E44616E674C4800000088
:105990003100000070B51C4D002401212846FBF7A2
:1059A000CEFB00B9012402212846FBF7C8FB00B951
:1059B000A41C10212846FBF7C2FB00B9241D134D7F
:1059C00020212846FBF7BBFB00B9083440212846BC
:1059D000FBF7B5FB00B9103480212846FBF7AFFB7D
:1059E00000B920344FF480712846FBF7A8FB00B9BA
:1059F00040344FF480510648FBF7A1FB08B98034CE
:105A0000E4B2204670BD0000000C024000040240D9
:105A1000000002402DE9F0410D460446022902D360
:105A2000A069A84202D80120BDE8F08120780128B1
:105A300004D0022826D0032837D12FE0206A05EBB6
:105A4000550600EB5621204600F020FA68BBC6F34D
:105A500008002044761C90F83070206A00EB562134
:105A6000204600F013FA00BBC6F308002044E90703
:105A700090F8300047EA002001D00009D4E7C0F3D5
:105A80000B00D1E7206A00EB1521204600F0FEF95B
:105A900058B9E8B204EB4000008EC5E7206A00EB7D
:105AA000D511204600F0F2F910B14FF0FF30BBE7FE
:105AB00040F2FF1000EA8500204490F83010D0F842
:105AC000310041EA002020F07040ADE7002070472F
:105AD00070B50D46040003D012B92078012801D01A
