:020000040800F2
:1000000050D00120A55F00089D2B00089F2B000801
:10001000A12B0008A32B0008A52B0008000000005E
:10002000000000000000000000000000A502000821
:10003000A72B000800000000E9020008915E0008FC
:10004000BF5F0008BF5F0008BF5F0008F77D0008C2
:10005000BF5F0008BF5F0008B3720008CB720008E2
:10006000E3720008FB72000813730008BF5F00080A
:10007000BF5F0008BF5F0008BF5F0008BF5F0008E8
:10008000BF5F0008BF5F0008BF5F0008BF5F0008D8
:10009000BF5F0008BF5F0008BF5F00082B73000848
:1000A000BF5F0008BF5F0008BF5F0008BF5F0008B8
:1000B000BF5F0008BF5F0008BF5F0008BF5F0008A8
:1000C000BF5F0008BF5F0008BF5F0008BF5F000898
:1000D000BF5F00085F6B0008716B0008896B000848
:1000E0007D730008197E0008BF5F0008BF5F00082D
:1000F000BF5F0008BF5F0008BF5F0008BF5F000868
:10010000BF5F0008D3360108BF5F0008BF5F00086B
:10011000A16B0008B96B0008BF5F0008BF5F000853
:10012000BF5F0008BF5F0008BF5F0008F33601082B
:10013000BF5F0008BF5F0008BF5F0008BF5F000827
:10014000BF5F0008BF5F0008BF5F0008BF5F000817
:10015000BF5F0008BF5F0008BF5F0008CD6B0008ED
:10016000BF5F0008BF5F0008BF5F0008BF5F0008F7
:10017000BF5F0008BF5F0008BF5F0008BF5F0008E7
:10018000BF5F0008BF5F000800F002F800F07AF8D7
:100190000AA090E8000C82448344AAF10107DA45E2
:1001A00001D100F06FF8AFF2090EBAE80F0013F0BA
:1001B000010F18BFFB1A43F0010318472C7101000F
:1001C0004C7101000A444FF0000C10F8013B13F091
:1001D000070408BF10F8014B1D1108BF10F8015BA0
:1001E000641E05D010F8016B641E01F8016BF9D193
:1001F00013F0080F1EBF10F8014BAD1C0C1B09D1EA
:100200006D1E58BF01F801CBFAD505E014F8016B5B
:1002100001F8016B6D1EF9D59142D6D370470000ED
:100220000023002400250026103A28BF78C1FBD8FF
:10023000520728BF30C148BF0B607047642913F0D4
:10024000AB87752913F0A887782913F0E187632914
:1002500014F04384732914F04884002070471FB5BC
:1002600015F026F99DE8030014F080FB14F064FFFC
:1002700004000020002114F0C7FF401C60601FBD77
:1002800010B510BD14F033FF1146FFF7E8FF01F081
:1002900027FF14F055FF03B4FFF7F2FF03BC14F07F
:1002A00085FF0000234B19680868B0E8F04F80F321
:1002B00009884FF0000080F31188704700000000AB
:1002C00003480068006880F3088862B600DF00BF5A
:1002D00008ED00E0DFF80C00016841F470010160F6
:1002E000704700BF88ED00E0EFF30980114B1A68FA
:1002F0001EF0100F08BF20ED108A20E9F04F1060AB
:1003000008B54FF0500080F3118804F022FD4FF043
:10031000000080F31188BDE8084019680868B0E85B
:10032000F04F1EF0100F08BFB0EC108A80F3098860
:10033000704700BFE4020020EFF311804FF050013E
:1003400081F31188704780F311887047EFF30580BF
:10035000704700008CB0FE4E96F8310000287DD129
:1003600096F8340006F1400101F10C05C8B9F948CE
:10037000C2790A70027A4A70427A8A70827ACA70A6
:10038000C27A2A70027B6A70427BAA70827BEA7012
:10039000837C0A1D1370C37C5370037D9370407D72
:1003A000D070CA78707E0244CA70EB4900EB4000FE
:1003B000A1F1D80301EB40001A1FE03906F020FC40
:1003C00010B9E6A002F031FB05F036FE0021E9A2EB
:1003D000084605F097FEF0A20221002005F092FEEB
:1003E000F2A1F648326E13F073FEF44A03210020A6
:1003F00005F088FE4FF47A77384604F092FC05F059
:100400001BFEEF4C0DF1140CA079637A227AE1798E
:100410008CE80F00A0780DF1040C63792279E17863
:100420008CE80F0060780090CB4A2378083AE5A169
:10043000E24813F04DFE0021E04A084605F062FE56
:10044000384604F06EFC05F0F7FD68780DF11C0CE1
:10045000F38FEA78A9788CE80F0000E01DE0E07ADD
:100460000DF10C0C2B78627B217B8CE80F00207C3B
:10047000A27A617C8DE80700E37BA27BE0A1CF48F4
:1004800013F026FE0021CD4A084605F03BFE384613
:1004900004F047FC012086F83300E84D4AF6AA2410
:1004A0002C6006F052FCFBE7E44F4AF6AA26002433
:1004B0003E60DFF89C82A64D08F18008D8F858000D
:1004C00090F87C0001284FF0030019D004F0DBF90C
:1004D000322004F026FC95F82700A8B1641C062CF5
:1004E00013DDA87E03280FD9BFF34F8FD4490868C6
:1004F000D44A00F4E06010430860BFF34F8FFEE77A
:1005000004F0C1F96420E4E700243E60D6E770B54A
:10051000064600248E4D0BE00A2004F002FC95F8FC
:100520002300012806D095F82400012802D0641C7D
:10053000B442F1D970BD8649486E08B100207047B9
:10054000C14A0420108001201080486681F82E00E6
:10055000704770B599480322BCA1E03014F083F8CD
:1005600000257B4C012610B984F82860A5669348C5
:100570000322B7A1E03014F076F810B984F82960AE
:10058000E5668E480322B3A1E03014F06CF810B990
:1005900084F82A60256789480322AFA1E03014F06F
:1005A00062F810B984F82B60656784480322ABA118
:1005B000E03014F058F818B9A9A1AA4806F08FFA4B
:1005C00094F8280008B1FFF7B6FF94F8290008B1A5
:1005D00002F049FA94F82A0008B102F037FA94F8C8
:1005E0002B0008B102F025FA94F8280020B1A06E83
:1005F00000EBD0704010A06794F8290020B1E06EA5
:1006000000EBD0704010E067514894F82A10803019
:1006100009B1216F016094F82B10002901D0616F9E
:10062000416070BD10B54A4CE07E00B30021E17618
:10063000206D0122012805D002280AD003280FD0FE
:1006400090B114E084F82820A16684F82A2021675C
:1006500010E084F82820A16684F82B20616709E067
:1006600084F82A20216702E084F82B20616794F83F
:10067000280008B1FFF75FFF94F8290008B102F0E5
:10068000F2F994F82B0008B102F0D3F994F828009D
:1006900020B1A06E00EBD0704010A06794F8290044
:1006A00020B1E06E00EBD0704010E067284894F86D
:1006B0002A10803009B1216F016094F82B100029B5
:1006C00001D0616F416010BD70B50646204C00201E
:1006D000803404F17C05A062A06A55F820103046F1
:1006E00013F040FF08B1012070BDA16A491CA1624E
:1006F0000229F1DB002070BDF0B45B4CDDE904564B
:1007000060712171227066722572E3712046F0BC1F
:10071000002106F027BF2DE9F84F544F012138463C
:1007200002F0B3FB0124002570B12E4602213846A9
:1007300002F0ABFB48B1A8461021384602F0A5FBF9
:1007400020B12F46202193E0C9E0CAE0CBE00000B1
:10075000000000200040024020010020544D5F4571
:10076000544845524E45545F496E6974204F4B20A2
:100770000A0000002D2D2D2D544953382D50524F75
:100780002D2D2D2D43726561727465627952264458
:100790002D5449530000000057656C636F6D2D2D7B
:1007A0003E3E5449532D4F530000000054696D657F
:1007B000206F7574204F533A25640000DC0600203A
:1007C000F036012041434D3A2573202D3E49500A11
:1007D0000D25642E25642E25642E25640A0D2530F2
:1007E00032582D253032582D253032580A0D2530FB
:1007F00032582D253032582D253032580000000057
:1008000047573A25642E25642E25642E25640A0D4B
:100810004E657425642E25642E25642E25640A0DEC
:1008200053563A25642E25642E25642E25640D0A20
:100830004E0D0A504F52543A2564000000300040DB
:100840000CED00E00400FA051808024052313000B7
:1008500052323000523131005232310052303000C9
:100860004F4B000000480040FC070020000C0240F5
:10087000DFF82C94484602F008FB70B30095402145
:10088000484602F002FB48B3AB468021CA464846C0
:1008900002F0FBFA68B3A9464FF48071504602F0AB
:1008A000F4FA40B3AA464FF48051FE4802F0EDFA44
:1008B00018B32846009909EB4B02890001EBC701E8
:1008C0000A4402EB081101EB4612F749BAF1000F96
:1008D0004A7614D00A220A6612E006E007E02646AD
:1008E00024E7A04628E727462CE70094C7E7A3465D
:1008F000CBE7A146D0E7A246D5E72046DAE70C666B
:10090000002801D081F83150BDE8F88F86B000246E
:100910000122E64F03255602234631463846CDE9EB
:10092000004505F01DFD7E830421102005F096FB97
:10093000DD490020F13105F044FCB101DC4E00231B
:1009400000941A463046019405F00AFD00230094F5
:100950001A4620213046019405F002FD0023009440
:100960001A4640213046019405F0FAFC0023009419
:100970001A4680213046019405F0F2FCC94E00224F
:100980000121304606F096FB00222021304606F079
:1009900091FB00224021304606F08CFB0022102102
:1009A000304606F087FB00220821304606F082FB25
:1009B00001221102304606F07DFB0127CDE90075CA
:1009C000F51400233A462946304605F0C9FC358324
:1009D000B54EDFF8DCB296F831000BF1180B38B3E6
:1009E000B4A002F022F8B7494AF6AA200860DFF85E
:1009F000B89209F1EA09A9F16A0A96F831000028CB
:100A0000FBD196F8270000286DD086F8274096F88D
:100A10003300002867D096F82E00002846D0401CEE
:100A2000C0B286F82E00142827D986F82E403DE063
:100A3000A5A001F0FAFFFFF76EFE16F8192FA6A188
:100A4000A74813F045FBF471B4713475F4740F20AA
:100A50000123CDE900701A4619461846FFF74CFEEF
:100A60004FF48060ABF800004000ABF80000B471B8
:100A7000F4717475B473193EB5E7B8B1DAF858007B
:100A8000974A90F87C30B06D012B00900CD095A166
:100A9000A04813F01DFB00219E4A084605F032FBDA
:100AA000307F02280FD01EE09BA1F1E7DAF8580052
:100AB0008B4A90F87C30B06D012B009001D0A24998
:100AC000E6E7A249E4E7347705F0B6FAB06D0090A6
:100AD0009FA19048F36D726D13F0FAFA00218D4AD0
:100AE000084605F00FFBF07F012879D196F82E001B
:100AF0000028FAD1874D7777A035B7772A7989F81A
:100B000000206B7989F8013095F806C089F802C099
:100B1000E97989F8031095F8088089F8048095F838
:100B2000098089F8058095F80A8089F80680687838
:100B3000082806D1CDE900C18DA105F5887013F014
:100B4000C7FA68780B2816D199F803100DF1040C38
:100B500099F8065099F8053099F804208CE82E0091
:100B600099F80210009199F8013099F8002085A1B8
:100B70008C4813F0ADFA8B48FFF7A6FD60B186F8FC
:100B8000247086F82870B46686F82B7074677477C2
:100B9000B47786F8307043E0707F58B1814A82A103
:100BA00002F11E0013F094FA7E4A03211E32002047
:100BB00005F0A8FAB07F98B3B07E0DF1080C401C88
:100BC000B076784890380178457A037AC2798CE813
:100BD0002E0001794079734B414ACDE9000100E0D4
:100BE0003EE072A1A3F1800013F072FA2E4BF28F57
:100BF0003C3303F11000C1788DE80E008378427811
:100C0000017872A006F0BDF8664A67A102F11E00E5
:100C100013F05EFA634A03211E32002005F072FAD7
:100C20004FF49670FFF773FCF47796F8230028B121
:100C3000FFF78FFC0A20FFF76AFC00E0747796F854
:100C4000240038B186F82440FFF7ECFC0A20FFF7B7
:100C50005EFC00E0B477F47786F82C4086F82D40EF
:100C600096F82000012802D196F82E0020B196F8BF
:100C70002D00012813D03FE17777B77796F822004F
:100C800060B199F8002099F80110CDE9001299F8A7
:100C9000023099F8032036A142489BE09EE027E10C
:100CA000000402400000024000000020001002404A
:100CB000000C0240496E6974205365747570202ED3
:100CC0002E2E0A0000300040496E6974206D616963
:100CD0006E202E2E2E0A000041434D253033640035
:100CE000180100204465766963653A25732E2E2528
:100CF000640D4E6F74436F6E6E6563742E2E2E2ED0
:100D00002E2E0D473A4F70656E2E4C756F743A2536
:100D100030346400DC0600204465766963653A255A
:100D2000732E2E25640D436F6E6E65637465642E9D
:100D30002E2E2E2E2E2E0D473A4F70656E2E4C7590
:100D40006F743A2530346400786D0108346D010801
:100D500047696144763A25640A0D536F6475746B74
:100D60003A25640A0D4C756F7464693A2564000075
:100D700025303258253032582530325825303258F7
:100D800000000000253032582530325825303258C6
:100D900025303258253032582530325825303258D7
:100DA000000000008C0800202573000028312C254D
:100DB000732C25732C312C2C25642D25642D256452
:100DC0002F25642D25642D25642900007365727616
:100DD0006572000013F07CF986F8224096F8210035
:100DE00040B1FE4AAFF24001A2F13C0013F070F9AD
:100DF00086F82140F9483C38FFF766FC60B186F878
:100E0000247086F82870B46686F82B70746774773F
:100E1000B47786F8307048E0707F68B1EF4A3C3AAA
:100E2000AFF27C0102F11E0013F052F9EB4A0321EC
:100E30001E3A002005F066F9B07FB0B3B07E0DF128
:100E4000080C401CB076E548CC380178457A037A26
:100E5000C2798CE82E000179E04B4079E04A3C3BB6
:100E6000CDE90001AFF2BC01A3F1800013F030F92D
:100E7000DB4BF28FDC3B03F11000C1788DE80E00F4
:100E8000837842780178AFF2BC0005F07AFFD34A4C
:100E90003C3AAFF2EC0102F11E0013F019F9CF4A0F
:100EA00003211E3A002005F02DF94FF49670FFF74C
:100EB0002EFB86F8204096F8230028B1FFF749FB67
:100EC0000A20FFF724FB00E0747796F8240038B17D
:100ED00086F82440FFF7A6FB0A20FFF718FB00E086
:100EE000B47786F8204086F82C4086F82D400BE039
:100EF00086F82D40FFF796FB96F82C00012803D1C9
:100F000086F82C40FFF725FBB06E00EBD070401048
:100F1000B067316E884210D3B24804210180078047
:100F2000746686F82840B466B467F47786F8204083
:100F30007477B4773220FFF7EAFAF06E00EBD070E6
:100F40004010F067316E88420ED3A6480780746661
:100F500086F82940F466F467F47786F820407477C1
:100F6000B4773220FFF7D3FA306F5546CAF8000045
:100F700004280EDB4FF48061ABF8001086F82A409D
:100F800034672C60706E20B97477B4773220FFF725
:100F9000BEFA706F686004280EDB4FF40060ABF897
:100FA000000086F82B406C607467706E20B974770F
:100FB000B4773220FFF7ABFA8B484AF6AA210160DA
:100FC0001BE58A4896B00DF1280C1EC88CE81E005F
:100FD0001EC80DF1180C864F8CE81E000FC80DF1CD
:100FE000380C01248CE80F0042F2A2200025CDE944
:100FF0001440DFF8F4B1129513957C704AF6AA2AD2
:10100000CBF800A07B4E07F1400907F14C0897F898
:1010100031000128FBD197F83200012875D13878CA
:101020000028FBD105F0B5F887F832507878002811
:1010300055D097F82600012841D187F8265004F0B2
:10104000FBFF97F82500312808D0322810D033282C
:1010500018D0342821D0352829D030E0B87970BB99
:10106000F87A60BB387C50BB387D40BBBC7012E066
:10107000B87820BBF87A10BB387C00BB387DF0B95B
:10108000BC7108E0B878D0B9B879C0B9387CB0B9CB
:10109000387DA0B9FC727D7011E0B87878B9B87964
:1010A00068B9F87A58B9387D48B93C74F3E7B8782C
:1010B00028B9B87918B9F87A08B9387CB0B14EA116
:1010C000524813F005F852A1504813F017FB55A1F0
:1010D0004E4813F013FB58A14C4813F00FFBB8789F
:1010E00040B397F82600012802D013E03C75D2E700
:1010F00087F8265004F0A0FF97F82500312805D086
:10110000322805D0332855D004E080E2FC7000E09E
:101110003C71BD704CA13D4812F0DAFF4EA13B4836
:1011200013F0ECFA50A1394813F0E8FA52A137480D
:1011300013F0E4FAF87880B151A1344812F0C8FFF6
:1011400053A1324813F0DAFA56A1304813F0D6FA18
:1011500059A12E4813F0D2FA3C70387980B159A1C8
:101160002A4812F0B5FF4AA1284813F0C7FA4DA14A
:10117000264813F0C3FA50A1244813F0BFFA3C707C
:10118000787980B153A1214812F0A2FF54A11F48E1
:1011900013F0B4FA56A11D4813F0B0FA46A11B484B
:1011A00013F0ACFA3C70B879A0B197F8260001288A
:1011B00002D0ABE07C71ACE787F8265004F03CFF2E
:1011C00097F82500312806D0322805D0332804D0DE
:1011D000342895E0AAE095E096E0DEE0C80800201B
:1011E000180100201A08024000300040C4540108D1
:1011F00000000020004002404D61696E205365747C
:10120000757020544953380A0D000000DC06002098
:10121000312E436172642E2E2E2E342E53686F773A
:101220000D000000322E54435049502E2E2E352EE4
:10123000547970650D000000332E4F75745075742D
:101240002E2E362E4F4B0000536574526561644359
:101250006172640A0D000000312E57656967616E86
:101260006420310A0D000000322E57656967616EF7
:101270006420320A0D000000332E52533233320004
:1012800053657457656967616E64310A0D0000002B
:10129000312E57656967616E642032366269740A5F
:1012A0000D000000322E57656967616E642033348B
:1012B0006269740A0D000000316F72322D3E234FB7
:1012C0006B00000053657457656967616E64320A8C
:1012D0000D00000053657452533233320A0D000082
:1012E000312E4261756420393630300A0D0000001D
:1012F000322E42617564203131353230300A0D00B2
:101300004DD003E0FC7100E03C72BD71F8A1FA48D9
:1013100012F0DEFEF9A1F84813F0F0F9FBA1F6484F
:1013200013F0ECF9FCA1F44813F0E8F9F87948B1AE
:10133000FDA1F14812F0CCFEAFF28001EE4813F0AF
:10134000DDF93C70387A48B1FBA1EB4812F0C0FEE1
:10135000AFF29801E84813F0D1F93C70787A48B1BF
:10136000F9A1E54812F0B4FEAFF2B001E24813F083
:10137000C5F93C70B87A48B1F6A1DF4812F0A8FE72
:10138000AFF2C801DC4813F0B9F93C70F87A58B3F1
:1013900097F82600012804D016E07C72B5E7BC72ED
:1013A000B3E787F8265004F047FE97F82500312868
:1013B00006D0322806D033285DD034285DD003E033
:1013C0003C7300E07C73FD72E5A1CB4812F080FE17
:1013D000E7A1C94813F092F9EAA1C74813F08EF9C2
:1013E000ECA1C54813F08AF9387B88B1EEA1C24858
:1013F00012F06EFEF0A1C04813F080F9F0A1BE48D3
:1014000013F07CF9AFF24C11BB4813F077F93C7044
:10141000787B48B1ECA1B84812F05AFEAFF26411E3
:10142000B54813F06BF93C70B87B88B1EBA1B248BA
:1014300012F04EFEE0A1B04813F060F9E0A1AE4812
:1014400013F05CF9AFF28C11AB4813F057F93C7014
:10145000F87B48B1E4A1A84812F03AFEAFF2A4111B
:10146000A54813F04BF93C70387C48B397F8260038
:10147000012804D014E0BC73A5E7FC73A3E787F848
:10148000265004F0D9FD97F82500312804D03228E1
:1014900004D0332851D003E07C7400E0BC743D7468
:1014A000D5A1954812F014FED7A1934813F026F960
:1014B000D9A1914813F022F9DBA18F4813F01EF94E
:1014C000787C68B3F17989F80010317A484689F858
:1014D0000110717A89F80210B17A89F80310F27A52
:1014E00088F80020327B88F80120727B88F802207F
:1014F000B27B88F8032098F8023098F801C098F879
:101500000010CDE9021CCDE90432C2788178CDE922
:101510000012437899F80020C8A1774812F0D8FD4E
:10152000B87C08B3308AF88772781292B378139334
:10153000012A04D0022A0DD010E0FC74AFE7012B81
:1015400002D0022B03D009E082B2C7A131E082B2FF
:10155000CCA12EE0022B27D0012B28D080B2009006
:10156000D0A1654812F0B4FDF87CB0B1B27D3A6606
:10157000B17CD3480170F17C4170317D8170717D07
:10158000C170837890F801C0CDF800C0CDE9013179
:101590000378CCA1584812F09BFD387D70B397F8C2
:1015A0002600012809D019E082B2D1A101E082B25F
:1015B000D6A1514812F08CFDD6E787F8265004F0EA
:1015C0003BFD97F82500312804D0322804D0332879
:1015D00022D003E07C7500E0BC753D75D3A1464880
:1015E00012F076FDD5A1444813F088F8D6A1424800
:1015F00013F084F8D7A1404813F080F800213E4A48
:10160000084604F07FFD40A13B4812F061FD97F8C9
:101610002600012802D03BE3FC75DEE7387801287C
:1016200054D187F8265004F007FDF878012804D13A
:101630000021CBA2084604F065FD3879012804D1C9
:101640000021CAA2084604F05DFD7879012804D182
:101650000021C9A2084604F055FDF879012804D1FB
:101660000021C8A2084604F04DFD387A012804D1B3
:101670000021C7A2084604F045FD787A012804D16C
:101680000021C6A2084604F03DFDB87A012804D125
:101690000021C4A2084604F035FD787B012804D15E
:1016A0000021C3A2084604F02DFD1349203101F1A9
:1016B000200013F023F8104813A1203012F008FD89
:1016C0000D4A01214032002004F01CFD97F825004E
:1016D00023280BD1B878012809D0B879012806D081
:1016E000F87A012803D0387C012869E1C8E26BE16F
:1016F000312E49500A0D0000DC060020322E4950E0
:101700007365727665720A0D00000000332E506F0B
:1017100072740A0D00000000342E44656661756C19
:101720004765747761790000536574495064657644
:101730006963650A0D000000536574495053657272
:101740007665720A0D000000536574506F72740A5A
:101750000D0000005365744765747761790A0D00C8
:10176000312E52533233322D3438350A0D000000F9
:10177000322E54696D656F75742072656C61790ADB
:101780000D000000332E5443505365727665720A83
:101790000D000000342E54696D656F757470726FA2
:1017A0006365737300000000536574525332333223
:1017B0002D3438350A0D0000312E5965730A0D009D
:1017C000322E4E6F0A0D000053657454696D656FBB
:1017D00075742D52656C61790A0D000054435053A5
:1017E00065727665720A0D0054696D652D50726FD1
:1017F000636573730A0D000053686F772073656C1F
:101800006563740A0D000000312E49502C53657237
:101810007665720A0D000000322E436172642D500D
:101820006F72740A0D000000332E52656C61792DC1
:1018300044656661756C47570000000049502044BC
:1018400065766963650A0D25642E25642E25642E50
:1018500025640A0D5365727665720A0D25642E257E
:10186000642E25642E2564005265616443617264B0
:101870002032366269740A0D5C6E0D506F72740A04
:101880000D2564005265616432366269742D33340B
:101890006269740A0D5C6E0D506F72740A0D2564D6
:1018A000000000004E4F5457696567616E642564FF
:1018B00025640A0D506F72740A0D25640000000043
:1018C0004400002054696D656F757452656C6179D0
:1018D0000A0D25640A0D44656661756C74204777AE
:1018E0000A0D25642E25642E25642E256400000033
:1018F00052656164436172642033346269740A0D15
:101900005C6E0D506F72740A0D256400526561643F
:1019100033346269742D32366269740A0D5C6E0D5F
:10192000506F72740A0D25640000000044657669EA
:1019300063652D547970650A0D000000312E5461E5
:1019400079717561790A0D00322E5377696E670AD5
:101950000D000000332E2E2E2E2E2E2E0000000005
:1019600057696567616E64310000000057696567FB
:10197000616E6432000000004261756472617465DA
:10198000000000004950646576696365000000004E
:10199000495053657276657200000000506F727492
:1019A0000000000044656661756C742047570000B4
:1019B00054696D656F757452656C61790000000043
:1019C00002D0387D012805D17C70BD70BD71FD72DB
:1019D0003D743D75F878012811D1FE4801F025F8D5
:1019E00012AAFDA1FB4812F0DBFC12987070AFF256
:1019F000E821F84812F06CFBBC70FD707D703879FE
:101A0000012811D1F34801F010F813AAF2A1F1480E
:101A100012F0C6FC1398B070AFF21431ED4812F01A
:101A200057FBBC703D717D707879012805D1E9487C
:101A300000F0FBFFBC707D717D70F87901282ED11C
:101A4000E44800F0F2FF0DA90CA8CDE900010BABB2
:101A50000AAAE2A1DF4812F0A3FC0A98F0710B98E1
:101A600030720C9870720D98B07299F8032099F842
:101A70000210CDE90012D74899F8013099F80020FA
:101A8000DAA1203012F024FBD248203000F0CDFF44
:101A9000D5A1D04812F01CFBBC71FD717D70387A65
:101AA00001282ED1CB4800F0C0FF11A910A8CDE924
:101AB00000010FAB0EAAC9A1C64812F071FC0E9826
:101AC000F0720F983073109870731198B07398F883
:101AD000032098F80210CDE90012BE4898F80130B2
:101AE00098F80020C1A1203012F0F2FAB948203055
:101AF00000F09BFFBCA1B74812F0EAFABC713D723E
:101B00007D70B87A01282AD1B24800F08EFF09A86A
:101B100008A9CDE9001007AB06AAB0A1AD4812F0A4
:101B20003FFC0698B0740798F074089830750998CF
:101B30007075DDE90801CDE90001A648DDE906235D
:101B4000AAA1203012F0C4FAA248203000F06DFFA4
:101B5000A5A1A04812F0BCFABC71BD727D70787A64
:101B600001281AD19B4800F060FF15AAA2A199484C
:101B700012F016FC159A3282AFF6106195482030AB
:101B800012F0A6FA9348203000F04FFF96A191483A
:101B900012F09EFABC717D727D70787B01281AD19B
:101BA0008C4800F042FF14AA8BA18A4812F0F8FB7F
:101BB000149AB275AFF64C618648203012F088FA5C
:101BC0008448203000F031FF87A1824812F080FA6B
:101BD000FC727D737D70387B012802D1FC723D73ED
:101BE0007D70787B012802D1FC727D737D70B87B9B
:101BF000012802D1FC72BD737D70F87B01281AD1D7
:101C0000744800F012FF14AA73A1724812F0C8FBC6
:101C1000149AF275AFF6AC616E48203012F058FAA3
:101C20006C48203000F001FF6FA16A4812F050FAB2
:101C3000FC72FD737D70787C012802D13C747D7448
:101C40007D70B87C012802D13C74BD747D70F87C35
:101C5000012802D13C74FD747D70787D012802D189
:101C60003C757D757D70B87D012802D13C75BD75D0
:101C70007D70F87D012802D13C75FD757D703D7049
:101C800097F82500362803D17878012800D13470E0
:101C9000CBF800A0FFF7BBB930B500231C468A0E75
:101CA00020D11A281ED1084601224008C50700D0BD
:101CB000641C521C0C2AF8D944F300040122641C51
:101CC0004008C50700D05B1C521C0C2AF8D903F051
:101CD0000100B0EB516F05D101F00100A04201D12C
:101CE000012030BD002030BD2DE9F04100284BD04F
:101CF00003F079FF3749424E683951F82020521CD1
:101D000041F8202096F8380006F1800710B1786A73
:101D1000401C78623B4C2169606996F83800FFF7F7
:101D2000BBFF00254FF0010888B3216960694008B6
:101D30004FEA3101216160612069616920F07F40D3
:101D4000206165612069616920F07F4020616561E3
:101D50002069616983B2206961694FEA10422AA152
:101D60002C4812F0B5F92B4800F05FFE00212161EC
:101D7000616186F8385086F836807D6206F8208FDB
:101D800086F80180BDE8F081FEF7D6FAFEE7FFE7AE
:101D9000786A0528F6D300217D622161616186F8A9
:101DA000385086F83680EDE72DE9F041002870D0F4
:101DB00003F019FF0749124E683951F82020521CD0
:101DC00041F8202096F8370006F1800728B3386ADA
:101DD000401C21E01C0700202564230025642E25DB
:101DE000642E25642E2564230000000025782E250E
:101DF000782E25782E2578002534642300000000F5
:101E00000000002000010020253033752530357595
:101E100000000000C80800203862FE4CA168E0689D
:101E200096F83700FFF738FF00254FF0010870B330
:101E3000A168E06840084FEA3101A160E060A06855
:101E4000E16820F07F40A060E560A068E16820F0D4
:101E50007F40A060E560A068E16883B2A068E168A7
:101E60004FEA1042AFF26001EB4812F031F9EA4854
:101E700000F0DBFD00213D62A160E16086F8375093
:101E800086F8358006F8208F86F801807AE703E02F
:101E9000FFE7FEF751FAFEE7386A0528F6D300217E
:101EA0003D62A160E16086F8375086F8358069E7C9
:101EB000F0B500252E46222827D1104619460124C8
:101EC00049084FEA3000C70700D0761C641C102C6C
:101ED000F6D946F3000701247F1C49084FEA300079
:101EE000C60700D06D1C641C102CF6D905F001004B
:101EF000002180EA530081EA0103184305D102F072
:101F00000100474049400F4301D00020F0BD0120AF
:101F1000F0BD2DE9F041E0B303F065FEBF4AC04DCE
:101F200052F82010491C42F8201095F8380005F1AD
:101F3000800610B1F069401CF061B64C22696369FB
:101F400095F83800FFF7B4FF0021012248B3236958
:101F5000606940084FEA3303236160612069636967
:101F60002061616120696369A4F116034FEA1027BB
:101F700018705F704FEA10479F704FEA1060D8707A
:101F80000B46F1612361636185F8381085F83620CE
:101F900000E003E005F8202FAA70F3E6FEF7CCF985
:101FA000FEE7F0690528F8D30023F161236163613E
:101FB00085F8381085F83620E4E62DE9F041E0B3E5
:101FC00003F011FE954A964D52F82010491C42F834
:101FD000201095F8370005F1800610B1B069401C5B
:101FE000B0618C4CA268E36895F83700FFF760FF9A
:101FF0000021012248B3A368E06840084FEA330398
:10200000A360E060A068E368A060E160A068E368A6
:10201000A4F116034FEA102718705F704FEA1047BB
:102020009F704FEA1060D8700B46B161A360E36007
:1020300085F8371085F8352000E003E005F8202FFB
:10204000AA709FE6FEF778F9FEE7B0690528F8D395
:102050000023B161A360E36085F8371085F835206F
:1020600090E610B540B103F0BEFD6C4951F8202058
:10207000521C41F8202010BDFEF75EF9FEE710B5B6
:1020800058B303F0B0FD6549654C51F82020521C4F
:1020900041F82020012004F8270F0021E0725E485B
:1020A000CC3805F0CCFB6078273C10B1A06E401C0A
:1020B000A06694F8290010B1E06E401CE06694F828
:1020C0002A0010B1206F401C206794F82B000028D4
:1020D00002D0606F401C606710BDFEF72DF9FEE76F
:1020E0002DE9FF41AFF26900012300901A464FF439
:1020F000FA714C4803F042FD474E0C367060AFF267
:102100009D000090022301229621464803F036FDEF
:10211000B060AFF259100090032301220A21414818
:1021200003F02CFDF060AFF2152000900423012293
:102130000A213C4803F022FD3061AFF29330009059
:10214000052301221E21374803F018FD7061AFF20C
:1021500067400090062301221E21324803F00EFD45
:10216000B0617068002540B102F01DFF0246009585
:1021700000231946706803F087FCB06840B102F094
:1021800012FF0246009500231946B06803F07CFC5C
:102190004FF4407001F01AF900F059FD05F062FEAD
:1021A000214C607802280AD1F06840B102F0FBFEB1
:1021B0000246009500231946F06803F065FCA078FC
:1021C00002280AD1306940B102F0EDFE02460095C6
:1021D00000231946306903F057FC607801280AD1C2
:1021E000706940B102F0DFFE0246009500231946F7
:1021F000706903F049FCA07801280AD1B06940B1A8
:1022000002F0D1FE0246009500231946B06903F0A2
:102210003BFC0BE000010020C8080020B4060020B1
:1022200000000020BC54010800400240E570257108
:102230006571A5710326FE4FCDE9005600230122EA
:102240000421384604F08CF8CDE900560122002321
:102250001146384604F084F8F64FCDE900560122C5
:1022600000239102384604F07BF8CDE900560122A4
:102270000023D102384604F073F8032002F0D2FAAA
:102280000126002300961A4631463846019604F08E
:1022900067F8002300961A4602213846019604F09A
:1022A0005FF8002300961A4610213846019604F084
:1022B00057F8E14F002300961A4620213846019630
:1022C00004F04EF8002300961A4640213846019645
:1022D00004F046F8002300961A46802138460196FD
:1022E00004F03EF8002300961A4631023846019663
:1022F00004F036F8002300961A463103CF480196C1
:1023000004F02EF84FF4E1320021CD4804F0AEFA8B
:102310004FF416573A460221CA4804F0A7FA3A4643
:102320000021C94804F0A2FA002005F0B6FA022004
:1023300005F0E3FBFEF7EFF92178C44801292ED020
:1023400080F8346000950195029500238022C0A199
:10235000C548039502F058FB0095019502950023AE
:102360008022C2A1C548039502F04EFB009501955D
:10237000029500238022C2A1C648039502F044FBC7
:1023800000950195029500238022C3A1C7480395BB
:1023900002F03AFB02F0DBFD002004B0F2E480F82A
:1023A0003450A17D0166CDE710B50023A74A52281D
:1023B00001D182F83930BE4C92F8391002296054AC
:1023C00005D030290CD2491C82F8391010BD0120EB
:1023D00082F82C00537F012BF5D182F82300F2E71D
:1023E00082F8393010BD10B5984ABD2802D10021BD
:1023F00082F83A10AE4B92F83A10403B5854D878D5
:1024000010B90123012905D0302902D2491C82F8D4
:102410003A1010BD507F947F204392F82E40204305
:10242000F4D1D377F2E710B50C46A14AA1A15032FE
:10243000204611F04DFE204612F0F6F880B210BD95
:102440002DE9F041814C0746803408462161E1685E
:1024500012F078F87D4D606101264FF00008AE76ED
:102460004046C4F80880062838D2DFE800F003139D
:1024700013131A298E4890A18038626911F028FE42
:102480008B48803812F050F828778948803800F05F
:10249000CCFA23E0864888A18038626911F018FEE2
:1024A000F3E7834884A18038626911F011FE804807
:1024B000803800F0BAFA7E48803800F000FB0DE06A
:1024C0007B487CA18038626911F002FE7848803830
:1024D00000F0ABFA7648803800F0D1FA0020E168CD
:1024E00012F030F86061A068401CA0600628BADBDA
:1024F000287F012802D0022806D007E085F82D6049
:1025000085F82460EE7601E085F82F8087F86C600E
:10251000A76537E410B504460246654867A18038D0
:1025200011F0D6FD6248803800F07FFA47488030CD
:10253000846510BD10B5044659B1206F224664A1D0
:1025400003785B48803811F0C3FD5948803800F0AB
:102550006CFA3E48803084658038818F491C8187C1
:1025600010BD10B504460246514863A1803811F0F1
:10257000AFFD4F48803800F058FA34488030846509
:1025800010BD10B504460246494864A1803811F0D8
:102590009FFD4748803800F048FA2C488030846519
:1025A00010BD1FB5069CCDE900230B4602460CB1B9
:1025B00061A100E06BA13E48803811F089FD3C48E4
:1025C000803800F032FA704CA079637A227AE1798F
:1025D0008DE80F003648637922796CA1803811F0BC
:1025E00077FDA079637A227AE1798DE80F0030488F
:1025F0006379227965A1803811F06AFD2C4894F83E
:102600004C206BA1803811F063FD2948803800F020
:102610000CFA274894F84D2069A1803811F058FD34
:1026200004B02348BDE81040803800F0FEB9000037
:1026300000080240000C024000040240000002407A
:10264000001401400048004000100140000000203C
:10265000436F6E666967757265207573696E672072
:1026600044544D4600000000C30F00084D61696EE0
:102670002072756E202E2E2E000000000D0900081D
:102680004C656420426C696E6B205461736B205200
:1026900065640000A904000845746865726E65747D
:1026A0002052756E6E696E67202E2E00550300084D
:1026B000BC0700202573000025732C00436F6E6E4D
:1026C000656374656420746F2025730A0000000040
:1026D000436F6E6E656374696F6E2025732073752A
:1026E000636365737366756C6C792E416374697688
:1026F0006525640A00000000416E206572726F72E9
:10270000206F636375726564206F6E20636F6E6EF9
:10271000656374696F6E2025730A0000436F6E6EE7
:10272000656374696F6E202573206861732073740C
:1027300061727465640A000049503A2025642E25B0
:10274000642E25642E25642061737369676E656449
:102750002062792044484350207365727665720A7E
:102760000000000049503A2025642E25642E25647F
:102770002E25643B20535441544943204950207531
:102780007365640A00000000F03601204D41433AB1
:1027900020253032582D253032582D253032582DF5
:1027A000253032582D253032582D253032580A0028
:1027B0004C696E6B203130304D3A2025640A0000A0
:1027C00046756C6C206475706C65783A2025640AD7
:1027D0000000000070477047C54810B5C549407EED
:1027E000A1F1D80300EB400001EB40001A1FE039D3
:1027F00004F006FA002804D1BDE81040BEA000F0A5
:1028000014B910BD012004F0ACBA10B5C0A1CB487A
:1028100011F05EFCBDE81040C84800F006B9F0B504
:102820000125B34C87B001281DD0214604F58073E3
:1028300091F83520496E082876D0002610287CD0E3
:102840002246202892F8362078D0402877D0B0F55C
:10285000807F75D194F82E00002803D094F83000C2
:1028600000286ED0CBE0B6480168090401684FEA41
:10287000816126D4002901684FEA416110DB0068BC
:1028800000294FEA006005DB002801DB44203EE020
:1028900038203CE0002801DB342038E0232036E0FB
:1028A000006800294FEA006005DB002801DB3220C8
:1028B0002DE030202BE0002801DB362027E04220ED
:1028C00025E0002901684FEA416110DB006800291A
:1028D0004FEA006005DB002801DB312017E03920DA
:1028E00015E0002801DB352011E041200FE00068F1
:1028F00000294FEA006005DB002801DB332006E0F9
:102900002E2004E0002801DB372000E0432084F87B
:10291000250084F8265007B0C2B2BDE8F0408748D1
:1029200088A1403811F0D4BB002A3BD0002939D10E
:102930009968D8684918404112E003E015E01DE0AD
:1029400030E031E0002A2DD000292BD19968D868D9
:10295000491840419960D8609968D86841F00101F0
:102960009960D86014F8370F1AE0002A1AD00029AD
:1029700018D119695869491840410DE0002A11D051
:1029800000290FD118695969001849411861596126
:102990001969586941F001011961586114F8380F3B
:1029A000401C207007B0F0BD64480DF1080CC03029
:1029B0000178477A037AC2798CE88E0001794079F0
:1029C000614B4C4ACDE90001083A60A1A3F19E0099
:1029D00011F07EFB052002F0A4F9454BE28F3C3359
:1029E00003F11000C1788DE80E00837842780178F9
:1029F0005E4804F0C6F984F82F5000F027F8206EE6
:102A00004000A066E06684F8306084F82E60E677C7
:102A100084F82060C6E736490120087681024848DC
:102A200008300180C114018070470146504804F00D
:102A300056B8434910B50A314FF4006008802D495B
:102A40004B483D3904F04BF8002010BD3C4910B50F
:102A50000A314FF48060088026494548443904F023
:102A60003EF8002010BD2248416E09B10020704799
:102A7000404A0121118002214166012070471FB5A3
:102A80001C4C4C3C231F1A1F111F8DE81E000B1FEE
:102A90000C3A39A111F084FCA4F1540090F85410C0
:102AA00090F85020CDE9002190F84C3090F8482063
:102AB00090F8441090F84000FDF71EFE1FBD0EB5C3
:102AC0000C4B643B1A1F111F8DE80E000B1F0C3AB4
:102AD0002EA111F065FC064805498030C26B0A65DD
:102AE000826B8A65026BCA65406B48650EBD00004B
:102AF000000000202001002052455F455448455207
:102B00004E45545F496E6974204F4B200A00000007
:102B10004448435020686173207374617274656423
:102B200020776974682061737369676E696E6720C6
:102B3000495020616464726573730A003C07002089
:102B4000100C024025630000AA08002028322C2522
:102B5000732C25732C312C2C25642D25642D256494
:102B60002F25642D25642D2564290000CC0D000837
:102B7000004800401808024025642D25642D256476
:102B80002F25642D25642D256400000025642D2546
:102B9000642D25642D25642D256400007047FEE713
:102BA000FEE7FEE7FEE77047704700000CB5002225
:102BB000544900920192086840F4803008604FF454
:102BC000A043086800F4003001900098401C009079
:102BD000019810B900989842F3D10868800334D561
:102BE0000120019047484030026842F08052026064
:102BF0004548026842F44042026042480830026898
:102C00000260026842F400420260026842F4A0528C
:102C10000260031F3D4A1A600A6842F080720A602F
:102C20000A689201FCD53A4940F205720A600168CF
:102C300021F003010160016841F0020101600168B7
:102C4000C1F381010229FAD10CBD01920CBD3148BA
:102C500010B5016841F4700101602A48016841F033
:102C600001010160274A00210832116002682A4BE5
:102C70001A400260031D294A1A60026822F4802269
:102C8000026020480C300160FFF790FF21494FF0AF
:102C900000608039086010BD70B51A4D083528688D
:102CA0001F4B204910F00C0004D05E10042803D004
:102CB000082803D00B601BE00E6019E0114A121DBA
:102CC0001068C0F38054106800F03F0014B1B6FBE8
:102CD000F0F001E0B3FBF0F013681268C3F388135F
:102CE0005843C2F30142521C5200B0FBF2F008609C
:102CF00028680C4AC0F30310121D105C0A68C24019
:102D00000A6070BD0038024000700040085440075F
:102D1000003C024088ED00E0FFFFF6FE103000248A
:102D20000024F400A0020020714910B5884206D1A9
:102D30000121084600F0B6FA002101204FE06D495C
:102D4000884206D10121022000F0ACFA00210220C5
:102D500045E06949884206D10121042000F0A2FA29
:102D6000002104203BE06549884206D1012108206A
:102D700000F098FA0021082031E06149884206D12C
:102D80000121102000F08EFA0021102027E05D497B
:102D9000884206D10121202000F084FA0021202061
:102DA0001DE05949884206D10121402000F07AFAFD
:102DB0000021402013E05549884206D1012180209E
:102DC00000F070FA0021802009E0514988420AD1C0
:102DD00084150121204600F065FA00212046BDE857
:102DE000104000F05FBA10BDF0B5002201274FF08F
:102DF000030C0B6807FA02F52B40AB422CD1066896
:102E000053000CFA03F4A64306600E79D0F800E0F4
:102E10009E4046EA0E0606600E79012E01D0022E73
:102E200012D18668A64386604E79D0F808E09E40AD
:102E300046EA0E0686604668AE43466045688E796F
:102E40009640B6B235434560C568A543C560CC79A8
:102E50009C40C3681C43C460521C102AC9D3F0BDF7
:102E60004FF6FF7101600021017141718171C171E3
:102E7000704708B541F480320092C261C161009987
:102E8000C161C169C069009008BD02460020126995
:102E90000A4200D001207047006980B270470246A4
:102EA000002052690A4200D001207047406980B278
:102EB000704701837047418370470AB101837047AF
:102EC000418370474161704742694A40426170479F
:102ED0004B07DB0E9A40C90810B500EB8100016A70
:102EE0000F249C40A1430162016A1143016210BD9D
:102EF000000002400004024000080240000C0240B2
:102F0000001002400014024000180240001C024061
:102F100000200240374900200860091D0860091D93
:102F20000860091D08603349334814310860704750
:102F300030B5304A8379016853B313688B4313600B
:102F4000111D0B680468A3430B60017911440B68E1
:102F5000046823430B60274B083319680468A143B6
:102F600019601C1D21680568A94321604179102959
:102F700005D011440A68006802430A6030BD196830
:102F8000026811431960216800680143216030BD67
:102F90000079104402688A43026030BD002101605C
:102FA00001710C22427181717047124910310A6817
:102FB00002430A60704701460E4A0020143212682C
:102FC0000A4200D0012070470A4914310860704756
:102FD000084A014600201268064B0A4014331B6859
:102FE0000B4202D0002A00D0012070470149143161
:102FF00008607047003C0140FFFF7F00EA4801681D
:1030000041F001010160E84A0021083211600268C4
:10301000E64B1A400260031DE54A1A60026822F47A
:1030200080220260E0480C3001607047DE490022D7
:10303000891C0A7008707047024600205109012956
:103040000CD002290CD0D8497431096802F01F0253
:10305000012393400B4200D001207047D249F4E78E
:10306000D1497031F1E718B500204FF4A044009029
:103070003120FFF7E1FF0099491C0091A14201D0E6
:103080000028F5D03120FFF7D7FF002800D001201D
:1030900018BDC54A116821F0F80141EAC00010606E
:1030A0007047C44908607047BF49002270310A70F8
:1030B0000A70012802D0042801D105200870704749
:1030C000BD490860704741EA82115A0810B5BB4BF0
:1030D000029C03EB02421143014341EA0460B249FE
:1030E000091D086010BDB34908667047800140EAB9
:1030F0000170AD49843108607047AE4988667047F9
:10310000AC49C8647047A84B08331A68084322F0DA
:10311000EC62104318607047A34B08331A680843E9
:1031200022F078421043186070479F4A08321168B5
:1031300021F003010143116070479B48083000688B
:1031400000F00C007047984A0832116821F0F00135
:10315000014311607047944A0832116821F4E0512C
:10316000014311607047904A0832116821F46041B0
:1031700041EAC0001060704770B58B4B0833196886
:103180008F4C11F00C0104D06610042903D00829DB
:1031900003D004601BE0066019E0834A121D116829
:1031A000C1F38055116801F03F0115B1B6FBF1F193
:1031B00001E0B4FBF1F114681268C4F388146143B0
:1031C000C2F30142521C5200B1FBF2F101601968D6
:1031D0000F2202EA11117B4A545C0168E140416010
:1031E0001C68072505EA9424145D21FA04F4846020
:1031F0001B6805EA5333D25CD140C16070BDC0F397
:103200000121032908D1684B083319686E4A21F45B
:10321000F81102400A431A60634970310A68C0F32A
:103220000B0002430A6070476349443908607047E5
:1032300061494039086070475E49C1F85C017047D8
:10324000594A30320029116801D0014300E081431E
:1032500011607047544A34320029116801D001438B
:1032600000E08143116070474F4A383200291168ED
:1032700001D0014300E08143116070474A4A403267
:103280000029116801D0014300E0814311607047BB
:10329000454A44320029116801D0014300E08143CE
:1032A00011607047404A10320029116801D0014373
:1032B00000E08143116070473B4A143200291168D5
:1032C00001D0014300E0814311607047364A183253
:1032D0000029116801D0014300E08143116070476B
:1032E000314A20320029116801D0014300E08143B6
:1032F000116070472C4A24320029116801D0014323
:1033000000E0814311607047274A5032002911685C
:1033100001D0014300E0814311607047224A5432DA
:103320000029116801D0014300E08143116070471A
:103330001D4A58320029116801D0014300E0814341
:1033400011607047184A60320029116801D00143AA
:1033500000E0814311607047134A6432002911680C
:1033600001D0014300E08143116070470E4A0D32E5
:103370000029117801D0014300E0814311707047AA
:1033800009487430016841F080710160704701465E
:10339000054A00200C3212680A4200D00120704712
:1033A00001490E310870704700380240FFFFF6FEF9
:1033B0001030002400004742800E47420000FFFF0B
:1033C0000024F400B4020020FFFCFF0F284908434A
:1033D00028490860704730B50F23C278017801256D
:1033E000FAB1244A126801F1E02102F4E062C2F568
:1033F000E062C2F30722C2F10404D3404278A24043
:1034000084781C401443220181F80024007800F0E5
:103410001F018D404009800000F1E020C0F80051FC
:1034200030BD01F01F0085404809800000F1E02018
:10343000C0F8805130BD104A114001430D48001FB3
:10344000016070470B4A121D0029116801D0014329
:1034500000E08143116070474FF0E02104280869C3
:1034600003D020F004000861704740F00400FAE740
:103470000000FA050CED00E080FFFF1F10B50121F0
:103480008C032046FFF736FF2046BDE810400021A0
:10349000FFF730BF13490860704710B58A0721F065
:1034A00003041149120F21440F23D1F80848934017
:1034B0009C43C1F80848D1F8083890400343C1F84C
:1034C000083810BD0949C1F8DC0070470849086098
:1034D00070470449002020310968C90500D5012042
:1034E00070470000003801400030014000002742D2
:1034F00000042742C74910B5884206D10121102097
:10350000FFF7F8FE0021102028E0C349884202D1CD
:1035100001214C0410E0C149884202D101218C04F0
:103520000AE0BF49884202D10121CC0404E0BD4930
:1035300088420AD101210C052046FFF7D1FE204622
:10354000BDE810400021FFF7CBBEB749884209D142
:1035500001212020FFF7CEFE00212020BDE81040F1
:10356000FFF7C8BE10BD7FB50446008A0D46C98866
:1035700020F4405001432182A08941F20C6188432C
:10358000A9882A8911436A8902431143A181A08A2B
:1035900020F44071A8890843A0826846FFF7ECFD3B
:1035A0009C48844202D0A048844201D1039800E0A4
:1035B0000298A189090400EBC00101EB0010296801
:1035C00001D5490000E08900B0FBF1F06422B0FBB6
:1035D000F2F109010B096FF018056B4300EB830052
:1035E000A3891D044FF0320306D503EBC000B0FBE6
:1035F000F2F000F0070005E003EB0010B0FBF2F082
:1036000000F00F00084320817FBD4FF41651016088
:1036100000218180C18001810C224281818170471B
:1036200010B5028A4C8822F470630A8822438C8881
:10363000C9880C4322431A43028210BD0021018035
:1036400041808180C18070470029818902D041F486
:10365000005101E021F4005181817047028B02F496
:103660007F420283028B0A430283704700298189CB
:1036700002D041F4004101E0C1F30E0181817047A5
:103680000029818A02D041F4006101E021F4006147
:1036900081827047C1F30801818070478088C0F340
:1036A00008007047028A22F00F020282028A0A434F
:1036B000028270470029818902D041F0020101E0B5
:1036C00021F0020181817047828922F400628281A7
:1036D00082890A4382817047028A22F02002028294
:1036E000028A0A43028270470029018A02D041F40B
:1036F000804101E021F4804101827047818941F0DD
:103700000101818170470029818A02D041F00801BE
:1037100001E021F0080181827047028BD2B202835E
:10372000028B42EA0121018370470029818A02D07D
:1037300041F0200101E021F0200181827047002941
:10374000818A02D041F0100101E021F01001818254
:103750007047828A22F004028282828A0A4382822D
:1037600070470029818A02D041F0020101E021F076
:10377000020181827047002A828A01D00A4300E058
:103780008A438282704710B5C1F3421301F01F04CF
:103790000121A140012B07D0022B07D01430002AB1
:1037A000026805D00A4304E00C30F8E71030F6E771
:1037B0008A43026010BD0246002012880A4200D0EF
:1037C00001207047C9430180704770B501F01F05A3
:1037D00001260024C1F3421306FA05F2012B0FD093
:1037E000022B0FD0838A4FEA11210088134206FA78
:1037F00001F600EA060001D000B10124204670BDA8
:103800008389F0E7038AEEE70A0A01219140C94360
:103810000180704700100140004400400048004013
:10382000004C004000500040001401402DE9F043DE
:10383000016821F0010101600021016041608160A7
:10384000C160016121214161B849B84A3D25103963
:10385000904202D18D60BDE8F083B44A4FF47466A3
:103860001832904201D18E60F5E7B04A4FF47417D8
:103870003032904201D18F60EDE7AC4A4FF0746C6A
:103880004832904202D1C1F808C0E4E7A74BA84AE9
:103890006033984201D1CA60DDE7A44CA54B78346F
:1038A000A04201D1CB60D6E7DFF88082A24C08F1BC
:1038B0009008404501D1CC60CDE7DFF870824FF031
:1038C0003D5908F1A808404502D1C1F80C90C2E763
:1038D0009A49DFF868820839404501D10D60BAE79E
:1038E000964D1835A84201D10E60B4E7934D30359E
:1038F000A84201D10F60AEE7904D4835A84202D1F1
:10390000C1F800C0A7E78D4D8C496035091FA8425A
:1039100001D10A609FE7894A7832904201D10B6059
:1039200099E7864A9032904201D10C6093E7834A2E
:10393000A83290428FD1C1F800908CE730B503686F
:103940007F4ACC6813400A682243D1E905452C43DD
:103950002243CC6922430C6A22434C6A22438C6A7C
:1039600022434C6B22438C6B22431A430260426910
:1039700022F00703D1E90B2422431A4342610A696A
:1039800042604A6882608968C16030BD0021016080
:1039900041608160C160016141618161C161016219
:1039A00041628162C16201634163816370470029A2
:1039B000016802D041F0010101E021F00101016044
:1039C00070470029016802D041F4004101E021F470
:1039D0000041016070470029016802D041F02001D8
:1039E00001E021F0200101607047416070474068AC
:1039F00080B27047002A026802D042F4002201E03F
:103A000022F400220260016170470029016802D09F
:103A100041F4802101E021F48021016070470AB166
:103A200001617047C16070470146002009680903C1
:103A300000D501207047014600200968C90700D061
:103A400001207047406900F03800704702463B4B48
:103A500000209A4202D2354A103A01E0374A103A21
:103A60008B0001D5526800E01268364B1A400A42BA
:103A700000D001207047314A904202D22B481038C2
:103A800001E02E4810382F4A8B0001EA020101D5CF
:103A9000C1607047816070470B0607D5436912B15A
:103AA00043F0800301E023F080034361802908D0C4
:103AB000002A026801F01E0101D00A4300E08A4397
:103AC0000260704730B51D4A0024904202D2174A66
:103AD000103A01E0194A103A1B4B194205D01E2337
:103AE00003EAD12503682B4002E0406900F080031F
:103AF000880001D5506800E01068124A1040084262
:103B000001D003B10124204630BD0C4A904202D2BC
:103B10000648103801E0094810380A4A8B0001EACB
:103B2000020101D5C160704781607047106002409A
:103B30003D000020400F002000003D2010640240A6
:103B40003F801CF07D0F7D0F3C0F3C0F10B5012115
:103B5000CC022046FFF7CEFB2046BDE810400021F6
:103B6000FFF7C8BB30B5644B1A6847F6FF618A435C
:103B7000017D8468C568214344682C43214304685F
:103B80000069214301431143196030BD00210175D3
:103B9000016041608160C160016170475749C1F8AF
:103BA000A00070475449091F086070475248001F21
:103BB000006800F0030070474F4A10B5121D0168FD
:103BC0001160131D1968D0E901242243D0E9034094
:103BD00004436FF30A0122430A431A6010BD002117
:103BE000016041608160C1600161704742480C30F2
:103BF0000068C0B27047404908B5103108440090D1
:103C0000006808BD3C4A10B5203201681160121DE1
:103C100041681160131D1968D0E902242243D0E9DC
:103C20000440044321F0F70122430A431A6010BD07
:103C30004FF0FF310160002141608160C16001618E
:103C4000416170472C482C30006870472A487C300E
:103C50000068704728497C31086070472648443026
:103C6000006870472649086070472549091D0860AB
:103C70007047234908310860704721490C310860BA
:103C800070471E49C1F8AC0170471C49C1F8B0012A
:103C90007047012181431948C0F8B4117047174992
:103CA000C1F8B80170471649143908607047124AC4
:103CB00038320029116801D0014300E081431160CE
:103CC000704701460C4A0020303212680A4200D088
:103CD0000120704708493431086070470146064AA0
:103CE0000020303212680A4200D001207047024999
:103CF0003431086070470000042C014000802542E8
:103D0000A085254218B50020FA4B0090CA20186003
:103D100053201860F7491839086820F0A00008609F
:103D20004FF400340868009A00F02000521C009202
:103D3000A24201D00028F5D00868800601D50120F4
:103D400000E00020FF21196018BD08B5E9490020F6
:103D5000183900900868400612D44FF0FF30086010
:103D60008B130868009A00F04000521C00929A429F
:103D700001D00028F5D00868400601D4002008BD15
:103D8000012008BD78B50024DA4ECA2000942546EB
:103D9000306053203060FFF7D8FFE0B3D5482438B7
:103DA0000460D44942F20110203908600B1D1868E4
:103DB00000F0070018608D131A1D1068009900F0BC
:103DC0000400491C0091A94201D00028F5D01068D8
:103DD000400729D518681C60C6494FF6FF70103996
:103DE0000860091FC4480860C2480C380460001D00
:103DF0000460001D0460BF4808300460BD481830EE
:103E00000460BC4820300460001D04601460B948A0
:103E10001C30046000E003E0FFF774FF20B10125CF
:103E2000FF203060284678BD0025F9E7B1481838F2
:103E3000016821F080010160704770B5AD4E044605
:103E40000025CA20306053203060FFF77EFFA8B104
:103E5000A8481C38016821F040010160016822680F
:103E600011430160A348A168143801600168A28869
:103E700041EA02410160FFF7D9FF0125FF203060D0
:103E8000284670BD002101607F214160FF218160D3
:103E90007047984908B1FF2002E0CA20086053200B
:103EA0000860704770B5934E05460024CA20306004
:103EB00053203060FFF749FF60B18E481C3801681D
:103EC00015B141F0100101E021F010010160FFF790
:103ED000ADFF0124FF203060204670BD854ACA2115
:103EE00011605321116083491C390028086802D0F1
:103EF00040F0200001E000F0DF000860FF201060CB
:103F000070472DE9F0410C4600267C4F01002078D7
:103F1000396832464FEA416104D000292FDA00F0B7
:103F200008FC2DE0002900DBE27000F0F6FB050440
:103F3000607800F0F2FB45EA0025A07800F0EDFB88
:103F40000543E07845EA00456A4CCA2020605320CA
:103F50002060FFF7FAFE68B16948054067480838F5
:103F60000560FFF763FF3868800602D4FFF7CAFEDA
:103F700000B10126FF2020603046BDE8F081E270EC
:103F8000A078217840EA01456078E178000240EAB3
:103F900001400543D8E70021C17001704170817074
:103FA0007047020010B557480C460168544801EAB2
:103FB0000001C1F305402070C1F30623637001F0D6
:103FC0007F03A3704FF0400303EA1141E1700AD16F
:103FD00000F0AFFB2070607800F0ABFB6070A07861
:103FE00000F0A7FBA07010BD4248001D00684349C7
:103FF000091F0968704770B50C46002601006078FB
:104000000FD000F096FBA07800F093FBA078E17849
:1040100040EA014560782178000240EA41300543DA
:1040200015E0C10603D520F010000A306070E0787A
:1040300000F073FB0504607800F06FFB45EA002593
:10404000A07800F06AFB0543207845EA4035294C0A
:10405000CA20206053202060FFF777FE70B12A4805
:1040600005402648001F0560FFF7E0FE2348006872
:10407000800602D4FFF746FE00B10126FF20206033
:10408000304670BD01210170817041700021C17006
:104090007047020010B51D480C4601681A4801EA35
:1040A00000014FEA1140E070C1F30423637001F096
:1040B0003F03A370C1F3423121700AD100F039FBF4
:1040C000E070607800F035FB6070A07800F031FBA4
:1040D000A07010BD70B514460D46084A0021002896
:1040E00010684FEA406013D000282ADA207800F0E8
:1040F00020FB27E024280040FF007F000828004024
:104100007F7F7F00002800403FFFFF000428004021
:10411000002800DBE170207800F0FFFA06046078E8
:1041200000F0FBFA46EA0026A07800F0F6FA064313
:10413000E07846EA0046207B00F0EFFA46EA0060AD
:1041400010E0E170207B00F0F4FAA0782178E278AA
:1041500040EA01406178090241EA02410843217BBB
:1041600040EA0160A168084361680843F849CA222F
:104170000A6053220A60B5F5807F04D00A1F1060E0
:10418000FF20086070BDF24A083AF8E70021C170CC
:10419000017041708170012281600273416070473B
:1041A00010B514460246B1F5807F2AD0E848001FBA
:1041B0000168C1F305402070C1F30623637001F06C
:1041C0007F03A370402303EA1143E370C1F3056347
:1041D000237301F0804301F08031C4E90113002A08
:1041E0000ED100F0A6FA2070607800F0A2FA60709C
:1041F000A07800F09EFAA070207B00F09AFA20735D
:1042000010BDD3480838D3E738B50022D04C00920F
:10421000CA22226053222260CD4A1C3A002911682A
:1042200002D00143116012E081431160C84A183A7C
:1042300095131168009B01EA10215B1C0093AB42AF
:1042400001D00029F5D0116811EA102000D001201A
:10425000FF21216038BD10B5BD4BCA241C6053241A
:104260001C601143B0F5807F05D0B948243001604F
:10427000FF20186010BDB6482030F8E7B0F5807F09
:1042800005D0B34824300068C0F30E007047B04832
:104290002030F8E7AE4ACA21116053211160AC49C1
:1042A0001C390B6823F007030B600B6803430B609A
:1042B000FF2010607047A649CA220A6053220A6094
:1042C000A34A103A1060FF2008607047A0481038D9
:1042D000006880B2704718B500219D4B0091CA213B
:1042E0001960532119609A491C390028086803D0C5
:1042F00040F48060086014E020F480600860944915
:1043000018398C130868009A00F00400521C0092BF
:10431000A24201D00028F5D00868400701D400204F
:1043200000E00120FF21196018BD894B10B5CA2299
:104330001A6053221A60864A1C3A146824F48024B6
:1043400014601468084304431460FF20186010BD13
:104350007F481C38006800F4802070477C4B10B503
:10436000CA221A6053221A60794A1C3A146824F44B
:10437000E00414601468084304431460FF201860CC
:1043800010BDF0B5724D06460024CA200F462860C5
:1043900053202860FFF7D9FC30B16D483E430C38FC
:1043A0000660FFF743FD0124FF2028602046F0BD92
:1043B00070B5674E05460024CA2030605320306037
:1043C000FFF7C3FC60B162481C38016815B141F0C9
:1043D000800101E021F080010160FFF727FD012449
:1043E000FF203060204670BD594ACA211160532118
:1043F000116057491C390028086802D040F40000B9
:1044000001E020F400000860FF2010607047504A6F
:10441000CA211160532111604D491C390B6823F4E6
:1044200000230B600B6803430B60FF201060704794
:10443000F0B5474D0023CA242C6053242C60444C13
:10444000183C2668F60308D54FF400362768FF03AA
:1044500003D5B34201D05B1CF8E72368DB0306D425
:1044600008433B49104318310860012000E0002058
:10447000FF212960F0BD364B10B51C3B1A6840F691
:104480000804A24342EA000209B142F40062304843
:10449000CA210160532101601A60FF21016010BD33
:1044A00070B50D462A4914460C310968294A114055
:1044B000274A103212684FF63F731A40C1F3054382
:1044C0002B70C1F306236B7001F07F03AB704023A8
:1044D00003EA1141E9700021E170C2F30421617027
:1044E00002F03F01A170C2F342312170002817D1C0
:1044F000287800F01EF92870687800F01AF96870C2
:10450000A87800F016F9A870607800F012F96070D1
:10451000A07800F00EF9A070207800F00AF9207061
:1045200070BD0B48143000687047094A1C320029DE
:10453000116803D041EA40001060704721EA400052
:10454000FAE7034A1C320029116805D0014304E050
:10455000242800407F7F7F008143116070477949A4
:104560000A6822F4C0520A600A6802430A6070476F
:1045700074490A6822F4E0620A600A6802430A6029
:10458000704770490A6822F4C0420A600A68024310
:104590000A6070476B490028086802D040F080002C
:1045A00001E020F080000860704766490028086834
:1045B00002D020F4004001E040F400400860704761
:1045C000604A08B5103202EB80000090016008BD1F
:1045D0005C4908B5103101EB80000090006808BD0F
:1045E00058490A6822F480320A600A6802430A6065
:1045F000704754490A6822F400320A600A6802438C
:104600000A6070474F490A6822F480220A600A68EB
:1046100002430A60704770B54A4C0022CA231C3C12
:10462000236053232360474B343B1D682D0707D578
:104630009E141D682D0703D5B24201D0521CF8E725
:104640001A6812070DD43F4A383A1268D20608D4C5
:1046500001433C4814380160FFF754FB10B10120BE
:1046600000E00020FF21216070BD30B5354DCA2229
:104670001C3D2A6053222A60324C20F00402383C50
:104680000029304B216800F0040004D01143216060
:104690001968014303E0914321601968814319605F
:1046A000FF20286030BD02462649002034390968C1
:1046B000254B1940114200D00120704780B240F0D4
:1046C0008000C1431F483438026802F08002114361
:1046D000016070471B4A0021126802F00403194A66
:1046E000383A126803EAD03302401A43174B1B686A
:1046F00003EA101003D00004000C00D0012108468A
:104700007047C0F30F1040F08000C1430F480268AB
:1047100002F08002114301607047002103E0491C50
:104720000A38C9B2C0B20A28F9D2090740EA1160B2
:104730007047010901EB810100F00F0000EB41001F
:10474000C0B27047402800407F3F01000C28004065
:1047500010B501210C072046FEF7C2FD2046BDE83A
:1047600010400021FEF7BCBD2B49086270472B4A60
:10477000116821F0E001014311607047264908618A
:1047800070472549C1F8A00070472349C1F8A4002B
:1047900070472249B0F5004F086803D040F440400C
:1047A0000860704720F44040FAE71B4948627047B0
:1047B0001A4B1A6822F0030202431A601848026872
:1047C00042F004020260012905D020BF016821F0F7
:1047D00004010160704730BFF8E71048016841F0FC
:1047E00004010160016841F0020101600C480168A8
:1047F00041F00401016030BF7047084A01460020C3
:1048000052680A4200D00120704704490A6842EA0F
:10481000800008607047000000000E4200700040F9
:1048200010ED00E01CB504467548012150F8240045
:10483000FEF706FD72480021083830F81400009099
:1048400001208DF804008DF806108DF80700022075
:104850008DF805006B48694650F82400FEF7C4FA4D
:104860001CBD6749674A083931F8101052F820001A
:10487000018370476249634A083931F8101052F8D1
:104880002000418370475F4951F820104A695C4B12
:10489000083B33F8100042404A61704770B5044647
:1048A00057480E46183886B050F824000121FEF70C
:1048B000C7FC01218803FEF7EBFC514800258DF869
:1048C000105028388DF8135030F8140003904D48DC
:1048D00003A9103850F82400FEF786FA012E25D1DE
:1048E00047482B38015D401E005DFEF7D6FD444869
:1048F000263830F8140000908DF8045008208DF808
:10490000050001258DF806506846FEF711FB3C486E
:104910002A38005D8DF808000F208DF809008DF809
:104920000A008DF80B5002A8FEF755FD06B070BDC9
:104930003349344A2839103A31F8101052F820001F
:10494000FEF7A3BA2DE9FC41884604462C482C49C1
:1049500010380C3950F8240051F824100843012174
:10496000FEF76EFC2CB92648012114380068FEF7CA
:1049700085FC2348234E1C38083E10F81420001FE5
:1049800030F8141056F82400FEF7A2FA1C48371D20
:104990001A3810F81420001F30F8141057F82400AB
:1049A000FEF796FA00208DF8060001208DF807002A
:1049B0001348022524388DF8045030F81400009074
:1049C0008DF8055056F824006946FEF70DFA0C489C
:1049D0008DF804502238694630F81400009057F8DA
:1049E0002400FEF701FA351F414655F82400FEF772
:1049F000BAFD55F824000121FEF726FEBDE8FC8132
:104A000020550108D40200202DE9FF5F1546DDE99D
:104A10000E68109F8A465FEA000B04D0052E05D36E
:104A2000FBF78AFCFEE7FBF787FCFEE7482000F077
:104A300051FF040009D0A8008146AFB13846206379
:104A4000A8B1A52249460FF0DCFE002C70D06FF013
:104A50000301206B01EB8501084420F0070778076C
:104A60000AD0FBF769FCFEE700F034FFE7E72046D9
:104A700000F085FF0024E8E7514635460020221863
:104A80000B5C82F834300A5C12B1401C1028F6D35B
:104A9000002184F84310052D00D30425E562201D74
:104AA000656400F09EFF04F1180000F09AFF246195
:104AB000C5F105016462A16159463846039A01F0C7
:104AC0005DF92060B8F1000F01D0C8F8004001F096
:104AD000CBF9F84F7868401C78603868DFF8D883E5
:104AE00010B1386928B329E03C607868012825D1E5
:104AF000002505EB850108EB810000F067FF6D1CC8
:104B0000052DF6D3EC48643000F060FFEA487830B9
:104B100000F05CFFE8488C3000F058FFE648A03019
:104B200000F054FFE4486430F8621430386305E064
:104B300022E03868C06AB04200D83C60786A401C05
:104B40007862E06AF968884200D9F86000EB800179
:104B500008EB8100211D00F047FF012401F090F9CE
:104B6000386928B13868C06AB04201D201F072F9E0
:104B700004B02046BDE8F09F4FF0FF34F8E72DE980
:104B8000F047CC4E0027706928B1B069401CB06175
:104B90003846BDE8F087B068401CB060B5684FF09B
:104BA000FF39A5B9F06A006810B1FBF7C5FBFEE755
:104BB000F06A316BF1623063306A401C3062F06A37
:104BC0000068E8B1F06AC068C0684068B062B06A66
:104BD000DFF8E482854209D3F06A006890B1F06A98
:104BE000C068C468606885420ED2B0623068C06A2E
:104BF00000EB800158F821000128C9D90127C7E737
:104C00004846E3E74846F0E7201D00F011FFA06AA0
:104C100018B104F1180000F00BFFE06AF168884257
:104C200000D9F06000EB800108EB8100211D00F04D
:104C3000DBFEE06A3168C96A8842CDD30127CBE741
:104C40002DE9F0479B4E00273D46706938B101F0D1
:104C50000BF97069401E7061706918B140E0FBF794
:104C60006BFBFEE7706894498C31C8B3DFF848925B
:104C70008846D8F80010E1B1D8F80C00C46804F1F7
:104C8000180000F0D5FE201D00F0D2FEE06AF168A9
:104C9000884200D9F06000EB800109EB8100211D02
:104CA00000F0A2FEE06A3168C96A8842E1D30125BA
:104CB000DFE7B06938B909E0FFF761FF00B101250E
:104CC000B069401EB061B0690028F5D1012D02D055
:104CD000F069012804D100200127F06101F0BAF841
:104CE00001F0CEF8384654E770B5724D0446286896
:104CF0004460A8682968844205D2286BBDE87040EA
:104D0000091D00F07DBEE86A091D00F079FEA86A61
:104D1000844200D2AC6270BD66484169491C416161
:104D2000704710B502000FD0FFF7F6FF61488168A9
:104D300000688C18001D00F07BFE2046FFF7D4FFB2
:104D4000FFF77EFF002803D1BDE8104001F082B8D4
:104D500010BD584910B54869574A30B10120C861A3
:104D600010BDD0B1C868401EC860C86800EB8000A4
:104D700052F820000028C868F3D000EB800002EB56
:104D8000800000F108034268526842609A4201D1F3
:104D900052684260D068086010BDFBF7CDFAFEE7AC
:104DA00070B5044601F060F8424D04B92C68201D2E
:104DB00000F03EFEA06A18B104F1180000F038FEC1
:104DC0003D48211DA03000F00FFE01F059F8286881
:104DD00084420DD1286918B1BDE8704001F03AB89D
:104DE00035486968A0300068884202D100202860F8
:104DF00070BDBDE87040ACE710B5002158B12E4B36
:104E00004269A0339A420AD1806AA3F11402904207
:104E100005D018B103E0FBF78FFAFEE70121084641
:104E200010BD70B504000BD0224D2868844225D0F7
:104E300001F01AF82046FFF7DFFF012803D019E040
:104E4000FBF77AFAFEE7201D00F0F2FDE06AE96860
:104E5000884200D9E860184900EB800001EB80002F
:104E6000211D00F0C1FDE06A2968C96A884201D3AA
:104E700000F0F0FFBDE8704001F002B870BD2DE910
:104E8000F041002504000AD001F065F8FBF754FA60
:104E900007462046FFF7B0FF012803D026E0FBF7C6
:104EA0004BFAFEE7034E706940B1034804F1180164
:104EB0008C3019E0E4020020FC080020E06A316830
:104EC000C96A884201D3012500E00025201D00F0B9
:104ED000AFFDE06AF168884200D9F060C34900EB99
:104EE000800001EB8000211D00F07EFD3846FBF7BD
:104EF0002AFA2846BDE8F081BD480168C96A09B1AF
:104F000000207047B94909680129F9D8816A806889
:104F1000081A7047B54DB64C2868012801D900F031
:104F200099FFFFF7E9FF0228F6D3FFF7F5FEA06A25
:104F3000A168884202D2FBF7FFF9FEE7FFF7DCFF2A
:104F4000022801D300F0B4FFFFF77AFEE4E71FB5B3
:104F5000002400940194029423468022A5A1A7482E
:104F60000394FFF751FD012803D100F0ECFD012867
:104F700004D000280CD1FBF7DFF9FEE7FBF7DCF9E2
:104F80009B48012101618460BDE81F4000F024BFFF
:104F90001FBD10B5FBF7D0F9954900200861BDE8A9
:104FA000104000F056BF10B500F05EFF90488468D6
:104FB00000F066FF204610BD10B500F0CCFFFBF7F7
:104FC000BBF98B498C68FBF7BEF9204610BD8848B9
:104FD00040687047864910B58A688B6A02449A42D5
:104FE00002D9FBF7A9F9FEE78A681044886010BD72
:104FF00070B50D4678B17E4C2168183100F000FD87
:105000002068001D00F014FD681C07D0A06828442B
:10501000BDE8704068E6FBF78FF9FEE7216873484A
:10502000BDE87040A030091D00F0DEBC70B50D4633
:1050300068B16F4C2168183100F0D6FC2068001D63
:1050400000F0F6FCA0682844BDE870404CE6FBF791
:1050500073F9FEE770B5C068C4685CB104F118006C
:10506000064600F0E5FC624D686930B15F483146A4
:105070008C3010E0FBF760F9FEE7201D00F0D8FC53
:10508000E06AE968884200D9E860584900EB80008E
:1050900001EB8000211D00F0A7FCE06A2968C96AC5
:1050A000884201D3012070BD002070BD10B528B129
:1050B0004F490A6A02608968416010BDFBF73CF9FC
:1050C000FEE770B50D46040019D0DDB100F0CCFE4E
:1050D000474A906829684B1C0FD02368126A934294
:1050E00002D06268824210D96268801A88420CD26B
:1050F000081A28602046FFF7D9FF002406E0FBF7D6
:105100001BF9FEE7FBF718F9FEE7012400F0B8FEF3
:10511000204670BD36490120C861704733490120DF
:105120008C31096809B1002070473149C9690029EB
:10513000F9D170472E48006870472D48016919B1B0
:10514000406918B102207047002070470120704765
:1051500070B5040029D0264DE06A2968C96A8842E2
:1051600023D22868214EC06AC0F10500A061E06A20
:10517000616900EB800006EB8000814212D1201DA6
:1051800000F056FC2868C06AE062E968884200D9ED
:10519000E86000EB800006EB8000211DBDE8704058
:1051A00000F022BC2868C06AE06270BD10B504003F
:1051B0001BD0616CE06A884217D0201D00F038FCDB
:1051C000606CE062C0F105000949A061E06ACA684C
:1051D000904200D9C860054900EB800001EB8000D7
:1051E000211DBDE8104000F0FFBB10BDFC080020F1
:1051F000E402002049444C4500000000154F00081F
:1052000070B50D46040023D000F02EFED4E90F2027
:10521000216802FB001161600021A1632168A16087
:105220000A46D4E90F01401E00FB01214FF0FF3078
:10523000E1606064A06404F1100065B100F0C6FB99
:1052400004F1240000F0C2FB00F01AFE012070BD42
:10525000FBF772F8FEE721690029F5D0FFF7FAFEA7
:105260000128F1D100F0F6FDEEE770B50E4605001D
:1052700016D04C2000F02EFB040011D005FB06F0E8
:10528000401C00F027FB206038B1C4E90F56012113
:105290002046FFF7B5FF204670BD204600F06FFBAB
:1052A000FBF74AF8FEE770B5044600F0DDFD04F1B7
:1052B00024050AE0606A58B12846FFF7CBFE08B122
:1052C000FFF728FFA06C401EA064A06C0028F1DC52
:1052D0004FF0FF35A56400F0D3FD00F0C5FD04F1EB
:1052E00010060AE0206958B13046FFF7B3FE08B156
:1052F000FFF710FF606C401E6064606C0028F1DCFA
:105300006564BDE8704000F0BBBD70B51546026C29
:10531000044682B1BDB1E0680FF0FCF9E168206C91
:10532000091AE1602268914202D26168081AE060BD
:10533000022D15D019E02068B8B96068FFF736FF74
:105340000020606011E0A0680FF0E4F9216CA06813
:105350000844A0606168884207D32068A06004E028
:10536000A06B10B1A06B401EA063A06B401CA0639B
:1053700070BD2DE9FF4383B01F46894604004FF0FE
:10538000000603D0B9F1000F03D007E0FAF7D4FF0D
:10539000FEE7206C10B1FAF7CFFFFEE74FF00008F0
:1053A000022F05D1E06B012802D0FAF7C5FFFEE716
:1053B00000F05AFDA06BE16B884205D3022F03D0A9
:1053C0000598B0B1C6B11BE03A4649462046FFF702
:1053D0009CFF606A38B104F12400FFF73BFE01280E
:1053E00001D100F037FD00F04BFD012007B0BDE812
:1053F000F08300F045FD1FE06846FFF757FE0126E9
:1054000000F03EFDFFF788FC00F02EFD606C401CB4
:1054100001D1C4F84480A06C401C01D1C4F848807C
:1054200000F02EFD05A96846FFF74BFE30B120467F
:10543000FFF739FFFFF704FC0020D7E700F014FD69
:10544000A06BE16B884201D1012500E0002500F04E
:1054500017FD75B104F110000599FFF7C9FD20464D
:10546000FFF721FFFFF7ECFB0028A1D100F0F2FCD1
:105470009EE72046FFF717FFFFF7E2FB98E710B51E
:105480004C2000F027FA04001BD000206060206050
:10549000A060E060A0630121C4E90F10401E6064B9
:1054A000A06404F1100000F091FA04F1240000F06F
:1054B0008DFA00231A4619462046FFF75AFF204668
:1054C00010BDFAF739FFFEE710B5040009D0FFF769
:1054D00031FE616888420FD1E068401EE06003D071
:1054E00008E0FAF729FFFEE700231A46194620468E
:1054F000FFF73FFF012010BD002010BD30B404684D
:105500000D46002C0CD0026CC1688B18C36041683A
:105510008B4200D3C460C168284630BC0FF0FAB893
:1055200030BC70472DE9FF4383B09946884604009C
:105530004FF0000604D00027B8F1000F03D007E0B9
:10554000FAF7FAFEFEE7206C10B1FAF7F5FEFEE777
:1055500000F08AFCA06B38B341462046E568FFF7AF
:10556000CDFFB9F1000F0DD0E560606A30B104F1F4
:105570002400FFF76FFD08B100F06CFC00F080FC28
:10558000012033E7A06B401EA063206810B9FFF72D
:10559000D1FD606020690028F0D004F11000FFF711
:1055A00059FD0128E8D0E9E7059808B11EB106E0E9
:1055B00000F066FC1DE06846FFF778FD012600F06C
:1055C0005FFCFFF7A9FB00F04FFC606C401C00D1B2
:1055D0006764A06C401C00D1A76400F051FC05A9D1
:1055E0006846FFF76EFD30B12046FFF75CFEFFF71F
:1055F00027FB0020FAE600F037FCA06B30B1002555
:1056000000F03EFCD5B1206810B108E00125F7E7B5
:1056100000F02AFC6068FFF79BFD00F031FC04F10C
:1056200024000599FFF7E4FC2046FFF73CFEFFF756
:1056300007FB00288CD100F00DFC89E72046FFF71E
:1056400032FEFFF7FDFA83E770B50D46040009D07E
:10565000FFF770FD6168884207D1E068401CE06098
:10566000012070BDFAF768FEFEE700232A461946BE
:105670002046FFF757FF0128F3D1E168491CE1609C
:1056800070BD10B50C4602220021FFF7EEFD08B1F7
:10569000846310BDFAF750FEFEE72DE9F0411D4688
:1056A00016460F46040001D01FB107E0FAF744FE8A
:1056B000FEE7206C10B1FAF73FFEFEE7022D05D1A0
:1056C000E06B012802D0FAF737FEFEE700F043FC5A
:1056D000FAF732FE8046A06BE16B884208D3022DB8
:1056E00006D000244046FAF72EFE2046BDE8F081A1
:1056F0002A4639462046FFF708FEA06C401C04D01D
:10570000A06C401CA0640124ECE7606A0028FAD079
:1057100004F12400FFF79EFC0028F4D0002EF2D004
:1057200001203060EFE72DE9F04115460F460400F7
:1057300001D01FB107E0FAF7FFFDFEE7206C10B1C2
:10574000FAF7FAFDFEE700F006FCFAF7F5FD06466B
:10575000A06BE0B139462046FFF7D0FEA06B401E9B
:10576000A063606C401C04D0606C401C6064012429
:105770000EE020690028FAD004F11000FFF76AFC5F
:105780000028F4D0002DF2D001202860EFE700249B
:105790003046FAF7D8FD2046A8E72DE9F0410F463C
:1057A000040001D01FB107E0FAF7C6FDFEE7206C48
:1057B00010B1FAF7C1FDFEE700F0CDFBFAF7BCFD32
:1057C0000646A06B38B139462046E568FFF796FEDD
:1057D000E560012400E000243046FAF7B4FD2046DD
:1057E00084E710B5040006D000F03EFBA46B00F087
:1057F00047FB204610BDFAF79FFDFEE710B508B144
:10580000806B10BDFAF798FDFEE7314A002102EBEC
:10581000C1035B68834203D1002042F83100704726
:10582000491C0829F3D3704710B5040009D0FFF7CD
:10583000ECFF206800F0A3F82046BDE8104000F01F
:105840009EB8FAF779FDFEE710B518B1806B20B16C
:10585000002010BDFAF770FDFEE7012010BD10B565
:1058600028B1816BC06B814204D1012010BDFAF7D1
:1058700063FDFEE7002010BD10B5154B002253F864
:1058800032401CB1521C082AF9D310BD43F8321023
:1058900003EBC201486010BD70B50D46044600F030
:1058A000E3FA616C0020491C00D16064A16C491CC2
:1058B00000D1A06400F0E4FAA06B20B9294604F1FD
:1058C0002400FFF7B3FB2046BDE87040EBE4000086
:1058D000B00900202DE9F04104460025FFF71CFA2D
:1058E000374E06F10801706801F1080360B93548C8
:1058F000002720F00700C1E90007334AC3E900721E
:10590000C0E90032012070603CB10834600704D067
:1059100004F00700C0F1080004442B4A601E521E28
:10592000904227D2264A0968083201E00A46014619
:105930004868A04202D208680028F7D1994219D0DD
:1059400015680868106048680835001B10280DD9D4
:105950000B1958601A484C6008305C6800E010462B
:1059600002685768A742FAD31A6003604868316832
:10597000081A3060FFF764F92846BDE8F08110B5D9
:10598000002817D0A0F10804FFF7C6F90C49606899
:10599000083100E011460A6853688342FAD3226056
:1059A00007480C606168026811440160BDE810405E
:1059B000FFF746B910BD0248006870477047000005
:1059C00018030020F8090020F82B010000F108015D
:1059D0004FF0FF32C0E90112C16001610021016096
:1059E000704700210161704742684A6093688B608C
:1059F00093685960916008610168491C01607047B3
:105A000030B50C68621C02D000F1080202E00269A5
:105A100004E01A4653681D68A542FAD953684B60E2
:105A200099608A60516008610168491C016030BD5D
:105A3000D0E901128A60D0E90112516001694A6817
:105A4000824201D182684A60002202610868401ED9
:105A50000860704770B500244160C34D00619142F9
:105A600006D8D11A8269914206D2011D286907E041
:105A70009A4203D2994201D3012403E0011DE86850
:105A8000FFF7BEFF204670BDFEB5B74D1F4603466B
:105A90002C680020089E002C08D08DE80E0037B13D
:105AA00000233A4669462046FFF7F7FDFEBDFFF7A3
:105AB00044FB01284FF0000305D000226946286806
:105AC000FFF757FCFEBD3246F8E770B50546FFF715
:105AD0006AFAA54E0446B068844203D200F085F805
