:020000040800F2
:10000000E0C10120854800084D2A00084F2A000859
:10001000512A0008532A0008552A00080000000051
:100020000000000000000000000000009D0100082A
:10003000572A000800000000E1010008734700088B
:100040009F4800089F4800089F480008335C00084C
:100050009F4800089F4800081D56000835560008B4
:100060004D560008655600087D5600089F48000858
:100070009F4800089F4800089F4800089F480008C4
:100080009F4800089F4800089F4800089F480008B4
:100090009F4800089F4800089F48000895560008A0
:1000A0009F4800089F4800089F4800089F48000894
:1000B0009F4800089F4800089F4800089F48000884
:1000C0009F4800089F4800089F4800089F48000874
:1000D0009F48000801510008135100082B510008E7
:1000E000E7560008555C00089F4800089F48000834
:1000F0009F4800089F4800089F4800089F48000844
:100100009F480008D3BE00089F4800089F48000889
:10011000435100085B5100089F4800089F480008B1
:100120009F4800089F4800089F480008F3BE000849
:100130009F4800089F4800089F4800089F48000803
:100140009F4800089F4800089F4800089F480008F3
:100150009F4800089F4800089F4800086F5100080A
:100160009F4800089F4800089F4800089F480008D3
:100170009F4800089F4800089F4800089F480008C3
:100180009F4800089F480008DFF80CD00CF00AF9DF
:1001900000480047D91F0008E0C10120234B19681F
:1001A0000868B0E8F04F80F309884FF0000080F352
:1001B000118870470000000003480068006880F361
:1001C000088862B600DF00BF08ED00E0DFF80C0031
:1001D000016841F470010160704700BF88ED00E0E4
:1001E000EFF30980114B1A681EF0100F08BF20EDC5
:1001F000108A20E9F04F106008B54FF0500080F3EE
:10020000118803F014FC4FF0000080F31188BDE862
:10021000084019680868B0E8F04F1EF0100F08BFDA
:10022000B0EC108A80F30988704700BFE402002018
:10023000EFF311804FF0500181F31188704780F384
:1002400011887047EFF30580704700008CB0FE4EB8
:1002500096F8310000287DD196F8340006F140016F
:1002600001F10C05C8B9F948C2790A70027A4A70DE
:10027000427A8A70827ACA70C27A2A70027B6A7065
:10028000427BAA70827BEA70837C0A1D1370C37C58
:100290005370037D9370407DD070CA78707E0244A5
:1002A000CA70EB4900EB4000A1F1D80301EB40001C
:1002B0001A1FE03904F076FF10B9E6A002F023FB24
:1002C00004F01CFB0021E9A2084604F07DFBF0A22B
:1002D0000221002004F078FBF2A1F648326E0CF007
:1002E000A1FAF44A0321002004F06EFB4FF47A7760
:1002F000384603F084FB04F001FBEF4C0DF1140CC5
:10030000A079637A227AE1798CE80F00A0780DF168
:10031000040C63792279E1788CE80F006078009012
:10032000CB4A2378083AE5A1E2480CF07BFA002199
:10033000E04A084604F048FB384603F060FB04F04E
:10034000DDFA68780DF11C0CF38FEA78A9788CE857
:100350000F0000E01DE0E07A0DF10C0C2B78627BC1
:10036000217B8CE80F00207CA27A617C8DE807005D
:10037000E37BA27BE0A1CF480CF054FA0021CD4AE8
:10038000084604F021FB384603F039FB012086F8CB
:100390003300E84D4AF6AA242C6004F07DFFFBE709
:1003A000E44F4AF6AA2600243E60DFF89C82A64D60
:1003B00008F18008D8F8580090F87C0001284FF028
:1003C000030019D003F07FF9322003F018FB95F8F1
:1003D0002700A8B1641C062C13DDA87E03280FD9C2
:1003E000BFF34F8FD4490868D44A00F4E06010434B
:1003F0000860BFF34F8FFEE703F065F96420E4E780
:1004000000243E60D6E770B5064600248E4D0BE012
:100410000A2003F0F4FA95F82300012806D095F895
:100420002400012802D0641CB442F1D970BD864971
:10043000486E08B100207047C14A04201080012096
:100440001080486681F82E00704770B599480322E5
:10045000BCA1E0300BF0EBFD00257B4C012610B970
:1004600084F82860A56693480322B7A1E0300BF01A
:10047000DEFD10B984F82960E5668E480322B3A139
:10048000E0300BF0D4FD10B984F82A602567894864
:100490000322AFA1E0300BF0CAFD10B984F82B6045
:1004A000656784480322ABA1E0300BF0C0FD18B9AA
:1004B000A9A1AA4804F0E1FD94F8280008B1FFF7CB
:1004C000B6FF94F8290008B102F03BFA94F82A002C
:1004D00008B102F029FA94F82B0008B102F017FADB
:1004E00094F8280020B1A06E00EBD0704010A067F7
:1004F00094F8290020B1E06E00EBD0704010E06766
:10050000514894F82A10803009B1216F016094F8A5
:100510002B10002901D0616F416070BD10B54A4CAD
:10052000E07E00B30021E176206D0122012805D094
:1005300002280AD003280FD090B114E084F82820B4
:10054000A16684F82A20216710E084F82820A1669B
:1005500084F82B20616709E084F82A20216702E0F3
:1005600084F82B20616794F8280008B1FFF75FFF3B
:1005700094F8290008B102F0E4F994F82B0008B1CE
:1005800002F0C5F994F8280020B1A06E00EBD070FD
:100590004010A06794F8290020B1E06E00EBD07005
:1005A0004010E067284894F82A10803009B1216F84
:1005B000016094F82B10002901D0616F416010BDDB
:1005C00070B50646204C0020803404F17C05A06202
:1005D000A06A55F8201030460BF0FAFC08B1012053
:1005E00070BDA16A491CA1620229F1DB002070BD27
:1005F000F0B45B4CDDE904566071217122706672C3
:100600002572E3712046F0BC002105F0A7B82DE962
:10061000F84F544F0121384602F0DEFA012400253C
:1006200070B12E460221384602F0D6FA48B1A846EB
:100630001021384602F0D0FA20B12F46202193E055
:10064000C9E0CAE0CBE0000000000020004002400A
:1006500020010020544D5F45544845524E45545F9B
:10066000496E6974204F4B200A0000002D2D2D2D5E
:10067000544953382D50524F2D2D2D2D4372656105
:1006800072746562795226442D544953000000006B
:1006900057656C636F6D2D2D3E3E5449532D4F535E
:1006A0000000000054696D65206F7574204F533A47
:1006B0002564000008050020E034012041434D3A44
:1006C0002573202D3E49500A0D25642E25642E25C4
:1006D000642E25640A0D253032582D253032582DD0
:1006E000253032580A0D253032582D253032582DFC
:1006F000253032580000000047573A25642E256403
:100700002E25642E25640A0D4E657425642E2564FD
:100710002E25642E25640A0D53563A25642E256431
:100720002E25642E25640D0A4E0D0A504F52543A60
:1007300025640000003000400CED00E00400FA05E4
:10074000180802405231300052323000523131002C
:1007500052323100523030004F4B00000048004010
:1007600028060020000C0240DFF82C94484602F0D6
:1007700033FA70B300954021484602F02DFA48B391
:10078000AB468021CA46484602F026FA68B3A9461D
:100790004FF48071504602F01FFA40B3AA464FF45E
:1007A0008051FE4802F018FA18B32846009909EB68
:1007B0004B02890001EBC7010A4402EB081101EB6F
:1007C0004612F749BAF1000F4A7614D00A220A6697
:1007D00012E006E007E0264624E7A04628E7274681
:1007E0002CE70094C7E7A346CBE7A146D0E7A24693
:1007F000D5E72046DAE70C66002801D081F83150B1
:10080000BDE8F88F86B000240122E64F032556028A
:10081000234631463846CDE9004504F0D1F97E83C0
:100820000421102004F07CF8DD490020F13104F0AF
:1008300000F9B101DC4E002300941A4630460194C1
:1008400004F0BEF9002300941A462021304601949A
:1008500004F0B6F9002300941A4640213046019472
:1008600004F0AEF9002300941A468021304601942A
:1008700004F0A6F9C94E00220121304604F0FEFD25
:1008800000222021304604F0F9FD002240213046AC
:1008900004F0F4FD00221021304604F0EFFD0022A8
:1008A0000821304604F0EAFD01221102304604F02E
:1008B000E5FD0127CDE90075F51400233A462946E8
:1008C000304604F07DF93583B54EDFF8DCB296F89A
:1008D00031000BF1180B38B3B4A002F014F8B7498B
:1008E0004AF6AA200860DFF8B89209F1EA09A9F1EE
:1008F0006A0A96F831000028FBD196F827000028F4
:100900006DD086F8274096F83300002867D096F817
:100910002E00002846D0401CC0B286F82E001428B5
:1009200027D986F82E403DE0A5A001F0ECFFFFF7A7
:100930006EFE16F8192FA6A1A7480BF073FFF471ED
:10094000B4713475F4740F200123CDE900701A4698
:1009500019461846FFF74CFE4FF48060ABF80000D4
:100960004000ABF80000B471F4717475B473193EB3
:10097000B5E7B8B1DAF85800974A90F87C30B06D16
:10098000012B00900CD095A1A0480BF04BFF00214B
:100990009E4A084604F018F8307F02280FD01EE067
:1009A0009BA1F1E7DAF858008B4A90F87C30B06DE3
:1009B000012B009001D0A249E6E7A249E4E7347791
:1009C00003F09CFFB06D00909FA19048F36D726D95
:1009D0000BF028FF00218D4A084603F0F5FFF07F59
:1009E000012879D196F82E000028FAD1874D777723
:1009F000A035B7772A7989F800206B7989F801301A
:100A000095F806C089F802C0E97989F8031095F8CD
:100A1000088089F8048095F8098089F8058095F8A0
:100A20000A8089F806806878082806D1CDE900C1D7
:100A30008DA105F588700BF0F5FE68780B2816D1AE
:100A400099F803100DF1040C99F8065099F8053047
:100A500099F804208CE82E0099F80210009199F87A
:100A6000013099F8002085A18C480BF0DBFE8B4803
:100A7000FFF7A6FD60B186F8247086F82870B4668A
:100A800086F82B7074677477B47786F8307043E01B
:100A9000707F58B1814A82A102F11E000BF0C2FEA4
:100AA0007E4A03211E32002003F08EFFB07F98B3F0
:100AB000B07E0DF1080C401CB07678489038017873
:100AC000457A037AC2798CE82E0001794079734B1C
:100AD000414ACDE9000100E03EE072A1A3F18000AF
:100AE0000BF0A0FE2E4BF28F3C3303F11000C178C7
:100AF0008DE80E0083784278017872A004F0D9FB6B
:100B0000664A67A102F11E000BF08CFE634A0321C6
:100B10001E32002003F058FF4FF49670FFF773FC6D
:100B2000F47796F8230028B1FFF78FFC0A20FFF72F
:100B30006AFC00E0747796F8240038B186F8244007
:100B4000FFF7ECFC0A20FFF75EFC00E0B477F477D7
:100B500086F82C4086F82D4096F82000012802D116
:100B600096F82E0020B196F82D00012813D03FE111
:100B70007777B77796F8220060B199F8002099F856
:100B80000110CDE9001299F8023099F8032036A13E
:100B900042489BE09EE027E1000402400000024042
:100BA0000000002000100240000C0240496E6974F1
:100BB000205365747570202E2E2E0A0000300040E0
:100BC000496E6974206D61696E202E2E2E0A000018
:100BD00041434D2530336400180100204465766997
:100BE00063653A25732E2E25640D4E6F74436F6E28
:100BF0006E6563742E2E2E2E2E2E0D473A4F706585
:100C00006E2E4C756F743A25303464000805002050
:100C10004465766963653A25732E2E25640D436F0E
:100C20006E6E65637465642E2E2E2E2E2E2E0D474D
:100C30003A4F70656E2E4C756F743A2530346400EF
:100C4000B0CE00086CCE000847696144763A25644E
:100C50000A0D536F6475746B3A25640A0D4C756FF9
:100C60007464693A256400002530325825303258C2
:100C700025303258253032580000000025303258D7
:100C800025303258253032582530325825303258E8
:100C9000253032582530325800000000B8060020B8
:100CA0002573000028312C25732C25732C312C2C16
:100CB00025642D25642D25642F25642D25642D257F
:100CC0006429000073657276657200000BF0AAFD5E
:100CD00086F8224096F8210040B1FE4AAFF240016A
:100CE000A2F13C000BF09EFD86F82140F9483C380B
:100CF000FFF766FC60B186F8247086F82870B46649
:100D000086F82B7074677477B47786F8307048E093
:100D1000707F68B1EF4A3C3AAFF27C0102F11E00ED
:100D20000BF080FDEB4A03211E3A002003F04CFE3D
:100D3000B07FB0B3B07E0DF1080C401CB076E54832
:100D4000CC380178457A037AC2798CE82E00017993
:100D5000E04B4079E04A3C3BCDE90001AFF2BC01F9
:100D6000A3F180000BF05EFDDB4BF28FDC3B03F167
:100D70001000C1788DE80E00837842780178AFF2D8
:100D8000BC0004F096FAD34A3C3AAFF2EC0102F10F
:100D90001E000BF047FDCF4A03211E3A002003F04E
:100DA00013FE4FF49670FFF72EFB86F8204096F85E
:100DB000230028B1FFF749FB0A20FFF724FB00E0DE
:100DC000747796F8240038B186F82440FFF7A6FB24
:100DD0000A20FFF718FB00E0B47786F8204086F879
:100DE0002C4086F82D400BE086F82D40FFF796FB4F
:100DF00096F82C00012803D186F82C40FFF725FB3C
:100E0000B06E00EBD0704010B067316E884210D3E6
:100E1000B248042101800780746686F82840B466D1
:100E2000B467F47786F820407477B4773220FFF700
:100E3000EAFAF06E00EBD0704010F067316E884235
:100E40000ED3A6480780746686F82940F466F467D6
:100E5000F47786F820407477B4773220FFF7D3FA1E
:100E6000306F5546CAF8000004280EDB4FF480614D
:100E7000ABF8001086F82A4034672C60706E20B9F9
:100E80007477B4773220FFF7BEFA706F6860042879
:100E90000EDB4FF40060ABF8000086F82B406C606E
:100EA0007467706E20B97477B4773220FFF7ABFAAD
:100EB0008B484AF6AA2101601BE58A4896B00DF1DD
:100EC000280C1EC88CE81E001EC80DF1180C864F99
:100ED0008CE81E000FC80DF1380C01248CE80F00BF
:100EE00042F2A2200025CDE91440DFF8F4B11295BA
:100EF00013957C704AF6AA2ACBF800A07B4E07F126
:100F0000400907F14C0897F831000128FBD197F808
:100F10003200012875D138780028FBD103F080FD1C
:100F200087F832507878002855D097F826000128A5
:100F300041D187F8265003F0E1FC97F825003128CD
:100F400008D0322810D0332818D0342821D03528A2
:100F500029D030E0B87970BBF87A60BB387C50BBE0
:100F6000387D40BBBC7012E0B87820BBF87A10BB6B
:100F7000387C00BB387DF0B9BC7108E0B878D0B9D6
:100F8000B879C0B9387CB0B9387DA0B9FC727D7031
:100F900011E0B87878B9B87968B9F87A58B9387D75
:100FA00048B93C74F3E7B87828B9B87918B9F87A31
:100FB00008B9387CB0B14EA152480BF033FC52A1B5
:100FC00050480AF0F9FF55A14E480AF0F5FF58A124
:100FD0004C480AF0F1FFB87840B397F82600012892
:100FE00002D013E03C75D2E787F8265003F086FC68
:100FF00097F82500312805D0322805D0332855D060
:1010000004E080E2FC7000E03C71BD704CA13D4802
:101010000BF008FC4EA13B480AF0CEFF50A1394826
:101020000AF0CAFF52A137480AF0C6FFF87880B12B
:1010300051A134480BF0F6FB53A132480AF0BCFF33
:1010400056A130480AF0B8FF59A12E480AF0B4FF63
:101050003C70387980B159A12A480BF0E3FB4AA1D2
:1010600028480AF0A9FF4DA126480AF0A5FF50A183
:1010700024480AF0A1FF3C70787980B153A121483F
:101080000BF0D0FB54A11F480AF096FF56A11D4853
:101090000AF092FF46A11B480AF08EFF3C70B87917
:1010A000A0B197F82600012802D0ABE07C71ACE734
:1010B00087F8265003F022FC97F82500312806D047
:1010C000322805D0332804D0342895E0AAE095E0F2
:1010D00096E0DEE0F4060020180100201A08024025
:1010E00000300040E8CC0008000000200040024032
:1010F0004D61696E20536574757020544953380AE8
:101100000D00000008050020312E436172642E2E70
:101110002E2E342E53686F770D000000322E54436C
:101120005049502E2E2E352E547970650D0000003A
:10113000332E4F75745075742E2E362E4F4B000083
:1011400053657452656164436172640A0D00000066
:10115000312E57656967616E6420310A0D00000009
:10116000322E57656967616E6420320A0D000000F7
:10117000332E5253323332005365745765696761B9
:101180006E64310A0D000000312E57656967616E8B
:10119000642032366269740A0D000000322E5765F1
:1011A0006967616E642033346269740A0D0000005F
:1011B000316F72322D3E234F6B0000005365745720
:1011C000656967616E64320A0D00000053657452F0
:1011D000533233320A0D0000312E426175642039DA
:1011E0003630300A0D000000322E42617564203125
:1011F00031353230300A0D004DD003E0FC7100E093
:101200003C72BD71F8A1FA480BF00CFBF9A1F8484B
:101210000AF0D2FEFBA1F6480AF0CEFEFCA1F4488B
:101220000AF0CAFEF87948B1FDA1F1480BF0FAFACC
:10123000AFF28001EE480AF0BFFE3C70387A48B148
:10124000FBA1EB480BF0EEFAAFF29801E8480AF088
:10125000B3FE3C70787A48B1F9A1E5480BF0E2FAA8
:10126000AFF2B001E2480AF0A7FE3C70B87A48B18C
:10127000F6A1DF480BF0D6FAAFF2C801DC480AF05D
:101280009BFE3C70F87A58B397F82600012804D0EA
:1012900016E07C72B5E7BC72B3E787F8265003F01E
:1012A0002DFB97F82500312806D0322806D03328A8
:1012B0005DD034285DD003E03C7300E07C73FD72A8
:1012C000E5A1CB480BF0AEFAE7A1C9480AF074FEDD
:1012D000EAA1C7480AF070FEECA1C5480AF06CFE0E
:1012E000387B88B1EEA1C2480BF09CFAF0A1C0484F
:1012F0000AF062FEF0A1BE480AF05EFEAFF24C11A9
:10130000BB480AF059FE3C70787B48B1ECA1B84864
:101310000BF088FAAFF26411B5480AF04DFE3C704C
:10132000B87B88B1EBA1B2480BF07CFAE0A1B048E1
:101330000AF042FEE0A1AE480AF03EFEAFF28C1188
:10134000AB480AF039FE3C70F87B48B1E4A1A848EC
:101350000BF068FAAFF2A411A5480AF02DFE3C701C
:10136000387C48B397F82600012804D014E0BC73F9
:10137000A5E7FC73A3E787F8265003F0BFFA97F8B8
:101380002500312804D0322804D0332851D003E07E
:101390007C7400E0BC743D74D5A195480BF042FA12
:1013A000D7A193480AF008FED9A191480AF004FE9B
:1013B000DBA18F480AF000FE787C68B3F17989F8E8
:1013C0000010317A484689F80110717A89F80210C4
:1013D000B17A89F80310F27A88F80020327B88F815
:1013E0000120727B88F80220B27B88F8032098F8ED
:1013F000023098F801C098F80010CDE9021CCDE940
:101400000432C2788178CDE90012437899F800203F
:10141000C8A177480BF006FAB87C08B3308AF88781
:1014200072781292B3781393012A04D0022A0DD055
:1014300010E0FC74AFE7012B02D0022B03D009E0CF
:1014400082B2C7A131E082B2CCA12EE0022B27D01C
:10145000012B28D080B20090D0A165480BF0E2F9B2
:10146000F87CB0B1B27D3A66B17CD3480170F17CB2
:101470004170317D8170717DC170837890F801C0B9
:10148000CDF800C0CDE901310378CCA158480BF06C
:10149000C9F9387D70B397F82600012809D019E002
:1014A00082B2D1A101E082B2D6A151480BF0BAF9C3
:1014B000D6E787F8265003F021FA97F8250031285F
:1014C00004D0322804D0332822D003E07C7500E019
:1014D000BC753D75D3A146480BF0A4F9D5A144488D
:1014E0000AF06AFDD6A142480AF066FDD7A140483D
:1014F0000AF062FD00213E4A084603F065FA40A169
:101500003B480BF08FF997F82600012802D03BE307
:10151000FC75DEE73878012854D187F8265003F0AF
:10152000EDF9F878012804D10021CBA2084603F098
:101530004BFA3879012804D10021CAA2084603F0E9
:1015400043FA7879012804D10021C9A2084603F0A2
:101550003BFAF879012804D10021C8A2084603F01B
:1015600033FA387A012804D10021C7A2084603F0D3
:101570002BFA787A012804D10021C6A2084603F08C
:1015800023FAB87A012804D10021C4A2084603F046
:101590001BFA787B012804D10021C3A2084603F07E
:1015A00013FA1349203101F120000AF005FD10481B
:1015B00013A120300BF036F90D4A012140320020F2
:1015C00003F002FA97F8250023280BD1B8780128F8
:1015D00009D0B879012806D0F87A012803D0387CE0
:1015E000012869E1C8E26BE1312E49500A0D000083
:1015F00008050020322E49507365727665720A0D17
:1016000000000000332E506F72740A0D00000000BD
:10161000342E44656661756C4765747761790000A6
:1016200053657449506465766963650A0D0000006E
:1016300053657449505365727665720A0D00000057
:10164000536574506F72740A0D000000536574473F
:1016500065747761790A0D00312E52533233322D81
:101660003438350A0D000000322E54696D656F75EF
:10167000742072656C61790A0D000000332E5443AA
:10168000505365727665720A0D000000342E54695D
:101690006D656F757470726F636573730000000021
:1016A00053657452533233322D3438350A0D0000ED
:1016B000312E5965730A0D00322E4E6F0A0D00004F
:1016C00053657454696D656F75742D52656C6179DD
:1016D0000A0D00005443505365727665720A0D007E
:1016E00054696D652D50726F636573730A0D000048
:1016F00053686F772073656C6563740A0D00000092
:10170000312E49502C5365727665720A0D00000027
:10171000322E436172642D506F72740A0D00000006
:10172000332E52656C61792D44656661756C47573F
:10173000000000004950204465766963650A0D2564
:10174000642E25642E25642E25640A0D5365727659
:1017500065720A0D25642E25642E25642E256400ED
:1017600052656164436172642032366269740A0DA5
:101770005C6E0D506F72740A0D25640052656164D1
:1017800032366269742D33346269740A0D5C6E0DF1
:10179000506F72740A0D2564000000004E4F5457BC
:1017A000696567616E64256425640A0D506F727403
:1017B0000A0D2564000000004400002054696D6596
:1017C0006F757452656C61790A0D25640A0D446564
:1017D0006661756C742047770A0D25642E25642E8A
:1017E00025642E25640000005265616443617264C3
:1017F0002033346269740A0D5C6E0D506F72740A86
:101800000D2564005265616433346269742D32368B
:101810006269740A0D5C6E0D506F72740A0D256456
:10182000000000004465766963652D547970650A8F
:101830000D000000312E546179717561790A0D0037
:10184000322E5377696E670A0D000000332E2E2E5C
:101850002E2E2E2E0000000057696567616E6431E0
:101860000000000057696567616E64320000000087
:1018700042617564726174650000000049506465DE
:1018800076696365000000004950536572766572A1
:1018900000000000506F7274000000004465666133
:1018A000756C74204757000054696D656F757452EC
:1018B000656C61790000000002D0387D012805D1F7
:1018C0007C70BD70BD71FD723D743D75F878012866
:1018D00011D1FE4801F017F812AAFDA1FB480AF049
:1018E000D7FB12987070AFF2E821F8480AF09AFF1F
:1018F000BC70FD707D703879012811D1F34801F07A
:1019000002F813AAF2A1F1480AF0C2FB1398B070D2
:10191000AFF21431ED480AF085FFBC703D717D7067
:101920007879012805D1E94800F0EDFFBC707D71A0
:101930007D70F87901282ED1E44800F0E4FF0DA96C
:101940000CA8CDE900010BAB0AAAE2A1DF480AF01E
:101950009FFB0A98F0710B9830720C9870720D987A
:10196000B07299F8032099F80210CDE90012D74817
:1019700099F8013099F80020DAA120300AF052FFDE
:10198000D248203000F0BFFFD5A1D0480AF04AFF6E
:10199000BC71FD717D70387A01282ED1CB4800F0E2
:1019A000B2FF11A910A8CDE900010FAB0EAAC9A181
:1019B000C6480AF06DFB0E98F0720F9830731098BD
:1019C00070731198B07398F8032098F80210CDE95D
:1019D0000012BE4898F8013098F80020C1A12030CC
:1019E0000AF020FFB948203000F08DFFBCA1B748B5
:1019F0000AF018FFBC713D727D70B87A01282AD1B7
:101A0000B24800F080FF09A808A9CDE9001007AB93
:101A100006AAB0A1AD480AF03BFB0698B07407983F
:101A2000F0740898307509987075DDE90801CDE902
:101A30000001A648DDE90623AAA120300AF0F2FE43
:101A4000A248203000F05FFFA5A1A0480AF0EAFEFE
:101A5000BC71BD727D70787A01281AD19B4800F064
:101A600052FF15AAA2A199480AF012FB159A3282D8
:101A7000AFF61061954820300AF0D4FE934820302C
:101A800000F041FF96A191480AF0CCFEBC717D7236
:101A90007D70787B01281AD18C4800F034FF14AA9D
:101AA0008BA18A480AF0F4FA149AB275AFF64C6129
:101AB000864820300AF0B6FE8448203000F023FF2C
:101AC00087A182480AF0AEFEFC727D737D70387B80
:101AD000012802D1FC723D737D70787B012802D110
:101AE000FC727D737D70B87B012802D1FC72BD73DE
:101AF0007D70F87B01281AD1744800F004FF14AA05
:101B000073A172480AF0C4FA149AF275AFF6AC6188
:101B10006E4820300AF086FE6C48203000F0F3FE5C
:101B20006FA16A480AF07EFEFC72FD737D70787CBE
:101B3000012802D13C747D747D70B87C012802D1EB
:101B40003C74BD747D70F87C012802D13C74FD7436
:101B50007D70787D012802D13C757D757D70B87DE2
:101B6000012802D13C75BD757D70F87D012802D138
:101B70003C75FD757D703D7097F82500362803D1C2
:101B80007878012800D13470CBF800A0FFF7BBB9FA
:101B900030B500231C468A0E20D11A281ED10846D3
:101BA00001224008C50700D0641C521C0C2AF8D939
:101BB00044F300040122641C4008C50700D05B1CEC
:101BC000521C0C2AF8D903F00100B0EB516F05D17B
:101BD00001F00100A04201D1012030BD002030BD44
:101BE0002DE9F04100284BD002F06FFC3749424EFE
:101BF000683951F82020521C41F8202096F838000E
:101C000006F1800710B1786A401C78623B4C21696C
:101C1000606996F83800FFF7BBFF00254FF0010818
:101C200088B32169606940084FEA31012161606130
:101C30002069616920F07F402061656120696169E8
:101C400020F07F40206165612069616983B220696D
:101C500061694FEA10422AA12C480AF0E3FD2B48A3
:101C600000F051FE00212161616186F8385086F84C
:101C700036807D6206F8208F86F80180BDE8F0810D
:101C8000FEF7D6FAFEE7FFE7786A0528F6D30021CB
:101C90007D622161616186F8385086F83680EDE713
:101CA0002DE9F041002870D002F00FFC0749124ED8
:101CB000683951F82020521C41F8202096F837004E
:101CC00006F1800728B3386A401C21E0480500204F
:101CD0002564230025642E25642E25642E25642387
:101CE0000000000025782E25782E25782E257800F6
:101CF00025346423000000000000002000010020C3
:101D0000253033752530357500000000F4060020BD
:101D10003862FE4CA168E06896F83700FFF738FF9C
:101D200000254FF0010870B3A168E06840084FEA51
:101D30003101A160E060A068E16820F07F40A06010
:101D4000E560A068E16820F07F40A060E560A068E1
:101D5000E16883B2A068E1684FEA1042AFF2600127
:101D6000EB480AF05FFDEA4800F0CDFD00213D623E
:101D7000A160E16086F8375086F8358006F8208F3C
:101D800086F801807AE703E0FFE7FEF751FAFEE705
:101D9000386A0528F6D300213D62A160E16086F82B
:101DA000375086F8358069E7F0B500252E462228A1
:101DB00027D110461946012449084FEA3000C707C9
:101DC00000D0761C641C102CF6D946F300070124C1
:101DD0007F1C49084FEA3000C60700D06D1C641C08
:101DE000102CF6D905F00100002180EA530081EAA9
:101DF0000103184305D102F00100474049400F4359
:101E000001D00020F0BD0120F0BD2DE9F041E0B38C
:101E100002F05BFBBF4AC04D52F82010491C42F84B
:101E2000201095F8380005F1800610B1F069401CCB
:101E3000F061B64C2269636995F83800FFF7B4FF8A
:101E40000021012248B32369606940084FEA330347
:101E50002361606120696369206161612069636950
:101E6000A4F116034FEA102718705F704FEA10476D
:101E70009F704FEA1060D8700B46F1612361636177
:101E800085F8381085F8362000E003E005F8202FAB
:101E9000AA70F3E6FEF7CCF9FEE7F0690528F8D35F
:101EA0000023F1612361636185F8381085F83620DD
:101EB000E4E62DE9F041E0B302F007FB954A964DC8
:101EC00052F82010491C42F8201095F8370005F10F
:101ED000800610B1B069401CB0618C4CA268E36808
:101EE00095F83700FFF760FF0021012248B3A3688F
:101EF000E06840084FEA3303A360E060A068E3684D
:101F0000A060E160A068E368A4F116034FEA10271F
:101F100018705F704FEA10479F704FEA1060D870DA
:101F20000B46B161A360E36085F8371085F8352072
:101F300000E003E005F8202FAA709FE6FEF778F98D
:101F4000FEE7B0690528F8D30023B161A360E36020
:101F500085F8371085F8352090E610B540B102F0CD
:101F6000B4FA6C4951F82020521C41F8202010BDD1
:101F7000FEF75EF9FEE710B558B302F0A6FA654920
:101F8000654C51F82020521C41F82020012004F813
:101F9000270F0021E0725E48CC3803F04CFD6078DA
:101FA000273C10B1A06E401CA06694F8290010B127
:101FB000E06E401CE06694F82A0010B1206F401CCF
:101FC000206794F82B00002802D0606F401C6067E7
:101FD00010BDFEF72DF9FEE72DE9FF41AFF26900D4
:101FE000012300901A464FF4FA714C4802F04EFA61
:101FF000474E0C367060AFF29D0000900223012224
:102000009621464802F042FAB060AFF259100090B3
:10201000032301220A21414802F038FAF060AFF2AE
:1020200015200090042301220A213C4802F02EFAD8
:102030003061AFF293300090052301221E21374812
:1020400002F024FA7061AFF267400090062301228B
:102050001E21324802F01AFAB0617068002540B1C2
:1020600001F059FD0246009500231946706802F000
:1020700093F9B06840B101F04EFD0246009500238F
:102080001946B06802F088F94FF4407000F0A2FEE3
:1020900000F033FD03F008FE214C607802280AD1DD
:1020A000F06840B101F037FD024600950023194663
:1020B000F06802F071F9A07802280AD1306940B1C5
:1020C00001F029FD0246009500231946306902F00F
:1020D00063F9607801280AD1706940B101F01BFDF5
:1020E0000246009500231946706902F055F9A07860
:1020F00001280AD1B06940B101F00DFD02460095FA
:1021000000231946B06902F047F90BE000010020F6
:10211000F4060020E004002000000020E0CC0008CD
:1021200000400240E57025716571A5710326FE4FE0
:10213000CDE90056002301220421384602F040FD7B
:10214000CDE90056012200231146384602F038FD41
:10215000F64FCDE90056012200239102384602F0E5
:102160002FFDCDE9005601220023D102384602F0AE
:1021700027FD032001F088FA0126002300961A4665
:1021800031463846019602F01BFD002300961A46A0
:1021900002213846019602F013FD002300961A46EC
:1021A00010213846019602F00BFDE14F0023009606
:1021B0001A4620213846019602F002FD00230096BF
:1021C0001A4640213846019602F0FAFC0023009698
:1021D0001A4680213846019602F0F2FC0023009650
:1021E0001A4631023846019602F0EAFC00230096B6
:1021F0001A463103CF48019602F0E2FC4FF4E13277
:102200000021CD4802F0EAFE4FF416573A4602216B
:10221000CA4802F0E3FE3A460021C94802F0DEFE59
:10222000002003F036FC022003F083FCFEF7EFF9F8
:102230002178C44801292ED080F83460009501959A
:10224000029500238022C0A1C548039501F04AFAF7
:1022500000950195029500238022C2A1C5480395EF
:1022600001F040FA00950195029500238022C2A159
:10227000C648039501F036FA0095019502950023B2
:102280008022C3A1C748039501F02CFA01F021FC7C
:10229000002004B0F2E480F83450A17D0166CDE75F
:1022A00010B50023A74A522801D182F83930BE4C1C
:1022B00092F839100229605405D030290CD2491CFB
:1022C00082F8391010BD012082F82C00537F012BB9
:1022D000F5D182F82300F2E782F8393010BD10B54D
:1022E000984ABD2802D1002182F83A10AE4B92F8EC
:1022F0003A10403B5854D87810B90123012905D031
:10230000302902D2491C82F83A1010BD507F947FC8
:10231000204392F82E402043F4D1D377F2E710B552
:102320000C46A14AA1A1503220460AF07BFA204671
:1023300009F060FE80B210BD2DE9F041814C0746E6
:10234000803408462161E16809F080FE7D4D6061BE
:1023500001264FF00008AE764046C4F808800628F3
:1023600038D2DFE800F0031313131A298E4890A126
:10237000803862690AF056FA8B48803809F04AFFC3
:1023800028778948803800F0BEFA23E0864888A183
:10239000803862690AF046FAF3E7834884A18038FE
:1023A00062690AF03FFA8048803800F0ACFA7E4853
:1023B000803800F0F2FA0DE07B487CA18038626939
:1023C0000AF030FA7848803800F09DFA7648803874
:1023D00000F0C3FA0020E16809F038FE6061A068EF
:1023E000401CA0600628BADB287F012802D0022802
:1023F00006D007E085F82D6085F82460EE7601E0D0
:1024000085F82F8087F86C60A76537E410B504461F
:102410000246654867A180380AF004FA62488038AD
:1024200000F071FA47488030846510BD10B504464D
:1024300059B1206F224664A103785B4880380AF0C6
:10244000F1F95948803800F05EFA3E4880308465E2
:102450008038818F491C818710BD10B50446024623
:10246000514863A180380AF0DDF94F48803800F008
:102470004AFA34488030846510BD10B504460246DF
:10248000494864A180380AF0CDF94748803800F007
:102490003AFA2C488030846510BD1FB5069CCDE902
:1024A00000230B4602460CB161A100E06BA13E483F
:1024B00080380AF0B7F93C48803800F024FA704CB4
:1024C000A079637A227AE1798DE80F003648637942
:1024D00022796CA180380AF0A5F9A079637A227A72
:1024E000E1798DE80F0030486379227965A1803861
:1024F0000AF098F92C4894F84C206BA180380AF027
:1025000091F92948803800F0FEF9274894F84D20C9
:1025100069A180380AF086F904B02348BDE810406C
:10252000803800F0F0B9000000080240000C0240C2
:102530000004024000000240001401400048004036
:102540000010014000000020436F6E6669677572DD
:1025500065207573696E672044544D460000000085
:10256000BB0E00084D61696E2072756E202E2E2EF6
:1025700000000000050800084C656420426C696E8C
:102580006B205461736B205265640000A103000846
:1025900045746865726E65742052756E6E696E67FB
:1025A000202E2E004D020008E805002025730000B3
:1025B00025732C00436F6E6E656374656420746FC1
:1025C0002025730A00000000436F6E6E6563746916
:1025D0006F6E202573207375636365737366756C06
:1025E0006C792E41637469766525640A00000000E9
:1025F000416E206572726F72206F636375726564DD
:10260000206F6E20636F6E6E656374696F6E202538
:10261000730A0000436F6E6E656374696F6E2025E8
:10262000732068617320737461727465640A0000BA
:1026300049503A2025642E25642E25642E256420D9
:1026400061737369676E6564206279204448435002
:10265000207365727665720A0000000049503A20C6
:1026600025642E25642E25642E25643B2053544179
:1026700054494320495020757365640A00000000E6
:10268000E03401204D41433A20253032582D253089
:1026900032582D253032582D253032582D253032E4
:1026A000582D253032580A004C696E6B203130307D
:1026B0004D3A2025640A000046756C6C20647570E4
:1026C0006C65783A2025640A000000007047704766
:1026D000BE4810B5BE49407EA1F1D80300EB4000D2
:1026E00001EB40001A1FE03902F05CFD002804D124
:1026F000BDE81040B7A000F006B910BDF0B5012547
:10270000B24C87B001281DD0214604F5807391F8A2
:102710003520496E082875D0002610287BD0224627
:10272000202892F8362077D0402876D0B0F5807FE8
:1027300074D194F82E00002803D094F830000028BB
:102740006DD0CAE0A9480168090401684FEA8161B7
:1027500026D4002901684FEA416110DB0068002996
:102760004FEA006005DB002801DB44203EE0382012
:102770003CE0002801DB342038E0232036E000680C
:1027800000294FEA006005DB002801DB32202DE044
:1027900030202BE0002801DB362027E0422025E016
:1027A000002901684FEA416110DB006800294FEA07
:1027B000006005DB002801DB312017E0392015E03F
:1027C000002801DB352011E041200FE000680029DE
:1027D0004FEA006005DB002801DB332006E02E20F5
:1027E00004E0002801DB372000E0432084F82500C6
:1027F00084F8265007B0C2B2BDE8F0407CA17D4805
:102800000AF010B8002A3BD0002939D19968D8685D
:102810004918404112E003E015E01DE030E031E0EE
:10282000002A2DD000292BD19968D8684918404139
:102830009960D8609968D86841F001019960D860C2
:1028400014F8370F1AE0002A1AD0002918D1196994
:102850005869491840410DE0002A11D000290FD1D4
:10286000186959690018494118615961196958690D
:1028700041F001011961586114F8380F401C2070B3
:1028800007B0F0BD5C480DF1080C0178477A037A77
:10289000C2798CE88E0001794079574B4C4ACDE9DA
:1028A0000001AE33083A55A1A3F19E0009F0BAFF2A
:1028B000052001F0A4F8454BE28F3C3303F11000F2
:1028C000C1788DE80E00837842780178534802F091
:1028D000F0FC84F82F5000F027F8206E4000A0662E
:1028E000E06684F8306084F82E60E67784F8206033
:1028F000C6E736490120087681023C48083001804D
:10290000C114018070470146454802F0B6BB374903
:1029100010B50A314FF4006008802D4940483D3918
:1029200002F0ABFB002010BD304910B50A314FF466
:102930008060088026493A48443902F09EFB002016
:1029400010BD2248416E09B100207047354A01216F
:10295000118002214166012070471FB51C4C4C3C80
:10296000231F1A1F111F8DE81E000B1F0C3A2EA1EA
:1029700009F08EFBA4F1540090F8541090F8502008
:10298000CDE9002190F84C3090F8482090F84410A0
:1029900090F84000FDF72CFE1FBD0EB50C4B643BBC
:1029A0001A1F111F8DE80E000B1F0C3A23A109F00E
:1029B0006FFB064805498030C26B0A65826B8A65E9
:1029C000026BCA65406B48650EBD00000000002028
:1029D0002001002052455F45544845524E45545F02
:1029E000496E6974204F4B200A000000100C024011
:1029F00025630000280500202806002028322C2509
:102A0000732C25732C312C2C25642D25642D2564E5
:102A10002F25642D25642D2564290000C40C000891
:102A2000004800401808024025642D25642D2564C7
:102A30002F25642D25642D256400000025642D2597
:102A4000642D25642D25642D256400007047FEE764
:102A5000FEE7FEE7FEE770470CB500223949009219
:102A60000192086840F4803008604FF4A043086881
:102A700000F4003001900098401C0090019810B9BB
:102A800000989842F3D10868800334D50120019062
:102A90002C484030026842F0805202602A480268A6
:102AA00042F440420260274808300268026002682F
:102AB00042F400420260026842F4A0520260031F26
:102AC000224A1A600A6842F080720A600A6892011B
:102AD000FCD51F4940F205720A60016821F003012C
:102AE0000160016841F0020101600168C1F38101E8
:102AF0000229FAD10CBD01920CBD164810B501682F
:102B000041F4700101600F48016841F0010101606A
:102B10000C4A00210832116002680F4B1A40026013
:102B2000031D0E4A1A60026822F4802202600548E2
:102B30000C300160FFF790FF06494FF000608039CC
:102B4000086010BD00380240007000400854400783
:102B5000003C024088ED00E0FFFFF6FE103000244C
:102B6000F0B5002201274FF0030C0B6807FA02F5BD
:102B70002B40AB422CD1066853000CFA03F4A64359
:102B800006600E79D0F800E09E4046EA0E06066028
:102B90000E79012E01D0022E12D18668A6438660DE
:102BA0004E79D0F808E09E4046EA0E0686604668F8
:102BB000AE43466045688E799640B6B2354345606F
:102BC000C568A543C560CC799C40C3681C43C460FC
:102BD000521C102AC9D3F0BD0246002012690A42D5
:102BE00000D001207047000030B51A4A837901688F
:102BF00053B313688B431360111D0B680468A34320
:102C00000B60017911440B68046823430B60114B7E
:102C1000083319680468A14319601C1D2168056800
:102C2000A94321604179102905D011440A68006840
:102C300002430A6030BD19680268114319602168B7
:102C400000680143216030BD0079104402688A4366
:102C5000026030BD003C01400246002051090129BC
:102C60000BD002290CD05649096802F01F0201233B
:102C700093400B4200D00120704751497439F3E76B
:102C80004F49091FF0E74E490022091F0A700A70D8
:102C9000012802D0042801D1052008707047494955
:102CA0000860704770B5464B6C3B1968464C11F094
:102CB0000C0104D06610042903D0082903D0046055
:102CC0001BE0066019E03E4A703A1168C1F3805576
:102CD000116801F03F0115B1B6FBF1F101E0B4FB61
:102CE000F1F114681268C4F388146143C2F301421D
:102CF000521C5200B1FBF2F1016019680F2202EA86
:102D00001111324A545C0168E14041601C6807259A
:102D100005EA9424145D21FA04F484601B6805EA32
:102D20005333D25CD140C16070BDC0F3012103298F
:102D300008D1234B6C3B1968254A21F4F811024055
:102D40000A431A601E49091F0A68C0F30B000243B8
:102D50000A6070471B49443908607047184A443A72
:102D60000029116801D0014300E0814311607047E0
:102D7000134A343A0029116801D0014300E081432D
:102D8000116070470E4A643A0029116801D001436E
:102D900000E0814311607047094A543A00291168E4
:102DA00001D0014300E0814311607047044A503A6A
:102DB0000029116801D0014300E081431160704790
:102DC00074380240800E47420024F400B402002010
:102DD000FFFCFF0F1A4908431A490860704730B5D5
:102DE0000F23C27801780125FAB1164A126801F161
:102DF000E02102F4E062C2F5E062C2F30722C2F110
:102E00000404D3404278A24084781C401443220139
:102E100081F80024007800F01F018D4040098000F7
:102E200000F1E020C0F8005130BD01F01F008540E6
:102E30004809800000F1E020C0F8805130BD00005A
:102E40000000FA050CED00E00149C1F8DC00704714
:102E500000002742454910B5884206D101211020C3
:102E6000FFF7A4FF0021102028E04149884202D149
:102E700001214C0410E03F49884202D101218C0419
:102E80000AE03D49884202D10121CC0404E03B49DB
:102E900088420AD101210C052046FFF77DFF20461C
:102EA000BDE810400021FFF777BF3549884209D1BE
:102EB00001212020FFF77AFF00212020BDE81040EB
:102EC000FFF774BF10BD7FB50446008A0D46C98860
:102ED00020F4405001432182A08941F20C618843D3
:102EE000A9882A8911436A8902431143A181A08AD2
:102EF00020F44071A8890843A0826846FFF7D2FEFB
:102F00001A48844202D01E48844201D1039800E04E
:102F10000298A189090400EBC00101EB00102968A7
:102F200001D5490000E08900B0FBF1F06422B0FB5C
:102F3000F2F109010B096FF018056B4300EB8300F8
:102F4000A3891D044FF0320306D503EBC000B0FB8C
:102F5000F2F000F0070005E003EB0010B0FBF2F028
:102F600000F00F00084320817FBD000000100140E9
:102F70000044004000480040004C00400050004029
:102F8000001401402DE9F043016821F001010160C6
:102F90000021016041608160C160016121214161C6
:102FA0006E496E4A3D251039904202D18D60BDE8D0
:102FB000F0836A4A4FF474661832904201D18E60F1
:102FC000F5E7664A4FF474173032904201D18F60B2
:102FD000EDE7624A4FF0746C4832904202D1C1F87A
:102FE00008C0E4E75D4B5E4A6033984201D1CA6095
:102FF000DDE75A4C5B4B7834A04201D1CB60D6E779
:10300000DFF85881584C08F19008404501D1CC6058
:10301000CDE7DFF848814FF03D5908F1A808404559
:1030200002D1C1F80C90C2E75049DFF8408108395D
:10303000404501D10D60BAE74C4D1835A84201D189
:103040000E60B4E7494D3035A84201D10F60AEE7BC
:10305000464D4835A84202D1C1F800C0A7E7434D0C
:1030600042496035091FA84201D10A609FE73F4AE3
:103070007832904201D10B6099E73C4A90329042FD
:1030800001D10C6093E7394AA83290428FD1C1F840
:1030900000908CE730B50368354ACC6813400A6865
:1030A0002243D1E905452C432243CC6922430C6AD3
:1030B00022434C6A22438C6A22434C6B22438C6B22
:1030C00022431A430260426922F00703D1E90B242C
:1030D00022431A4342610A6942604A6882608968F1
:1030E000C16030BD0029016802D041F0010101E05A
:1030F00021F00101016070470029016802D041F010
:10310000200101E021F0200101607047174A904240
:1031100002D21248103801E014481038154A8B00CA
:1031200001EA020101D5C1607047816070470B065A
:1031300007D5436912B143F0800301E023F0800317
:103140004361802908D0002A026801F01E0101D0E5
:103150000A4300E08A4302607047000010600240AA
:103160003D000020400F002000003D201064024080
:103170003F801CF07D0F7D0F10B50121CC02204651
:10318000FFF714FE2046BDE810400021FFF70EBEF9
:1031900030B5394B1A6847F6FF618A43017D846870
:1031A000C568214344682C432143046800692143D6
:1031B00001431143196030BD3049C1F8A000704788
:1031C0002D49091F086070472B48001F006800F058
:1031D00003007047284A10B5121D01681160131DC5
:1031E0001968D0E901242243D0E9034004436FF376
:1031F0000A0122430A431A6010BD1F480C300068C0
:10320000C0B270471C4908B51031084400900068EE
:1032100008BD194A10B5203201681160121D4168BD
:103220001160131D1968D0E902242243D0E904403B
:10323000044321F0F70122430A431A6010BD0E48EF
:103240007C30006870470E490860704701460A4AA2
:103250000020303212680A4200D001207047014637
:10326000054A0020303212680A4200D0012070471F
:103270000149343108607047042C01400080254228
:103280008C85254218B50020F34B0090CA201860A9
:1032900053201860F0491839086820F0A000086031
:1032A0004FF400340868009A00F02000521C00928D
:1032B000A24201D00028F5D00868800601D501207F
:1032C00000E00020FF21196018BD08B5E249002088
:1032D000183900900868400612D44FF0FF3008609B
:1032E0008B130868009A00F04000521C00929A422A
:1032F00001D00028F5D00868400601D4002008BDA0
:10330000012008BDD4481838016821F0800101600F
:10331000704770B5D04E04460025CA203060532057
:103320003060FFF7D2FFA8B1CB481C38016821F00C
:10333000400101600168226811430160C648A1682C
:10334000143801600168A28841EA02410160FFF778
:10335000D9FF0125FF203060284670BD2DE9F041DE
:103360000C460026BD4F01002078396832464FEAEE
:10337000416104D000292FDA00F065F92DE0002921
:1033800000DBE27000F053F90504607800F04FF9BB
:1033900045EA0025A07800F04AF90543E07845EABF
:1033A0000045AD4CCA20206053202060FFF78DFF00
:1033B00068B1AB480540A94808380560FFF7A2FF8F
:1033C0003868800602D4FFF75DFF00B10126FF20B8
:1033D00020603046BDE8F081E270A078217840EAB4
:1033E00001456078E178000240EA01400543D8E7F2
:1033F000020010B59B480C460168994801EA00019B
:10340000C1F305402070C1F30623637001F07F0310
:10341000A3704FF0400303EA1141E1700AD100F0BC
:1034200012F92070607800F00EF96070A07800F05A
:103430000AF9A07010BD70B50C4600260100607836
:103440000FD000F000F9A07800F0FDF8A078E17846
:1034500040EA014560782178000240EA41300543A6
:1034600015E0C10603D520F010000A306070E07846
:1034700000F0DDF80504607800F0D9F845EA002591
:10348000A07800F0D4F80543207845EA4035724C26
:10349000CA20206053202060FFF717FF70B17248E8
:1034A00005406E48001F0560FFF72CFF6B48006861
:1034B000800602D4FFF7E6FE00B10126FF2020605F
:1034C000304670BD020010B568480C460168664879
:1034D00001EA00014FEA1140E070C1F30423637078
:1034E00001F03F03A370C1F3423121700AD100F013
:1034F000AAF8E070607800F0A6F86070A07800F09C
:10350000A2F8A07010BD544ACA2111605321116065
:1035100052490B6823F007030B600B6803430B60F1
:10352000FF20106070474C49CA220A6053220A608B
:103530004A4A0C321060FF200860704718B500211D
:10354000454B0091CA211960532119604349002855
:10355000086803D040F48060086014E020F48060C4
:1035600008603E49091D8C130868009A00F00400A9
:10357000521C0092A24201D00028F5D008684007F2
:1035800001D4002000E00120FF21196018BD324A5B
:1035900008B52C3202EB80000090016008BD2E4976
:1035A00008B52C3101EB80000090006808BD30B5F3
:1035B000294DCA222A6053222A60274B274C1C33EC
:1035C000002920F00402216800F0040004D0114317
:1035D00021601968014303E0914321601968814328
:1035E0001960FF20286030BD1B4A00211C32126880
:1035F00002F00403194A126803EAD03302401A4366
:103600001B4B1B6803EA101003D00004000C00D011
:10361000012108467047C0F30F1040F08000C143FD
:103620001348026802F080021143016070470021D4
:1036300003E0491C0A38C9B2C0B20A28F9D2090706
:1036400040EA11607047010901EB810100F00F00B1
:1036500000EB4100C0B27047242800400828004019
:103660007F7F7F00002800403FFFFF0004280040CC
:103670000C2800400349086270470249C1F8A400C1
:103680007047000000000E421CB50446134801219B
:1036900050F82400FFF762FB10480021083830F88A
:1036A0001400009001208DF804008DF806108DF8AC
:1036B000070002208DF805000948694650F82400EB
:1036C000FFF74EFA1CBD064951F820104A69034B1A
:1036D000083B33F8100042404A61704744CD00086F
:1036E000D40200202DE9FF5F1546DDE90E68109F2A
:1036F0008A465FEA000B04D0052E05D3FCF798FD3F
:10370000FEE7FCF795FDFEE7482000F06FFD0400A2
:1037100009D0A8008146AFB138462063A8B1A522E0
:10372000494608F037FC002C70D06FF00301206B85
:1037300001EB8501084420F0070778070AD0FCF761
:1037400077FDFEE700F052FDE7E7204600F0A3FD1D
:103750000024E8E751463546002022180B5C82F829
:1037600034300A5C12B1401C1028F6D3002184F8D2
:103770004310052D00D30425E562201D656400F08B
:10378000B8FD04F1180000F0B4FD2461C5F1050195
:103790006462A16159463846039A00F061FF2060D7
:1037A000B8F1000F01D0C8F8004000F0CEFFFD4F87
:1037B0007868401C78603868DFF8EC8310B13869AD
:1037C00028B329E03C607868012825D1002505EB65
:1037D000850108EB810000F081FD6D1C052DF6D3FD
:1037E000F148643000F07AFDEF48783000F076FD63
:1037F000ED488C3000F072FDEB48A03000F06EFD1B
:10380000E9486430F8621430386305E022E0386833
:10381000C06AB04200D83C60786A401C7862E06AB6
:10382000F968884200D9F86000EB800108EB81005C
:10383000211D00F061FD012400F093FF386928B1DB
:103840003868C06AB04201D200F075FF04B020466B
:10385000BDE8F09F4FF0FF34F8E72DE9F047D14E77
:103860000027706928B1B069401CB0613846BDE8D6
:10387000F087B068401CB060B5684FF0FF39A5B95B
:10388000F06A006810B1FCF7D3FCFEE7F06A316B18
:10389000F1623063306A401C3062F06A0068E8B15F
:1038A000F06AC068C0684068B062B06ADFF8F88249
:1038B000854209D3F06A006890B1F06AC068C468B4
:1038C000606885420ED2B0623068C06A00EB800149
:1038D00058F821000128C9D90127C7E74846E3E77E
:1038E0004846F0E7201D00F02BFDA06A18B104F156
:1038F000180000F025FDE06AF168884200D9F06008
:1039000000EB800108EB8100211D00F0F5FCE06A6E
:103910003168C96A8842CDD30127CBE72DE9F0474A
:10392000A04E00273D46706938B100F00EFF706967
:10393000401E7061706918B140E0FCF779FCFEE749
:10394000706899498C31C8B3DFF85C928846D8F822
:103950000010E1B1D8F80C00C46804F1180000F0C0
:10396000EFFC201D00F0ECFCE06AF168884200D911
:10397000F06000EB800109EB8100211D00F0BCFC30
:10398000E06A3168C96A8842E1D30125DFE7B0699E
:1039900038B909E0FFF761FF00B10125B069401EA9
:1039A000B061B0690028F5D1012D02D0F06901287D
:1039B00004D100200127F06100F0BDFE00F0D1FE2F
:1039C000384654E770B5774D044628684460A868C7
:1039D0002968844205D2286BBDE87040091D00F0BB
:1039E00097BCE86A091D00F093FCA86A844200D2E3
:1039F000AC6270BD6B484169491C4161704710B5AC
:103A000002000FD0FFF7F6FF6648816800688C1847
:103A1000001D00F095FC2046FFF7D4FFFFF77EFF66
:103A2000002803D1BDE8104000F085BE10BD5D49FF
:103A300010B548695C4A30B10120C86110BDD0B1F1
:103A4000C868401EC860C86800EB800052F82000BB
:103A50000028C868F3D000EB800002EB800000F182
:103A600008034268526842609A4201D1526842603B
:103A7000D068086010BDFCF7DBFBFEE74948016831
:103A8000C96A09B100207047474909680129F9D876
:103A9000816A8068081A7047434D424C28680128A3
:103AA00001D900F048FEFFF7E9FF0228F6D3FFF73F
:103AB000A1FFA06AA168884202D2FCF7B9FBFEE729
:103AC000FFF7DCFF022801D300F063FEFFF726FFBB
:103AD000E4E71FB500240094019402942346802259
:103AE00032A134480394FFF7FDFD012803D100F013
:103AF000B2FC012804D000280CD1FCF799FBFEE7AA
:103B0000FCF796FB2748012101618460BDE81F4056
:103B100000F0D4BD1FBD10B500F017FE2148846829
:103B200000F01FFE204610BD1E4910B58A688B6A42
:103B300002449A4202D9FCF77BFBFEE78A681044F4
:103B4000886010BD70B50D4678B1164C21681831EB
:103B500000F0DEFB2068001D00F0F2FB681C07D0BF
:103B6000A0682844BDE870402CE7FCF761FBFEE745
:103B700021680D48BDE87040A030091D00F0BCBBB5
:103B800070B50D46C0B1074C2168183100F0B4FB88
:103B90002068001D00F0D4FBA0682844BDE87040F8
:103BA00010E70000E40200202807002049444C45AB
:103BB00000000000993A0008FCF73AFBFEE770B5F8
:103BC000C068C46854B104F11800064600F0B8FBA0
:103BD000614D686928B13146604811E0FCF728FB67
:103BE000FEE7201D00F0ACFBE06AE968884200D9DE
:103BF000E8605A4900EB80008C3901EB8000211D00
:103C000000F07AFBE06A2968C96A884201D3012082
:103C100070BD002070BD10B528B14F490A6A02601E
:103C20008968416010BDFCF703FBFEE770B50D46E7
:103C3000040019D0DDB100F088FD474A906829687A
:103C40004B1C0FD02368126A934202D062688242F2
:103C500010D96268801A88420CD2081A286020465F
:103C6000FFF7D9FF002406E0FCF7E2FAFEE7FCF7D5
:103C7000DFFAFEE7012400F074FD204670BD3649EE
:103C80000120C861704735490120096809B1002049
:103C900070473149C9690029F9D170472E48006839
:103CA00070472D48016919B1406918B10220704769
:103CB000002070470120704770B504002AD0264DBF
:103CC000E06A2968C96A884224D22868234EC06AFB
:103CD0008C3EC0F10500A061E06A616900EB8000E4
:103CE00006EB8000814212D1201D00F029FB2868DC
:103CF000C06AE062E968884200D9E86000EB8000B1
:103D000006EB8000211DBDE8704000F0F5BA286880
:103D1000C06AE06270BD10B504001CD0616CE06A3E
:103D2000884218D0201D00F00BFB606CE062C0F1EF
:103D300005000949A061E06ACA68904200D9C860DC
:103D4000064900EB80008C3901EB8000211DBDE8A5
:103D5000104000F0D1BA10BDE4020020B4070020EA
:103D600070B50D46040023D000F0EFFCD4E90F201D
:103D7000216802FB001161600021A1632168A1603C
:103D80000A46D4E90F01401E00FB01214FF0FF302D
:103D9000E1606064A06404F1100065B100F09EFA77
:103DA00004F1240000F09AFA00F0DBFC012070BD61
:103DB000FCF73EFAFEE721690029F5D0FFF7FFFE88
:103DC0000128F1D100F0B7FCEEE770B50E46050012
:103DD00016D04C2000F00AFA040011D005FB06F0C2
:103DE000401C00F003FA206038B1C4E90F560121ED
:103DF0002046FFF7B5FF204670BD204600F04BFA85
:103E0000FCF716FAFEE770B5044600F09EFC04F1DC
:103E100024050AE0606A58B12846FFF7D0FE08B1D1
:103E2000FFF72DFFA06C401EA064A06C0028F1DC01
:103E30004FF0FF35A56400F094FC00F086FC04F11F
:103E400010060AE0206958B13046FFF7B8FE08B105
:103E5000FFF715FF606C401E6064606C0028F1DCA9
:103E60006564BDE8704000F07CBC70B51546026C1E
:103E7000044682B1BDB1E06808F07AF8E168206CD0
:103E8000091AE1602268914202D26168081AE06072
:103E9000022D15D019E02068B8B96068FFF73BFF24
:103EA0000020606011E0A06808F062F8216CA06852
:103EB0000844A0606168884207D32068A06004E0DD
:103EC000A06B10B1A06B401EA063A06B401CA06350
:103ED00070BD2DE9FF4383B01F46894604004FF0B3
:103EE000000603D0B9F1000F03D007E0FCF7A0F9FA
:103EF000FEE7206C10B1FCF79BF9FEE74FF00008DD
:103F0000022F05D1E06B012802D0FCF791F9FEE702
:103F100000F01BFCA06BE16B884205D3022F03D09D
:103F20000598B0B1C6B11BE03A4649462046FFF7B6
:103F30009CFF606A38B104F12400FFF740FE0128BD
:103F400001D100F0F8FB00F00CFC012007B0BDE847
:103F5000F08300F006FC1FE06846FFF75CFE0126D8
:103F600000F0FFFBFFF746FD00F0EFFB606C401C2C
:103F700001D1C4F84480A06C401C01D1C4F8488031
:103F800000F0EFFB05A96846FFF750FE30B1204670
:103F9000FFF739FFFFF7C2FC0020D7E700F0D5FBA1
:103FA000A06BE16B884201D1012500E0002500F003
:103FB000D8FB75B104F110000599FFF7C3FD204649
:103FC000FFF721FFFFF7AAFC0028A1D100F0B3FB07
:103FD0009EE72046FFF717FFFFF7A0FC98E730B4F5
:103FE00004680D46002C0CD0026CC1688B18C360AD
:103FF00041688B4200D3C460C168284630BC07F0DA
:10400000B7BF30BC70472DE9FF4383B0994688465F
:1040100004004FF0000604D00027B8F1000F03D0D1
:1040200007E0FCF705F9FEE7206C10B1FCF700F99A
:10403000FEE700F08AFBA06B38B341462046E568F6
:10404000FFF7CDFFB9F1000F0DD0E560606A30B128
:1040500004F12400FFF7B3FD08B100F06CFB00F0A1
:1040600080FB012072E7A06B401EA063206810B99E
:10407000FFF714FE606020690028F0D004F1100002
:10408000FFF79DFD0128E8D0E9E7059808B11EB1CA
:1040900006E000F066FB1DE06846FFF7BCFD012668
:1040A00000F05FFBFFF7A6FC00F04FFB606C401CCC
:1040B00000D16764A06C401C00D1A76400F051FBE4
:1040C00005A96846FFF7B2FD30B12046FFF79BFE19
:1040D000FFF724FC002039E700F037FBA06B30B17C
:1040E000002500F03EFBD5B1206810B108E00125A5
:1040F000F7E700F02AFB6068FFF7DEFD00F031FB18
:1041000004F124000599FFF71DFD2046FFF77BFE13
:10411000FFF704FC00288CD100F00DFB89E7204656
:10412000FFF771FEFFF7FAFB83E72DE9F0411D462B
:1041300016460F46040001D01FB107E0FCF778F8DF
:10414000FEE7206C10B1FCF773F8FEE7022D05D1F5
:10415000E06B012802D0FCF76BF8FEE700F06CFB87
:10416000FCF766F88046A06BE16B884208D3022D0D
:1041700006D000244046FCF762F82046BDE8F081F6
:104180002A4639462046FFF770FEA06C401C04D03A
:10419000A06C401CA0640124ECE7606A0028FAD0FF
:1041A00004F12400FFF70BFD0028F4D0002EF2D01C
:1041B00001203060EFE770B50D46044600F0C5FA07
:1041C000616C0020491C00D16064A16C491C00D1C5
:1041D000A06400F0C6FAA06B20B9294604F12400BF
:1041E000FFF7CEFC2046BDE870400CE62DE9F0411B
:1041F00004460025FFF7FEFB354E06F10801706806
:1042000001F1080360B93348002720F00700C1E935
:104210000007314AC3E90072C0E900320120706032
:104220003CB10834600704D004F00700C0F1080076
:104230000444294A601E521E904227D2244A09682B
:10424000083201E00A4601464868A04202D20868E6
:104250000028F7D1994219D015680868106048689D
:104260000835001B10280DD90B19586018484C60F0
:1042700008305C6800E0104602685768A742FAD32D
:104280001A60036048683168081A3060FFF746FB1F
:104290002846BDE8F08110B5002817D0A0F1080429
:1042A000FFF7A8FB0A496068083100E011460A6878
:1042B00053688342FAD3226005480C606168026843
:1042C00011440160BDE81040FFF728BB10BD00009D
:1042D00018030020E4070020F82B010000F108017A
:1042E0004FF0FF32C0E90112C1600161002101609D
:1042F000704700210161704742684A6093688B6093
:1043000093685960916008610168491C01607047B9
:1043100030B50C68621C02D000F1080202E00269AC
:1043200004E01A4653681D68A542FAD953684B60E9
:1043300099608A60516008610168491C016030BD64
:10434000D0E901128A60D0E90112516001694A681E
:10435000824201D182684A60002202610868401EE0
:104360000860704770B500244160B84D006191420B
:1043700006D8D11A8269914206D2011D286907E048
:104380009A4203D2994201D3012403E0011DE86857
:10439000FFF7BEFF204670BDFEB5AC4D1F4603467D
:1043A0002C680020089E002C08D08DE80E0037B144
:1043B00000233A4669462046FFF7B7FEFEBDFFF7E9
:1043C00070FC01284FF0000305D0002269462868E0
:1043D000FFF77FFDFEBD3246F8E770B50546FFF7F3
:1043E0009AFB9A4E0446B068844203D200F06FF8FC
:1043F000012000E0002028602046B46070BD934C8E
:10440000E068016839B1002139B1002000F0DAF824
:1044100000F08BF8F4E70121F6E7C0680068F5E7E3
:1044200010B500F092F9894C206880B98848FFF7F0
:1044300055FF87481430FFF751FF8548E06014307E
:10444000206100220C210A20FFF7BFFC2060BDE89C
:10445000104000F086B91FB5FFF7E2FF7B48006807
:1044600078B17A49022200200092091DCDE901109D
:1044700003460390D20177A17848FFF733F900286B
:1044800002D1FBF7D5FEFEE704B010BD2DE9F047E1
:104490001E46DDF8209017460D00804612D02820D9
:1044A000FFF7A4FE04000AD0FFF7BAFFC4F80080AB
:1044B000C4E90657C4E90869201DFFF71AFF204622
:1044C000BDE8F087FBF7B4FEFEE7006A7047F8B579
:1044D0005E4E1FE0C068C4680568201DFFF730FF0E
:1044E000616A20468847E069012813D1A069284401
:1044F000A84206D924616060211DF068FFF708FF1B
:1045000008E000200346014600902A462046FFF7B7
:1045100043FF38B1F06801680029DBD13169C6E991
:104520000310F8BDFBF784FEFEE730B585B0474DBC
:104530003EE0039C606910B1201DFFF701FF04A855
:10454000FFF74BFF0246019830B1012830D0022816
:104550001FD003282CD128E00298A169034601440A
:104560002046FFF7FFFE012822D1616A20468847D6
:10457000E06901281CD1002000900298A169002365
:10458000421819462046FFF707FF88B9FBF750FE8F
:10459000FEE70298A06128B1811813462046FFF774
:1045A000E1FE05E0FBF744FEFEE72046FFF773FE61
:1045B00000231A4601A92868FFF725FD0028B8D175
:1045C00005B030BD2DE9FC410F460546FFF712FA54
:1045D00001A8FFF702FF0446019818B1FFF79EF902
:1045E000BDE8FC81194E37BBA54224D8FFF796F9E8
:1045F000F0682746C068C468201DFFF7A1FEE06987
:10460000012811D1A0692B4641193A462046FFF7EF
:10461000A9FE012808D100200346014600902A4641
:104620002046FFF7B9FE18B1616A20468847D7E7F0
:10463000FBF7FEFDFEE7291B3068FFF7BCFDFFF727
:104640006DF90028CCD100F076F8C9E730030020DE
:10465000DC330120546D722053766300FF43000861
:1046600010B5031F4FF080741C601B1F1960191FC9
:1046700000230B6014390A60091FDA1E44380A60EF
:1046800010BD10B57A484FF47A737A4A00686FF01B
:104690007F44B0FBF3F19160B4FBF1F1D160B0FB6A
:1046A000F0F12D24B4FBF1F11161B0FBF3F14FF007
:1046B000E020491E41610721016110BD1CB56E4912
:1046C00008780190FF20087008788DF800009DF8A8
:1046D0000000684C00F0500020700720606107E087
:1046E0006069401E60619DF8000040008DF8000088
:1046F0009DF800000006F3D4207D000200F4E06085
:104700006061019808705D48016841F470010160C2
:10471000016841F070410160FFF7B3FF0020606065
:10472000FBF754FD5648016841F040410160FBF73A
:1047300043FD00201CBD51494FF080501C390860DA
:10474000BFF34F8FBFF36F8F704710B5FBF770FD4E
:1047500048484168491C4160BFF34F8FBFF36F8FDA
:1047600010BD44494868401E486001D1FBF767BD51
:10477000704710B5FBF75CFDFFF76FF820B13F49BC
:104780004FF080501C390860BDE810400020FBF756
:1047900056BD2DE9F047374E0446F068844200D9F3
:1047A00004464FF0E0274FF00609C7F81090B969AA
:1047B000B268601E02FB00153069854200D92D1ACF
:1047C00072B6FFF760FA4FF00708C0B17D610022B2
:1047D000BA61C7F8108024B1BFF34F8F30BFBFF369
:1047E0006F8FC7F8109062B63869C0030CD5B869EE
:1047F000B168281A081A401E7861641E0EE0C7F8D6
:10480000108062B6BDE8F087B068B9694443611AA8
:10481000B1FBF0F4631C4343581A7861BA61FFF7A7
:1048200094FFC7F810802046FFF77EF9B068401E5D
:104830007861BDE8F04794E710B5FBF703FD0D493B
:10484000102809D300F1E02090F8F0030A78904294
:1048500002D2FBF7EDFCFEE708481438006849690E
:1048600000F4E060884202D9FBF7E2FCFEE710BDED
:10487000A00200204403002000E400E020ED00E05E
:1048800034EF00E00648804706480047FEE7FEE7B1
:10489000FEE7FEE7FEE7FEE7FEE7FEE7FEE7FEE7F0
:1048A000FB2A00088901000870B59A4C02074FF0F6
:1048B000800101D5218300E0618342074FF0400170
:1048C00001D5218300E0618382074FF0200101D5EB
:1048D000218300E06183C1074FF0100001D02083E5
:1048E00000E060834FF4806525830120FFF787F89F
:1048F0006583BDE870400120FFF781B810B5012045
:1049000000F0A9F8BDE810401420FFF778B88249FC
:10491000087840F00400087040F0080000F09BB8F0
:1049200070B50D46064600F0A4F81420FFF767F8AE
:10493000794C0020012DE57026716071A0716070C6
:1049400001D9082060700320FFF7AEFF1420FFF7A5
:1049500056F80320FFF7A8FF1420FFF750F80320B4
:10496000FFF7A2FF1420FFF74AF80220FFF79CFF91
:104970000220FFF744F8607840F0200000F06BF868
:1049800004202070FFF7C3FFFFF7B8FF0220A070DC
:10499000062000F060F8BDE870401420FFF72FB843
:1049A00008B55EA2126800925B4AD3788B4200D8A9
:1049B0000021507191711DF801100844C0B240F0FF
:1049C000800000F048F808BD70B51446FFF7E8FF16
:1049D000514D16E068792979884207D30020687123
:1049E000A979491CC9B2A971FFF7DAFF20780A2812
:1049F0000BD00D280FD000F07EF86879401C68714C
:104A0000641C20780028E5D170BDA879401CC1B293
:104A1000A971687901E0A9790020FFF7C1FFEFE7EC
:104A20003D49087840F00200087040F0080000F0AE
:104A300012B870B50D4600F00700402141EAC000F1
:104A400000F009F80024285D00F055F8641CE4B279
:104A5000082CF8D370BD10B52E4904464FF4807071
:104A600048832009FFF720FF04F00F00BDE8104045
:104A70001AE72DE9FC4100240122264D160200947C
:104A8000234631462846019400F09AF80122970205
:104A90000094002339462846019400F091F80094D0
:104AA0000023012210212846019400F089F8009487
:104AB0000023012220212846019400F081F800946F
:104AC0000023012240212846019400F079F8009447
:104AD0000023012280212846019400F071F86E83A2
:104AE0006F831020688320206883402068838020A3
:104AF0006883BDE8FC8110B5064904464FF4807018
:104B000008832009FFF7D0FE04F00F00BDE8104035
:104B1000CAE60000001002405C0300200040105074
:104B200067490844C0F38F2070472DE9F04F9A463B
:104B3000DDE909B889460346FFF7F2FFC5B2002058
:104B40004FF0030E0121814011EA090F28D05D4E7C
:104B500036F815400C4326F81540DF6844000EFA7D
:104B600004F6B7430BFA04FC47EA0C07DF601F6842
:104B700002FA04FCB74347EA0C071F60012A01D080
:104B8000022A0DD15F6889B28F430AFA00F189B217
:104B90000F435F60996808FA04F4B14321439960B8
:104BA000401CC0B21028CDD3BDE8F08F00B5FFF790
:104BB000B7FF01218140444802681143016000BDF4
:104BC000FCB51646DDE907C50C00074608D0FFF71F
:104BD000EDFFCDE900C5324621463846FFF7A5FF77
:104BE000FCBD2DE9FC4F9946DDE90BB792460D005F
:104BF000064622D0FFF7DAFF002201214FF00F0C0A
:104C000001FA02F028420DD0D00806EB8003186AA2
:104C10005407E40E0CFA04F820EA080007FA04F43A
:104C200020431862521C102AEAD3CDE9009B534658
:104C3000022229463046FFF778FFBDE8FC8FF0B529
:104C40000E460546FFF76CFF00221E49C4B24FF026
:104C5000010C03270CFA02F333420CD028684FEA08
:104C6000420E07FA0EFE40EA0E00286031F81400EA
:104C7000984321F81400521CD2B2102AEAD3F0BD96
:104C8000F0B500230127032507FA03F40C4209D0ED
:104C9000C6685C0005FA04FC26EA0C0602FA04F475
:104CA0002643C6605B1CDBB2102BEDD3F0BD0021A8
:104CB00002E0491C89B240080128FAD8084670472A
:104CC0000000FEBF0434012030380240FE4A014695
:104CD000904200D10020FD4A914200D10120FC4ABF
:104CE000914200D10220FB4A914200D10420FA4AAD
:104CF000914200D10520F94A914200D10620704727
:104D000070471CB50822032140B101280DD00328AB
:104D100003D10821F148FFF7F3FF1CBDCDE90012D4
:104D200001230022C021EE4806E0CDE90012012354
:104D300000224FF48441EB48FFF753FF1CBD7CB5C4
:104D400030B1032803D10821E348FFF7D9FF7CBD28
:104D500008250324012300221903E148CDE9004579
:104D6000FFF73FFF012300220421DF48CDE9004582
:104D7000FFF737FF7CBD1CB50822032140B1012895
:104D80000DD0032803D10821D248FFF7B9FF1CBD7D
:104D9000CDE90012012300220321D44806E0CDE929
:104DA0000012012300224FF44061CD48FFF719FFA4
:104DB0001CBD1CB507220323990250B101280ED057
:104DC000022812D0032803D10721C148FFF798FF1A
:104DD0001CBDCDE9003201230022C5480CE0CDE91D
:104DE000003201230022BE4806E0CDE90032012353
:104DF00000224FF44071BC48FFF7F3FE1CBD1CB508
:104E00000722032140B101280DD0032803D1072137
:104E1000AE48FFF775FF1CBDCDE90012012300224B
:104E20000C21B24805E0CDE90012012300226021E7
:104E3000AD48FFF7D6FE1CBD1CB50722032140B1CB
:104E400001280ED0032803D107219F48FFF758FF00
:104E50001CBDCDE90012012300224FF4C061A3481C
:104E600005E0CDE9001201230022C021A048FFF790
:104E7000B8FE1CBD944A0146904200D19D48934A19
:104E8000914201D19B481030914A914201D19948F9
:104E90002030904A914201D1964830308E4A91425A
:104EA00001D1944840308D4A914201D1914850300F
:104EB00070472DE9FF4F87B09A46DDE914B91346D4
:104EC0000446DDF85C80FFF7D5FF05467E488A4F33
:104ED0000193844209D1386840F010003860089886
:104EE000FFF7AAFF25208DF80000834E7748361F74
:104EF000844209D1306840F4003030600898FFF7F0
:104F00007EFF26208DF800007148844209D1306868
:104F100040F4802030600898FFF74BFF27208DF881
:104F200000006C48844209D1306840F400203060B1
:104F30000898FFF720FF34208DF80000664884426F
:104F400009D1306840F4801030600898FFF7F7FE10
:104F500035208DF800006148844209D1386840F05E
:104F6000200038600898FFF7CCFE47208DF800003D
:104F70002046FDF76FFF01268DF8036006208DF8AF
:104F800001002046FFF7A2FE8DF802006846FDF7FB
:104F900026FF1698ADF80A00ADF80EB0ADF810A0D7
:104FA000ADF80C90ADF808800020287340F6FF7033
:104FB0000590411E059101D30846FAE701A9204654
:104FC000FDF781FFA08940F02000A0812E73A08909
:104FD00040F40050A0810BB0BDE8F08F2DE9FF41F7
:104FE0000446394800250C2617468846844206D1D7
:104FF000CDE90065029500230395FFF75AFF33487A
:10500000844208D1CDE90065029500233A46414625
:105010000395FFF74EFF2E48844208D1CDE9006585
:10502000029500233A4641460395FFF742FF29487F
:10503000844208D1CDE90065029500233A464146F5
:105040000395FFF736FF2448844208D1CDE9006577
:10505000029500233A4641460395FFF72AFF1F4871
:10506000844208D1CDE90065029500233A464146C5
:105070000395FFF71EFFBDE8FF8110B50C46034600
:10508000FFF7F8FE007B00280BD007E0198809061F
:10509000FCD59880641C18880006FCD52078002870
:1050A000F4D110BDC3888288934228D203899342E9
:1050B00001D10022028103890268D1540189491C6F
:1050C0000181C188491C19E00010014000440040E2
:1050D00000480040004C00400050004000140140D7
:1050E0000008024000180240000C0240000002408C
:1050F000000402406403002044380240C18070472D
:1051000021480188890603D58088C1B21F48C9E7B4
:1051100070471F480088800606D51D48001D00887E
:10512000C1B21A481030BDE770471A4810B5008860
:10513000800605D51748001D0088C0B2FDF7B0F8FD
:1051400010BD15480088800606D51348001D00884C
:10515000C1B20E483030A5E7704710480188890673
:1051600004D58088C1B2094840309BE770470C489D
:1051700010B50088800605D50948001D0088C0B21A
:10518000FDF7ADF810BD00000010014064030020E1
:105190000044004000480040004C004000500040E7
:1051A000001401402DE9F0471C4615460E460746FF
:1051B0004FF0000900F03CF98C494FF0010847B16D
:1051C00000200B183A5C401CC0B21A710628F8D3B4
:1051D0000BE0062008710520487104208871032027
:1051E000C8710220087281F80980C0234FF0A80C12
:1051F00000223EB10020375C0F54401CC0B204288E
:10520000F9D305E00B7081F801C08A707820C8706E
:1052100045B100200E182B5C401CC0B2B3730428AB
:10522000F8D306E08B7381F80FC081F8108081F805
:10523000118044B100200D18235C401CC0B2AB7239
:105240000428F8D304E0FF208872C87208734A73F8
:10525000CA7481F8148081F8482081F84C2081F8C4
:105260004D200020C1E90A00C1E90800C1E9100091
:105270000A63C1E90E00A1F84A2081F84E2001F02E
:105280004BF908B94FF0010900F02AFD584880F8A1
:1052900000804846BDE8F08710B500F06AFD08B10F
:1052A00000F069FD5248406800F068FD002010BD24
:1052B0007047FEB54E4CDDE909762478DDF820C054
:1052C00024B14A4C94F84E508DB901E00520FEBD42
:1052D000257D75B1E47C74B1CDE900C7029605F077
:1052E00027FD40B210F10B0F07D00028EFD00120AE
:1052F000FEBD0320FEBD0220FEBDFDF7E9F904203E
:10530000FEBD002070477047704708B5384B00223B
:105310005A7059B1096849B10A0E0092C1F30743A6
:10532000C1F30722C9B2FFF7EFFF08BDFFF7EBFF9C
:1053300008BD70477047704770B50D4604462DA1F3
:10534000284606F06BFE2A4623462FA1104607F09A
:1053500069FA31A1284606F02FFE34A1284606F04E
:105360002BFE284606F046FE80B270BD704770479F
:1053700070477047704701207047704700207047A2
:105380004FF0FF3070477047002070470020704793
:10539000704770470020704710B5FFF7FAFF10BD47
:1053A000F8B5124C069D0DB10026A67420706170F0
:1053B000A270E3700126E67426750095FDF76DF87E
:1053C000F8BD0A4810B5012101750021C17405F02E
:1053D000A3FBFDF77CF910BD044910B5002008754A
:1053E00005F09BFBFDF772F910BD0000E0340120D1
:1053F000C4030020474554202F20485454502F31D7
:105400002E310D0A000000002573486F73743A2096
:1054100025730D0A00000000436F6E6E65637469AA
:105420006F6E3A20636C6F73650D0A000D0A000001
:105430000E4801684FF47A70B1FBF0F0401EB0F1F5
:10544000807F12D24FF0E0225061094BF02083F8A8
:10545000140D00209061072010610648B1FBF0F1A7
:1054600005484160012101707047FEE7A00200205D
:105470000FE000E0C0C62D00CC0300202DE9FE4F58
:10548000164683460C004FF0010A02D0601E01420E
:1054900012D00025574607FA05F0204205D081B208
:1054A00032465846FFF7EAFFB8BB6D1CEDB2102D2F
:1054B000F1D30020BDE8FE8FDFF89082D8F800001D
:1054C000204234D108F10409D9F8000020422ED13D
:1054D000B4F5807F37D012DC102C32D008DC012CE0
:1054E00027D0022C27D0042C27D0082C1FD126E04F
:1054F000202C28D0402C26D0802C18D123E0B4F5C5
:10550000805F22D00ADCB4F5007F1CD0B4F5806F38
:105510001BD0B4F5006F0AD117E008E0B4F5005FC6
:1055200013D0B4F5804F10D0B4F5004F0DD001204A
:10553000C0E706250AE0072508E0082506E009255A
:1055400004E00A2502E0172500E02825012E51D0AD
:10555000F6B300200021CDE900010B460A462146A2
:105560005846FFF72DFB2046FFF7A1FBC7B2584670
:10557000FFF7D6FAC2B27648016841F48041016073
:10558000744827F003010844D0F80838B907090F18
:105590004FF00F0C0CFA01FC23EA0C03C0F808389A
:1055A000D0F808388A401343C0F80838D8F80010FB
:1055B000A143C8F80010D9F80020A243C9F8002080
:1055C000D8F800102143C8F8001060480C3000E003
:1055D00012E00168A1430160011F0A68A2430A604A
:1055E000012E0BD016B102682243026008682043E6
:1055F000086006E00120ADE70220ABE70168214327
:1056000001608DF808500A208DF809008DF80A70A5
:105610008DF80BA002A8FDF7E2FB4AE74B4810B556
:1056200014300168C90704D0012101600846FDF764
:1056300065F810BD454810B514300168890704D5D8
:10564000022101600846FDF759F810BD3F4810B52A
:1056500014300168490704D5042101600846FDF7AC
:105660004DF810BD394810B514300168090704D54C
:10567000082101600846FDF741F810BD334810B518
:1056800014300168C90604D5102101600846FDF7F1
:1056900035F810BD10B52D4C14342068800603D5A4
:1056A00020202060FDF72AF82068400603D540201E
:1056B0002060FDF723F82068000603D580202060D5
:1056C000FDF71CF82068C00504D54FF480702060F9
:1056D000FDF714F82068800504D54FF400702060B1
:1056E000FDF70CF810BD10B5184C143420684005B7
:1056F00003D520152060FDF701F82068000504D5CA
:105700004FF400602060FCF7F9FF2068C00404D566
:105710004FF480502060FCF7F1FF2068800404D52E
:105720004FF400502060FCF7E9FF2068400404D5E6
:105730004FF480402060FCF7E1FF2068000404D5AE
:105740004FF400402060FCF7D9FF10BD003C014041
:105750004438024000300140012070472DE9F34FEA
:1057600081B090F80690DDF808C090F800A00679A6
:105770004579447A037AC279BCF1010F23D0DC4623
:1057800062F31F616AF3070C63F3070765F30F21E8
:10579000E34664F30F2766F30701CC46C7F3072AF5
:1057A0006CF31741BAF1630F7ED8FFB25FEA070EC0
:1057B0007AD0BEF10C0F77D80F0E00977ED05FEA3B
:1057C0008A7747D04FE04FEA121C02F00F080CEB2B
:1057D0008C0C08EB4C0C6CF31F614FEA131C03F0AC
:1057E0000F080CEB8C0C08EB4C0C6CF307074FEA22
:1057F000141C04F00F080CEB8C0C08EB4C0C6CF335
:105800000F274FEA151C05F00F080CEB8C0C08EB6A
:105810004C0C6CF30F214FEA161C06F00F080CEB32
:105820008C0C08EB4C0C6CF307014FEA1A1C0AF0C5
:105830000F080CEB8C0C08EB4C08DC4668F3070CEB
:10584000E3464FEA191C09F00F080CEB8C0C08EB2F
:105850004C0CA3E70AF5FA674FF0640CB7FBFCF8B1
:105860000CFB18776FBB0AF5FA674FF4C87CB7FBDF
:10587000FCF80CFB187727B3002707EB47074FF01E
:10588000FF3CDFF808840CEB870C0EEB080717F8D9
:105890000CC0009FBC4511D3C1F30727172F0DD8AB
:1058A000CFB23B2F0AD800E008E00BF0FF073B2FF8
:1058B00004D8C1F3074109B1072904D90120BDE883
:1058C000FE8F0127D9E7F14914390D704E70007829
:1058D0008870081D002182704370C47080F80090A9
:1058E000EB4801601F21416040F2FF318160FDF70C
:1058F00010FD0298E5490128A1F1140112D0002001
:10590000FDF72CFDE14900201039FDF794FDDF483B
:105910001838006820B144F221311320FDF737FE1A
:105920000020CCE70120FDF719FDD84910390120EE
:10593000EBE710B510B101280BD016E00120FDF700
:10594000AEF96120FDF788F90028FAD04FF4007015
:1059500009E00120FDF797F94120FDF77DF90028C6
:10596000FAD04FF48070FDF7E0F90120FDF7F2F96D
:10597000FDF788FCBDE8104041F234211320FDF70B
:1059800006BEF0B5427A002340F2B27102F5FA6227
:105990008A4201D20020F0BD6425AE004FF4B777F3
:1059A00040F26D1C0FE08C0704D1B1FBF5F405FB50
:1059B00014147CB9B1FBF6F406FB141454B164461C
:1059C000491C234489B29142EDD30121DFF8BCC2C6
:1059D000077A18E03C46F3E7940704D1B2FBF5F4EC
:1059E00005FB14242CBBB2FBF6F406FB142404B311
:1059F000002404EB44040CEB84040C44491C14F80C
:105A0000014C89B223448F42E6D8C1795B1ECA1883
:105A1000A0494A434179C1EB4113C3EB012102EB99
:105A2000011201790078C1EB011102EB81010844F8
:105A3000F0BD0124DDE770B50D0094490446A1F1E5
:105A4000140122D00120FDF7D3FC904814380178CE
:105A5000617141782171807820708F4800688B498E
:105A6000608010399DB10120FDF72CFD874810386A
:105A7000C1786172417821728178E1710078A071FA
:105A80002046FFF77EFFE06070BD0020DBE70020CE
:105A9000EAE72DE9FF47074601210807FDF768F906
:105AA0000120FDF7E7FD1320FDF779FD774D44F266
:105AB0002131DFF8E881183D4FF480494FF480042C
:105AC000884210D1296013E0FDF7DCFB4846FDF762
:105AD000A2FDC8F8004000216846FFF7ACFF286827
