:020000040800F2
:10000000283B0120B5420008AD0E0008AF0E0008E5
:10001000B10E0008B30E0008B50E00080000000085
:100020000000000000000000000000009D02000829
:10003000B70E000800000000E1020008A14100081E
:10004000CF420008CF420008CF4200080B5D0008F5
:10005000CF420008CF420008C7510008DF51000816
:10006000F75100080F52000827520008CF4200083D
:10007000CF420008CF420008CF420008CF4200081C
:10008000CF420008CF420008CF420008CF4200080C
:10009000CF420008CF420008CF4200083F5200087C
:1000A000CF420008CF420008CF420008CF420008EC
:1000B000CF420008CF420008CF420008CF420008DC
:1000C000CF420008CF420008CF420008CF420008CC
:1000D000CF4200086F4E0008814E0008994E00087C
:1000E000915200082D5D0008CF420008CF42000861
:1000F000CF420008CF420008CF420008CF4200089C
:10010000CF420008A39A0008CF420008CF4200085F
:10011000B14E0008C94E0008CF420008CF42000887
:10012000CF420008CF420008CF420008C39A00081F
:10013000CF420008CF420008CF420008CF4200085B
:10014000CF420008CF420008CF420008CF4200084B
:10015000CF420008CF420008CF420008DD4E000821
:10016000CF420008CF420008CF420008CF4200082B
:10017000CF420008CF420008CF420008CF4200081B
:10018000CF420008CF42000800F002F800F077F8F4
:100190000AA090E8000C82448344AAF10107DA45E2
:1001A00001D100F06CF8AFF2090EBAE80F0013F0BD
:1001B000010F18BFFB1A43F00103184778BA00007B
:1001C00098BA00000A444FF0000C10F8013B13F0FD
:1001D000070408BF10F8014B1D1108BF10F8015BA0
:1001E000641E05D010F8016B641E01F8016BF9D193
:1001F00013F0080F1EBF10F8014BAD1C0C1B09D1EA
:100200006D1E58BF01F801CBFAD505E014F8016B5B
:1002100001F8016B6D1EF9D59142D6D370470000ED
:100220000023002400250026103A28BF78C1FBD8FF
:10023000520728BF30C148BF0B60704764290AF0DD
:10024000938175290AF0908178290AF0C981732970
:100250000AF09785002070471FB50BF0AFF99DE8B5
:1002600003000AF0CFFC0AF0EDFF0400002000219B
:100270000BF050F8401C60601FBD10B510BD0AF0B7
:10028000BBFF1146FFF7E8FF00F0EEFB0AF0DEFFD0
:1002900003B4FFF7F2FF03BC0BF00EF8234B196811
:1002A0000868B0E8F04F80F309884FF0000080F351
:1002B000118870470000000003480068006880F360
:1002C000088862B600DF00BF08ED00E0DFF80C0030
:1002D000016841F470010160704700BF88ED00E0E3
:1002E000EFF30980114B1A681EF0100F08BF20EDC4
:1002F000108A20E9F04F106008B54FF0500080F3ED
:10030000118802F0AEFE4FF0000080F31188BDE8C6
:10031000084019680868B0E8F04F1EF0100F08BFD9
:10032000B0EC108A80F30988704700BFCC00002031
:10033000EFF311804FF0500181F31188704780F383
:1003400011887047EFF3058070470000FE4C4FF4B2
:100350009675A169322901D900F064FDA0780028C2
:100360004FF0030003D002F016FC642002E002F01C
:1003700012FC284602F05DFEEBE770B5054600244E
:10038000F14E06E00A2002F054FEB079012802D0B6
:10039000641CAC42F6D970BD2DE9FC47EA4C00263E
:1003A00001252079E94F4FF480684FF40069012856
:1003B0005BD126710322E6A1E6480AF0AFFA08B93C
:1003C000E57226630322E4A1E2480AF0A7FA08B91D
:1003D000257366630322E1A1DE480AF09FFA08B99B
:1003E0006573A6630322DEA1DA480AF097FA08B91A
:1003F000A573E6630322DBA1D6480AF08FFA00B9A1
:1004000025720322D8A1D3480AF088FA00B9657290
:100410000322D6A1CF480AF081FA58B1A07A20B1C0
:10042000A672606A400020636063607A20B16672E1
:1004300000F0F8FCA572F3E7207A20B12672CCA177
:10044000CC4804F0D4FCE07A10B1002000F016FD96
:10045000207B10B1002000F003FD607B08B1A7F8FD
:100460000080A07B08B1A7F800906079012829D10D
:10047000B848667101AB6A46BFA132380AF078F914
:100480000098012803D1E572009600F0D7FC00988F
:10049000022803D12573009600F0D9FCE07A10B150
:1004A000019800F0EBFC207B10B1019800F0D8FC23
:1004B000607B10B1A7F80080A563A07B10B1A7F8FE
:1004C0000090E563E07A10B1206B40082064207B47
:1004D00010B1606B40086064607B08B1A06BA064E1
:1004E000A07B002801D0E06BE064BDE8FC87A54C50
:1004F00086B000220821204604F066FD002210216B
:10050000204604F061FD00224021204604F05CFDFD
:1005100000222021204604F057FD00250320CDE9CC
:1005200000500122984E54022B462146304604F0DA
:100530009FF87483844F0A2004217862102003F00E
:1005400015FF07F17001002003F0C3FF03F0FCFE6C
:1005500000218EA2084603F05DFFDFF8F0817D7078
:10056000BD70A8F10208FD734FF48069A8F80090EF
:100570004FF4006AA8F800A089494AF6AA2008604A
:10058000744C07F15806643C8B46F87900282DD04E
:10059000B86A632801D9786AB862F86A632801D911
:1005A000786AF862FD71386A18B97EA1804804F053
:1005B0001EFC386A012803D17EA17D4804F017FC97
:1005C000386A022803D17EA1794804F010FC786AC9
:1005D00000906048D7E910237CA1963809F060FFAD
:1005E0005C4A0121963A002003F014FF3878012874
:1005F00004D07BA20221002003F00CFF78780128B0
:1006000051D13870BD712279327063797370A179DC
:10061000B170E079F07094F808C086F804C094F8DE
:1006200009C086F805C094F80AC086F806C094F898
:1006300001C0BCF1080F06D1CDE9001045486CA1FE
:10064000323009F02DFF60780B2810D1F0780DF1D1
:10065000040CB379727931798CE80F00B07800908E
:100660003C487378327867A1323009F019FF6EA2E6
:100670000221002003F0CEFE387850B135493D48C4
:10068000323104F0B4FB334A03213232002003F04C
:10069000C1FEC820FFF771FE7D70B879012806D031
:1006A0003D707D70FD73B878012809D020E062A20A
:1006B0000221002003F0AEFEBD71FFF76DFEF0E7F2
:1006C000BD70F878012812D11F4A22485F325EA11E
:1006D000323009F0E5FE1F4AFD703232032100205E
:1006E00003F098FE1B492348323104F080FBBD61C2
:1006F000F87B012803D1FD73FFF74EFEBD61386B17
:1007000040083864B96A884206D300F0A0FBFD7245
:100710003D633D647D703D70786B40087864F96A94
:10072000884206D300F08AFB3D737D637D647D7053
:100730003D70B86BB864022804D3A8F800907D73AC
:10074000BD6383E089E00000000000201A0C024035
:100750005231300056030020523230005231310005
:10076000523231005230300052535400524646004B
:100770004F4B0000004800403C25642C4F4E2C2578
:10078000643E000000000240001002402D2D2D2D7F
:10079000544953382050524F2D2D2D2D000000006C
:1007A000003000402F4C45443030303E0D0A0000F0
:1007B000001001402F4C45443030313E0D0A0000FE
:1007C0002F4C45443030323E0D0A000074696D658F
:1007D0002025326420253264202532640000000088
:1007E0005761697420666F72204361726400000073
:1007F0002530327820253032782025303278202577
:10080000303278002530327820253032782025307B
:100810003278202530327820253032782025303249
:10082000782025303278000057616974696E67203E
:1008300050432E2E2E000000446F6F72206F7065A3
:100840006E65642E2E00000025730000BD64386ABA
:1008500018B93D700A20FFF790FDF86BF864022884
:100860000AD3A8F800A0BD73FD64FD63386A18B907
:100870003D700A20FFF781FD4AF6AA20CBF8000060
:1008800083E630B500231C468A0E20D11A281ED1DB
:10089000084601224008C50700D0641C521C0C2ADF
:1008A000F8D944F300040122641C4008C50700D0B5
:1008B0005B1C521C0C2AF8D903F00100B0EB516FFD
:1008C00005D101F00100A04201D1012030BD00207E
:1008D00030BD70B5F0B303F00EFBF849F84D51F898
:1008E0002020521C41F82020E87C10B1686D401C8B
:1008F0006865F34C803421686068E87CFFF7C1FFCD
:1009000000282BD02268606841084FEA320020603E
:1009100061602068616820F07F404FF00006206031
:1009200066602068616820F07F4020606660206813
:10093000616883B2206861684FEA1042E1A1A4F1C6
:10094000210009F0ADFD00216E6521606160EE744B
:10095000012000E003E06874A870E87070BDFFF744
:10096000E7FCFEE770B5E8B303F0C5FAD34AD44C10
:1009700052F82010491C42F82010A07C10B1206DC4
:10098000401C2065A16FE06FA07CFFF77AFF002874
:100990002CD0A16FE06F40084FEA3101A167E067FA
:1009A000A06FE16F20F07F404FF00005A067E56782
:1009B000A06FE16F20F07F40A067E567A06FE16F57
:1009C00083B2A06FE16F4FEA1042BD48C0A100F1B1
:1009D0005F0009F065FD00202565A067E067A5744C
:1009E000012000E003E02074A070E07070BDFFF70C
:1009F0009FFCFEE710B570B103F07DFAAF4951F8E6
:100A00002020521C41F82020AD49BDE810401C3187
:100A1000B24804F0ECB9FFF78BFCFEE710B500B369
:100A200003F069FAA54A52F82010491C42F8201038
:100A3000A3480121C171C17A11B1016B491C016345
:100A4000017B11B1416B491C4163417B11B1816B49
:100A5000491C8163817B002902D0C16B491CC163A1
:100A600010BDFFF765FCFEE72DE9FF41AFF2530033
:100A7000012300901A464FF4FA71994803F006FAE0
:100A8000984D6860AFF293000090022301229621F6
:100A9000934803F0FBF9A860AFF2371000900323EE
:100AA000012214218E4803F0F1F9E860AFF2DD1065
:100AB0000090042301221421894803F0E7F92861FA
:100AC0006868002440B102F0F6FB0246009400235F
:100AD0001946686803F060F9A86840B102F0EBFBC2
:100AE0000246009400231946A86803F055F9E86807
:100AF00040B102F0E0FB0246009400231946E8688A
:100B000003F04AF9286940B102F0D5FB024600948F
:100B100000231946286903F03FF94FF4407000F0B4
:100B2000DDFD00F01CFA0B2004F0F2F9032002F0C6
:100B300001F86D4E03250023012204213046CDE942
:100B4000004503F095FD0122002311463046CDE912
:100B5000004503F08DFD654F0122002391023846C8
:100B6000CDE9004503F084FD0122D6020023314681
:100B70003846CDE9004503F07BFD4FF4E1373A46B6
:100B80000021564803F0FAFF4FF41658424602215E
:100B9000574803F0F3FF42460021564803F0EEFFAA
:100BA0003A460121544803F0E9FF0120CDE9000550
:100BB000524D024600233146284603F059FD2E834C
:100BC000002300940194029480224DA1AFF2E160D1
:100BD000039402F0A1F8002300940194029480226F
:100BE0004BA1AFF69700039402F096F802F037FBA2
:100BF00004B00020BDE8F08130B50021304C52280F
:100C000002D03C2802D002E0217500E06175354B2E
:100C1000227D663BA3F132059854637DE85401259B
:100C2000022A02D12175E5732571072B05D13E28D3
:100C300003D16175E5736571A571207D042802D229
:100C4000401C207500E02175607D082802D2401C00
:100C5000607530BD617530BD194ABD2801D10021D4
:100C60009175164B917D46335854D87810B90120B0
:100C7000012904D0302901D2491C9175704713789D
:100C8000002BF9D15070F7E70D4910B50A7C082800
:100C90000ED00024102846D00A4601F18003527C71
:100CA000202851D0402857D0B0F5807F65D06CE027
:100CB000C2B38A6FC86F921840413FE0AC02002077
:100CC00000000020322C25303375253035750000AA
:100CD000312C253033752530357500000014014066
:100CE000C6B50008BC03002000080240000C02400A
:100CF0000048004000100140004400400000024055
:100D00004D61696E2072756E202E2E2E000000003F
:100D10004C656420426C696E6B205461736B205289
:100D20006564000028E03AB38A6FC86F92184041AA
:100D30008A67C8678A6FC86F42F001028A67C8670E
:100D4000887C401C887420E0B2B118685A6800188A
:100D5000524118605A600CE072B11A6858689218D3
:100D600040411A6058601A68586842F001021A60DF
:100D70005860C87C401CC87407E0886A400008635B
:100D8000C86A400048634C708C708869401C886158
:100D900010BD41484FF480610180C114018070474B
:100DA00070B53E4D06460024304655F8241009F033
:100DB000A3FD08B1012070BD641C022CF4DB0020EF
:100DC00070BDF0B500252E46222827D110461946C1
:100DD000012449084FEA3000C70700D0761C641C84
:100DE000102CF6D946F3000701247F1C49084FEA6E
:100DF0003000C60700D06D1C641C102CF6D905F01D
:100E00000100002180EA530081EA0103184305D163
:100E100002F00100474049400F4301D00020F0BDDF
:100E20000120F0BDBFF34F8F1D4801681D4A01F43A
:100E3000E06111430160BFF34F8FFEE71A490120C3
:100E40000880164900206839086201207047164959
:100E50000420088011490020683908620120704789
:100E6000114A0121921E11800C49022268390A623E
:100E700010B1C86201207047486AFAE70A4A0421A3
:100E8000921E11800549012268390A6210B18862F8
:100E900001207047486AFAE7180C024068000020F9
:100EA0000CED00E00400FA051A0802407047FEE766
:100EB000FEE7FEE7FEE77047704700000CB5002232
:100EC000544900920192086840F4803008604FF461
:100ED000A043086800F4003001900098401C009086
:100EE000019810B900989842F3D10868800334D56E
:100EF0000120019047484030026842F08052026071
:100F00004548026842F440420260424808300268A4
:100F10000260026842F400420260026842F4A05299
:100F20000260031F3D4A1A600A6842F080720A603C
:100F30000A689201FCD53A4940F205720A600168DC
:100F400021F003010160016841F0020101600168C4
:100F5000C1F381010229FAD10CBD01920CBD3148C7
:100F600010B5016841F4700101602A48016841F040
:100F700001010160274A00210832116002682A4BF2
:100F80001A400260031D294A1A60026822F4802276
:100F9000026020480C300160FFF790FF21494FF0BC
:100FA00000608039086010BD70B51A4D083528689A
:100FB0001F4B204910F00C0004D05E10042803D011
:100FC000082803D00B601BE00E6019E0114A121DC7
:100FD0001068C0F38054106800F03F0014B1B6FBF5
:100FE000F0F001E0B3FBF0F013681268C3F388136C
:100FF0005843C2F30142521C5200B0FBF2F00860A9
:1010000028680C4AC0F30310121D105C0A68C24025
:101010000A6070BD0038024000700040085440076C
:10102000003C024088ED00E0FFFFF6FE1030002497
:101030000024F40088000020714910B5884206D1D0
:101040000121084600F0B6FA002101204FE06D4969
:10105000884206D10121022000F0ACFA00210220D2
:1010600045E06949884206D10121042000F0A2FA36
:10107000002104203BE06549884206D10121082077
:1010800000F098FA0021082031E06149884206D139
:101090000121102000F08EFA0021102027E05D4988
:1010A000884206D10121202000F084FA002120206E
:1010B0001DE05949884206D10121402000F07AFA0A
:1010C0000021402013E05549884206D101218020AB
:1010D00000F070FA0021802009E0514988420AD1CD
:1010E00084150121204600F065FA00212046BDE864
:1010F000104000F05FBA10BDF0B5002201274FF09C
:10110000030C0B6807FA02F52B40AB422CD10668A2
:1011100053000CFA03F4A64306600E79D0F800E001
:101120009E4046EA0E0606600E79012E01D0022E80
:1011300012D18668A64386604E79D0F808E09E40BA
:1011400046EA0E0686604668AE43466045688E797C
:101150009640B6B235434560C568A543C560CC79B5
:101160009C40C3681C43C460521C102AC9D3F0BD04
:101170004FF6FF7101600021017141718171C171F0
:10118000704708B541F480320092C261C161009994
:10119000C161C169C069009008BD024600201269A2
:1011A0000A4200D001207047006980B270470246B1
:1011B000002052690A4200D001207047406980B285
:1011C000704701837047418370470AB101837047BC
:1011D000418370474161704742694A4042617047AC
:1011E0004B07DB0E9A40C90810B500EB8100016A7D
:1011F0000F249C40A1430162016A1143016210BDAA
:10120000000002400004024000080240000C0240BE
:10121000001002400014024000180240001C02406E
:1012200000200240374900200860091D0860091DA0
:101230000860091D0860334933481431086070475D
:1012400030B5304A8379016853B313688B43136018
:10125000111D0B680468A3430B60017911440B68EE
:10126000046823430B60274B083319680468A143C3
:1012700019601C1D21680568A94321604179102966
:1012800005D011440A68006802430A6030BD19683D
:10129000026811431960216800680143216030BD74
:1012A0000079104402688A43026030BD0021016069
:1012B00001710C22427181717047124910310A6824
:1012C00002430A60704701460E4A00201432126839
:1012D0000A4200D0012070470A4914310860704763
:1012E000084A014600201268064B0A4014331B6866
:1012F0000B4202D0002A00D001207047014914316E
:1013000008607047003C0140FFFF7F00EA48016829
:1013100041F001010160E84A0021083211600268D1
:10132000E64B1A400260031DE54A1A60026822F487
:1013300080220260E0480C3001607047DE490022E4
:10134000891C0A7008707047024600205109012963
:101350000CD002290CD0D8497431096802F01F0260
:10136000012393400B4200D001207047D249F4E79B
:10137000D1497031F1E718B500204FF4A044009036
:101380003120FFF7E1FF0099491C0091A14201D0F3
:101390000028F5D03120FFF7D7FF002800D001202A
:1013A00018BDC54A116821F0F80141EAC00010607B
:1013B0007047C44908607047BF49002270310A7005
:1013C0000A70012802D0042801D105200870704756
:1013D000BD490860704741EA82115A0810B5BB4BFD
:1013E000029C03EB02421143014341EA0460B2490B
:1013F000091D086010BDB34908667047800140EAC6
:101400000170AD49843108607047AE498866704705
:10141000AC49C8647047A84B08331A68084322F0E7
:10142000EC62104318607047A34B08331A680843F6
:1014300022F078421043186070479F4A08321168C2
:1014400021F003010143116070479B480830006898
:1014500000F00C007047984A0832116821F0F00142
:10146000014311607047944A0832116821F4E05139
:10147000014311607047904A0832116821F46041BD
:1014800041EAC0001060704770B58B4B0833196893
:101490008F4C11F00C0104D06610042903D00829E8
:1014A00003D004601BE0066019E0834A121D116836
:1014B000C1F38055116801F03F0115B1B6FBF1F1A0
:1014C00001E0B4FBF1F114681268C4F388146143BD
:1014D000C2F30142521C5200B1FBF2F101601968E3
:1014E0000F2202EA11117B4A545C0168E14041601D
:1014F0001C68072505EA9424145D21FA04F484602D
:101500001B6805EA5333D25CD140C16070BDC0F3A3
:101510000121032908D1684B083319686E4A21F468
:10152000F81102400A431A60634970310A68C0F337
:101530000B0002430A6070476349443908607047F2
:1015400061494039086070475E49C1F85C017047E5
:10155000594A30320029116801D0014300E081432B
:1015600011607047544A34320029116801D0014398
:1015700000E08143116070474F4A383200291168FA
:1015800001D0014300E08143116070474A4A403274
:101590000029116801D0014300E0814311607047C8
:1015A000454A44320029116801D0014300E08143DB
:1015B00011607047404A10320029116801D0014380
:1015C00000E08143116070473B4A143200291168E2
:1015D00001D0014300E0814311607047364A183260
:1015E0000029116801D0014300E081431160704778
:1015F000314A20320029116801D0014300E08143C3
:10160000116070472C4A24320029116801D001432F
:1016100000E0814311607047274A50320029116869
:1016200001D0014300E0814311607047224A5432E7
:101630000029116801D0014300E081431160704727
:101640001D4A58320029116801D0014300E081434E
:1016500011607047184A60320029116801D00143B7
:1016600000E0814311607047134A64320029116819
:1016700001D0014300E08143116070470E4A0D32F2
:101680000029117801D0014300E0814311707047B7
:1016900009487430016841F080710160704701466B
:1016A000054A00200C3212680A4200D0012070471F
:1016B00001490E310870704700380240FFFFF6FE06
:1016C0001030002400004742800E47420000FFFF18
:1016D0000024F4009C000020FFFCFF0F2849084371
:1016E00028490860704730B50F23C278017801257A
:1016F000FAB1244A126801F1E02102F4E062C2F575
:10170000E062C2F30722C2F10404D3404278A2404F
:1017100084781C401443220181F80024007800F0F2
:101720001F018D404009800000F1E020C0F8005109
:1017300030BD01F01F0085404809800000F1E02025
:10174000C0F8805130BD104A114001430D48001FC0
:10175000016070470B4A121D0029116801D0014336
:1017600000E08143116070474FF0E02104280869D0
:1017700003D020F004000861704740F00400FAE74D
:101780000000FA050CED00E080FFFF1F10B50121FD
:101790008C032046FFF736FF2046BDE810400021AD
:1017A000FFF730BF13490860704710B58A0721F072
:1017B00003041149120F21440F23D1F80848934024
:1017C0009C43C1F80848D1F8083890400343C1F859
:1017D000083810BD0949C1F8DC00704708490860A5
:1017E00070470449002020310968C90500D501204F
:1017F00070470000003801400030014000002742DF
:1018000000042742C74910B5884206D101211020A3
:10181000FFF7F8FE0021102028E0C349884202D1DA
:1018200001214C0410E0C149884202D101218C04FD
:101830000AE0BF49884202D10121CC0404E0BD493D
:1018400088420AD101210C052046FFF7D1FE20462F
:10185000BDE810400021FFF7CBBEB749884209D14F
:1018600001212020FFF7CEFE00212020BDE81040FE
:10187000FFF7C8BE10BD7FB50446008A0D46C98873
:1018800020F4405001432182A08941F20C61884339
:10189000A9882A8911436A8902431143A181A08A38
:1018A00020F44071A8890843A0826846FFF7ECFD48
:1018B0009C48844202D0A048844201D1039800E0B1
:1018C0000298A189090400EBC00101EB001029680E
:1018D00001D5490000E08900B0FBF1F06422B0FBC3
:1018E000F2F109010B096FF018056B4300EB83005F
:1018F000A3891D044FF0320306D503EBC000B0FBF3
:10190000F2F000F0070005E003EB0010B0FBF2F08E
:1019100000F00F00084320817FBD4FF41651016095
:1019200000218180C18001810C2242818181704728
:1019300010B5028A4C8822F470630A8822438C888E
:10194000C9880C4322431A43028210BD0021018042
:1019500041808180C18070470029818902D041F493
:10196000005101E021F4005181817047028B02F4A3
:101970007F420283028B0A430283704700298189D8
:1019800002D041F4004101E0C1F30E0181817047B2
:101990000029818A02D041F4006101E021F4006154
:1019A00081827047C1F30801818070478088C0F34D
:1019B00008007047028A22F00F020282028A0A435C
:1019C000028270470029818902D041F0020101E0C2
:1019D00021F0020181817047828922F400628281B4
:1019E00082890A4382817047028A22F020020282A1
:1019F000028A0A43028270470029018A02D041F418
:101A0000804101E021F4804101827047818941F0E9
:101A10000101818170470029818A02D041F00801CB
:101A200001E021F0080181827047028BD2B202836B
:101A3000028B42EA0121018370470029818A02D08A
:101A400041F0200101E021F020018182704700294E
:101A5000818A02D041F0100101E021F01001818261
:101A60007047828A22F004028282828A0A4382823A
:101A700070470029818A02D041F0020101E021F083
:101A8000020181827047002A828A01D00A4300E065
:101A90008A438282704710B5C1F3421301F01F04DC
:101AA0000121A140012B07D0022B07D01430002ABE
:101AB000026805D00A4304E00C30F8E71030F6E77E
:101AC0008A43026010BD0246002012880A4200D0FC
:101AD00001207047C9430180704770B501F01F05B0
:101AE00001260024C1F3421306FA05F2012B0FD0A0
:101AF000022B0FD0838A4FEA11210088134206FA85
:101B000001F600EA060001D000B10124204670BDB4
:101B10008389F0E7038AEEE70A0A01219140C9436D
:101B20000180704700100140004400400048004020
:101B3000004C004000500040001401402DE9F043EB
:101B4000016821F0010101600021016041608160B4
:101B5000C160016121214161B849B84A3D25103970
:101B6000904202D18D60BDE8F083B44A4FF47466B0
:101B70001832904201D18E60F5E7B04A4FF47417E5
:101B80003032904201D18F60EDE7AC4A4FF0746C77
:101B90004832904202D1C1F808C0E4E7A74BA84AF6
:101BA0006033984201D1CA60DDE7A44CA54B78347C
:101BB000A04201D1CB60D6E7DFF88082A24C08F1C9
:101BC0009008404501D1CC60CDE7DFF870824FF03E
:101BD0003D5908F1A808404502D1C1F80C90C2E770
:101BE0009A49DFF868820839404501D10D60BAE7AB
:101BF000964D1835A84201D10E60B4E7934D3035AB
:101C0000A84201D10F60AEE7904D4835A84202D1FD
:101C1000C1F800C0A7E78D4D8C496035091FA84267
:101C200001D10A609FE7894A7832904201D10B6066
:101C300099E7864A9032904201D10C6093E7834A3B
:101C4000A83290428FD1C1F800908CE730B503687C
:101C50007F4ACC6813400A682243D1E905452C43EA
:101C60002243CC6922430C6A22434C6A22438C6A89
:101C700022434C6B22438C6B22431A43026042691D
:101C800022F00703D1E90B2422431A4342610A6977
:101C900042604A6882608968C16030BD002101608D
:101CA00041608160C160016141618161C161016226
:101CB00041628162C16201634163816370470029AF
:101CC000016802D041F0010101E021F00101016051
:101CD00070470029016802D041F4004101E021F47D
:101CE0000041016070470029016802D041F02001E5
:101CF00001E021F0200101607047416070474068B9
:101D000080B27047002A026802D042F4002201E04B
:101D100022F400220260016170470029016802D0AC
:101D200041F4802101E021F48021016070470AB173
:101D300001617047C16070470146002009680903CE
:101D400000D501207047014600200968C90700D06E
:101D500001207047406900F03800704702463B4B55
:101D600000209A4202D2354A103A01E0374A103A2E
:101D70008B0001D5526800E01268364B1A400A42C7
:101D800000D001207047314A904202D22B481038CF
:101D900001E02E4810382F4A8B0001EA020101D5DC
:101DA000C1607047816070470B0607D5436912B167
:101DB00043F0800301E023F080034361802908D0D1
:101DC000002A026801F01E0101D00A4300E08A43A4
:101DD0000260704730B51D4A0024904202D2174A73
:101DE000103A01E0194A103A1B4B194205D01E2344
:101DF00003EAD12503682B4002E0406900F080032C
:101E0000880001D5506800E01068124A104008426E
:101E100001D003B10124204630BD0C4A904202D2C9
:101E20000648103801E0094810380A4A8B0001EAD8
:101E3000020101D5C16070478160704710600240A7
:101E40003D000020400F002000003D2010640240B3
:101E50003F801CF07D0F7D0F3C0F3C0F10B5012122
:101E6000CC022046FFF7CEFB2046BDE81040002103
:101E7000FFF7C8BB30B5644B1A6847F6FF618A4369
:101E8000017D8468C568214344682C43214304686C
:101E90000069214301431143196030BD00210175E0
:101EA000016041608160C160016170475749C1F8BC
:101EB000A00070475449091F086070475248001F2E
:101EC000006800F0030070474F4A10B5121D01680A
:101ED0001160131D1968D0E901242243D0E90340A1
:101EE00004436FF30A0122430A431A6010BD002124
:101EF000016041608160C1600161704742480C30FF
:101F00000068C0B27047404908B5103108440090DD
:101F1000006808BD3C4A10B5203201681160121DEE
:101F200041681160131D1968D0E902242243D0E9E9
:101F30000440044321F0F70122430A431A6010BD14
:101F40004FF0FF310160002141608160C16001619B
:101F5000416170472C482C30006870472A487C301B
:101F60000068704728497C31086070472648443033
:101F7000006870472649086070472549091D0860B8
:101F80007047234908310860704721490C310860C7
:101F900070471E49C1F8AC0170471C49C1F8B00137
:101FA0007047012181431948C0F8B411704717499F
:101FB000C1F8B80170471649143908607047124AD1
:101FC00038320029116801D0014300E081431160DB
:101FD000704701460C4A0020303212680A4200D095
:101FE0000120704708493431086070470146064AAD
:101FF0000020303212680A4200D0012070470249A6
:102000003431086070470000042C014000802542F4
:10201000A085254218B50020FA4B0090CA20186010
:1020200053201860F7491839086820F0A0000860AC
:102030004FF400340868009A00F02000521C00920F
:10204000A24201D00028F5D00868800601D5012001
:1020500000E00020FF21196018BD08B5E949002003
:10206000183900900868400612D44FF0FF3008601D
:102070008B130868009A00F04000521C00929A42AC
:1020800001D00028F5D00868400601D4002008BD22
:10209000012008BD78B50024DA4ECA2000942546F8
:1020A000306053203060FFF7D8FFE0B3D5482438C4
:1020B0000460D44942F20110203908600B1D1868F1
:1020C00000F0070018608D131A1D1068009900F0C9
:1020D0000400491C0091A94201D00028F5D01068E5
:1020E000400729D518681C60C6494FF6FF701039A3
:1020F0000860091FC4480860C2480C380460001D0D
:102100000460001D0460BF4808300460BD481830FA
:102110000460BC4820300460001D04601460B948AD
:102120001C30046000E003E0FFF774FF20B10125DC
:10213000FF203060284678BD0025F9E7B1481838FF
:10214000016821F080010160704770B5AD4E044612
:102150000025CA20306053203060FFF77EFFA8B111
:10216000A8481C38016821F040010160016822681C
:1021700011430160A348A168143801600168A28876
:1021800041EA02410160FFF7D9FF0125FF203060DD
:10219000284670BD002101607F214160FF218160E0
:1021A0007047984908B1FF2002E0CA200860532018
:1021B0000860704770B5934E05460024CA20306011
:1021C00053203060FFF749FF60B18E481C3801682A
:1021D00015B141F0100101E021F010010160FFF79D
:1021E000ADFF0124FF203060204670BD854ACA2122
:1021F00011605321116083491C390028086802D0FE
:1022000040F0200001E000F0DF000860FF201060D7
:1022100070472DE9F0410C4600267C4F01002078E4
:10222000396832464FEA416104D000292FDA00F0C4
:1022300008FC2DE0002900DBE27000F0F6FB05044D
:10224000607800F0F2FB45EA0025A07800F0EDFB95
:102250000543E07845EA00456A4CCA2020605320D7
:102260002060FFF7FAFE68B1694805406748083802
:102270000560FFF763FF3868800602D4FFF7CAFEE7
:1022800000B10126FF2020603046BDE8F081E270F9
:10229000A078217840EA01456078E178000240EAC0
:1022A00001400543D8E70021C17001704170817081
:1022B0007047020010B557480C460168544801EABF
:1022C0000001C1F305402070C1F30623637001F0E3
:1022D0007F03A3704FF0400303EA1141E1700AD17C
:1022E00000F0AFFB2070607800F0ABFB6070A0786E
:1022F00000F0A7FBA07010BD4248001D00684349D4
:10230000091F0968704770B50C4600260100607807
:102310000FD000F096FBA07800F093FBA078E17856
:1023200040EA014560782178000240EA41300543E7
:1023300015E0C10603D520F010000A306070E07887
:1023400000F073FB0504607800F06FFB45EA0025A0
:10235000A07800F06AFB0543207845EA4035294C17
:10236000CA20206053202060FFF777FE70B12A4812
:1023700005402648001F0560FFF7E0FE234800687F
:10238000800602D4FFF746FE00B10126FF20206040
:10239000304670BD01210170817041700021C17013
:1023A0007047020010B51D480C4601681A4801EA42
:1023B00000014FEA1140E070C1F30423637001F0A3
:1023C0003F03A370C1F3423121700AD100F039FB01
:1023D000E070607800F035FB6070A07800F031FBB1
:1023E000A07010BD70B514460D46084A00210028A3
:1023F00010684FEA406013D000282ADA207800F0F5
:1024000020FB27E024280040FF007F000828004030
:102410007F7F7F00002800403FFFFF00042800402E
:10242000002800DBE170207800F0FFFA06046078F5
:1024300000F0FBFA46EA0026A07800F0F6FA064320
:10244000E07846EA0046207B00F0EFFA46EA0060BA
:1024500010E0E170207B00F0F4FAA0782178E278B7
:1024600040EA01406178090241EA02410843217BC8
:1024700040EA0160A168084361680843F849CA223C
:102480000A6053220A60B5F5807F04D00A1F1060ED
:10249000FF20086070BDF24A083AF8E70021C170D9
:1024A0000170417081700122816002734160704748
:1024B00010B514460246B1F5807F2AD0E848001FC7
:1024C0000168C1F305402070C1F30623637001F079
:1024D0007F03A370402303EA1143E370C1F3056354
:1024E000237301F0804301F08031C4E90113002A15
:1024F0000ED100F0A6FA2070607800F0A2FA6070A9
:10250000A07800F09EFAA070207B00F09AFA207369
:1025100010BDD3480838D3E738B50022D04C00921C
:10252000CA22226053222260CD4A1C3A0029116837
:1025300002D00143116012E081431160C84A183A89
:1025400095131168009B01EA10215B1C0093AB42BC
:1025500001D00029F5D0116811EA102000D0012027
:10256000FF21216038BD10B5BD4BCA241C60532427
:102570001C601143B0F5807F05D0B948243001605C
:10258000FF20186010BDB6482030F8E7B0F5807F16
:1025900005D0B34824300068C0F30E007047B0483F
:1025A0002030F8E7AE4ACA21116053211160AC49CE
:1025B0001C390B6823F007030B600B6803430B60A7
:1025C000FF2010607047A649CA220A6053220A60A1
:1025D000A34A103A1060FF2008607047A0481038E6
:1025E000006880B2704718B500219D4B0091CA2148
:1025F0001960532119609A491C390028086803D0D2
:1026000040F48060086014E020F480600860944921
:1026100018398C130868009A00F00400521C0092CC
:10262000A24201D00028F5D00868400701D400205C
:1026300000E00120FF21196018BD894B10B5CA22A6
:102640001A6053221A60864A1C3A146824F48024C3
:1026500014601468084304431460FF20186010BD20
:102660007F481C38006800F4802070477C4B10B510
:10267000CA221A6053221A60794A1C3A146824F458
:10268000E00414601468084304431460FF201860D9
:1026900010BDF0B5724D06460024CA200F462860D2
:1026A00053202860FFF7D9FC30B16D483E430C3809
:1026B0000660FFF743FD0124FF2028602046F0BD9F
:1026C00070B5674E05460024CA2030605320306044
:1026D000FFF7C3FC60B162481C38016815B141F0D6
:1026E000800101E021F080010160FFF727FD012456
:1026F000FF203060204670BD594ACA211160532125
:10270000116057491C390028086802D040F40000C5
:1027100001E020F400000860FF2010607047504A7C
:10272000CA211160532111604D491C390B6823F4F3
:1027300000230B600B6803430B60FF2010607047A1
:10274000F0B5474D0023CA242C6053242C60444C20
:10275000183C2668F60308D54FF400362768FF03B7
:1027600003D5B34201D05B1CF8E72368DB0306D432
:1027700008433B49104318310860012000E0002065
:10278000FF212960F0BD364B10B51C3B1A6840F69E
:102790000804A24342EA000209B142F40062304850
:1027A000CA210160532101601A60FF21016010BD40
:1027B00070B50D462A4914460C310968294A114062
:1027C000274A103212684FF63F731A40C1F305438F
:1027D0002B70C1F306236B7001F07F03AB704023B5
:1027E00003EA1141E9700021E170C2F30421617034
:1027F00002F03F01A170C2F342312170002817D1CD
:10280000287800F01EF92870687800F01AF96870CE
:10281000A87800F016F9A870607800F012F96070DE
:10282000A07800F00EF9A070207800F00AF920706E
:1028300070BD0B48143000687047094A1C320029EB
:10284000116803D041EA40001060704721EA40005F
:10285000FAE7034A1C320029116805D0014304E05D
:10286000242800407F7F7F008143116070477949B1
:102870000A6822F4C0520A600A6802430A6070477C
:1028800074490A6822F4E0620A600A6802430A6036
:10289000704770490A6822F4C0420A600A6802431D
:1028A0000A6070476B490028086802D040F0800039
:1028B00001E020F080000860704766490028086841
:1028C00002D020F4004001E040F40040086070476E
:1028D000604A08B5103202EB80000090016008BD2C
:1028E0005C4908B5103101EB80000090006808BD1C
:1028F00058490A6822F480320A600A6802430A6072
:10290000704754490A6822F400320A600A68024398
:102910000A6070474F490A6822F480220A600A68F8
:1029200002430A60704770B54A4C0022CA231C3C1F
:10293000236053232360474B343B1D682D0707D585
:102940009E141D682D0703D5B24201D0521CF8E732
:102950001A6812070DD43F4A383A1268D20608D4D2
:1029600001433C4814380160FFF754FB10B10120CB
:1029700000E00020FF21216070BD30B5354DCA2236
:102980001C3D2A6053222A60324C20F00402383C5D
:102990000029304B216800F0040004D0114321606D
:1029A0001968014303E0914321601968814319606C
:1029B000FF20286030BD02462649002034390968CE
:1029C000254B1940114200D00120704780B240F0E1
:1029D0008000C1431F483438026802F0800211436E
:1029E000016070471B4A0021126802F00403194A73
:1029F000383A126803EAD03302401A43174B1B6877
:102A000003EA101003D00004000C00D00121084696
:102A10007047C0F30F1040F08000C1430F480268B8
:102A200002F08002114301607047002103E0491C5D
:102A30000A38C9B2C0B20A28F9D2090740EA1160BF
:102A40007047010901EB810100F00F0000EB41002C
:102A5000C0B27047402800407F3F01000C28004072
:102A600010B501210C072046FEF7C2FD2046BDE847
:102A700010400021FEF7BCBD2B49086270472B4A6D
:102A8000116821F0E0010143116070472649086197
:102A900070472549C1F8A00070472349C1F8A40038
:102AA00070472249B0F5004F086803D040F4404019
:102AB0000860704720F44040FAE71B4948627047BD
:102AC0001A4B1A6822F0030202431A60184802687F
:102AD00042F004020260012905D020BF016821F004
:102AE00004010160704730BFF8E71048016841F009
:102AF00004010160016841F0020101600C480168B5
:102B000041F00401016030BF7047084A01460020CF
:102B100052680A4200D00120704704490A6842EA1C
:102B2000800008607047000000000E420070004006
:102B300010ED00E01CB504467548012150F8240052
:102B4000FEF706FD72480021083830F814000090A6
:102B500001208DF804008DF806108DF80700022082
:102B60008DF805006B48694650F82400FEF7C4FA5A
:102B70001CBD6749674A083931F8101052F8200027
:102B8000018370476249634A083931F8101052F8DE
:102B90002000418370475F4951F820104A695C4B1F
:102BA000083B33F8100042404A61704770B5044654
:102BB00057480E46183886B050F824000121FEF719
:102BC000C7FC01218803FEF7EBFC514800258DF876
:102BD000105028388DF8135030F8140003904D48E9
:102BE00003A9103850F82400FEF786FA012E25D1EB
:102BF00047482B38015D401E005DFEF7D6FD444876
:102C0000263830F8140000908DF8045008208DF814
:102C1000050001258DF806506846FEF711FB3C487B
:102C20002A38005D8DF808000F208DF809008DF816
:102C30000A008DF80B5002A8FEF755FD06B070BDD6
:102C40003349344A2839103A31F8101052F820002C
:102C5000FEF7A3BA2DE9FC41884604462C482C49CE
:102C600010380C3950F8240051F824100843012181
:102C7000FEF76EFC2CB92648012114380068FEF7D7
:102C800085FC2348234E1C38083E10F81420001FF2
:102C900030F8141056F82400FEF7A2FA1C48371D2D
:102CA0001A3810F81420001F30F8141057F82400B8
:102CB000FEF796FA00208DF8060001208DF8070037
:102CC0001348022524388DF8045030F81400009081
:102CD0008DF8055056F824006946FEF70DFA0C48A9
:102CE0008DF804502238694630F81400009057F8E7
:102CF0002400FEF701FA351F414655F82400FEF77F
:102D0000BAFD55F824000121FEF726FEBDE8FC813E
:102D1000F8B50008BC0000202DE9FF5F1546DDE98D
:102D20000E68109F8A465FEA000B04D0052E05D37B
:102D3000FDF7FEFAFEE7FDF7FBFAFEE7482000F09C
:102D400051FF040009D0A8008146AFB13846206386
:102D5000A8B1A522494607F0A3FE002C70D06FF061
:102D60000301206B01EB8501084420F00707780779
:102D70000AD0FDF7DDFAFEE700F034FFE7E7204672
:102D800000F085FF0024E8E7514635460020221870
:102D90000B5C82F834300A5C12B1401C1028F6D368
:102DA000002184F84310052D00D30425E562201D81
:102DB000656400F09EFF04F1180000F09AFF2461A2
:102DC000C5F105016462A16159463846039A01F0D4
:102DD0005DF92060B8F1000F01D0C8F8004001F0A3
:102DE000CBF9F84F7868401C78603868DFF8D883F2
:102DF00010B1386928B329E03C607868012825D1F2
:102E0000002505EB850108EB810000F067FF6D1CD4
:102E1000052DF6D3EC48643000F060FFEA487830C6
:102E200000F05CFFE8488C3000F058FFE648A03026
:102E300000F054FFE4486430F8621430386305E071
:102E400022E03868C06AB04200D83C60786A401C12
:102E50007862E06AF968884200D9F86000EB800186
:102E600008EB8100211D00F047FF012401F090F9DB
:102E7000386928B13868C06AB04201D201F072F9ED
:102E800004B02046BDE8F09F4FF0FF34F8E72DE98D
:102E9000F047CC4E0027706928B1B069401CB06182
:102EA0003846BDE8F087B068401CB060B5684FF0A8
:102EB000FF39A5B9F06A006810B1FDF739FAFEE7ED
:102EC000F06A316BF1623063306A401C3062F06A44
:102ED0000068E8B1F06AC068C0684068B062B06A73
:102EE000DFF8E482854209D3F06A006890B1F06AA5
:102EF000C068C468606885420ED2B0623068C06A3B
:102F000000EB800158F821000128C9D90127C7E743
:102F10004846E3E74846F0E7201D00F011FFA06AAD
:102F200018B104F1180000F00BFFE06AF168884264
:102F300000D9F06000EB800108EB8100211D00F05A
:102F4000DBFEE06A3168C96A8842CDD30127CBE74E
:102F50002DE9F0479B4E00273D46706938B101F0DE
:102F60000BF97069401E7061706918B140E0FDF79F
:102F7000DFF9FEE7706894498C31C8B3DFF84892F6
:102F80008846D8F80010E1B1D8F80C00C46804F104
:102F9000180000F0D5FE201D00F0D2FEE06AF168B6
:102FA000884200D9F06000EB800109EB8100211D0F
:102FB00000F0A2FEE06A3168C96A8842E1D30125C7
:102FC000DFE7B06938B909E0FFF761FF00B101251B
:102FD000B069401EB061B0690028F5D1012D02D062
:102FE000F069012804D100200127F06101F0BAF84E
:102FF00001F0CEF8384654E770B5724D04462868A3
:103000004460A8682968844205D2286BBDE87040F6
:10301000091D00F07DBEE86A091D00F079FEA86A6E
:10302000844200D2AC6270BD66484169491C41616E
:10303000704710B502000FD0FFF7F6FF61488168B6
:1030400000688C18001D00F07BFE2046FFF7D4FFBF
:10305000FFF77EFF002803D1BDE8104001F082B8E1
:1030600010BD584910B54869574A30B10120C861B0
:1030700010BDD0B1C868401EC860C86800EB8000B1
:1030800052F820000028C868F3D000EB800002EB63
:10309000800000F108034268526842609A4201D100
:1030A00052684260D068086010BDFDF741F9FEE744
:1030B00070B5044601F060F8424D04B92C68201D3B
:1030C00000F03EFEA06A18B104F1180000F038FECE
:1030D0003D48211DA03000F00FFE01F059F828688E
:1030E00084420DD1286918B1BDE8704001F03AB8AA
:1030F00035486968A0300068884202D10020286005
:1031000070BDBDE87040ACE710B5002158B12E4B42
:103110004269A0339A420AD1806AA3F11402904214
:1031200005D018B103E0FDF703F9FEE701210846D9
:1031300010BD70B504000BD0224D2868844225D004
:1031400001F01AF82046FFF7DFFF012803D019E04D
:10315000FDF7EEF8FEE7201D00F0F2FDE06AE968F9
:10316000884200D9E860184900EB800001EB80003C
:10317000211D00F0C1FDE06A2968C96A884201D3B7
:1031800000F0F0FFBDE8704001F002B870BD2DE91D
:10319000F041002504000AD001F065F8FDF7C8F8F9
:1031A00007462046FFF7B0FF012803D026E0FDF7D1
:1031B000BFF8FEE7034E706940B1034804F11801FF
:1031C0008C3019E0CC000020D0030020E06A316888
:1031D000C96A884201D3012500E00025201D00F0C6
:1031E000AFFDE06AF168884200D9F060C34900EBA6
:1031F000800001EB8000211D00F07EFD3846FDF7C8
:103200009EF82846BDE8F081BD480168C96A09B149
:1032100000207047B94909680129F9D8816A806896
:10322000081A7047B54DB64C2868012801D900F03E
:1032300099FFFFF7E9FF0228F6D3FFF7F5FEA06A32
:10324000A168884202D2FDF773F8FEE7FFF7DCFFC2
:10325000022801D300F0B4FFFFF77AFEE4E71FB5C0
:10326000002400940194029423468022A5A1A7483B
:103270000394FFF751FD012803D100F0ECFD012874
:1032800004D000280CD1FDF753F8FEE7FDF750F805
:103290009B48012101618460BDE81F4000F024BF0C
:1032A0001FBD10B5FDF744F8954900200861BDE841
:1032B000104000F056BF10B500F05EFF90488468E3
:1032C00000F066FF204610BD10B500F0CCFFFDF702
:1032D0002FF88B498C68FDF732F8204610BD8848DE
:1032E00040687047864910B58A688B6A02449A42E2
:1032F00002D9FDF71DF8FEE78A681044886010BD0A
:1033000070B50D4678B17E4C2168183100F000FD93
:103310002068001D00F014FD681C07D0A068284438
:10332000BDE8704068E6FDF703F8FEE721687348E2
:10333000BDE87040A030091D00F0DEBC70B50D4640
:1033400068B16F4C2168183100F0D6FC2068001D70
:1033500000F0F6FCA0682844BDE870404CE6FCF79D
:10336000E7FFFEE770B5C068C4685CB104F11800FF
:10337000064600F0E5FC624D686930B15F483146B1
:103380008C3010E0FCF7D4FFFEE7201D00F0D8FCE5
:10339000E06AE968884200D9E860584900EB80009B
:1033A00001EB8000211D00F0A7FCE06A2968C96AD2
:1033B000884201D3012070BD002070BD10B528B136
:1033C0004F490A6A02608968416010BDFCF7B0FF8E
:1033D000FEE770B50D46040019D0DDB100F0CCFE5B
:1033E000474A906829684B1C0FD02368126A9342A1
:1033F00002D06268824210D96268801A88420CD278
:10340000081A28602046FFF7D9FF002406E0FCF7E1
:103410008FFFFEE7FCF78CFFFEE7012400F0B8FE0B
:10342000204670BD36490120C861704733490120EC
:103430008C31096809B1002070473149C9690029F8
:10344000F9D170472E48006870472D48016919B1BD
:10345000406918B102207047002070470120704772
:1034600070B5040029D0264DE06A2968C96A8842EF
:1034700023D22868214EC06AC0F10500A061E06A2D
:10348000616900EB800006EB8000814212D1201DB3
:1034900000F056FC2868C06AE062E968884200D9FA
:1034A000E86000EB800006EB8000211DBDE8704065
:1034B00000F022BC2868C06AE06270BD10B504004C
:1034C0001BD0616CE06A884217D0201D00F038FCE8
:1034D000606CE062C0F105000949A061E06ACA6859
:1034E000904200D9C860054900EB800001EB8000E4
:1034F000211DBDE8104000F0FFBB10BDD00300202F
:10350000CC00002049444C45000000002532000852
:1035100070B50D46040023D000F02EFED4E90F2034
:10352000216802FB001161600021A1632168A16094
:103530000A46D4E90F01401E00FB01214FF0FF3085
:10354000E1606064A06404F1100065B100F0C6FBA6
:1035500004F1240000F0C2FB00F01AFE012070BD4F
:10356000FCF7E6FEFEE721690029F5D0FFF7FAFE39
:103570000128F1D100F0F6FDEEE770B50E4605002A
:1035800016D04C2000F02EFB040011D005FB06F0F5
:10359000401C00F027FB206038B1C4E90F56012120
:1035A0002046FFF7B5FF204670BD204600F06FFBB8
:1035B000FCF7BEFEFEE770B5044600F0DDFD04F149
:1035C00024050AE0606A58B12846FFF7CBFE08B12F
:1035D000FFF728FFA06C401EA064A06C0028F1DC5F
:1035E0004FF0FF35A56400F0D3FD00F0C5FD04F1F8
:1035F00010060AE0206958B13046FFF7B3FE08B163
:10360000FFF710FF606C401E6064606C0028F1DC06
:103610006564BDE8704000F0BBBD70B51546026C36
:10362000044682B1BDB1E06807F0C3F9E168206CDF
:10363000091AE1602268914202D26168081AE060CA
:10364000022D15D019E02068B8B96068FFF736FF81
:103650000020606011E0A06807F0ABF9216CA06861
:103660000844A0606168884207D32068A06004E035
:10367000A06B10B1A06B401EA063A06B401CA063A8
:1036800070BD2DE9FF4383B01F46894604004FF00B
:10369000000603D0B9F1000F03D007E0FCF748FEA5
:1036A000FEE7206C10B1FCF743FEFEE74FF0000888
:1036B000022F05D1E06B012802D0FCF739FEFEE7AE
:1036C00000F05AFDA06BE16B884205D3022F03D0B6
:1036D0000598B0B1C6B11BE03A4649462046FFF70F
:1036E0009CFF606A38B104F12400FFF73BFE01281B
:1036F00001D100F037FD00F04BFD012007B0BDE81F
:10370000F08300F045FD1FE06846FFF757FE0126F5
:1037100000F03EFDFFF788FC00F02EFD606C401CC1
:1037200001D1C4F84480A06C401C01D1C4F8488089
:1037300000F02EFD05A96846FFF74BFE30B120468C
:10374000FFF739FFFFF704FC0020D7E700F014FD76
:10375000A06BE16B884201D1012500E0002500F05B
:1037600017FD75B104F110000599FFF7C9FD20465A
:10377000FFF721FFFFF7ECFB0028A1D100F0F2FCDE
:103780009EE72046FFF717FFFFF7E2FB98E710B52B
:103790004C2000F027FA04001BD00020606020605D
:1037A000A060E060A0630121C4E90F10401E6064C6
:1037B000A06404F1100000F091FA04F1240000F07C
:1037C0008DFA00231A4619462046FFF75AFF204675
:1037D00010BDFCF7ADFDFEE710B5040009D0FFF702
:1037E00031FE616888420FD1E068401EE06003D07E
:1037F00008E0FCF79DFDFEE700231A461946204627
:10380000FFF73FFF012010BD002010BD30B4046859
:103810000D46002C0CD0026CC1688B18C360416847
:103820008B4200D3C460C168284630BC07F0C1B8E1
:1038300030BC70472DE9FF4383B0994688460400A9
:103840004FF0000604D00027B8F1000F03D007E0C6
:10385000FCF76EFDFEE7206C10B1FCF769FDFEE79A
:1038600000F08AFCA06B38B341462046E568FFF7BC
:10387000CDFFB9F1000F0DD0E560606A30B104F101
:103880002400FFF76FFD08B100F06CFC00F080FC35
:10389000012033E7A06B401EA063206810B9FFF73A
:1038A000D1FD606020690028F0D004F11000FFF71E
:1038B00059FD0128E8D0E9E7059808B11EB106E0F6
:1038C00000F066FC1DE06846FFF778FD012600F079
:1038D0005FFCFFF7A9FB00F04FFC606C401C00D1BF
:1038E0006764A06C401C00D1A76400F051FC05A9DE
:1038F0006846FFF76EFD30B12046FFF75CFEFFF72C
:1039000027FB0020FAE600F037FCA06B30B1002561
:1039100000F03EFCD5B1206810B108E00125F7E7C2
:1039200000F02AFC6068FFF79BFD00F031FC04F119
:1039300024000599FFF7E4FC2046FFF73CFEFFF763
:1039400007FB00288CD100F00DFC89E72046FFF72B
:1039500032FEFFF7FDFA83E770B50D46040009D08B
:10396000FFF770FD6168884207D1E068401CE060A5
:10397000012070BDFCF7DCFCFEE700232A46194657
:103980002046FFF757FF0128F3D1E168491CE160A9
:1039900070BD10B50C4602220021FFF7EEFD08B104
:1039A000846310BDFCF7C4FCFEE72DE9F0411D4621
:1039B00016460F46040001D01FB107E0FCF7B8FC23
:1039C000FEE7206C10B1FCF7B3FCFEE7022D05D139
:1039D000E06B012802D0FCF7ABFCFEE700F043FCF3
:1039E000FCF7A6FC8046A06BE16B884208D3022D51
:1039F00006D000244046FCF7A2FC2046BDE8F0813A
:103A00002A4639462046FFF708FEA06C401C04D029
:103A1000A06C401CA0640124ECE7606A0028FAD086
:103A200004F12400FFF79EFC0028F4D0002EF2D011
:103A300001203060EFE72DE9F04115460F46040004
:103A400001D01FB107E0FCF773FCFEE7206C10B15A
:103A5000FCF76EFCFEE700F006FCFCF769FC06468E
:103A6000A06BE0B139462046FFF7D0FEA06B401EA8
:103A7000A063606C401C04D0606C401C6064012436
:103A80000EE020690028FAD004F11000FFF76AFC6C
:103A90000028F4D0002DF2D001202860EFE70024A8
:103AA0003046FCF74CFC2046A8E72DE9F0410F46D4
:103AB000040001D01FB107E0FCF73AFCFEE7206CE0
:103AC00010B1FCF735FCFEE700F0CDFBFCF730FC55
:103AD0000646A06B38B139462046E568FFF796FEEA
:103AE000E560012400E000243046FCF728FC204675
:103AF00084E710B5040006D000F03EFBA46B00F094
:103B000047FB204610BDFCF713FCFEE710B508B1DB
:103B1000806B10BDFCF70CFCFEE7314A002102EB84
:103B2000C1035B68834203D1002042F83100704733
:103B3000491C0829F3D3704710B5040009D0FFF7DA
:103B4000ECFF206800F0A3F82046BDE8104000F02C
:103B50009EB8FCF7EDFBFEE710B518B1806B20B105
:103B6000002010BDFCF7E4FBFEE7012010BD10B5FE
:103B700028B1816BC06B814204D1012010BDFCF7DC
:103B8000D7FBFEE7002010BD10B5154B002253F8FF
:103B900032401CB1521C082AF9D310BD43F8321030
:103BA00003EBC201486010BD70B50D46044600F03D
:103BB000E3FA616C0020491C00D16064A16C491CCF
:103BC00000D1A06400F0E4FAA06B20B9294604F10A
:103BD0002400FFF7B3FB2046BDE87040EBE4000093
:103BE000840400202DE9F04104460025FFF71CFA6B
:103BF000374E06F10801706801F1080360B93548D5
:103C0000002720F00700C1E90007334AC3E900722A
:103C1000C0E90032012070603CB10834600704D074
:103C200004F00700C0F1080004442B4A601E521E35
:103C3000904227D2264A0968083201E00A46014626
:103C40004868A04202D208680028F7D1994219D0EA
:103C500015680868106048680835001B10280DD9E1
:103C60000B1958601A484C6008305C6800E0104638
:103C700002685768A742FAD31A600360486831683F
:103C8000081A3060FFF764F92846BDE8F08110B5E6
:103C9000002817D0A0F10804FFF7C6F90C496068A6
:103CA000083100E011460A6853688342FAD3226063
:103CB00007480C606168026811440160BDE810406B
:103CC000FFF746B910BD0248006870477047000012
:103CD00000010020CC040020F82B010000F10801B5
:103CE0004FF0FF32C0E90112C160016100210160A3
:103CF000704700210161704742684A6093688B6099
:103D000093685960916008610168491C01607047BF
:103D100030B50C68621C02D000F1080202E00269B2
:103D200004E01A4653681D68A542FAD953684B60EF
:103D300099608A60516008610168491C016030BD6A
:103D4000D0E901128A60D0E90112516001694A6824
:103D5000824201D182684A60002202610868401EE6
:103D60000860704770B500244160C34D0061914206
:103D700006D8D11A8269914206D2011D286907E04E
:103D80009A4203D2994201D3012403E0011DE8685D
:103D9000FFF7BEFF204670BDFEB5B74D1F46034678
:103DA0002C680020089E002C08D08DE80E0037B14A
:103DB00000233A4669462046FFF7F7FDFEBDFFF7B0
:103DC00044FB01284FF0000305D000226946286813
:103DD000FFF757FCFEBD3246F8E770B50546FFF722
:103DE0006AFAA54E0446B068844203D200F085F812
:103DF000012000E0002028602046B46070BD9E4C89
:103E0000E068016839B1002139B1002000F0F0F814
:103E100000F0A1F8F4E70121F6E7C0680068F5E7D3
:103E200010B500F0A9F9944C206880B99348FFF7C9
:103E300055FF92481430FFF751FF9048E06014306E
:103E4000206100220C210A20FFF797FB2060BDE8CB
:103E5000104000F09DB91FB5FFF7E2FF86480068EB
:103E600078B18549022200200092091DCDE9011098
:103E700003460390D20182A18348FEF74DFF00283C
:103E800002D1FCF755FAFEE704B010BD2DE9F0476A
:103E90001E46DDF8209017460D00804612D02820DF
:103EA000FFF7A0FE04000AD0FFF7BAFFC4F80080B5
:103EB000C4E90657C4E90869201DFFF71AFF204628
:103EC000BDE8F087FCF734FAFEE76B4810B54068B0
:103ED000002802D1FCF72CFAFEE710BD10B504460D
:103EE00000F04AF9606908B1012400E0002400F004
:103EF0004FF9204610BD006A7047F8B55E4E1FE0CE
:103F0000C068C4680568201DFFF71AFF616A204673
:103F10008847E069012813D1A0692844A84206D93E
:103F200024616060211DF068FFF7F2FE08E00020C8
:103F30000346014600902A462046FFF72DFF38B180
:103F4000F06801680029DBD13169C6E90310F8BDCA
:103F5000FCF7EEF9FEE730B585B0474D3EE0039C37
:103F6000606910B1201DFFF7EBFE04A8FFF735FFD5
:103F70000246019830B1012830D002281FD0032812
:103F80002CD128E00298A169034601442046FFF79E
:103F9000E9FE012822D1616A20468847E0690128AC
:103FA0001CD1002000900298A169002342181946F4
:103FB0002046FFF7F1FE88B9FCF7BAF9FEE7029850
:103FC000A06128B1811813462046FFF7CBFE05E01B
:103FD000FCF7AEF9FEE72046FFF759FE00231A462C
:103FE00001A92868FFF726FC0028B8D105B030BD2C
:103FF0002DE9FC410F460546FFF716F801A8FFF72B
:10400000ECFE0446019818B1FEF7A2FFBDE8FC8162
:10401000194E37BBA54224D8FEF79AFFF068274611
:10402000C068C468201DFFF78BFEE069012811D12C
:10403000A0692B4641193A462046FFF793FE012816
:1040400008D100200346014600902A462046FFF78B
:10405000A3FE18B1616A20468847D7E7FCF768F9E4
:10406000FEE7291B3068FFF79FFDFEF771FF002870
:10407000CCD100F077F8C9E718010020C430012046
:10408000546D722053766300FF3D000810B5031F86
:104090004FF080741C601B1F1960191F00230B60F8
:1040A00014390A60091FDA1E44380A6010BD10B5C1
:1040B0007B484FF47A737B4A00686FF07F44B0FB13
:1040C000F3F19160B4FBF1F1D160B0FBF0F12D247C
:1040D000B4FBF1F11161B0FBF3F14FF0E020491EA8
:1040E00041610721016110BD1CB56F49087801903D
:1040F000FF20087008788DF800009DF80000694CDA
:1041000000F0500020700720606107E06069401EE9
:1041100060619DF8000040008DF800009DF80000EF
:104120000006F3D4207D000200F4E0606061019895
:1041300008705E48016841F470010160016841F057
:1041400070410160FFF7B3FF00206060FCF7BEF82C
:104150005748016841F040410160FCF7ADF800208C
:104160001CBD704751494FF080501C390860BFF3A7
:104170004F8FBFF36F8F704710B5FCF7D9F84948E0
:104180004168491C4160BFF34F8FBFF36F8F10BD73
:1041900044494868401E486001D1FCF7D0B87047D8
:1041A00010B5FCF7C5F8FEF772FE20B13F494FF09D
:1041B00080501C390860BDE810400020FCF7BFB8F3
:1041C0002DE9F047374E0446F068844200D9044692
:1041D0004FF0E0274FF00609C7F81090B969B268B0
:1041E000601E02FB00153069854200D92D1A72B697
:1041F000FFF71CF94FF00708C0B17D610022BA61DA
:10420000C7F8108024B1BFF34F8F30BFBFF36F8F5B
:10421000C7F8109062B63869C0030CD5B869B168A8
:10422000281A081A401E7861641E0EE0C7F8108034
:1042300062B6BDE8F087B068B9694443611AB1FB62
:10424000F0F4631C4343581A7861BA61FFF794FF96
:10425000C7F810802046FFF745F8B068401E786127
:10426000BDE8F04794E710B5FCF76CF80D4910284D
:1042700009D300F1E02090F8F0030A78904202D2CE
:10428000FCF756F8FEE7094814380068496900F45D
:10429000E060884202D9FCF74BF8FEE710BD000051
:1042A000880000202C01002000E400E020ED00E068
:1042B00034EF00E00948804709480047FEE7FEE781
:1042C000FEE7FEE7FEE7FEE7FEE7FEE7FEE7FEE7C6
:1042D00004480549054A064B704700005F0F000877
:1042E0008901000828330120283B012028370120BC
:1042F0002837012070B5B34C02074FF0800101D57B
:10430000218300E0618342074FF0400101D5218302
:1043100000E0618382074FF0200101D5218300E096
:104320006183C1074FF0100001D0208300E060835B
:104330004FF4806525830120FEF77BFE6583BDE891
:1043400070400120FEF775BE10B5012000F0DCF8CA
:10435000BDE810401420FEF76CBE9B49087840F081
:104360000400087040F0080000F0CEB870B50D46AB
:10437000064600F0D7F81420FEF75BFE924C0020B2
:10438000012DE57026716071A071607001D908205F
:1043900060700320FFF7AEFF1420FEF74AFE0320F3
:1043A000FFF7A8FF1420FEF744FE0320FFF7A2FF4B
:1043B0001420FEF73EFE0220FFF79CFF0220FEF7CE
:1043C00038FE607840F0200000F09EF80420207055
:1043D000FFF7C3FFFFF7B8FF0220A070062000F030
:1043E00093F8BDE870401420FEF723BE08B577A20D
:1043F00012680092744AD3788B4200D80021507121
:1044000091711DF801100844C0B240F0800000F026
:104410007BF808BD70B51446FFF7E8FF6A4D16E05B
:1044200068792979884207D300206871A979491CE5
:10443000C9B2A971FFF7DAFF20780A280BD00D283E
:104440000FD000F0B1F86879401C6871641C2078C6
:104450000028E5D170BDA879401CC1B2A971687966
:1044600001E0A9790020FFF7C1FFEFE7564908787E
:1044700020F00400087040F0080000F045B85249F0
:10448000087840F00100087040F0080000F03CB8E7
:104490004D49087820F00100087040F0080000F055
:1044A00033B84949087840F00200087040F008002D
:1044B00000F02AB84449087820F00200087040F063
:1044C000080000F021B8182000F01EB81C2000F0F1
:1044D0001BB870B50D4600F00700402141EAC0004E
:1044E00000F012F80024285D00F05EF8641CE4B2CD
:1044F000082CF8D370BD10B51446FFF777FF20469F
:10450000BDE8104000F050B810B52E4904464FF4F5
:10451000807048832009FFF7EDFE04F00F00BDE82E
:104520001040E7E62DE9FC4100240122254D16024A
:104530000094234631462846019400F099F8012260
:1045400097020094002339462846019400F090F821
:1045500000940023012210212846019400F088F8DD
:1045600000940023012220212846019400F080F8C5
:1045700000940023012240212846019400F078F89D
:1045800000940023012280212846019400F070F855
:104590006E836F83102068832020688340206883A7
:1045A00080206883BDE8FC8110B5064904464FF4BD
:1045B000807008832009FFF79DFE04F00F00BDE81E
:1045C000104097E6001002404401002000401050C7
:1045D000A3490844C0F38F2070472DE9F04F9A4655
:1045E000DDE909B889460346FFF7F2FFC5B20020AE
:1045F0004FF0030E0121814011EA090F28D0994E96
:1046000036F815400C4326F81540DF6844000EFAD2
:1046100004F6B7430BFA04FC47EA0C07DF601F6897
:1046200002FA04FCB74347EA0C071F60012A01D0D5
:10463000022A0DD15F6889B28F430AFA00F189B26C
:104640000F435F60996808FA04F4B143214399600D
:10465000401CC0B21028CDD3BDE8F08F00B5FFF7E5
:10466000B7FF01218140804802681143016000BD0D
:10467000FCB51646DDE907C50C00074608D0FFF774
:10468000EDFFCDE900C5324621463846FFF7A5FFCC
:10469000FCBD2DE9FC4F9946DDE90BB792460D00B4
:1046A000064622D0FFF7DAFF002201214FF00F0C5F
:1046B00001FA02F028420DD0D00806EB8003186AF8
:1046C0005407E40E0CFA04F820EA080007FA04F490
:1046D00020431862521C102AEAD3CDE9009B5346AE
:1046E000022229463046FFF778FFBDE8FC8FF0B57F
:1046F0000E460546FFF76CFF00225A49C4B24FF040
:10470000010C03270CFA02F333420CD028684FEA5D
:10471000420E07FA0EFE40EA0E00286031F814003F
:10472000984321F81400521CD2B2102AEAD3F0BDEB
:10473000F0B500220125032605FA02F30B4205D04D
:104740000468570006FA07F39C430460521CD2B277
:10475000102AF1D3F0BDF0B500220127032607FA95
:1047600002F33C460B4208D00568530006FA03FCEE
:1047700025EA0C059C4025430560521CD2B2102A44
:10478000EDD3F0BDF0B500220125032605FA02F3B2
:104790000B4205D00468570006FA07F31C43046077
:1047A000521CD2B2102AF1D3F0BDF0B5002201267E
:1047B0000324022706FA02F30B4209D005685300CE
:1047C00004FA03FC25EA0C0507FA03F31D43056010
:1047D000521CD2B2102AEDD3F0BDF0B50023012750
:1047E000032507FA03F40C4209D0C6685C0005FAF9
:1047F00004FC26EA0C0602FA04F42643C6605B1C9D
:10480000DBB2102BEDD3F0BD41F48032C261C16147
:10481000C261C169C0697047002102E0491C89B2C8
:1048200040080128FAD80846704700B5FFF7D0FEC7
:10483000012181400C4802688A43026000BD00B536
:10484000FFF7C6FE074931F8100000BD00B5FFF7BD
:10485000BFFE044931F81000C04380B200BD000023
:104860000000FEBFEC30012030380240FE4A014615
:10487000904200D10020FD4A914200D10120FC4A23
:10488000914200D10220FB4A914200D10420FA4A11
:10489000914200D10520F94A914200D1062070478B
:1048A00070471CB50822032140B101280DD0032810
:1048B00003D10821F148FFF7F3FF1CBDCDE9001239
:1048C00001230022C021EE4806E0CDE900120123B9
:1048D00000224FF48441EB48FFF7DBFE1CBD7CB5A2
:1048E00030B1032803D10821E348FFF7D9FF7CBD8D
:1048F00008250324012300221903E148CDE90045DE
:10490000FFF7C7FE012300220421DF48CDE900455F
:10491000FFF7BFFE7CBD1CB50822032140B1012872
:104920000DD0032803D10821D248FFF7B9FF1CBDE1
:10493000CDE90012012300220321D44806E0CDE98D
:104940000012012300224FF44061CD48FFF7A1FE81
:104950001CBD1CB507220323990250B101280ED0BB
:10496000022812D0032803D10721C148FFF798FF7E
:104970001CBDCDE9003201230022C5480CE0CDE981
:10498000003201230022BE4806E0CDE900320123B7
:1049900000224FF44071BC48FFF77BFE1CBD1CB5E4
:1049A0000722032140B101280DD0032803D107219C
:1049B000AE48FFF775FF1CBDCDE9001201230022B0
:1049C0000C21B24805E0CDE900120123002260214C
:1049D000AD48FFF75EFE1CBD1CB50722032140B1A8
:1049E00001280ED0032803D107219F48FFF758FF65
:1049F0001CBDCDE90012012300224FF4C061A34881
:104A000005E0CDE9001201230022C021A048FFF7F4
:104A100040FE1CBD944A0146904200D19D48934AF5
:104A2000914201D19B481030914A914201D199485D
:104A30002030904A914201D1964830308E4A9142BE
:104A400001D1944840308D4A914201D19148503073
:104A500070472DE9FF4F87B09A46DDE914B9134638
:104A60000446DDF85C80FFF7D5FF05467E488A4F97
:104A70000193844209D1386840F0100038600898EA
:104A8000FFF7AAFF25208DF80000834E7748361FD8
:104A9000844209D1306840F4003030600898FFF754
:104AA0007EFF26208DF800007148844209D13068CD
:104AB00040F4802030600898FFF74BFF27208DF8E6
:104AC00000006C48844209D1306840F40020306016
:104AD0000898FFF720FF34208DF8000066488442D4
:104AE00009D1306840F4801030600898FFF7F7FE75
:104AF00035208DF800006148844209D1386840F0C3
:104B0000200038600898FFF7CCFE47208DF80000A1
:104B10002046FCF777FE01268DF8036006208DF80D
:104B200001002046FFF7A2FE8DF802006846FCF760
:104B3000DAFD1698ADF80A00ADF80EB0ADF810A089
:104B4000ADF80C90ADF808800020287340F6FF7097
:104B50000590411E059101D30846FAE701A92046B8
:104B6000FCF789FEA08940F02000A0812E73A08967
:104B700040F40050A0810BB0BDE8F08F2DE9FF415B
:104B80000446394800250C2617468846844206D13B
:104B9000CDE90065029500230395FFF75AFF3348DE
:104BA000844208D1CDE90065029500233A4641468A
:104BB0000395FFF74EFF2E48844208D1CDE90065EA
:104BC000029500233A4641460395FFF742FF2948E4
:104BD000844208D1CDE90065029500233A4641465A
:104BE0000395FFF736FF2448844208D1CDE90065DC
:104BF000029500233A4641460395FFF72AFF1F48D6
:104C0000844208D1CDE90065029500233A46414629
:104C10000395FFF71EFFBDE8FF812DE9FF4704461E
:104C2000114800250C261F4690468946844205D12E
:104C3000CDE9006502950395FFF70BFF0B48844211
:104C400008D1CDE9006502953B46424649460395A9
:104C5000FFF7FFFE0648844223D1CDE900650295A7
:104C60003B464246494619E00010014000440040DE
:104C700000480040004C004000500040001401403B
:104C80000008024000180240000C024000000240F0
:104C9000000402404C010020443802400395FFF715
:104CA000D8FE9448844208D1CDE9006502953B4680
:104CB000424649460395FFF7CCFE8F48844208D10F
:104CC000CDE9006502953B46424649460395FFF70C
:104CD000C0FE8A48844208D1CDE9006502953B4672
:104CE000424649460395FFF7B4FEBDE8FF8710B57D
:104CF0000023FFF78FFEC18819B902894489A242B7
:104D00000DD0428983889A4201D1002242810368F2
:104D100092B29B56521C428109B1491EC180D8B241
:104D200010BD10B50C46FFF775FEC38842890DE033
:104D30008188914200D100220168895CA14201D1A1
:104D4000012010BD521C5B1E92B29BB2002BEFD112
:104D5000002010BDF0B516460F4684460024FFF72C
:104D600059FE0546C08840B1697B6046FFF7D9FF10
:104D700078B9E888A98888420BD00020F0BD604649
:104D8000FFF7B5FF3855697B884205D0641CA4B293
:104D900000E0761EB442F2DB0021641CA0B239545C
:104DA000F0BD00B5FFF736FEC18829B901894089F9
:104DB000814201D1012000BD002000BD00B5FFF7F8
:104DC00029FEC1888088814201D1012000BD0020D8
:104DD00000BD00B5FFF71EFE0021C18001814181A9
:104DE00000BD00B50B46FFF715FE437300BD10B5BF
:104DF0000C460346FFF70EFE007B00280BD007E0B1
:104E000019880906FCD59880641C18880006FCD512
:104E100020780028F4D110BD70B515460E46044622
:104E2000FFF7F8FD007B00280DD0002309E0208863
:104E30000006FCD5F05CA08020880006FCD55B1C39
:104E40009BB2AB42F3D370BDC388828893420DD22C
:104E50000389934201D10022028103890268D1545F
:104E60000189491C0181C188491CC18070472448BF
:104E70000188890603D58088C1B22248E4E77047DB
:104E800021480088800606D51F48001D0088C1B251
:104E90001C481030D8E770471C4810B500888006C1
:104EA00005D51A48001D0088C0B2FBF7A5FE10BD4D
:104EB00010480088800606D50E48001D0088C1B243
:104EC00010483030C0E770470B480188890604D588
:104ED0008088C1B20B484030B6E770470748008869
:104EE000800606D50548001D0088C1B2054850302F
:104EF000AAE77047004C00400050004000140140F9
:104F0000001001404C0100200044004000480040D7
:104F100070B52B4B002211461C68A40004D51C68F8
:104F2000012244F080741C60264B45F255541C60ED
:104F30000B2801D3072400E003245C6000B30128A0
:104F400020D0022820D0032820D0042820D00528F3
:104F500020D0062820D0072820D040F2FF3408288F
:104F60001FD040F2FF7509281DD040F6FF760A28B1
:104F70001BD00B2815D00C2815D00D2815D015E006
:104F8000052113E00A2111E00F210FE01F210DE0A0
:104F90003D210BE07B2109E0FF2107E040F2FF11FA
:104FA00004E0214602E0294600E0314699604AF6D5
:104FB000AA2018604CF6CC401860104670BD000066
:104FC00074380240003000402DE9FE4F16468346FB
:104FD0000C004FF0010A02D0601E014212D00025E1
:104FE000574607FA05F0204205D081B232465846AE
:104FF000FFF7EAFFB8BB6D1CEDB2102DF1D3002016
:10500000BDE8FE8FDFF8F082D8F80000204234D1EE
:1050100008F10409D9F8000020422ED1B4F5807FB0
:1050200037D012DC102C32D008DC012C27D0022C17
:1050300027D0042C27D0082C1FD126E0202C28D0E4
:10504000402C26D0802C18D123E0B4F5805F22D0EC
:105050000ADCB4F5007F1CD0B4F5806F1BD0B4F52A
:10506000006F0AD117E008E0B4F5005F13D0B4F583
:10507000804F10D0B4F5004F0DD00120C0E70625B9
:105080000AE0072508E0082506E0092504E00A25CE
:1050900002E0172500E02825012E51D0F6B30020AC
:1050A0000021CDE900010B460A4621465846FFF78C
:1050B000DFFA2046FFF7B0FBC7B25846FFF788FA81
:1050C000C2B28E48016841F4804101608C4827F0EB
:1050D00003010844D0F80838B907090F4FF00F0C46
:1050E0000CFA01FC23EA0C03C0F80838D0F80838A1
:1050F0008A401343C0F80838D8F80010A143C8F814
:105100000010D9F80020A243C9F80020D8F80010F8
:105110002143C8F8001078480C3000E012E0016824
:10512000A1430160011F0A68A2430A60012E0BD04F
:1051300016B102682243026008682043086006E056
:105140000120ADE70220ABE70168214301608DF843
:1051500008500A208DF809008DF80A708DF80BA010
:1051600002A8FCF7C0FA4AE763490A6882430A606A
:10517000091D0A6882430A605F490C310A6882434C
:105180000A60091F0A6882430A60002070475A4873
:1051900001686FF30F010160001D01686FF30F01DB
:1051A000016055480C3001686FF30F010160001F6A
:1051B00001686FF30F0101604F48143001686FF30D
:1051C0000F01016070474C4810B514300168C907E1
:1051D00004D0012101600846FBF756FD10BD46488A
:1051E00010B514300168890704D502210160084612
:1051F000FBF74AFD10BD404810B51430016849075F
:1052000004D5042101600846FBF73EFD10BD3A4875
:1052100010B514300168090704D50821016008465B
:10522000FBF732FD10BD344810B514300168C906D3
:1052300004D5102101600846FBF726FD10BD10B50E
:105240002D4C14342068800603D520202060FBF705
:105250001BFD2068400603D540202060FBF714FDAD
:105260002068000603D580202060FBF70DFD206834
:10527000C00504D54FF480702060FBF705FD206861
:10528000800504D54FF400702060FBF7FDFC10BDD5
:1052900010B5194C14342068400503D52015206042
:1052A000FBF7F2FC2068000504D54FF40060206095
:1052B000FBF7EAFC2068C00404D54FF4805020605E
:1052C000FBF7E2FC2068800404D54FF40050206016
:1052D000FBF7DAFC2068400404D54FF480402060DE
:1052E000FBF7D2FC2068000404D54FF40040206096
:1052F000FBF7CAFC10BD0000003C014044380240EE
:105300000030014030B50D462DED028B83B06A466A
:1053100001A902F0F1FA00281CD1009CA069A17833
:10532000801E484306F039F89FED4F8B53EC182B45
:1053300006F046F806F004F82860A0780199484382
:1053400006F02BF853EC182B06F03AF805F0F8FFAE
:105350006860002003B0BDEC028B30BD7CB50C460C
:1053600005466A4601A942A002F0C6FA00280CD1FF
:10537000009881698278891E5143490829608078A4
:10538000019948434008206000207CBD7CB50C4654
:1053900005466A4601A937A002F0AEFA00280CD1F2
:1053A000009881698278891E514349082960807874
:1053B000019948434008206000207CBD2DE9F0475A
:1053C0008246C068C2B0A0EB01040D1E4FF000077A
:1053D000A14610D078B14FF48078854232D90021AF
:1053E000504602F011F9002802D1504602F0E4FACA
:1053F00042B0BDE8F0870020FAE74646B44200D844
:1054000026462946504602F0FFF80028F0D140AB6E
:1054100032466946504601F06AFE0028E8D1394616
:10542000504602F0F1F80028E2D141AB324669461D
:10543000504601F0F9FE0028DAD14098A41B05443B
:1054400041980744002CD8D14946504602F0DCF878
:105450000028CDD1504602F0AFFA0021504602F0AC
:10546000D3F8C5E701207047000000000000E03FCE
:10547000303A0000313A00002DE9F34F81B090F846
:105480000690DDF808C090F800A006794579447AC6
:10549000037AC279BCF1010F23D0DC4662F31F61AD
:1054A0006AF3070C63F3070765F30F21E34664F320
:1054B0000F2766F30701CC46C7F3072A6CF31741A1
:1054C000BAF1630F7ED8FFB25FEA070E7AD0BEF161
:1054D0000C0F77D80F0E00977ED05FEA8A7747D0FF
:1054E0004FE04FEA121C02F00F080CEB8C0C08EB9B
:1054F0004C0C6CF31F614FEA131C03F00F080CEB0C
:105500008C0C08EB4C0C6CF307074FEA141C04F0EE
:105510000F080CEB8C0C08EB4C0C6CF30F274FEACC
:10552000151C05F00F080CEB8C0C08EB4C0C6CF305
:105530000F214FEA161C06F00F080CEB8C0C08EB41
:105540004C0C6CF307014FEA1A1C0AF00F080CEB25
:105550008C0C08EB4C08DC4668F3070CE3464FEA7A
:10556000191C09F00F080CEB8C0C08EB4C0CA3E792
:105570000AF5FA674FF0640CB7FBFCF80CFB1877E0
:105580006FBB0AF5FA674FF4C87CB7FBFCF80CFB5D
:10559000187727B3002707EB47074FF0FF3CDFF8EA
:1055A00028840CEB870C0EEB080717F80CC0009F43
:1055B000BC4511D3C1F30727172F0DD8CFB23B2F0E
:1055C0000AD800E008E00BF0FF073B2F04D8C1F336
:1055D000074109B1072904D90120BDE8FE8F012741
:1055E000D9E7F94914390D704E7000788870081D9C
:1055F000002182704370C47080F80090F34801600D
:105600001F21416040F2FF318160FCF79EFD02984E
:10561000ED490128A1F1140112D00020FCF7F9FD99
:10562000E94900201039FCF76EFEE7481838006899
:1056300020B144F221311320FDF74AF90020CCE7D4
:105640000120FCF7E6FDE04910390120EBE710B539
:1056500010B101280BD016E00120FBF7B9FE612044
:10566000FBF772FE0028FAD04FF4007009E0012029
:10567000FBF7A2FE4120FBF767FE0028FAD04FF4AB
:105680008070FBF744FF0120FBF756FFFCF7C2FCDC
:10569000BDE8104041F234211320FDF719B9F0B5EF
:1056A000427A002340F2B27102F5FA628A4201D2D4
:1056B0000020F0BD6425AE004FF4B77740F26D1CBA
:1056C0000FE08C0704D1B1FBF5F405FB14147CB991
:1056D000B1FBF6F406FB141454B16446491C234490
:1056E00089B29142EDD30121DFF8DCC2077A18E0DC
:1056F0003C46F3E7940704D1B2FBF5F405FB142410
:105700002CBBB2FBF6F406FB142404B3002404EB18
:1057100044040CEB84040C44491C14F8014C89B279
:1057200023448F42E6D8C1795B1ECA18A8494A4370
:105730004179C1EB4113C3EB012102EB0112017965
:105740000078C1EB011102EB81010844F0BD012496
:10575000DDE770B50D009C490446A1F1140122D08B
:105760000120FCF7A6FD9848143801786171417852
:1057700021718078207097480068934960801039C3
:105780009DB10120FCF70DFE8F481038C178617281
:10579000417821728178E1710078A0712046FFF78D
:1057A0007EFFE06070BD0020DBE70020EAE72DE926
:1057B000FF47074601210807FBF7E8FE0120FDF738
:1057C0005BF91320FDF78CF87F4D44F22131DFF8AF
:1057D0000882183D4FF480494FF48004884210D16C
:1057E000296013E0FCF716FC4846FDF712F9C8F8EB
:1057F000004000216846FFF7ACFF286804B0BDE810
:10580000F08741F23426B04206D12E60002FE9D154
:105810000020FFF71CFFE5E7002438462C60FFF767
:1058200016FF01208DF807008DF806008DF808009E
:105830008DF805408DF809408DF804408DF8004042
:1058400000216846FFF718FE00202E60D6E77FB5DE
:1058500000210B468DF807106FF02F020AE09DF82B
:105860000750491C05EB850502EB45052C448DF8D6
:105870000740C9B2445CA4F13005092DEFD9491C99
:10588000C9B28DF808300AE09DF80850491C05EBB4
:10589000850502EB45052C448DF80840C9B2445CEF
:1058A000A4F13005092DEFD9491CC9B28DF8093092
:1058B0000AE09DF80950491C05EB850502EB4505FA
:1058C0002C448DF80940C9B2445CA4F13005092D7F
:1058D000EFD9491CC9B28DF806300AE09DF8065090
:1058E000491C05EB850502EB45052C448DF8064067
:1058F000C9B2445CA4F13005092DEFD9491CC9B2E5
:105900008DF805300AE09DF80550491C05EB85052A
:1059100002EB45052C448DF80540C9B2445CA4F166
:105920003005092DEFD9491CC9B28DF804300AE0C1
:105930009DF80450491C05EB850502EB45052C44F8
:105940008DF80440C9B2445CA4F13005092DEFD9AB
:10595000491CC9B28DF800300AE09DF80040491C8E
:1059600004EB840402EB440423448DF80030C9B2F4
:10597000435CA3F13004092CEFD900216846FFF7FE
:105980007BFD04B070BD08B10C2801D90020704720
:105990008A0701F5FA6105D16422B1FBF2F302FB3B
:1059A0001312DAB94FF4C872B1FBF2F302FB131110
:1059B000A1B10021044A01EB410102EB810108443D
:1059C00010F8010C70470000C4010020C431012010
:1059D0008051010028280040143C01400121E9E7E2
:1059E000810700F5FA6005D16421B0FBF1F201FBFB
:1059F000120149B94FF4C871B0FBF1F201FB12007A
:105A000010B140F26D10DDE74FF4B770DAE72DE921
:105A1000F0470446D3484FF48008C0F800800020C7
:105A2000FCF7E1FD4FF4804A00215046FCF7A5FF4A
:105A3000DFF834930321002689F80010042189F847
:105A4000011089F8026089F803604846FBF74BFEB5
:105A500009F104070820C7F800803E717871BE7113
:105A60003846FBF7EDFB002C4BD0012689F803608C
:105A7000381FFBF738FEBE713846FBF7E1FB00200C
:105A8000FCF7B1FD012C12D0022C12D0032C12D045
:105A9000042C13D0052C14D0062C15D0072C16D0AE
:105AA000082C17D0092C18D00A2C19D01AE0AF4DA9
:105AB00018E0AF4D16E04EF6FF7513E049F6FF759E
:105AC00010E044F6FF750DE041F6FF750AE040F680
:105AD000FF7507E040F2FF7504E040F2FF3501E09A
